:100000000C94D9000C9401010C9401010C94010191
:100010000C9401010C9401010C9401010C94010158
:100020000C9401010C9401010C94620F0C94D10FFB
:100030000C9401010C9401010C9401010C94010138
:100040000C9401010C9401010C9401010C94010128
:100050000C9401010C9401010C9401010C94031205
:100060000C9401010C9401010C9401010C94010108
:100070000C9401010C9401010C9401010C940101F8
:100080000C9401010C9401010C9401010C940101E8
:100090000C9401010C9401010C9401010C940101D8
:1000A0000C9401010C9401010C940101000000006A
:1000B000240027002A002D0030000000000023004B
:1000C000260029002C002F00080B0002020200006D
:1000D00009040000010202000005240010010524AB
:1000E000010101042402060524060001070581031D
:1000F00010004009040100020A0000000705020286
:1001000040000007058302400000040309041201B7
:100110000002EF020140353F7A4500010102030170
:10012000417574686F72004D552D50616E656C415C
:100130007065782D583100070605040100080A0B88
:100140000C0D090000000200090F0000030401006B
:100150000C00000000000000000000000000000093
:1001600000000408020110408040102040804080C0
:10017000080204018040201002011080102040403D
:100180002000000000250028002B002E0031000474
:10019000040404040304050202020204030202022E
:1001A0000206060606060604040202020404801281
:1001B0003F1D11241FBECFEFDAE0DEBFCDBF12E03E
:1001C000A0E0B1E0EAE6F0E402C005900D92A034B0
:1001D000B107D9F725E0A0E4B2E001C01D92AD3F20
:1001E000B207E1F710E0C8EDD0E004C02197FE01AE
:1001F0000E94131EC73DD107C9F70E94ED140C944D
:1002000028200C940000CF93DF93E0919305F091A8
:1002100094058E179F0708F05AC030919905332333
:1002200061F0639FB0011124672F349FA001112456
:10023000452F329F90011124232FE0919F05A0911B
:100240009A05B0919B0530919C05E31343C0FC01D6
:10025000EE0FFF1F8E0F9F1F8A0F9B1FC0919C05E3
:10026000C80FD92FD11DE881E627A091A405B09130
:10027000A505AE0FB11DB093A505A093A405E0910F
:100280009D05E80FF92FF11DE081E427EA0FFB2F10
:10029000F11DF093A505E093A405A0919E05A80F7C
:1002A000B92FB11D3C913227E30FF11DF093A50545
:1002B000E093A4056883E0919D05E80FF92FF11DF7
:1002C000408330919E05830F911DFC012083DF91B7
:1002D000CF910895880F991F880F991F8A0F9B1F30
:1002E000E80FF92FF11D1082B9CFCF92DF92EF9274
:1002F000FF920F931F93CF93DF93D901E8016A0117
:10030000F9014217530714F06901FA01882309F42F
:1003100040C0CB016C157D050CF4C6019F018E1702
:100320009F070CF49C01A417B50734F4CF01821B7E
:10033000930B9C012C0D3D1D0D2C000CEE08FF08AD
:10034000032E000C440B550B2C193D094E095F0977
:10035000AEEFBFEF0E948C1D9F01FF0F440B550BAA
:100360002C193D094E095F090E946D1DDA01C90172
:100370008F5F9F47A109B1098883998382E090E04C
:10038000DF91CF911F910F91FF90EF90DF90CF9071
:10039000089590E080E0F4CFFC01809172038823FF
:1003A00011F13FB7F89482E08093E9002091F200C8
:1003B000822F90E01816190614F481E090E088234B
:1003C00039F0289844E6409371034091F10040834E
:1003D000222339F02091F200211103C02BE6209353
:1003E000E8003FBF08958FEF9FEF0895409170029E
:1003F0005091710220916E0230916F0242175307A3
:10040000B4F49091E8009570E1F39091E80092FDCA
:1004100019C08093F1008091700290917102019651
:100420008F739927892B19F48EEF8093E8008091C0
:100430007002909171020196909371028093700204
:1004400081E0089580E00895DF92EF92FF920F938C
:100450001F93CF93DF93D82E8A01EB017B01E40E2B
:10046000F51ECE15DF0559F0D7FE12C0FE018491AE
:100470000E94F60121968111F4CF0FEF1FEFC80102
:10048000DF91CF911F910F91FF90EF90DF90089532
:100490008881EECF2FB7F89487708093E900909110
:1004A000E800892F807295FF04C09091F20080E4EB
:1004B000891B2FBF0895615030F02091F100FC019D
:1004C00020830196F8CF289884E6809371030895DD
:1004D0008091660281110DC082E08093620284E007
:1004E00080936302109265021092640281E080930F
:1004F000660282E692E008950F931F93CF93DF93F5
:100500001F92CDB7DEB782E0898342E450E068EC09
:1005100070E080E80E9424020E946802DC011296CA
:100520000D911C910115110589F0D801ED91FC91F7
:100530000280F381E02DBE016F5F7F4FC8010995F6
:1005400097FD04C0F80100851185ECCF89810F90DB
:10055000DF91CF911F910F910895CF93DF931F9259
:10056000CDB7DEB76983DC01ED91FC910280F381A8
:10057000E02D41E050E0BE016F5F7F4F09950F9085
:10058000DF91CF91089583E08093E9008091F2009C
:10059000882319F08AE38093E800089583E00E949D
:1005A0004A0290E00895CF93DF931F92CDB7DEB754
:1005B000FC018485958597FD08C02FEF3FEF3587B7
:1005C00024870F90DF91CF910895CE0101960E946C
:1005D000CC01019719F4898190E0F3CF8FEF9FEF61
:1005E000F0CF0F931F93CF93DF931F92CDB7DEB75A
:1005F0008C01FC018485958597FF0BC0CE01019687
:100600000E94CC01019771F4898190E0F8019587EF
:100610008487F801848595850F90DF91CF911F9194
:100620000F9108958FEF9FEFF1CFFC0184859585A1
:1006300097FD0BC09FB7F89482E08093E90080910A
:10064000F2009FBF90E0019608959FB7F89482E072
:100650008093E9008091F2009FBF90E0089581505F
:100660008F3008F047C0E82FF0E0E75CFC4F0C94B7
:10067000131E56035A0348034E0352037A037A03A8
:100680007A035D03630367036B0371037A037503E6
:10069000809180008F778093800008958091800002
:1006A0008F7DF9CF80918000877FF5CF84B58F77DC
:1006B00084BD089584B58F7DFBCF809190008F77A6
:1006C000809390000895809190008F7DF9CF809164
:1006D0009000877FF5CF8091C0008F778093C00016
:1006E00008958091C0008F7DF9CF8091C200877FEF
:1006F0008093C2000895CF93DF93282F30E0F90153
:10070000ED5BFE4F8491F901EE59FE4FD491F90152
:10071000E157FE4FC491CC2391F081110E942F0329
:10072000EC2FF0E0EE0FFF1FEF57FE4FA591B491B5
:100730008FB7F894EC91D095DE23DC938FBFDF91D7
:10074000CF910895CF93DF93282F30E0F901ED5B2F
:10075000FE4F8491F901EE59FE4FD491F901E15712
:10076000FE4FC491CC23A1F081110E942F03EC2FE6
:10077000F0E0EE0FFF1FE654FF4FA591B491EC910E
:10078000ED2381E090E009F480E0DF91CF910895BE
:1007900080E090E0FACFCF93DF9390E0FC01EE5938
:1007A000FE4F249181579E4FFC0184918823C9F00C
:1007B00090E0880F991FFC01E455FF4FA591B4917B
:1007C000FC01EF57FE4FC591D49161110DC09FB749
:1007D000F8948C91209582238C93888128232883F8
:1007E0009FBFDF91CF910895623051F49FB7F89485
:1007F0003C91822F809583238C93E8812E2BEFCF21
:100800008FB7F894EC912E2B2C938FBFEACF3FB784
:10081000F89480915E0290915F02A0916002B09185
:10082000610226B5A89B05C02F3F19F00196A11DB6
:10083000B11D3FBFBA2FA92F982F8827BC01CD012A
:10084000620F711D811D911D42E0660F771F881F89
:10085000991F4A95D1F708950F931F93CF93DF9374
:10086000CDB7DEB729970FB6F894DEBF0FBECDBF68
:100870001092A5051092A4050E9407040091A005FE
:100880001091A1052091A2053091A3056017710771
:100890008207930740F46093A0057093A1058093AD
:1008A000A2059093A3050091A0051091A1052091A8
:1008B000A2053091A305601B710B820B930B6C3268
:1008C000714081059105C0F2F89480919505909151
:1008D00096059A838983E0919A05F0919B05DF0143
:1008E00011968081898790919105E091A605F091FC
:1008F000A7058091A805992309F445C09081982BFC
:1009000098879081809589238F838F818C8388E05D
:100910008B8358856F8149853B812C8189819A81A0
:10092000508347FD252F3A952083262F39F0441F09
:1009300000C000006083000000C0F2CF38E04D919D
:1009400060830000019761F7F093A705E093A60587
:1009500049873B832C839A83898378940E94070478
:100960006093A0057093A1058093A2059093A305C1
:1009700029960FB6F894DEBF0FBECDBFDF91CF91A1
:100980001F910F9108959081982B98879081809561
:1009900089238F838F818E8388E08D8358856F8133
:1009A00049853D812E8189819A81508347FD252F7C
:1009B00000C000C0208300C000C000C000C000C054
:1009C00060830000262F3A9541F0441F000000C0CC
:1009D00000C000C000C000C0E8CF38E04D9100C0AA
:1009E000608300C0019709F7F093A705E093A6057F
:1009F00049873D832E83AFCF8F929F92AF92BF9254
:100A0000CF92DF92EF92FF924B015C010E940704AC
:100A10006B017C010E9407046C197D098E099F09F6
:100A2000683E734081059105A8F321E0821A910880
:100A3000A108B10888EEC80E83E0D81EE11CF11CA5
:100A400081149104A104B10429F7FF90EF90DF9085
:100A5000CF90BF90AF909F908F9008957F928F928C
:100A60009F92AF92BF92CF92DF92EF92FF920F933D
:100A70001F93CF93DF93C82E8B017A01809172036D
:100A8000811110C08FEF9FEFDF91CF911F910F91D8
:100A9000FF90EF90DF90CF90BF90AF909F908F909E
:100AA0007F9008958091740280FF05C08091E000DE
:100AB00082608093E000CE2DDF2DD12C8AEFB82EFE
:100AC0008C2D8770982E8C2D8072882E8C2D8074A2
:100AD000782E9AE3A92E209719F4DD2009F452C04C
:100AE0008C2D0E944A0281110AC0BA94BB2051F297
:100AF00061E070E080E090E00E94FC04ECCF8C1795
:100B00001D0611F00CF08C2F9FB7F8949092E9001D
:100B10002091E80025FD02C09FBFDDCF282F30E0E7
:100B2000C21BD30B882029F08150A0F01092F10055
:100B3000FBCFF801C7FC0AC0815050F041914093AF
:100B4000F100FACF44914093F10031968150D0F7F3
:100B5000020F131FDD2021F0A092E800D12CDCCF82
:100B60008091E80085FD07C0A092E800DD24D394C1
:100B7000209791F2F3CF209779F6772069F2A0922F
:100B8000E800CACF5D9884E680937302C7017CCFEA
:100B9000CF93DF93EC0180911201882331F083E041
:100BA0000E942E051816190634F081E090E09B8310
:100BB0008A8380E090E0DF91CF9108952FB7F89479
:100BC00060915A0270915B0280915C0290915D028B
:100BD0002FBF0895DC01FB0112962C91129784819E
:100BE00095812817190641F491818081813A31F469
:100BF0009D7F81E0913009F080E008958132E1F736
:100C00009B3029F482811F968C9381E008959A305D
:100C100099F7828150968C93F8CFDC01FB0188E430
:100C2000808389E4818384E482831D969C911D974F
:100C30009F709F5B93831D968D919C9124E0969568
:100C400087952A95E1F78F708F5B848385E00895FF
:100C5000EF92FF920F931F93CF93DF93FB012081BD
:100C6000213889F52381223271F5DC0112964C91ED
:100C7000248135814217130631F58C01FC01C385AF
:100C8000D485F12CE12C209791F04C815D816A8113
:100C90007B818E81811180E80E9424028F3F98071A
:100CA00059F0E80EF91E0990D881C02DECCF81E0F3
:100CB000D8011F968C93C701DF91CF911F910F919F
:100CC000FF90EF90089590E080E0F6CFCF93DF9310
:100CD000CDB7DEB769970FB6F894DEBF0FBECDBFB4
:100CE000FC01DB018C918F5F8C939E012D5F3F4F48
:100CF0008DE0D9011D928A95E9F729E0298384E0E6
:100D00008A8391E09D8383E08E832A8721E22B876B
:100D10009C879D879F8722E2288B27E02B8B25E0ED
:100D20002C8B8E8B20E430E0388F2F8B998F828133
:100D30008B8395858685998B8A8B838180688D8B43
:100D400049E150E0BE016F5F7F4F80E00E942402C6
:100D500069960FB6F894DEBF0FBECDBFDF91CF917D
:100D60000895CF93DF9380915102811167C081E094
:100D700080934402809345022AE432E03093470294
:100D80002093460210924902109248022FEE31E061
:100D9000309341022093400210924C0210924B0279
:100DA00010924E0210924D0280934F028093500297
:100DB00081EC80934A020E946802FC01818190913B
:100DC0004402482F490F5527551F483051059CF5BF
:100DD000A281B381109709F520E432E033832283A6
:100DE0002081209342028093430280914502820F2A
:100DF000808320914602A22FB09147028A2F821B46
:100E00008917C8F481813D91C82FD0E0C050DF4FD1
:100E100038838F5F8183F2CFD90118962D913C9151
:100E2000199721153105C1F720E432E019963C935A
:100E30002E931897D5CF81E08093510280E492E001
:100E4000DF91CF91089580919A0590919B05892B10
:100E500041F08091A4059091A505892B11F00C9487
:100E60002C0408950F931F9325E3FC012E9FC001CE
:100E70002F9F900D1124E3E4E69F9001E79F300D32
:100E80001124820F931F840F951F60E073E00E946E
:100E9000FF1D8C018F3F910509F0D4F46FEF70E0D6
:100EA000681B790B072E000C880B990BCB01772759
:100EB0006627012E000C220B330B322F212F102F0F
:100EC0000027602B712B822B932B1F910F9108957C
:100ED0008115924094F41A956FEF70E0601B710BCE
:100EE000072E000C880B990B982F872F762F6627DB
:100EF000012E000C220B330BE4CF1250B801012E4F
:100F0000000C880B990BCB01772766272FEF30E079
:100F1000A901401B510B8A01EBCFCF93DF93D0E0A7
:100F2000C0E020E040E060E0CE010E940301219695
:100F3000C432D105B1F7DF91CF910C942307109201
:100F4000640380916503811105C00E948D0781E0D3
:100F50008093650308959F92AF92BF92CF92DF92E4
:100F6000EF92FF920F931F93CF93DF93C82F962E8C
:100F700069017A0110E0409FC001419F900D11244A
:100F8000E4E6F0E0BF010E94FF1D29E1269FC001B9
:100F9000279F900D1124BF010E94FF1DB62EBB2775
:100FA000AF2D9E2D8D2D9927809FA001819F500DE3
:100FB000909F500D1124CA01BF010E94FF1D269F62
:100FC000C001279F900D1124BF010E94FF1DA62E76
:100FD000DD24C09EC001C19E900DD09E900D1124B5
:100FE000BF010E94FF1D269FC001279F900D112465
:100FF000BF010E94FF1D162FD0E0E92CF12CEC164A
:10100000FD0644F0212F4A2D6B2DCE010E940301D5
:101010002196F5CFDF91CF911F910F91FF90EF9027
:10102000DF90CF90BF90AF909F9008950F931F9344
:10103000CF93DF93D82F162F80E0C1E0C80F0D2F7C
:101040002FEF3FEF4FEF50E06C2F0E94AB078C2F3C
:10105000CA3099F7D1E0DC0F012F2FEF3FEF4FEFB0
:1010600050E06D2F8C2F0E94AB07CD2FD43291F71B
:10107000DF91CF911F910F9108950F93CF9380E04F
:10108000C1E0C80F00E020E030E0A9016C2F0E9411
:10109000AB078C2FC432A1F7CF910F910C9423078B
:1010A0008BE395E00E941503892BD1F38BE395E048
:1010B0000C94D302FC0101900020E9F73197AF01B5
:1010C000481B590BBC018BE395E00C94C805CF93EA
:1010D000DF93EC0180918B0590918C05009759F07E
:1010E00020918D0530918E052C173D0720F081E071
:1010F000DF91CF910895BE016F5F7F4F0E94521F15
:10110000009789F090938C0580938B05D0938E0582
:10111000C0938D0520918F0530919005232B39F7D1
:10112000FC011082E4CF80E0E3CF0F931F93CF93B5
:10113000DF9300D0CDB7DEB789831A8200918F0587
:10114000109190050F5F1F4FC8010E946708882308
:10115000A1F020918B0530918C0580918F059091A5
:101160009005BE016F5F7F4F820F931F0E94212069
:101170001093900500938F0581E00F900F90DF9101
:10118000CF911F910F9108958F929F92AF92BF922E
:10119000CF92DF92EF92FF920F931F93CF93DF9343
:1011A000CDB7DEB7ADB6BEB68091F8052DB73EB768
:1011B000281B31090FB6F8943EBF0FBE2DBF8DB767
:1011C0009EB701966C01E090C705F12C8091C30594
:1011D0009091C405D601FC019F01281B390B2E15E7
:1011E0003F051CF421912D93F7CF8091C8058823EA
:1011F00059F18091BF059091C00528E097FD09C085
:1012000068E671E00E94FF1D6DE270E00E94FF1D24
:10121000262F8091C1059091C20568E097FD08C016
:1012200068E671E00E94FF1D6DE270E00E94FF1D04
:10123000F601EE0DFF1D90E1699FB0011124262BF0
:101240002083F70131967F0186010E0D1F1D20912D
:10125000CD053091CE054091CB055091CC056091E4
:10126000A9057091AA058091C90581700E94750138
:10127000E80EF91E86010E0D1F1D2091D10530913B
:10128000D2054091CF055091D0056091AB0570918A
:10129000AC058091C905869581700E947501E80EA4
:1012A000F91E86010E0D1F1D2091D5053091D60522
:1012B0004091D3055091D4056091AD057091AE0574
:1012C0008091C90582FB882780F90E947501E80E8C
:1012D000F91E86010E0D1F1D2091D9053091DA05EA
:1012E0004091D7055091D8056091AF057091B00538
:1012F0008091C90583FB882780F90E947501E80E5B
:10130000F91E86010E0D1F1D2091DD053091DE05B1
:101310004091DB055091DC056091B1057091B205FB
:101320008091C905829581700E947501E80EF91EB1
:1013300086010E0D1F1D2091E1053091E2054091BF
:10134000DF055091E0056091B3057091B40580917F
:10135000C90585FB882780F90E947501E80EF91EF2
:1013600086010E0D1F1D2091E5053091E605409187
:10137000E3055091E4056091B7057091B80580913F
:10138000CA0581700E947501E80EF91E86010E0DD6
:101390001F1D2091E9053091EA054091E705509124
:1013A000E8056091B5057091B6058091CA058695EE
:1013B00081700E947501E80EF91E86010E0D1F1D39
:1013C0002091ED053091EE054091EB055091EC0533
:1013D0006091B9057091BA058091CA0582FB882792
:1013E00080F90E947501E80EF91E86010E0D1F1D81
:1013F0002091F1053091F2054091EF055091F005F3
:101400006091BB057091BC058091CA0583FB88275C
:1014100080F90E9475018E0D9F1D8601080F191F0E
:101420002091F5053091F6054091F3055091F405B2
:101430006091BD057091BE058091CA05829581704D
:101440000E9475010E94B1064C014091F8058091FF
:10145000F70550E07A01FFEFEF1AFF0A2DB73EB70C
:101460002E193F090FB6F8943EBF0FBE2DBF0DB722
:101470001EB70F5F1F4FEDB7FEB78183B601C801DE
:1014800001960E940F20F4018381A701B8018064B6
:101490000E942E050FB6F894BEBE0FBEADBEDF9102
:1014A000CF911F910F91FF90EF90DF90CF90BF9061
:1014B000AF909F908F900895E82FE695E695E6957A
:1014C0002091C3053091C405E20FF32FF11D282FA1
:1014D000277081E090E0A0E0B0E004C0880F991F81
:1014E000AA1FBB1F2A95D2F72081822B808380916F
:1014F000C50581110C94C40808959091C6058917FB
:1015000008F5E82FE695E695E6952091C30530911C
:10151000C405E20FF32FF11D282F277081E090E022
:10152000A0E0B0E004C0880F991FAA1FBB1F2A9536
:10153000D2F780959081892380838091C5058111A0
:101540000C94C4080895611102C00C947D0A909116
:10155000C605891710F40C945C0A08958F929F9227
:10156000AF92BF92CF92DF92EF92FF920F931F93B1
:101570008150615070E0482F50E007E0809F90015B
:101580001124F901EB55FE4FE60FF71F8081F90199
:10159000E557FB4FE60FF71F9081C0903505D090BF
:1015A0003605E0903705F0903805D901A951BB4FB9
:1015B000A60FB71FEC91E91701F1F901E60FF71F2C
:1015C000EE0FFF1FEE0FFF1FED58FC4F8080918044
:1015D000A280B38097018601081919092A093B09DD
:1015E000480159011AE181169104A104B10428F0BF
:1015F000C082D182E282F3829C93E7E0E49F900173
:10160000E59F300D1124F901E60FF71FEE0FFF1FC4
:10161000EE0FFF1FED58FC4F80809180A280B380B9
:10162000C818D908EA08FB08EAE1CE16D104E1049B
:10163000F10430F029513B4FF901E60FF71F908379
:1016400097E0949F9001959F300D112429513B4FB5
:10165000620F731FFB0160811F910F91FF90EF904C
:10166000DF90CF90BF90AF909F908F900C94A30A83
:101670002F923F924F925F926F927F928F929F92A2
:10168000AF92BF92CF92DF92EF92FF920F931F9390
:10169000CF93DF93CDB7DEB7AA970FB6F894DEBF2E
:1016A0000FBECDBF2C01490119A708A7CAA68C01FE
:1016B000015011099801245F3D4F3A8F298FD901BC
:1016C000BC91BBA31B01E1E02E1A31089A01215005
:1016D00031093E8F2D8FF801E65FFD4FE081E23149
:1016E00008F0E251F0E0E95CFE4FE49190917B005C
:1016F0008E2F880F880F80729F7D892B80937B00AF
:10170000E770E064E0937C0080917A0080648093CD
:101710007A0080917A00382F3074F32E86FDF9CF4D
:101720008091780060917900762F682F80E190E0B9
:101730009A8389838BE690E09C838B8388EC90E08E
:101740009E838D8383E291E098878F838FE791E07A
:101750009A8789878AED91E09C878B8786E392E060
:101760009E878D8781E992E0988B8F878DEE92E03E
:101770009A8B898B89E493E09C8B8B8B84EA93E032
:101780009E8B8D8B8FEF93E0988F8F8BDE01119660
:1017900050E040E0F0E0E0E030E020E08D919D910D
:1017A000861B970B97FF03C0919581959109211591
:1017B000310519F08E179F071CF44F5F5F4FFC0136
:1017C0002F5F3F4F2C30310549F78CE090E03C0112
:1017D000641A750A7AA269A29801275C3A4F38A365
:1017E0002F8FD9018C91082E000C990BF801EB5129
:1017F000FB4FFC8FEB8F6816790641F14091350560
:101800005091360560913705709138053801660CA6
:10181000771C660C771CF301E35DFA4FA080B18062
:10182000C280D380DB01CA018A199B09AC09BD09BA
:101830008CA39DA3AEA3BFA385369105A105B105D9
:1018400008F427C14083518362837383EB8DFC8D41
:10185000F081FB8F8090350590903605A09037057C
:10186000B0903805F11199C1F801E552FB4F108293
:1018700098012F523B4F7901D9015C905520D1F04E
:10188000F801EE0FFF1FEE0FFF1FED52FB4F80819F
:101890009181A281B381A5019401281B390B4A0BC8
:1018A0005B0BDA01C9017724739486399105A10590
:1018B000B10508F0712C6BA038E1630ED12CC12C5E
:1018C000772051F0AF8DB8A18C91082E000C990BA8
:1018D00061E08C159D0509F060E0862D0E94A30A49
:1018E000BFEFCB1ADB0A6394ECE0CE16D10441F7CC
:1018F000552021F0711002C0D7011C92E98DFA8D9C
:101900008081E9A0FAA0EE0CFF1CE80EF11CF101A9
:10191000E557FB4F8589D101A951BB4F55969C9145
:101920005597B1016B5E7F4F981701F1FB01EE0FE8
:10193000FF1FEE0FFF1FED58FC4F4080518062806B
:101940007380A50194012419350946095709290115
:101950003A013AE1431651046104710438F080827F
:101960009182A282B38255968C935597660F771F0A
:10197000660F771FFB01ED58FC4F4081518162815A
:10198000738124013501441A550A660A770AB301A6
:10199000A2014A3151056105710518F055968C93E5
:1019A000559755966C918E2D0E94A30AED8DFE8D54
:1019B000E557FB4F248DAD8DBE8DA951BB4F5C9675
:1019C0009C915C974D8D5E8D445E5F4F921701F147
:1019D000FA01EE0FFF1FEE0FFF1FED58FC4F408086
:1019E000518062807380C501B4016419750986094C
:1019F00097092B013C017AE14716510461047104F7
:101A000038F080829182A282B3825C962C935C979C
:101A1000440F551F440F551FFA01ED58FC4F4081EC
:101A2000518162817381841A950AA60AB70A8AE1F4
:101A300088169104A104B10418F05C962C935C976D
:101A40005C966C9181E08E0D0E94A30AF801E85F1C
:101A5000FD4F1081812F0E947D0A81E0810FAA969F
:101A60000FB6F894DEBF0FBECDBFDF91CF911F91AF
:101A70000F91FF90EF90DF90CF90BF90AF909F902D
:101A80008F907F906F905F904F903F902F900C942D
:101A90007D0A2CA13DA14EA15FA125313105410553
:101AA000510508F4D3CEAB8DBC8D2C91E8A5F9A5DA
:101AB000E951FB4F8681F401EA51FB4F908191304F
:101AC00009F0E0C18130C1F180E0213009F490E0FB
:101AD000A92EB82E022E000C330B2A153B0561F1FE
:101AE000D12CE98DFA8D90808D2D890D0E947D0A73
:101AF000D394F4E2DF12F8CFF801E85FFD4FD08015
:101B00008D2D0E947D0A81E08D0D0E947D0A8E2D13
:101B10000E947D0A8AA50E947D0AAB8DBC8DAC9285
:101B2000BFE44B0E511CC2010E94571DA81621F0A4
:101B30006A2DC2010E945F1D409135055091360506
:101B40006091370570913805F301E352FB4F4083F4
:101B5000518362837383F801E552FB4FAF8DB8A1C7
:101B60008C91B9A1B81BB08349A0EF8DF8A1408238
:101B7000AB8DBC8D8C91F801EF52FB4F813059F049
:101B8000D301AD52BB4F4D935D936D937C931397EF
:101B900081E080835BCE108259CE9B8DF80191301D
:101BA00009F0EDC0EF52FB4F1082A98DBA8DDC9089
:101BB0008F2D8D0D0E947D0AF394B4E2FB12F8CFB5
:101BC000F101E557FB4F8589D101A951BB4F5596CE
:101BD0009C915597B1016B5E7F4F981701F1FB0106
:101BE000EE0FFF1FEE0FFF1FED58FC4F408051809E
:101BF00062807380A50194012419350946095709AB
:101C000029013A013AE1431651046104710438F0A4
:101C100080829182A282B38255968C935597660FEB
:101C2000771F660F771FFB01ED58FC4F40815181F4
:101C30006281738124013501441A550A660A770AC4
:101C4000B301A2014A3151056105710518F055969D
:101C50008C93559755966C918E2D0E94A30AED8D0D
:101C6000FE8DE557FB4F248DAD8DBE8DA951BB4F29
:101C70005C969C915C974D8D5E8D445E5F4F921794
:101C800001F1FA01EE0FFF1FEE0FFF1FED58FC4FA1
:101C9000408051806280738075016401C418D5084A
:101CA000E608F708260137013AE1431651046104BA
:101CB000710438F080829182A282B3825C962C9368
:101CC0005C97440F551F440F551FFA01ED58FC4F08
:101CD000408151816281738124013501441A550A82
:101CE000660A770AB301A2014A31510561057105FF
:101CF00018F05C962C935C975C966C918AA50E9478
:101D0000A30AF801E85FFD4FF0802B8D213009F028
:101D1000B3C0F801E552FB4F8081082E000C990BEF
:101D2000009709F4B6C0EE24E394EF0C000F111FE6
:101D3000000F111FD801A352BB4F4D915D916D91C2
:101D40007C91841A950AA60AB70A32E38316910495
:101D5000A104B10408F08BC09C012150310924304A
:101D6000310520F08B3F9F4F0CF05FC08091C6057E
:101D7000F81618F48F2D0E945C0A8E2D70CEE55255
:101D8000FB4F1082E98DFA8D5080852D8F0D0E94BA
:101D90007D0AF394F8E1FF12F8CF98012F523B4FE0
:101DA0003901D901CC90CC20D1F0F801EE0FFF1F02
:101DB000EE0FFF1FED52FB4F80819181A281B38115
:101DC000A5019401281B390B4A0B5B0BDA01C901F1
:101DD000DD24D39486399105A105B10508F0D12CF5
:101DE00028E1F22EF50C512C412CDD2051F0AF8D65
:101DF000B8A18C91082E000C990B61E08415950513
:101E000009F060E08F2D0E94A30ABFEF4B1A5B0A16
:101E1000F394ECE04E16510441F7CC2009F4D0CEF7
:101E2000D110CECED3011C92CBCE8F2D0E947D0A35
:101E30008091C605E81668F58E2DAA960FB6F8941F
:101E4000DEBF0FBECDBFDF91CF911F910F91FF90ED
:101E5000EF90DF90CF90BF90AF909F908F907F904A
:101E60006F905F904F903F902F900C945C0A10827F
:101E70008F2D0E947D0A81CF8F2D0E947D0A81E0E7
:101E80008F0DEDCD813009F057CE42E0A42EB12C5C
:101E900021CEAA960FB6F894DEBF0FBECDBFDF915C
:101EA000CF911F910F91FF90EF90DF90CF90BF9057
:101EB000AF909F908F907F906F905F904F903F90EA
:101EC0002F9008951F920F920FB60F9211248F93A7
:101ED0009F938091E1009091E100937F9093E100C6
:101EE00083FF0FC01092E90091E09093EB001092F5
:101EF000EC0092E39093ED001092720398E09093BF
:101F0000F00082FF22C093E09093E9009091F200EC
:101F1000992319F09AE39093E80090917302992322
:101F200041F090917302915090937302911101C00E
:101F30005D9A90917103992341F0909171039150B2
:101F400090937103911101C0289A84FF18C0809169
:101F5000E2008E7E81608093E2008091E1008F7EBE
:101F60008093E100809174028E7E80618093740280
:101F70009F918F910F900FBE0F901F90189580FF2B
:101F8000F7CF8091E2008E7E80618093E2008091A5
:101F9000E1008E7E8093E100809174028E7E8160EC
:101FA000E5CF1F920F920FB60F921124CF92DF92BE
:101FB000EF92FF920F931F932F933F934F935F9353
:101FC0006F937F938F939F93AF93BF93EF93FF9301
:101FD000CF93DF93CDB7DEB76C97DEBFCDBF109246
:101FE000E9008091E80083FF25C068E0CE014596B6
:101FF0000E945B0282EF8093E8008D8987FF39C0E1
:102000009091E80090FFFCCF982F907609F034C1B2
:102010009E894F89588D2F89F88C911131C0803855
:1020200061F5809175028093F1001092F1008EEFBE
:102030008093E8006C960FB6F894DEBF0FBECDBF5C
:10204000DF91CF91FF91EF91BF91AF919F918F91D0
:102050007F916F915F914F913F912F911F910F91C0
:10206000FF90EF90DF90CF900F900FBE0F901F90DA
:1020700018959EEF9093E800C7CF1092F100D5CF4E
:10208000913059F48111D3CF4130510581F68091BF
:1020900075028D7F80937502CACF933049F4811108
:1020A000C6CF4130510519F6809175028260F2CF9A
:1020B000953041F48091E80080FFFCCF20682093A8
:1020C000E300B5CF963009F0A9C00B8D1C8D22E03E
:1020D0001092E9001092710210927002F2122EC05A
:1020E00010926F0210926E020E947C021F8299E091
:1020F0009983FA8291E09E8390EA98879AEF998774
:102100002091700230917102275F3F4F3C832B83F7
:102110008D831092E9001092710210927002109358
:102120006F0200936E0249E050E0BE016F5F7F4F87
:1021300080E00E9424020E947C0279CF10936F02FB
:1021400000936E020E946802DC0112960D911C91B0
:102150000115110509F451C1D801ED91FC910480DC
:10216000F581E02DBE016B5E7F4FC8010995009798
:1021700009F03EC1F80100851185EACFF3E0FF12B6
:102180000EC08F89882309F440C0823061F440E892
:102190006FE087E291E00E944D12811148CF81E209
:1021A0008093EB0047CF813029F440E866E080E27D
:1021B00091E0F1CF833099F70E946802DC0112961A
:1021C000ED90FC908E010F5F1F4F6801E114F10448
:1021D00079F0D701ED91FC910680F781E02DB801EF
:1021E000C7010995080F111DF701E084F184EECFB6
:1021F000D8011C92F60101900020E9F73197BF0148
:102200006C197D0940E0C601C6CF6AE071E0FB01B0
:10221000449150E080E80E94240209CF973009F4ED
:10222000BECF983021F481E08093F10000CF993047
:1022300009F0FDCE837009F0B2CFE1E0F1E081E07A
:1022400031E096E32191222371F08093E9003093ED
:10225000EB00DF0111972C912093EC009093ED009F
:102260008F5F873079F78EE78093EA001092EA005B
:102270008F8980937203DBCE8B8D9C8D1092E90049
:10228000109271021092700290936F0280936E020E
:10229000898D811192C08E899D89913A49F481324C
:1022A00009F07DCF47E050E06BE071E080E0B3CF14
:1022B000913209F074CF833269F48F89988DB0E040
:1022C000A0E08093070190930801A0930901B093C7
:1022D0000A01ADCE803269F48091E80082FFFCCF24
:1022E00067E08BE091E00E945B028BEF8093E80057
:1022F0009ECE823209F09BCE8F8980931201EEEF41
:10230000FFE7859194918B3F9C4D51F1E0E0F8E01F
:1023100080910B0190910C01A0910D01B0910E01E3
:10232000803B9440A105B105F1F48091120180FD3C
:102330001AC0EE3F8AE0F80789F587E797E79183AF
:102340008083809160008093720288E19BE00FB6E9
:10235000F894A895809360000FBE9093600067CEBC
:10236000EEEFFAE0D5CF808191818737974709F06A
:102370005ECEA89580916000886180936000809116
:10238000720280936000EE3F2AE0F20789F08091AC
:10239000FE0A9091FF0A9183808349CE80819181CA
:1023A0008737980751F29093FF0A8093FE0AC5CFB2
:1023B0001092FF0A1092FE0A3ACE0E946802DC01D7
:1023C00012960D911C910115110509F4E8CED80162
:1023D000ED91FC910190F081E02DBE016B5E7F4F8D
:1023E000C8010995811123CEF80100851185EBCF35
:1023F000181619060CF41BCED2CEF1E0FF12BECE99
:102400006EE071E004CF1F920F920FB60F9211246D
:102410002F933F938F939F93AF93BF9380915A02D3
:1024200090915B02A0915C02B0915D0230915902E3
:1024300023E0230F2D3758F50196A11DB11D2093E0
:10244000590280935A0290935B02A0935C02B0936E
:102450005D0280915E0290915F02A0916002B09156
:1024600061020196A11DB11D80935E0290935F02EF
:10247000A0936002B0936102BF91AF919F918F9141
:102480003F912F910F900FBE0F901F90189526E847
:10249000230F0296A11DB11DD2CFEF92FF920F9391
:1024A0001F93CF93DF93F82E192FE62E042F81E090
:1024B000860F880F0E94F60183E00E94F601CF2D5F
:1024C000D12FEC0EFD2EF11CCE15DF05B9F007FF64
:1024D00013C0FE0184910E94F601182F80E00E9433
:1024E000F601812321968111EFCFDF91CF911F91CA
:1024F0000F91FF90EF9008958881EDCF81E0F5CFA7
:10250000EF92FF920F931F93CF93DF93CDB7DEB778
:10251000C659D1090FB6F894DEBF0FBECDBF1092D9
:102520003E0510923D0588EE93E0A0E0B0E0809378
:102530003F0590934005A0934105B093420582E189
:1025400092E090933C0580933B058FEF9FEF909333
:102550004805809347051092C4051092C305109258
:10256000C7051092CC051092CB058FEF93E09093A6
:10257000CE058093CD051092D0051092CF05909393
:10258000D2058093D1051092D4051092D305909373
:10259000D6058093D5051092D8051092D705909353
:1025A000DA058093D9051092DC051092DB05909333
:1025B000DE058093DD051092E0051092DF05909313
:1025C000E2058093E1051092E4051092E3059093F3
:1025D000E6058093E5051092E8051092E7059093D3
:1025E000EA058093E9051092EC051092EB059093B3
:1025F000EE058093ED051092F0051092EF05909393
:10260000F2058093F1051092F4051092F305909372
:10261000F6058093F50543E04093F70528E5209300
:10262000C6051092C8058FE18093C9058AE08093A2
:10263000CA0535E0398391E09A8389E08B8354E0C1
:102640005C8361EA6D839E8355E85F8348873987A1
:102650008A8749E14B879C8749E24D872E8745E170
:102660004F87188A45E2498B9A8BE5E7EB8B9C8B69
:1026700075E97D8B2E8B25E52F8B188E25E6298F0E
:102680001A8E51E85B8F22E02C8F3D8F9E8F8F8FAB
:1026900098A346E1F42EF9A29AA300E80BA316E250
:1026A0001CA3BFEFBDA3AFE7AEA3EFA3F0E1F8A774
:1026B00079A73AA76BA71CA68DA740E34EA78FA7C3
:1026C00041E348AB89AB42E34AAB8BAB43E34CAB52
:1026D0008DAB44E34EAB5FAB28AF40EC49AF3AAFB4
:1026E0002BAFFCAE9DAF0EAF1FAF2196BFAF2197B2
:1026F0002296AFAF22972396EFAF23972496FFAF92
:10270000249725967FAF259726962FAF2697279655
:102710006FAF279728961FAE289729968FAF2997D6
:102720009BEB2A969FAF2A972B968FAF2B9785EC22
:102730002C968FAF2C972D965FAF2D972E962FAF9F
:102740002E972F964FAF2F9760964FAF60978FE4DD
:1027500090E00E942D1E7C018FE4FE013196D7018E
:1027600001900D928A95E1F787E090E00E942D1E7E
:102770008C01DC0111961C921E921396FC92EE9233
:1027800012978FE490E015969C938E93149716966B
:102790001C920E94B106FC01A385B485109709F034
:1027A00073C01487038785859685D80114962D916B
:1027B0003C91820F931F968785879091C605892F3C
:1027C000869586958695977009F066C08093C705B3
:1027D0001091C705812F90E00E942D1E9093C40593
:1027E0008093C30581E09091C805911101C080E0FC
:1027F000125F810F8093F8051092AA051092A90527
:102800001092AC051092AB051092AE051092AD057A
:102810001092B0051092AF051092B2051092B1055A
:102820001092B4051092B3051092B6051092B5053A
:102830001092B8051092B7051092BA051092B9051A
:102840001092BC051092BB051092BE051092BD05FA
:102850008FEF9FEF9093C0058093BF059093C205C3
:102860008093C10590E080E02091C70528171906E4
:10287000A9F0A4F0E091C305F091C405E80FF91F99
:1028800010820196F1CFDC018D919C9111970097F8
:10289000D1F70D931C9387CF8F5F98CF109292053D
:1028A000109299051092A0051092A1051092A20510
:1028B0001092A30581E080939F0580939C05109260
:1028C0009D0592E090939E05809391058CE690E0A3
:1028D00090939605809395050E942D1E90939B05DD
:1028E00080939A05009709F465C02CE6FC011192CB
:1028F0002A95E9F784E290E09093940580939305FC
:1029000082E090E0909398058093970580919205DE
:10291000882339F061E082E00E94CB0382E00E94CC
:102920007B03E1E9F1E0E491F0E0EE0FFF1FEF57E8
:10293000FE4F859194919093A7058093A605E4E6B8
:10294000F1E0E491E093A80510928C0510928B05BC
:1029500010928E0510928D051092900510928F05A1
:1029600090E080E00E94670820918B0530918C05F3
:10297000811129C02115310519F0C9010E94C91E14
:1029800010928C0510928B051092900510928F0575
:1029900010928E0510928D05CA56DF4F0FB6F8942F
:1029A000DEBF0FBECDBFDF91CF911F910F91FF9082
:1029B000EF90089510929605109295051092940547
:1029C000109293059DCF1092900510928F0563E3AE
:1029D00072E0C9010E942120DFCFCF93DF93CDB7F2
:1029E000DEB7C458D1090FB6F894DEBF0FBECDBF15
:1029F000789484B5826084BD84B5816084BD85B5DA
:102A0000826085BD85B5816085BD80916E008160E5
:102A100080936E001092810080918100826080938B
:102A2000810080918100816080938100809180008D
:102A300081608093800080919100826080939100FA
:102A400080919100816080939100809190008160DD
:102A5000809390008091C10084608093C100809138
:102A6000C10082608093C1008091C1008160809329
:102A7000C1008091C30081608093C3008091C00039
:102A800082608093C0008091C20081608093C20008
:102A900080917A00846080937A0080917A008260CD
:102AA00080937A0080917A00816080937A0080918F
:102AB0007A00806880937A001092720310927502F7
:102AC000109274028091D70081608093D70080EAD1
:102AD0008093D80089B5806189BD89B5826089BD40
:102AE00009B400FEFDCF61E070E080E090E00E945C
:102AF000FC048091D8008F7C80618093D800809105
:102B0000E000807F8093E0008091E1008E7E8093E2
:102B1000E1008DE08093E200559A209A8FEF9FEFBD
:102B200090934805809347051092CC051092CB05F1
:102B300088EE93E09093CE058093CD051092E80542
:102B40001092E7059093EA058093E9051092F0054D
:102B50001092EF059093F2058093F10543E753E05F
:102B600030E020E090E080E0D901A557BB4FB901EB
:102B700069517B4FFD01E80FF91F1082FB01E80F3F
:102B8000F91F1082FC01EE0FFF1FEE0FFF1FE40F75
:102B9000F51F1082118212821382019687309105EF
:102BA00049F7445E5F4F295F3F4F26343105D1F628
:102BB000109239051092DB0410922D0510922E050B
:102BC00010922F05109230051092DD041092DE0451
:102BD0001092DF041092E0041092D3041092D404F7
:102BE0001092D5041092D6041092D10410923A0596
:102BF0001092DC04109231051092320510923305C8
:102C0000109234051092E1041092E2041092E30451
:102C10001092E4041092D7041092D8041092D904B0
:102C20001092DA041092D2040EEFE02E01E0F02EA2
:102C300007EF11E0D8018D918D01833619F062E024
:102C40000E94CB03E016F106A9F708E012E0EEEFD0
:102C5000F1E0C158DF4FF983E883CF57D040C15826
:102C6000DF4FA881B981CF57D0408D91C158DF4F38
:102C7000B983A883CF57D040833619F062E00E9411
:102C8000CB03C158DF4FE881F981CF57D0400E17F1
:102C90001F0729F762E08AE00E94CB0362E082E12D
:102CA0000E94CB0310E0812F0E947D0A1F5F183520
:102CB000D1F71092E5041092E60480E590E00E94BE
:102CC000571D833008F4EAC380E08093E50481E572
:102CD00090E00E94571D833008F0E5C381E590E045
:102CE0000E94571D8093E604809197059091980566
:102CF00097FD07C061E00E94CB03809197050E9479
:102D00007B0381E08093920581E090E09093A5059C
:102D10008093A4058091780290917902A0917A0223
:102D2000B0917B020196A11DB11D80937802909312
:102D30007902A0937A02B0937B020091FD05109175
:102D4000FE052091FF05309100064091010650914B
:102D50000206609103067091040681E04434FCE4AD
:102D60005F07F8E46F07F3E57F0709F080E08093E1
:102D70006A030734104525453D4431F011E04434E1
:102D80005C446844734509F410E047E450E565E5A8
:102D90007DE44093FD055093FE056093FF0570931D
:102DA00000068093650310926603109267031092E9
:102DB0006803109269030E94DE056854744F8F4FB8
:102DC0009F4F6093600370936103809362039093BD
:102DD0006303112309F47AC30E943D0864EF71E094
:102DE00080E090E00E94FC040E943D086E01B9E47E
:102DF000CB0ED11CFE0131967F0150E1A52EB12CE6
:102E0000512C412CE696CFAEE697E896DFAEE897D8
:102E1000EA96EFAFEA971F2D84E1E9E1F1E0DE01E8
:102E2000AF59BF4F01900D928A95E1F788E1EDE22D
:102E3000F1E0E696AFADE697E896BFADE897019072
:102E40000D928A95E1F788E1E5E4F1E0EA96AFAD0D
:102E5000EA97B12F01900D928A95E1F7C5016CE0D8
:102E600070E00E94FF1D1B019E012F593F4F490139
:102E7000712C612CD4018C9161E0680F0CE32FEF71
:102E80003FEF4FEF50E00E94AB07F401828161E019
:102E9000680F2FEF3FEF4FEF50E00E94AB07FFEFBF
:102EA0006F1A7F0A24E0820E911C2614370411F752
:102EB0004114510489F40FEF2FEF3FEF4FEF50E033
:102EC0006BE08AE00E94AB072FEF3FEF4FEF50E03F
:102ED0006CE08BE00E94AB07D6018C91B2E0CB0E88
:102EE000D11C61E0680F0FEF2FEF3FEF4FEF50E085
:102EF0000E94AB07F7018081F2E0EF0EF11C61E068
:102F0000680F2FEF3FEF4FEF50E00E94AB070E949A
:102F1000230764E670E080E090E00E94FC042FEF5D
:102F2000421A520A35E0A30EB11C4CE4A416B104B7
:102F300009F072CF60E570E080E090E00E94FC0450
:102F400038EDE32E37E2F32E00E619E048E2C42E16
:102F5000D12CC701B6010E94FF1D9B01C801B6011B
:102F60000E94FF1DCB01B9010E9416080E94230791
:102F700068E170E080E090E00E94FC040C531109CD
:102F80005FEFE51AF108043C8FEF180711F70E9474
:102F90003D0860E570E080E090E00E94FC040E9443
:102FA0003D08AFEFB0E0CF57DF4FB983A883C158DA
:102FB000D040F12CE12C84E1E9E1F1E0DE01AF59F0
:102FC000BF4F01900D928A95E1F788E1EDE2F1E0C3
:102FD000DE01A75BBF4F01900D928A95E1F788E172
:102FE000E5E4F1E0DE01119601900D928A95E1F79A
:102FF000F7013196CD57DF4FF983E883C358D040AE
:10300000CF57DF4F88819981C158D0406CE070E084
:103010000E94FF1DEB967FAF6EAFEB97FCE3F69F30
:10302000C001F79F900D11246FEF70E00E94FF1D0B
:10303000162F9E01275B3F4FE7963FAF2EAFE797D6
:10304000AE014F5F5F4FE9965FAF4EAFE997CE019C
:103050008F599F4F4C012AE0222E312CD12CC12CAC
:10306000E796AEADBFADE797AC9011969C911197E6
:103070001296E796BFAFAEAFE79750E040E0B701DA
:103080008A2D0E943207EF966CAF7DAF8EAF9FAF57
:10309000EF97E996EEADFFADE997B080918132965A
:1030A000E996FFAFEEAFE99741EC50E0B7018B2D09
:1030B0000E9432072B013C0161E06A0DEA960FADD8
:1030C000EA97EF962CAD3DAD4EAD5FADEF978A2DF3
:1030D0000E94AB0761E06B0DEA960FADEA97A30182
:1030E00092018B2D0E94AB07F5E0CF16D1040CF0B6
:1030F00042C0D401AC904DE751E0B7018A2D119642
:103100009C910E943207EF966CAF7DAF8EAF9FAF60
:10311000EF97F401B28045E052E0B7018B2D938127
:103120000E9432072B013C0161E06A0D012FEF96EE
:103130002CAD3DAD4EAD5FADEF978A2D0E94AB0734
:1031400061E06B0DA30192018B2D0E94AB07F2E0B1
:10315000CF16D10484F441E852E0B701C1010E94C6
:1031600032079B01AC01EA960FADEA976BE06C0D5C
:10317000822D0E94AB072FEFC21AD20A3FEF231A0B
:10318000330A44E0840E911CEC14FD040CF068CF6B
:103190000E94230764E670E080E090E00E94FC0457
:1031A000CF57DF4F88819981C158D04081509F4FC0
:1031B000CF57DF4F99838883C158D040CD57DF4F19
:1031C000E880F980C358D0409CE0E916F10409F08A
:1031D000F2CE64E670E080E090E00E94FC0488E4B7
:1031E000EDE5F1E0DE01119601900D928A95E1F78F
:1031F0000E943D08DE0111967D01D12CC12CF70102
:10320000A190B1907F010CE3FAE0AF16B1040CF08D
:103210000FEF45E151E0B601C5010E9432079B0165
:10322000AC0161E06A0D8A2D0E94AB070E94230762
:103230006DE270E080E090E00E94FC042FEFC21A83
:10324000D20A34E2C316D104D1F664EB70E080E018
:1032500090E00E94FC04F12CE12CD12CC12C10E058
:1032600000E089EDA82EBB24BA9497E2892E912C18
:10327000C601083211050CF018C1B4010E94FF1DEF
:103280009B01285F3F4FC701B4010E94FF1D685F8B
:103290007F4FC9010E9416080E9423076EE170E06B
:1032A00080E090E00E94FC040F5F1F4F44E3C40ED7
:1032B000D11C57EFE50EF11C00351105C9F60E942F
:1032C0003D0868EE73E080E090E00E94FC041092FC
:1032D000C5050E94C40880E090E89093D8058093CB
:1032E000D7058FEF9FE79093DA058093D9058091FA
:1032F0007602909177028663946090937702809330
:1033000076028F5F9F479093B0058093AF058091C1
:10331000C50581110E94C40820E030E83093D4052F
:103320002093D3058FEF9FE79093D6058093D50523
:103330003093D0052093CF059093D2058093D1058B
:103340005524539403E3202E0E94DE056B017C017B
:10335000C0923505D0923605E0923705F0923805D7
:10336000809170038F5F80937003009178021091B9
:10337000790220917A0230917B0280917C029091B7
:103380007D02A0917E02B0917F0246015701881A0A
:10339000990AAA0ABB0A87E090E0A0E0B0E0801B8F
:1033A000910BA20BB30B88159905AA05BB05D8F4A0
:1033B00060915F0370E06F5F7F4F072E000C880BFA
:1033C000990BA90198012F5F3F4F4F4F5F4F0E940C
:1033D000CE1D60935F03C0927C02D0927D02E0928A
:1033E0007E02F0927F028091EE029091EF02A09116
:1033F000F002B091F102A7019601281B390B4A0B8C
:103400005B0BDA01C90181379741A105B10560F075
:1034100080916403811104C080916B03882321F0A3
:1034200010926B030E949F078BE395E00E941503A7
:10343000892B09F4A3C0C092EE02D092EF02E09271
:10344000F002F092F10250926B038BE395E00E9440
:10345000D3022091EC023091ED022630310544F484
:103460008F3FB9F52F5F3F4F3093ED022093EC0271
:103470002091EC023091ED02233031050CF47EC036
:103480008F3F09F47BC00E94950880918F05909131
:103490009005059718F50E945008F5CF80E590E05B
:1034A0000E94571D12CC80E01DCC80529840B5017F
:1034B0000E94FF1D9B01245C3F4FC7018859964223
:1034C000B5010E94FF1D61507F4FE3CE0E948D0722
:1034D000FECE1092ED021092EC02CACF60E272E0D2
:1034E00080918B0590918C050E941820892B41F4C6
:1034F00086E292E00E945A0881E392E00E945A0814
:1035000080918F0590919005892BC1F000918B05DA
:1035100010918C0564E372E0C8010E941820892B89
:1035200009F0DFC019A246E348A32F8ECE014F96C3
:103530000E945A0881E392E00E945A0890E080E0DD
:103540000E94670820918B0530918C05811123C161
:103550002115310519F0C9010E94C91E10928C0570
:1035600010928B051092900510928F0510928E0587
:1035700010928D051092ED021092EC02D0905F0334
:10358000C0906503D1107BC1C11080C10CE320E065
:1035900030E04FEF50E061E080E00E94AB0720E0B8
:1035A0003FEF4FEF50E062E081E00E94AB0720E088
:1035B00030E840E050E063E082E00E94AB072FEF8C
:1035C0003FEF4FEF50E065E083E00E94AB0722E35E
:1035D0003DEC42E350E066E085E00E94AB0720E06E
:1035E00035E44FEF50E067E086E00E94AB072FEF35
:1035F0003FEF4FEF50E069E087E00E94AB072FEF0D
:1036000030E0A9016AE089E00E94AB070FEF20E0FB
:1036100030E840E050E06BE08AE00E94AB0720E039
:1036200030E04FEF50E06CE08BE00E94AB07809100
:1036300039058C3008F08C500CE010E0E82EF12CAD
:10364000C8010C9720E041E560E08E159F0511F060
:1036500040E06FEFC8010E9403010F5F1F4F083168
:10366000110571F780913A058C3008F08C50E82EE6
:10367000F12CC801489720E04FEF6FEF8E159F05A2
:1036800019F02FEF40E060E0C8010E9403010F5FD6
:103690001F4F0432110569F780916403882309F4F0
:1036A000F5C07AE3872E73E0972EE6E1AE2EE3E0D5
:1036B000BE2EF2EFEF2EF2E0FF2E10E000E0D4017C
:1036C0006D914D01F50141915F01D7012D917D0172
:1036D000C8010E9403010F5F1F4F0432110579F7E3
:1036E000D5C06AE372E0C8010E941820892B09F056
:1036F00025CFA8ECEA2EA2E0FA2EB4EACB2EB2E057
:10370000DB2E10E8612E12E0712E53014601870175
:103710000E945008382E0E945008482E0E945008DF
:10372000D8013D928D01F40141924F01D5018D9355
:103730005D01B2E00C3E1B0759F70E9450088F3F15
:10374000910509F0FBCE0E9450088E3F910509F0CB
:10375000F5CE0E9450088D3F910509F0EFCE5092B2
:1037600064038AE393E0A6E1B3E042EF52E0F7019D
:1037700021917F01FC012193CF01F60121916F017D
:103780002D93F30121913F01FA012193AF010E1511
:103790001F0569F7D3CE1092900510928F0563E351
:1037A00072E0C9010E942120E5CEB1E0DB127DC0AC
:1037B00080919A0590919B05892B09F476C08091A0
:1037C000A4059091A505892B09F46FC00E942C04D3
:1037D0006CC0109112016AE070E080E090E00E94FD
:1037E000FC0480916403882311F0111178C00E94B9
:1037F000DE05C0906003D0906103E0906203F0901A
:1038000063036C157D058E059F0508F472C01111C8
:103810002DC08091660390916703A0916803B091D9
:103820006903892B8A2B8B2B51F40E94DE05609350
:1038300066037093670380936803909369030E9403
:10384000DE050091660310916703209168033091B3
:103850006903601B710B820B930B6B3F7105810534
:10386000910508F446C00E949F0743C0109266036A
:103870001092670310926803109269033AC0809116
:103880005E03882319F0CC2009F406CF80915E03F3
:10389000811110925E03C11008C0809164038823D7
:1038A00009F483CFDD2009F483CF80916B03882353
:1038B00091F080916A0381110EC024E43CE448E455
:1038C00053E520930106309302064093030650937C
:1038D000040650926A0380916A0381117ACF109294
:1038E00066031092670310926803109269031092A6
:1038F000650310926F0310926E0310926D03109285
:103900006C035BE8C52E54E0D52E6EEFE62E61E029
:10391000F62ED7019D907D01B2E6B91530F161E038
:10392000892D0E94CB03892D0E947B0347EFA42E93
:1039300041E0B42E01E010E0F50181915F01833692
:1039400058F40E94A203F8013197EC0DFD1D21E00F
:10395000892B09F020E020830F5F1F4F08301105ED
:1039600059F762E0892D0E94CB03F7E0CF0ED11CFE
:10397000C158DF4F28813981CF57D0402E153F05E0
:1039800041F661E081E00E94AE0A62E081E00E94BF
:10399000AE0A61E082E00E94AE0A62E082E00E942C
:1039A000AE0A61E083E00E94AE0A62E083E00E941A
:1039B000AE0A61E086E00E94AE0A62E086E00E9404
:1039C000AE0A8AE00E94A20321E0892B09F020E0E0
:1039D0002093AE0482E10E94A20321E0892B09F02A
:1039E00020E02093AF0488E0C82ED12C96E0E92E89
:1039F000F12C01E010E021E030E041E050E061E036
:103A000070E081E090E00E94380B29E0C22ED12CBA
:103A100037E0E32EF12C02E010E022E030E042E05B
:103A200050E062E070E082E090E00E94380B80910C
:103A30006E0390916F038F5F9F479093AE058093C5
:103A4000AD058091C50581110E94C40880916C0369
:103A500090916D038F5F9F479093AC058093AB056A
:103A60008091C50581110E94C4080E94C40840E0ED
:103A700050E0452B09F468CC0E94000063CC809193
:103A80008B0590918C05009711F00E94C91E8091C2
:103A90009A0590919B050E94C91E8091970590916F
:103AA000980597FD03C060E00C94CB030895F99945
:103AB000FECF92BD81BDF89A992780B50895262F33
:103AC000F999FECF1FBA92BD81BD20BD0FB6F89403
:103AD000FA9AF99A0FBE01960895052E97FB1EF4E7
:103AE00000940E94841D57FD07D00E94CE1D07FC44
:103AF00003D04EF40C94841D50954095309521953B
:103B00003F4F4F4F5F4F0895909580957095619509
:103B10007F4F8F4F9F4F08950E94F01DA59F900DDE
:103B2000B49F900DA49F800D911D112408952F9294
:103B30003F924F925F926F927F928F929F92AF923D
:103B4000BF92CF92DF92EF92FF920F931F93CF938A
:103B5000DF93CDB7DEB7CA1BDB0B0FB6F894DEBF21
:103B60000FBECDBF09942A88398848885F846E8447
:103B70007D848C849B84AA84B984C884DF80EE8091
:103B8000FD800C811B81AA81B981CE0FD11D0FB69A
:103B9000F894DEBF0FBECDBFED010895A1E21A2E4D
:103BA000AA1BBB1BFD010DC0AA1FBB1FEE1FFF1FE1
:103BB000A217B307E407F50720F0A21BB30BE40B31
:103BC000F50B661F771F881F991F1A9469F7609578
:103BD0007095809590959B01AC01BD01CF01089532
:103BE000A29FB001B39FC001A39F700D811D11243E
:103BF000911DB29F700D811D1124911D089597FB99
:103C0000072E16F4009407D077FD09D00E94191EE4
:103C100007FC05D03EF4909581959F4F08957095CF
:103C200061957F4F0895EE0FFF1F0590F491E02DF1
:103C30000994AA1BBB1B51E107C0AA1FBB1FA617F3
:103C4000B70710F0A61BB70B881F991F5A95A9F745
:103C500080959095BC01CD0108950F931F93CF934C
:103C6000DF938230910510F482E090E0E091FB0553
:103C7000F091FC0530E020E0B0E0A0E0309799F44E
:103C80002115310509F44AC0281B390B24303105B0
:103C9000D8F58A819B816115710589F1FB019383B8
:103CA0008283FE0111C04081518102811381481736
:103CB0005907E0F04817590799F4109761F01296E8
:103CC0000C93129713961C933296CF01DF91CF91EC
:103CD0001F910F9108950093FB051093FC05F4CFFD
:103CE0002115310551F04217530738F0A901DB01C6
:103CF0009A01BD01DF01F801C1CFEF01F9CF909327
:103D0000FC058093FB05CDCFFE01E20FF31F8193ED
:103D100091932250310939832883D7CF2091F90517
:103D20003091FA05232B41F42091150130911601B1
:103D30003093FA052093F905209113013091140175
:103D40002115310541F42DB73EB74091170150912F
:103D50001801241B350BE091F905F091FA05E217E3
:103D6000F307A0F42E1B3F0B2817390778F0AC019E
:103D70004E5F5F4F2417350748F04E0F5F1F50937B
:103D8000FA054093F905819391939FCFF0E0E0E02D
:103D90009CCFCF93DF930097E9F0FC013297138219
:103DA0001282A091FB05B091FC05ED0130E020E00E
:103DB0001097A1F420813181820F931F2091F90582
:103DC0003091FA052817390709F061C0F093FA0518
:103DD000E093F905DF91CF910895EA01CE17DF074F
:103DE000E8F54A815B819E0141155105B1F7E90172
:103DF000FB83EA8349915991C40FD51FEC17FD0746
:103E000061F4808191810296840F951FE901998365
:103E10008883828193819B838A83F0E0E0E012961D
:103E20008D919C9113970097B9F52D913C91119725
:103E3000CD010296820F931F2091F9053091FA056A
:103E40002817390739F6309751F51092FC05109272
:103E5000FB05B093FA05A093F905BCCFD383C283C9
:103E600040815181840F951FC817D90761F44E5FB7
:103E70005F4F88819981480F591F518340838A8100
:103E80009B81938382832115310509F0B0CFF09394
:103E9000FC05E093FB059ECFFD01DC01C0CF138242
:103EA0001282D7CFB0E0A0E0E8E5FFE10C94991DC5
:103EB0008C01009751F4CB010E942D1E8C01C8018A
:103EC000CDB7DEB7E0E10C94B51DFC01E60FF71F9E
:103ED0009C0122503109E217F30708F49DC0D90173
:103EE000CD91DC911197C617D70798F0C530D10551
:103EF00030F3CE0104978617970708F3C61BD70B3C
:103F00002297C193D1936D937C93CF010E94C91ED8
:103F1000D6CF5B01AC1ABD0A4C018C0E9D1EA09140
:103F2000FB05B091FC05512C412CF12CE12C109794
:103F300031F58091F9059091FA058815990509F0F8
:103F40005CC04616570608F058C080911301909146
:103F50001401009741F48DB79EB74091170150911D
:103F60001801841B950BE817F90708F055C0F0936A
:103F7000FA05E093F905F90171836083A0CF8D9173
:103F80009C91119712966C90129713967C901397B0
:103F9000A815B90559F56C0142E0C40ED11CCA142C
:103FA000DB0420F1AC014A195B09DA01129615977E
:103FB00080F06282738251834083D9016D937C9338
:103FC000E114F10471F0D7011396FC93EE9312976C
:103FD00076CF22968C0F9D1FF90191838083F30188
:103FE000EFCFF093FC05E093FB0569CF4816590627
:103FF00008F42C017D01D3019ACFCB010E942D1E24
:104000007C01009749F0AE01B8010E940F20C80161
:104010000E94C91E870153CF10E000E050CFFB0182
:10402000DC0102C001900D9241505040D8F7089534
:10403000FB01DC018D91019080190110D9F3990BDE
:104040000895FB01DC0101900D920020E1F7089535
:1040500010E0C8EDD0E004C0FE010E94131E2196BE
:0A406000C93DD107C9F7F894FFCF5E
:10406A0000C18081000000FFFFFFFF00E1000000A7
:10407A00000000000005068000080009000600078D
:10408A00000400050002000300000001000C000DFE
:10409A00000E000F0010001100120013001400158A
:1040AA000016001700180019001A001B001C001D3A
:1040BA00001E001F0020002100220023001100041E
:1040CA00001D0008001600010022000A000D00066B
:1040DA000019001F00000013000B001B0003000F53
:1040EA0000230009001500050018000C0002001E3C
:1040FA00000700120021000E001A00100020001410
:10410A00001C0017000001636363636302036363B7
:10411A0063636304056363636363060763636363DB
:10412A0063080963636363630A0B636363636363BB
:10413A006363636363636363636363636363636345
:10414A00636363636363636363636300000000EA3A
:10415A0005660628060D0608096363636363070696
:10416A000504036363636363305613140C3200005F
:10417A000000AD02C805CE02C3021503D302F10244
:10418A0070726F746F0053494D4855425F312E303B
:10419A00000D0A006C6564736300736C65647300D8
:00000001FF
