:100000000C94E5000C940D010C940D010C940D0161
:100010000C940D010C940D010C940D010C940D0128
:100020000C940D010C940D010C9492110C9401127E
:100030000C940D010C940D010C940D010C940D0108
:100040000C940D010C940D010C940D010C940D01F8
:100050000C940D010C940D010C940D010C942D14B5
:100060000C940D010C940D010C940D010C940D01D8
:100070000C940D010C940D010C940D010C940D01C8
:100080000C940D010C940D010C940D010C940D01B8
:100090000C940D010C940D010C940D010C940D01A8
:1000A0000C940D010C940D010C940D010000000046
:1000B000240027002A002D0030000000000023004B
:1000C000260029002C002F00080B0002020200006D
:1000D00009040000010202000005240010010524AB
:1000E000010101042402060524060001070581031D
:1000F00010004009040100020A0000000705020286
:1001000040000007058302400000040309041201B7
:100110000002EF020140353F7A4500010102030170
:10012000417574686F72004D552D50616E656C415C
:100130007065782D583100070605040100080A0B88
:100140000C0D090000000200090F0000030401006B
:100150000C00000000000000000000000000000093
:1001600000000408020110408040102040804080C0
:10017000080204018040201002011080102040403D
:100180002000000000250028002B002E0031000474
:10019000040404040304050202020204030202022E
:1001A000020606060606060404020202040406000D
:1001B000FF0901A10185040902150026FF00750849
:1001C0009508B102C000AA14222011241FBECFEF4F
:1001D000DAE0DEBFCDBF12E0A0E0B1E0E4E5F6E496
:1001E00002C005900D92A034B107D9F726E0A0E433
:1001F000B2E001C01D92AD32B207E1F710E0C4EEEB
:10020000D0E004C02197FE010E94F620C33ED10732
:10021000C9F70E944B170C941D230C940000CF9239
:10022000DF92EF92FF920F931F93CF93DF93D90149
:10023000E8016A01F9014217530714F06901FA0154
:10024000882309F440C0CB016C157D050CF4C60170
:100250009F018E179F070CF49C01A417B50734F477
:10026000CF01821B930B9C012C0D3D1D0D2C000C0E
:10027000EE08FF08032E000C440B550B2C193D090A
:100280004E095F09AEEFBFEF0E946F209F01FF0F85
:10029000440B550B2C193D094E095F090E94502053
:1002A000DA01C9018F5F9F47A109B109888399834A
:1002B00082E090E0DF91CF911F910F91FF90EF903E
:1002C000DF90CF90089590E080E0F4CFCF93DF935C
:1002D000E091BC05F091BD058E179F0708F05AC04C
:1002E0003091C205332361F0639FB0011124672F61
:1002F000349FA0011124452F329F90011124232FF8
:10030000E091C805A091C305B091C4053091C50521
:10031000E31343C0FC01EE0FFF1F8E0F9F1F8A0FD8
:100320009B1FC091C505C80FD92FD11DE881E627B5
:10033000A091CD05B091CE05AE0FB11DB093CE0505
:10034000A093CD05E091C605E80FF92FF11DE081DE
:10035000E427EA0FFB2FF11DF093CE05E093CD05C6
:10036000A091C705A80FB92FB11D3C913227E30F0B
:10037000F11DF093CE05E093CD056883E091C605AD
:10038000E80FF92FF11D40833091C705830F911DB0
:10039000FC012083DF91CF910895880F991F880F6A
:1003A000991F8A0F9B1FE80FF92FF11D1082B9CFFB
:1003B000FC0180919703882311F13FB7F89482E004
:1003C0008093E9002091F200822F90E01816190620
:1003D00014F481E090E0882339F0289844E64093B3
:1003E00096034091F1004083222339F02091F200DE
:1003F000211103C02BE62093E8003FBF08958FEF43
:100400009FEF08954091950250919602209193029A
:100410003091940242175307B4F49091E80095701C
:10042000E1F39091E80092FD19C08093F100809172
:1004300095029091960201968F739927892B19F452
:100440008EEF8093E800809195029091960201963C
:10045000909396028093950281E0089580E008953C
:10046000DF92EF92FF920F931F93CF93DF93D82EDB
:100470008A01EB017B01E40EF51ECE15DF0559F074
:10048000D7FE12C0FE0184910E94020221968111C2
:10049000F4CF0FEF1FEFC801DF91CF911F910F91A4
:1004A000FF90EF90DF9008958881EECF2FB7F894FA
:1004B00087708093E9009091E800892F807295FF02
:1004C00004C09091F20080E4891B2FBF0895615011
:1004D00030F02091F100FC0120830196F8CF28989C
:1004E00084E6809396030895AF92BF92DF92EF92D5
:1004F000FF920F931F93CF93DF935C018B01EB016E
:100500009BEFD92E2097C1F07E01C134D1051CF09C
:1005100080E4E82EF12C8091E80082FFFCCFC80136
:100520008C1B9D0B6E2D8A0D9B1D0E946702D09225
:10053000E800CE19DF09E6CFC801DF91CF911F9106
:100540000F91FF90EF90DF90BF90AF900895809152
:100550008B0281110DC082E08093870284E080933A
:10056000880210928A021092890281E080938B02A5
:1005700087E892E008950F931F93CF93DF931F9224
:10058000CDB7DEB782E0898342E450E068EC70E0EA
:1005900080E80E9430020E94A702DC0112960D91B1
:1005A0001C910115110589F0D801ED91FC91028093
:1005B000F381E02DBE016F5F7F4FC801099597FD64
:1005C00004C0F80100851185ECCF89810F90DF917F
:1005D000CF911F910F910895CF93DF931F92CDB7C5
:1005E000DEB76983DC01ED91FC910280F381E02D9F
:1005F00041E050E0BE016F5F7F4F09950F90DF91A2
:10060000CF91089583E08093E9008091F2008823E0
:1006100019F08AE38093E800089583E00E9456026F
:1006200090E00895CF93DF931F92CDB7DEB7FC0122
:100630008485958597FD08C02FEF3FEF3587248788
:100640000F90DF91CF910895CE0101960E94D801BD
:10065000019719F4898190E0F3CF8FEF9FEFF0CFEE
:100660000F931F93CF93DF931F92CDB7DEB78C010B
:10067000FC018485958597FF0BC0CE0101960E94F1
:10068000D801019771F4898190E0F80195878487FA
:10069000F801848595850F90DF91CF911F910F917F
:1006A00008958FEF9FEFF1CFFC018485958597FD2D
:1006B0000BC09FB7F89482E08093E9008091F2002C
:1006C0009FBF90E0019608959FB7F89482E08093D1
:1006D000E9008091F2009FBF90E0089581508F3033
:1006E00008F047C0E82FF0E0E858FC4F0C94F620E3
:1006F0009503990387038D039103B903B903B903E4
:100700009C03A203A603AA03B003B903B403809118
:1007100080008F77809380000895809180008F7D86
:10072000F9CF80918000877FF5CF84B58F7784BD26
:10073000089584B58F7DFBCF809190008F77809353
:1007400090000895809190008F7DF9CF8091900066
:10075000877FF5CF8091C0008F778093C000089588
:100760008091C0008F7DF9CF8091C200877F8093F8
:10077000C2000895CF93DF93282F30E0F901ED5B9D
:10078000FE4F8491F901EE59FE4FD491F901E157E2
:10079000FE4FC491CC2391F081110E946E03EC2F87
:1007A000F0E0EE0FFF1FEF57FE4FA591B4918FB70A
:1007B000F894EC91D095DE23DC938FBFDF91CF913D
:1007C0000895CF93DF93282F30E0F901ED5BFE4FC2
:1007D0008491F901EE59FE4FD491F901E157FE4F92
:1007E000C491CC23A1F081110E946E03EC2FF0E0A4
:1007F000EE0FFF1FE654FF4FA591B491EC91ED234E
:1008000081E090E009F480E0DF91CF91089580E0ED
:1008100090E0FACFCF93DF9390E0FC01EE59FE4FCA
:10082000249181579E4FFC0184918823C9F090E068
:10083000880F991FFC01E455FF4FA591B491FC016D
:10084000EF57FE4FC591D49161110DC09FB7F89439
:100850008C91209582238C938881282328839FBFA5
:10086000DF91CF910895623051F49FB7F8943C9195
:10087000822F809583238C93E8812E2BEFCF8FB727
:10088000F894EC912E2B2C938FBFEACF3FB7F894BE
:100890008091830290918402A0918502B09186029A
:1008A00026B5A89B05C02F3F19F00196A11DB11DCB
:1008B0003FBFBA2FA92F982F8827BC01CD01620F07
:1008C000711D811D911D42E0660F771F881F991FC2
:1008D0004A95D1F708950F931F93CF93DF93CDB728
:1008E000DEB729970FB6F894DEBF0FBECDBF1092CA
:1008F000CE051092CD050E9446040091C9051091C5
:10090000CA052091CB053091CC056017710782078D
:10091000930740F46093C9057093CA058093CB0593
:100920009093CC050091C9051091CA052091CB0583
:100930003091CC05601B710B820B930B6C327140B4
:1009400081059105C0F2F8948091BE059091BF0594
:100950009A838983E091C305F091C405DF01119664
:10096000808189879091BA05E091CF05F091D005FB
:100970008091D105992309F445C09081982B9887DF
:100980009081809589238F838F818C8388E08B83EE
:1009900058856F8149853B812C8189819A8150835B
:1009A00047FD252F3A952083262F39F0441F00C09C
:1009B00000006083000000C0F2CF38E04D916083FA
:1009C0000000019761F7F093D005E093CF054987C8
:1009D0003B832C839A83898378940E944604609396
:1009E000C9057093CA058093CB059093CC052996D1
:1009F0000FB6F894DEBF0FBECDBFDF91CF911F9130
:100A00000F9108959081982B9887908180958923E4
:100A10008F838F818E8388E08D8358856F81498590
:100A20003D812E8189819A81508347FD252F00C009
:100A300000C0208300C000C000C000C000C06083B0
:100A40000000262F3A9541F0441F000000C000C06E
:100A500000C000C000C0E8CF38E04D9100C0608306
:100A600000C0019709F7F093D005E093CF054987BF
:100A70003D832E83AFCF8F929F92AF92BF92CF9242
:100A8000DF92EF92FF924B015C010E9446046B01E2
:100A90007C010E9446046C197D098E099F09683EFD
:100AA000734081059105A8F321E0821A9108A108FD
:100AB000B10888EEC80E83E0D81EE11CF11C811439
:100AC0009104A104B10429F7FF90EF90DF90CF903B
:100AD000BF90AF909F908F9008957F928F929F923A
:100AE000AF92BF92CF92DF92EF92FF920F931F933C
:100AF000CF93DF93C82E8B017A01809197038111E8
:100B000010C08FEF9FEFDF91CF911F910F91FF905A
:100B1000EF90DF90CF90BF90AF909F908F907F909D
:100B200008958091990280FF05C08091E000826065
:100B30008093E000CE2DDF2DD12C8AEFB82E8C2DA6
:100B40008770982E8C2D8072882E8C2D8074782E34
:100B50009AE3A92E209719F4DD2009F452C08C2DB8
:100B60000E94560281110AC0BA94BB2051F261E082
:100B700070E080E090E00E943B05ECCF8C171D06F2
:100B800011F00CF08C2F9FB7F8949092E90020910F
:100B9000E80025FD02C09FBFDDCF282F30E0C21B3B
:100BA000D30B882029F08150A0F01092F100FBCFE8
:100BB000F801C7FC0AC0815050F041914093F10008
:100BC000FACF44914093F10031968150D0F7020F53
:100BD000131FDD2021F0A092E800D12CDCCF809102
:100BE000E80085FD07C0A092E800DD24D39420979B
:100BF00091F2F3CF209779F6772069F2A092E8007E
:100C0000CACF5D9884E680939802C7017CCFCF93CA
:100C1000DF93EC0180911201882331F083E00E9480
:100C20006D051816190634F081E090E09B838A83E5
:100C300080E090E0DF91CF9108952FB7F894609114
:100C40007F027091800280918102909182022FBF79
:100C50000895DC01FB0188E4808389E4818384E4D6
:100C600082831D969C911D979F709F5B93831D9619
:100C70008D919C9124E0969587952A95E1F78F7048
:100C80008F5B848385E00895EF92FF920F931F930B
:100C9000CF93DF93FB012081213889F52381223214
:100CA00071F5DC0112964C912481358142171306AF
:100CB00031F58C01FC01C385D485F12CE12C209702
:100CC00091F04C815D816A817B818E81811180E808
:100CD0000E9430028F3F980759F0E80EF91E0990E4
:100CE000D881C02DECCF81E0D8011F968C93C7012D
:100CF000DF91CF911F910F91FF90EF90089590E0B9
:100D000080E0F6CFCF93DF93CDB7DEB769970FB60C
:100D1000F894DEBF0FBECDBFFC01DB018C918F5F6D
:100D20008C939E012D5F3F4F8DE0D9011D928A95D6
:100D3000E9F729E0298384E08A8391E09D8383E0B9
:100D40008E832A8721E22B879C879D879F8722E2BB
:100D5000288B27E02B8B25E02C8B8E8B20E430E03A
:100D6000388F2F8B998F82818B8395858685998B80
:100D70008A8B838180688D8B49E150E0BE016F5F73
:100D80007F4F80E00E94300269960FB6F894DEBF74
:100D90000FBECDBFDF91CF910895CF93DF938091A8
:100DA0007602811171C081E08093440280934502F4
:100DB0002AE432E03093470220934602109249021F
:100DC000109248022FEE31E030934102209340020E
:100DD00010924C0210924B0210924E0210924D0251
:100DE00080934F028093500210925102109252024F
:100DF00010925302109264021092650281EC80936B
:100E00004A020E94A702FC01818190914402482F6E
:100E1000490F5527551F483051059CF5A281B381D4
:100E2000109709F520E432E0338322832081209358
:100E300042028093430280914502820F8083209179
:100E40004602A22FB09147028A2F821B8917C8F44D
:100E500081813D91C82FD0E0C050DF4F38838F5F34
:100E60008183F2CFD90118962D913C9119972115C4
:100E70003105C1F720E432E019963C932E93189780
:100E8000D5CF81E08093760280E492E0DF91CF912C
:100E900008958091C3059091C405892B41F08091FC
:100EA000CD059091CE05892B11F00C946B0408951B
:100EB0000F931F9325E3FC012E9FC0012F9F900DE0
:100EC0001124E3E4E69F9001E79F300D1124820F87
:100ED000931F840F951F60E073E00E94E2208C0155
:100EE0008F3F910509F0D4F46FEF70E0681B790B28
:100EF000072E000C880B990BCB0177276627012E54
:100F0000000C220B330B322F212F102F0027602BC8
:100F1000712B822B932B1F910F9108958115924075
:100F200094F41A956FEF70E0601B710B072E000CA4
:100F3000880B990B982F872F762F6627012E000C90
:100F4000220B330BE4CF1250B801012E000C880B9A
:100F5000990BCB01772766272FEF30E0A901401BC3
:100F6000510B8A01EBCFCF93DF93D0E0C0E020E0BC
:100F700040E060E0CE010E9466012196C432D105B6
:100F8000B1F7DF91CF910C944907109289038091BA
:100F90008A03811105C00E94B30781E080938A0310
:100FA00008959F92AF92BF92CF92DF92EF92FF92FD
:100FB0000F931F93CF93DF93C82F962E69017A0169
:100FC00010E0409FC001419F900D1124E4E6F0E045
:100FD000BF010E94E22029E1269FC001279F900DBA
:100FE0001124BF010E94E220B62EBB27AF2D9E2DFB
:100FF0008D2D9927809FA001819F500D909F500DAE
:101000001124CA01BF010E94E220269FC001279F30
:10101000900D1124BF010E94E220A62EDD24C09E67
:10102000C001C19E900DD09E900D1124BF010E9461
:10103000E220269FC001279F900D1124BF010E942E
:10104000E220162FD0E0E92CF12CEC16FD0644F03E
:10105000212F4A2D6B2DCE010E9466012196F5CFDE
:10106000DF91CF911F910F91FF90EF90DF90CF9084
:10107000BF90AF909F9008950F931F93CF93DF93EE
:10108000D82F162F80E0C1E0C80F0D2F2FEF3FEFB4
:101090004FEF50E06C2F0E94D1078C2FCA3099F788
:1010A000D1E0DC0F012F2FEF3FEF4FEF50E06D2F1E
:1010B0008C2F0E94D107CD2FD43291F7DF91CF91A1
:1010C0001F910F9108950F93CF9380E0C1E0C80F57
:1010D00000E020E030E0A9016C2F0E94D1078C2FA6
:1010E000C432A1F7CF910F910C94490784E695E0A3
:1010F0000E945403892BD1F384E695E00C941203EB
:101100000F931F93CF93DF93D0910C05D13021F42F
:1011100080910A058111D3E0C0910D05C13021F401
:1011200080910B058111C3E000911A050F5F1091AA
:101130001B051F5F0E94CD06FC018FB7F89494E059
:1011400094A398E095A395E596A390E597A398E5D9
:1011500090A793E891A7D2A7C3A704A715A78FBF0D
:10116000DF91CF911F910F910895FC010190002014
:10117000E9F73197AF01481B590BBC0184E695E0B4
:101180000C9407068F929F92AF92BF92CF92DF92FC
:10119000EF92FF920F931F93CF93DF93CDB7DEB7FC
:1011A000ADB6BEB6809121062DB73EB7281B3109DA
:1011B0000FB6F8943EBF0FBE2DBF8DB79EB70196F8
:1011C0006C01E090F005F12C8091EC059091ED051B
:1011D000D601FC019F01281B390B2E153F051CF47D
:1011E00021912D93F7CF8091F105882359F18091BA
:1011F000E8059091E90528E097FD09C068E671E0EF
:101200000E94E2206DE270E00E94E220262F809191
:10121000EA059091EB0568E097FD08C068E671E08B
:101220000E94E2206DE270E00E94E220F601EE0DE5
:10123000FF1D90E1699FB0011124262B2083F70147
:1012400031967F0186010E0D1F1D2091F60530910C
:10125000F7054091F4055091F5056091D205709124
:10126000D3058091F20581700E940F01E80EF91EEE
:1012700086010E0D1F1D2091FA053091FB0540914E
:10128000F8055091F9056091D4057091D5058091CC
:10129000F205869581700E940F01E80EF91E860105
:1012A0000E0D1F1D2091FE053091FF054091FC059C
:1012B0005091FD056091D6057091D7058091F2059A
:1012C00082FB882780F90E940F01E80EF91E860133
:1012D0000E0D1F1D2091020630910306409100065D
:1012E000509101066091D8057091D9058091F20561
:1012F00083FB882780F90E940F01E80EF91E860102
:101300000E0D1F1D20910606309107064091040620
:10131000509105066091DA057091DB058091F20528
:10132000829581700E940F01E80EF91E86010E0D54
:101330001F1D20910A0630910B064091080650911E
:1013400009066091DC057091DD058091F20585FB51
:10135000882780F90E940F01E80EF91E86010E0D04
:101360001F1D20910E0630910F0640910C065091E2
:101370000D066091E0057091E1058091F3058170A3
:101380000E940F01E80EF91E86010E0D1F1D20910F
:10139000120630911306409110065091110660918B
:1013A000DE057091DF058091F305869581700E94BE
:1013B0000F01E80EF91E86010E0D1F1D2091160665
:1013C0003091170640911406509115066091E20580
:1013D0007091E3058091F30582FB882780F90E94D4
:1013E0000F01E80EF91E86010E0D1F1D20911A0631
:1013F00030911B0640911806509119066091E40542
:101400007091E5058091F30583FB882780F90E94A0
:101410000F018E0D9F1D8601080F191F20911E06BA
:1014200030911F0640911C0650911D066091E60503
:101430007091E7058091F305829581700E940F01FC
:101440000E94CD064C01409121068091200650E07B
:101450007A01FFEFEF1AFF0A2DB73EB72E193F09A9
:101460000FB6F8943EBF0FBE2DBF0DB71EB70F5F6E
:101470001F4FEDB7FEB78183B601C80101960E94E8
:10148000F222F4018381A701B80180640E946D05F6
:101490000FB6F894BEBE0FBEADBEDF91CF911F91C7
:1014A0000F91FF90EF90DF90CF90BF90AF909F9003
:1014B0008F9008959091EF05891708F5E82FE6952C
:1014C000E695E6952091EC053091ED05E20FF32FBE
:1014D000F11D282F277081E090E0A0E0B0E004C06B
:1014E000880F991FAA1FBB1F2A95D2F7809590815C
:1014F000892380838091EE0581110C94C2080895A0
:10150000E82FE695E695E6952091EC053091ED05FE
:10151000E20FF32FF11D282F277081E090E0A0E06B
:10152000B0E004C0880F991FAA1FBB1F2A95D2F7ED
:101530002081822B80838091EE0581110C94C2085A
:101540000895611102C00C945A0A9091EF05891711
:1015500010F40C94800A08958F929F92AF92BF92DC
:10156000CF92DF92EF92FF920F931F9381506150C1
:1015700070E0482F50E007E0809F90011124F901AE
:10158000EB55FE4FE60FF71F8081F901E055FB4F49
:10159000E60FF71F9081C0901605D0901705E090D8
:1015A0001805F0901905D901A25EBA4FA60FB71F12
:1015B000EC91E91701F1F901E60FF71FEE0FFF1F9C
:1015C000EE0FFF1FE856FC4F80809180A280B38011
:1015D00097018601081919092A093B09480159018F
:1015E0001AE181169104A104B10428F0C082D182CD
:1015F000E282F3829C93E7E0E49F9001E59F300D47
:101600001124F901E60FF71FEE0FFF1FEE0FFF1F6A
:10161000E856FC4F80809180A280B380C818D9081A
:10162000EA08FB08EAE1CE16D104E104F10430F047
:10163000225E3A4FF901E60FF71F908397E0949FDF
:101640009001959F300D1124225E3A4F620F731F57
:10165000FB0160811F910F91FF90EF90DF90CF9081
:10166000BF90AF909F908F900C94A10ACF93DF937F
:10167000EC018091B4059091B505009759F0209147
:10168000B6053091B7052C173D0720F081E0DF91BA
:10169000CF910895BE016F5F7F4F0E943522009762
:1016A00089F09093B5058093B405D093B705C093A6
:1016B000B6052091B8053091B905232B39F7FC0107
:1016C0001082E4CF80E0E3CF0F931F93CF93DF939B
:1016D00000D0CDB7DEB789831A820091B80510918A
:1016E000B9050F5F1F4FC8010E94360B8823A1F078
:1016F0002091B4053091B5058091B8059091B90558
:10170000BE016F5F7F4F820F931F0E9416231093BD
:10171000B9050093B80581E00F900F90DF91CF914C
:101720001F910F910895AF92BF92DF92EF92FF92B7
:101730000F931F93CF93DF93CDB7DEB761970FB6AB
:10174000F894DEBF0FBECDBFFC014281FB012481B6
:1017500035814217130611F080E032C07B018C0105
:10176000FB0191818081813AD9F5913031F58381F6
:10177000833009F58281F80194A189131CC0898303
:10178000D5A04D2D50E0B8016A5D7F4FCE01029685
:101790000E94F22241E04D0DF701868197814817A2
:1017A000190611F008F0482F50E0BE016F5F7F4F1F
:1017B00080E00E94300281E003C081E0933061F656
:1017C00061960FB6F894DEBF0FBECDBFDF91CF910B
:1017D0001F910F91FF90EF90DF90BF90AF90089511
:1017E000813209F0B9CF9B3021F48281F8018787DB
:1017F000E2CF9A3021F48281F801808BDCCF9930DE
:1018000009F0AACF8381833009F0A6CF6681778162
:10181000CB010197409708F09FCFD2805801F4E1A7
:10182000AF0EB11CC5010E9474027C011816190686
:101830000CF092CFF8018489D8120AC0F1E0EF1AB7
:10184000F108A701B8016B5E7F4FC5010E94FB2222
:10185000F801D28AE38A81E01E141F040CF080E0B4
:10186000F801818BA8CF1F93CF93DF93EC01162F44
:101870000E943A20181739F0612FCE01DF91CF91E5
:101880001F910C944220DF91CF911F9108952F92C8
:101890003F924F925F926F927F928F929F92AF9200
:1018A000BF92CF92DF92EF92FF920F931F93CF934D
:1018B000DF93CDB7DEB7AD970FB6F894DEBF0FBE9E
:1018C000CDBF2C013A8F298F1BA70AA7CBA2ACA2B0
:1018D0008C0101501109380121E062267AA269A227
:1018E000F801E45FFD4F60806DA29B01215031093A
:1018F0003C8F2B8FBA01615071097E8F6D8F67010C
:1019000071E0C71AD108F601E25EFA4F86858111AF
:1019100004C0F801E45EFA4F1082F801E65FFD4F63
:10192000E081E23108F0E251F0E0E95CFE4FE49141
:1019300090917B008E2F880F880F80729F7D892B5E
:1019400080937B00E770E064E0937C0080917A00F4
:10195000806480937A0080917A00982F9074F92E99
:1019600086FDF9CFA091780080917900B82F80E1B1
:1019700090E09A8389838BE690E09C838B8388EC4C
:1019800090E09E838D8383E291E098878F838FE739
:1019900091E09A8789878AED91E09C878B8786E31F
:1019A00092E09E878D8781E992E0988B8F878DEEFC
:1019B00092E09A8B898B89E493E09C8B8B8B84EAF1
:1019C00093E09E8B8D8B8FEF93E0988F8F8BFE0132
:1019D000319650E040E070E060E030E020E081913E
:1019E00091918A1B9B0B97FF03C09195819591095B
:1019F0002115310519F0861797071CF44F5F5F4FCB
:101A0000BC012F5F3F4F2C30310549F78CE090E04F
:101A10001C01241A350AD801A65EBA4FB8A3AF8FAD
:101A20008C91082E000C990BF801E45FFA4FFDA78A
:101A3000ECA72816390641F140911605509117057B
:101A400060911805709119055801AA0CBB1CAA0CCD
:101A5000BB1CF501E25FFA4F608071808280938049
:101A6000DB01CA0186199709A809B9098EA39FA3AA
:101A7000A8A7B9A785369105A105B10508F429C124
:101A80004083518362837383ACA5BDA5BC91B98F9C
:101A90004090160550901705609018057090190534
:101AA000B111D8C1F801E050FB4F1082F801EA50A3
:101AB000FB4F7F0190809920D1F0F801EE0FFF1FBE
:101AC000EE0FFF1FE850FB4F80819181A281B3810F
:101AD00063015201A81AB90ACA0ADB0AD601C50174
:101AE000BB24B39486399105A105B10508F0B12C4A
:101AF000ADA038E1C32EAC0CD12CC12CBB2051F0D1
:101B0000AF8DB8A18C91082E000C990B61E08C155B
:101B10009D0509F060E08A2D0E94A10ABFEFCB1A53
:101B2000DB0AA394ECE0CE16D10441F7992021F012
:101B3000B11002C0D7011C92F801E45FFD4F808113
:101B4000220C331C280E311CEB8DFC8DE055FB4F15
:101B50008589AB8DBC8DA25EBA4F55969C915597E9
:101B60006B8D7C8D6B5E7F4F981701F1FB01EE0F43
:101B7000FF1FEE0FFF1FE856FC4FC080D180E280B0
:101B8000F380530142018C189D08AE08BF0875010F
:101B900064012AE1C216D104E104F10438F0408264
:101BA00051826282738255968C935597660F771F88
:101BB000660F771FFB01E856FC4F4081518162811F
:101BC000738153014201841A950AA60AB70AB50126
:101BD000A4014A3151056105710518F055968C93A1
:101BE000559755966C91822D0E94A10AED8DFE8D20
:101BF000E055FB4F848DAD8DBE8DA25EBA4F5C96D5
:101C00009C915C974D8D5E8D445E5F4F981701F1FE
:101C1000FA01EE0FFF1FEE0FFF1FE856FC4FC080CA
:101C2000D180E280F380530142018C189D08AE08F8
:101C3000BF08750164012AE1C216D104E104F10470
:101C400038F040825182628273825C968C935C97FA
:101C5000440F551F440F551FFA01E856FC4F4081B1
:101C6000518162817381441A550A660A770A3AE102
:101C7000431651046104710418F05C968C935C97D0
:101C80005C966C9181E0820D0E94A10AF801E85FE8
:101C9000FD4F1081812F0E945A0A81E0810FAD967D
:101CA0000FB6F894DEBF0FBECDBFDF91CF911F916D
:101CB0000F91FF90EF90DF90CF90BF90AF909F90EB
:101CC0008F907F906F905F904F903F902F900C94EB
:101CD0005A0A2EA13FA148A559A525313105410534
:101CE000510508F4D1CEACA5BDA59C91EAA5FBA5F4
:101CF000E25EFA4F8681E98DFA8DE35EFA4F20812C
:101D0000213009F04AC28130A9F180E0913009F414
:101D100020E0C22ED82E892F990F990B8C159D0586
:101D200039F1E12CF801E45FFD4F90808E2D890D93
:101D30000E945A0AE394E4E2EE12F8CFF801E85F59
:101D4000FD4FE0808E2D0E945A0A81E08E0D0E9488
:101D50005A0A8BA10E945A0A8CA10E945A0AACA569
:101D6000BDA5CC926C2DC201815B9F4F0E94330CAC
:101D700080E03DC0F601E25EFA4F86858130C1F712
:101D8000F801E45EFA4F80818111F2CF913079F54C
:101D9000A9A1BAA1A45FBA4F9C91913041F1D80199
:101DA000A65FBA4F61E08C91811160E06C9381E095
:101DB0008083C2018E5A9F4F0E94330CE12CF801A0
:101DC000E45FFD4FD0808E2D8D0D0E945A0AE39462
:101DD000B4E2EB12F8CFF801E85FFD4FE0808E2D02
:101DE0000E945A0A81E08E0D0E945A0A81E04091B9
:101DF0001605509117056091180570911905F501A8
:101E0000EE5FFA4F4083518362837383F801E050A1
:101E1000FB4FAF8DB8A19C91B22DB91BB083AF8D94
:101E2000B8A12C9281111082ECA5FDA580818D7F37
:101E3000F801EA50FB4F81110BC0D501A850BB4FF0
:101E40004D935D936D937C93139781E080831CCEBB
:101E500010821ACEA801445F5D4F6A01598DF801C6
:101E6000513019F0543009F006C1EA50FB4F10828E
:101E7000698D643021F4F801E050FB4F1082D601E7
:101E8000EC908F2D8E0D0E945A0AF394B4E2FB124F
:101E9000F8CFEB8DFC8DE055FB4F8589AB8DBC8D6C
:101EA000A25EBA4F55969C9155976B8D7C8D6B5E5B
:101EB0007F4F981701F1FB01EE0FFF1FEE0FFF1F81
:101EC000E856FC4F80809180A280B380A3019201EC
:101ED000281939094A095B0949015A013AE183166F
:101EE0009104A104B10438F040825182628273826D
:101EF00055968C935597660F771F660F771FFB01DA
:101F0000E856FC4F40815181628173815301420147
:101F1000841A950AA60AB70AB501A4014A315105E7
:101F20006105710518F055968C93559755966C91EF
:101F30008BA10E94A10AED8DFE8DE055FB4F248DF3
:101F4000AD8DBE8DA25EBA4F5C969C915C974D8D17
:101F50005E8D445E5F4F921701F1FA01EE0FFF1F95
:101F6000EE0FFF1FE856FC4F80809180A280B38067
:101F7000C301B201681979098A099B094B015C0107
:101F80007AE187169104A104B10438F040825182AD
:101F9000628273825C962C935C97440F551F440FAA
:101FA000551FFA01E856FC4F4081518162817381CF
:101FB00053014201841A950AA60AB70AB501A40181
:101FC0004A3151056105710518F05C962C935C97B8
:101FD0005C966C918CA10E94A10AF801E85FFD4F0C
:101FE000B080298D213009F0D2C0F801E65FFA4FA8
:101FF0008081882341F0E9A1FAA1E45FFA4F808152
:10200000813009F08CC0EB2CF801E050FB4F2081AF
:10201000022E000C330B2115310509F4C5C08E2D9D
:10202000DD24D394DE0C000F111F000F111FD80107
:10203000AE5FBA4F4D915D916D917C91441A550AF6
:10204000660A770AB2E34B1651046104710408F082
:102050009AC0A901415051094430510520F02B3F4D
:102060003F4F0CF06FC09091EF05891710F40E945C
:10207000800A8D2D14CEE050FB4F1082F601908027
:10208000892D8F0D0E945A0AF394F8E1FF12F8CFC0
:1020900098012A503B4F5901D9012C902220D1F0B0
:1020A000F801EE0FFF1FEE0FFF1FE850FB4F80817E
:1020B0009181A281B381A3019201281B390B4A0BA4
:1020C0005B0BDA01C9013324339486399105A105EC
:1020D000B10508F0312C38E1930EF12CE12C3320BE
:1020E00051F0AF8DB8A18C91082E000C990B61E0D6
:1020F0008E159F0509F060E0892D0E94A10ABFEFAF
:10210000EB1AFB0A9394ECE0EE16F10441F722205F
:1021100009F4BFCE3110BDCED5011C92BACEE9A1D3
:10212000FAA1E65EFA4FE080EE0CFF08D6018C9132
:10213000E80EF11C8B2D0E945A0A81E08B0D0E9443
:102140005A0A62CF0E945A0A8091EF05D81660F5AC
:102150008D2DAD960FB6F894DEBF0FBECDBFDF91CB
:10216000CF911F910F91FF90EF90DF90CF90BF9094
:10217000AF909F908F907F906F905F904F903F9027
:102180002F900C94800A10820E945A0A72CF8B2DD5
:102190000E945A0A81E08B0D82CD813009F0EACD90
:1021A00052E0C52ED12CB7CDAD960FB6F894DEBF58
:1021B0000FBECDBFDF91CF911F910F91FF90EF9098
:1021C000DF90CF90BF90AF909F908F907F906F9057
:1021D0005F904F903F902F900895BF92CF92DF92E3
:1021E000EF92FF920F931F93CF93DF93653008F028
:1021F0008FC0C62F082F643009F07FC063E081E0F4
:10220000801B0E94ED1014E0EE24E394C33009F02B
:10221000E12CC02FD0E0CE01845F9A4F6C01FC010D
:102220008081082E000C990B1817190659F481E0CB
:10223000FE01E65FFA4F9081911101C080E08E159A
:1022400009F466C0F12CFE01E45FFD4FB0808F2DD4
:102250008B0D0E945A0AF394F4E2FF12F8CFFE01AC
:10226000E85FFD4FF0808F2D0E945A0A81E08F0DAC
:102270000E945A0A011147C086E00E945A0A88E06B
:102280000E945A0AF6011083FE01E65FFA4FE082CF
:10229000FE01E050FB4F1082FE01EA50FB4F91E03F
:1022A000812F8D7F09F090E09083FE01EE0FFF1FDC
:1022B000EE0FFF1FE850FB4F809116059091170518
:1022C000A0911805B091190580839183A283B383EF
:1022D000612FCE01805B9F4F0E94330C6E2DCE018B
:1022E0008D5A9F4FDF91CF911F910F91FF90EF90EB
:1022F000DF90CF90BF900C94330C11E0633009F461
:1023000083CF162F81CF87E00E945A0A89E0B8CF89
:10231000DF91CF911F910F91FF90EF90DF90CF90C1
:10232000BF9008951F920F920FB60F9211248F93B2
:102330009F938091E1009091E100937F9093E10061
:1023400083FF0FC01092E90091E09093EB00109290
:10235000EC0092E39093ED001092970398E0909335
:10236000F00082FF22C093E09093E9009091F20088
:10237000992319F09AE39093E80090919802992399
:1023800041F090919802915090939802911101C060
:102390005D9A90919603992341F090919603915004
:1023A00090939603911101C0289A84FF18C08091E0
:1023B000E2008E7E81608093E2008091E1008F7E5A
:1023C0008093E100809199028E7E806180939902D2
:1023D0009F918F910F900FBE0F901F90189580FFC7
:1023E000F7CF8091E2008E7E80618093E200809141
:1023F000E1008E7E8093E100809199028E7E816063
:10240000E5CF1F920F920FB60F921124CF92DF9259
:10241000EF92FF920F931F932F933F934F935F93EE
:102420006F937F938F939F93AF93BF93EF93FF939C
:10243000CF93DF93CDB7DEB76C97DEBFCDBF1092E1
:10244000E9008091E80083FF25C068E0CE01459651
:102450000E94670282EF8093E8008D8987FF39C070
:102460009091E80090FFFCCF982F907609F034C14E
:102470009E894F89588D2F89F88C911131C08038F1
:1024800061F580919A028093F1001092F1008EEF35
:102490008093E8006C960FB6F894DEBF0FBECDBFF8
:1024A000DF91CF91FF91EF91BF91AF919F918F916C
:1024B0007F916F915F914F913F912F911F910F915C
:1024C000FF90EF90DF90CF900F900FBE0F901F9076
:1024D00018959EEF9093E800C7CF1092F100D5CFEA
:1024E000913059F48111D3CF4130510581F680915B
:1024F0009A028D7F80939A02CACF933049F481115A
:10250000C6CF4130510519F680919A028260F2CF10
:10251000953041F48091E80080FFFCCF2068209343
:10252000E300B5CF963009F0A9C00B8D1C8D22E0D9
:102530001092E9001092960210929502F2122EC0AB
:1025400010929402109293020E94BB021F8299E0A3
:102550009983FA8291E09E8390EA98879AEF99870F
:102560002091950230919602275F3F4F3C832B8349
:102570008D831092E90010929602109295021093AA
:1025800094020093930249E050E0BE016F5F7F4FD9
:1025900080E00E9430020E94BB0279CF1093940227
:1025A000009393020E94A702DC0112960D911C91E8
:1025B0000115110509F44BC1D801ED91FC9104807E
:1025C000F581E02DBE016B5E7F4FC8010995009734
:1025D00009F038C1F80100851185EACFF3E0FF1258
:1025E0000EC08F89882309F440C0823061F440E82E
:1025F0006FE087E291E00E947714811148CF81E279
:102600008093EB0047CF813029F440E866E080E218
:1026100091E0F1CF833099F70E94A702DC01129676
:10262000ED90FC908E010F5F1F4F6801E114F104E3
:1026300079F0D701ED91FC910680F781E02DB8018A
:10264000C7010995080F111DF701E084F184EECF51
:10265000D8011C92F60101900020E9F73197BF01E3
:102660006C197D0940E0C601C6CF6AE071E0FB014C
:10267000449150E080E80E94300209CF973009F47D
:10268000BECF983021F481E08093F10000CF9930E3
:1026900009F0FDCE837009F0B2CFE1E0F1E081E016
:1026A00031E096E32191222371F08093E900309389
:1026B000EB00DF0111972C912093EC009093ED003B
:1026C0008F5F873079F78EE78093EA001092EA00F7
:1026D0008F8980939703DBCE8B8D9C8D1092E900C0
:1026E0001092960210929502909394028093930216
:1026F000898D81118CC08E899D89913A49F48132EE
:1027000009F07DCF47E050E06BE071E080E0B3CFAF
:10271000913209F074CF833269F48F89988DB0E0DB
:10272000A0E08093070190930801A0930901B09362
:102730000A01ADCE803239F467E070E08BE091E0C1
:102740000E947402A4CE823209F0A1CE8F898093B8
:102750001201EEEFFFE7859194918B3F9C4D51F173
:10276000E0E0F8E080910B0190910C01A0910D0147
:10277000B0910E01803B9440A105B105F1F4809128
:10278000120180FD1AC0EE3F8AE0F80789F587E75D
:1027900097E791838083809160008093970288E11E
:1027A0009BE00FB6F894A895809360000FBE9093BD
:1027B00060006DCEEEEFFAE0D5CF80819181873752
:1027C000974709F064CEA895809160008861809356
:1027D00060008091970280936000EE3F2AE0F2074C
:1027E00089F08091FE0A9091FF0A918380834FCEF9
:1027F000808191818737980751F29093FF0A8093E7
:10280000FE0AC5CF1092FF0A1092FE0A40CE0E9427
:10281000A702DC0112960D911C910115110509F416
:10282000EECED801ED91FC910190F081E02DBE013A
:102830006B5E7F4FC8010995811129CEF801008593
:102840001185EBCF181619060CF421CED8CEF1E085
:10285000FF12C4CE6EE071E00ACF1F920F920FB646
:102860000F9211242F933F938F939F93AF93BF9316
:1028700080917F0290918002A0918102B0918202AA
:1028800030917E0223E0230F2D3758F50196A11DCC
:10289000B11D20937E0280937F0290938002A093CB
:1028A0008102B09382028091830290918402A09170
:1028B0008502B09186020196A11DB11D809383020D
:1028C00090938402A0938502B0938602BF91AF914A
:1028D0009F918F913F912F910F900FBE0F901F905E
:1028E000189526E8230F0296A11DB11DD2CFEF92B5
:1028F000FF920F931F93CF93DF93F82E192FE62E9D
:10290000042F81E0860F880F0E94020283E00E945C
:102910000202CF2DD12FEC0EFD2EF11CCE15DF05BE
:10292000B9F007FF13C0FE0184910E940202182F24
:1029300080E00E940202812321968111EFCFDF9176
:10294000CF911F910F91FF90EF9008958881EDCF67
:1029500081E0F5CFEF92FF920F931F93CF93DF9318
:10296000CDB7DEB7C659D1090FB6F894DEBF0FBE9A
:10297000CDBF109267051092660588EE93E0A0E047
:10298000B0E08093680590936905A0936A05B093C1
:102990006B0582E192E090936505809364058FEF6B
:1029A0009FEF90937105809370051092230610920B
:1029B00022068EEA91E0909325068093240687E113
:1029C00090E0909327068093260681E08093280666
:1029D0000E94CD06FC01A385B485109709F0A7C11C
:1029E00082E296E0948783878585968520912606E6
:1029F00030912706820F931F968785871092ED05E9
:102A00001092EC051092F0051092F5051092F40565
:102A10008FEF93E09093F7058093F6051092F905F8
:102A20001092F8059093FB058093FA051092FD052E
:102A30001092FC059093FF058093FE05109201060D
:102A400010920006909303068093020610920506EA
:102A500010920406909307068093060610920906CA
:102A60001092080690930B0680930A0610920D06AA
:102A700010920C0690930F0680930E06109211068A
:102A8000109210069093130680931206109215066A
:102A9000109214069093170680931606109219064A
:102AA0001092180690931B0680931A0610921D062A
:102AB00010921C0690931F0680931E0643E04093DD
:102AC000200628E52093EF051092F1058FE1809311
:102AD000F2058AE08093F30535E0398391E09A832B
:102AE00089E08B8354E05C8361EA6D839E8355E8C3
:102AF0005F83488739878A8749E14B879C8749E20A
:102B00004D872E8745E14F87188A45E2498B9A8B7E
:102B1000E5E7EB8B9C8B75E97D8B2E8B25E52F8B69
:102B2000188E25E6298F1A8E51E85B8F22E02C8FB4
:102B30003D8F9E8F8F8F98A346E1F42EF9A29AA322
:102B400000E80BA316E21CA3BFEFBDA3AFE7AEA343
:102B5000EFA3F0E1F8A779A73AA76BA71CA68DA76A
:102B600040E34EA78FA741E348AB89AB42E34AABB2
:102B70008BAB43E34CAB8DAB44E34EAB5FAB28AFC9
:102B800040EC49AF3AAF2BAFFCAE9DAF0EAF1FAFDD
:102B90002196BFAF21972296AFAF22972396EFAF32
:102BA00023972496FFAF249725967FAF25972696E7
:102BB0002FAF269727966FAF279728961FAE289797
:102BC00029968FAF29979BEB2A969FAF2A972B9632
:102BD0008FAF2B9785EC2C968FAF2C972D965FAFF0
:102BE0002D972E962FAF2E972F964FAF2F9760963B
:102BF0004FAF60978FE490E00E9410217C018FE43A
:102C0000FE013196D70101900D928A95E1F787E098
:102C100090E00E9410218C01DC0111961C921E9202
:102C20001396FC92EE9212978FE490E015969C9387
:102C30008E93149716961C920E94CD06FC01A385D4
:102C4000B485109709F07EC0148703878585968523
:102C5000D80114962D913C91820F931F96878587FA
:102C60009091EF05892F869586958695977009F046
:102C700071C08093F0051091F005812F90E00E94C3
:102C800010219093ED058093EC0581E09091F10582
:102C9000911101C080E0125F810F80932106109294
:102CA000D3051092D2051092D5051092D40510923A
:102CB000D7051092D6051092D9051092D80510921A
:102CC000DB051092DA051092DD051092DC051092FA
:102CD000DF051092DE051092E1051092E0051092DA
:102CE000E3051092E2051092E5051092E4051092BA
:102CF000E7051092E6058FEF9FEF9093E90580932B
:102D0000E8059093EB058093EA0590E080E0209140
:102D1000F0052817190601F1FCF0E091EC05F0919F
:102D2000ED05E80FF91F10820196F1CFDC018D91BE
:102D30009C9111970097D1F782E296E08D939C9336
:102D400053CEDC018D919C9111970097D1F70D9393
:102D50001C937CCF8F5F8DCF1092BB051092C20564
:102D60001092C9051092CA051092CB051092CC059D
:102D700081E08093C8058093C5051092C60592E056
:102D80009093C7058093BA058CE690E09093BF05B9
:102D90008093BE050E9410219093C4058093C305C3
:102DA000009709F465C02CE6FC0111922A95E9F719
:102DB00084E290E09093BD058093BC0582E090E0B2
:102DC0009093C1058093C0058091BB05882339F09D
:102DD00061E082E00E940A0482E00E94BA03E1E915
:102DE000F1E0E491F0E0EE0FFF1FEF57FE4F859109
:102DF00094919093D0058093CF05E4E6F1E0E491BF
:102E0000E093D1051092B5051092B4051092B70564
:102E10001092B6051092B9051092B80590E080E0C6
:102E20000E94360B2091B4053091B505811129C05F
:102E30002115310519F0C9010E94AC211092B50588
:102E40001092B4051092B9051092B8051092B7050A
:102E50001092B605CA56DF4F0FB6F894DEBF0FBE0C
:102E6000CDBFDF91CF911F910F91FF90EF9008950B
:102E70001092BF051092BE051092BD051092BC05C0
:102E80009DCF1092B9051092B80563E372E0C901B5
:102E90000E941623DFCFCF93DF93CDB7DEB7C458A0
:102EA000D1090FB6F894DEBF0FBECDBF789484B5BC
:102EB000826084BD84B5816084BD85B5826085BD36
:102EC00085B5816085BD80916E00816080936E00C4
:102ED00010928100809181008260809381008091B6
:102EE0008100816080938100809180008160809367
:102EF0008000809191008260809391008091910088
:102F00008160809391008091900081608093900017
:102F10008091C10084608093C1008091C100826073
:102F20008093C1008091C10081608093C100809135
:102F3000C30081608093C3008091C0008260809351
:102F4000C0008091C20081608093C20080917A00AD
:102F5000846080937A0080917A00826080937A0006
:102F600080917A00816080937A0080917A008068F5
:102F700080937A001092970310929A02109299020D
:102F80008091D70081608093D70080EA8093D80039
:102F900089B5806189BD89B5826089BD09B400FEAB
:102FA000FDCF61E070E080E090E00E943B05809101
:102FB000D8008F7C80618093D8008091E000807F72
:102FC0008093E0008091E1008E7E8093E1008DE0AF
:102FD0008093E200559A209A8FEF9FEF90937105AE
:102FE000809370051092F5051092F40588EE93E039
:102FF0009093F7058093F605109211061092100633
:1030000090931306809312061092190610921806D8
:1030100090931B0680931A0648E953E030E020E0C5
:1030200090E080E0D901A055BB4FB901625E7A4FB4
:10303000FD01E80FF91F1082FB01E80FF91F108254
:10304000FC01EE0FFF1FEE0FFF1FE40FF51F1082B4
:1030500011821282138201968730910549F7445EEE
:103060005F4F295F3F4F26343105D1F610921A0584
:103070001092000510920E0510920F051092100587
:10308000109211051092020510920305109204058A
:10309000109205051092F8041092F9041092FA04A7
:1030A0001092FB041092F60410921C0510921B055E
:1030B000109201051092120510921305109214053A
:1030C000109215051092060510920705109208053A
:1030D000109209051092FC041092FD041092FE0457
:1030E0001092FF041092F70410921D050EEFE02ECF
:1030F00001E0F02E07EF11E0D8018D918D018336AC
:1031000019F062E00E940A04E016F106A9F708E04F
:1031100012E0EEEFF1E0C158DF4FF983E883CF57BB
:10312000D040C158DF4FA881B981CF57D0408D9191
:10313000C158DF4FB983A883CF57D040833619F0E9
:1031400062E00E940A04C158DF4FE881F981CF573D
:10315000D0400E171F0729F762E08AE00E940A0498
:1031600062E082E10E940A0410E0812F0E945A0A64
:103170001F5F1835D1F710920C0510920A051092B6
:103180000D0510920B0580E590E00E943A208330F7
:1031900018F0843009F080E080930C0583E590E01E
:1031A0000E943A2091E0813009F090E090930A0566
:1031B00081E590E00E943A20833018F0843009F0D5
:1031C00080E080930D0584E590E00E943A2091E034
:1031D000813009F090E090930B050E948008809167
:1031E000C0059091C10597FD07C061E00E940A04E7
:1031F0008091C0050E94BA0381E08093BB0581E005
:1032000090E09093CE058093CD0580919D029091A2
:103210009E02A0919F02B091A0020196A11DB11D36
:1032200080939D0290939E02A0939F02B093A00270
:1032300000912D0610912E0620912F063091300618
:1032400040913106509132066091330670913406F8
:1032500081E04434FCE45F07F8E46F07F3E57F079F
:1032600009F080E080938F030734104525453D44E5
:1032700031F011E044345C446844734509F410E0D3
:1032800047E450E565E57DE440932D0650932E0616
:1032900060932F067093300680938A0310928B03FD
:1032A00010928C0310928D0310928E030E941D06C3
:1032B0006854744F8F4F9F4F6093850370938603BC
:1032C0008093870390938803112309F4D3C30E944A
:1032D000630864EF71E080E090E00E943B050E948B
:1032E00063086E01B9E4CB0ED11CFE0131967F015B
:1032F00070E1A72EB12C512C412CE696CFAEE6976B
:10330000E896DFAEE897EA96EFAFEA971F2D84E1E3
:10331000E9E1F1E0DE01AF59BF4F01900D928A95CE
:10332000E1F788E1EDE2F1E0E696AFADE697E896E9
:10333000BFADE89701900D928A95E1F788E1E5E449
:10334000F1E0EA96AFADEA97B12F01900D928A9520
:10335000E1F7C5016CE070E00E94E2201B019E01D4
:103360002F593F4F4901712C612CD4018C9161E0A0
:10337000680F0CE32FEF3FEF4FEF50E00E94D107B3
:10338000F401828161E0680F2FEF3FEF4FEF50E0D3
:103390000E94D107FFEF6F1A7F0A24E0820E911C72
:1033A0002614370411F74114510489F40FEF2FEF5D
:1033B0003FEF4FEF50E06BE08AE00E94D1072FEF24
:1033C0003FEF4FEF50E06CE08BE00E94D107D60159
:1033D0008C91B2E0CB0ED11C61E0680F0FEF2FEFA4
:1033E0003FEF4FEF50E00E94D107F7018081F2E0FC
:1033F000EF0EF11C61E0680F2FEF3FEF4FEF50E051
:103400000E94D1070E94490764E670E080E090E0E6
:103410000E943B052FEF421A520A35E0A30EB11C61
:103420004CE4A416B10409F072CF60E570E080E0CE
:1034300090E00E943B0558EDE52E57E2F52E00E6A0
:1034400019E068E2C62ED12CC701B6010E94E22025
:103450009B01C801B6010E94E220CB01B9010E9484
:103460003C080E94490768E170E080E090E00E941B
:103470003B050C5311095FEFE51AF108043C8FEF8F
:10348000180711F70E94630860E570E080E090E0A3
:103490000E943B050E946308AFEFB0E0CF57DF4FBB
:1034A000B983A883C158D040F12CE12C84E1E9E133
:1034B000F1E0DE01AF59BF4F01900D928A95E1F71F
:1034C00088E1EDE2F1E0DE01A75BBF4F01900D92D4
:1034D0008A95E1F788E1E5E4F1E0DE0111960190DB
:1034E0000D928A95E1F7F7013196CD57DF4FF983B9
:1034F000E883C358D040CF57DF4F88819981C158A6
:10350000D0406CE070E00E94E220EB967FAF6EAF9F
:10351000EB97FCE3F69FC001F79F900D11246FEF2E
:1035200070E00E94E220162F9E01275B3F4FE99634
:103530003FAF2EAFE997AE014F5F5F4FE7965FAFAA
:103540004EAFE797CE018F599F4F4C014AE0242E92
:10355000312CD12CC12CE996AEADBFADE997AC9022
:1035600011969C9111971296E996BFAFAEAFE9976D
:1035700050E040E0B7018A2D0E945807EF966CAFEB
:103580007DAF8EAF9FAFEF97E796EEADFFADE797BC
:10359000B08091813296E796FFAFEEAFE79741ECAE
:1035A00050E0B7018B2D0E9458072B013C0161E0D0
:1035B0006A0DEA960FADEA97EF962CAD3DAD4EAD94
:1035C0005FADEF978A2D0E94D10761E06B0DEA96FF
:1035D0000FADEA97A30192018B2D0E94D107F5E070
:1035E000CF16D1040CF042C0D401AC904DE751E0AD
:1035F000B7018A2D11969C910E945807EF966CAFE7
:103600007DAF8EAF9FAFEF97F401B28045E052E0FF
:10361000B7018B2D93810E9458072B013C0161E07B
:103620006A0D012FEF962CAD3DAD4EAD5FADEF971E
:103630008A2D0E94D10761E06B0DA30192018B2DB1
:103640000E94D107F2E0CF16D10484F441E852E0A1
:10365000B701C1010E9458079B01AC01EA960FAD6A
:10366000EA976BE06C0D822D0E94D1072FEFC21AF2
:10367000D20A3FEF231A330A44E0840E911CEC1463
:10368000FD040CF068CF0E94490764E670E080E01A
:1036900090E00E943B05CF57DF4F88819981C15848
:1036A000D04081509F4FCF57DF4F99838883C158B7
:1036B000D040CD57DF4FE880F980C358D0409CE020
:1036C000E916F10409F0F2CE64E670E080E090E0E3
:1036D0000E943B0588E4EDE5F1E0DE0111960190E2
:1036E0000D928A95E1F70E946308DE0111967D0133
:1036F000D12CC12CF701A190B1907F010CE3FAE02D
:10370000AF16B1040CF00FEF45E151E0B601C50171
:103710000E9458079B01AC0161E06A0D8A2D0E944E
:10372000D1070E9449076DE270E080E090E00E94BE
:103730003B052FEFC21AD20A34E2C316D104D1F6E8
:1037400064EB70E080E090E00E943B05F12CE12CFE
:10375000D12CC12C10E000E029EDA22EBB24BA949C
:1037600037E2832E912CC601083211050CF071C18D
:10377000B4010E94E2209B01285F3F4FC701B401C2
:103780000E94E220685F7F4FC9010E943C080E94AE
:1037900049076EE170E080E090E00E943B050F5F1A
:1037A0001F4F44E3C40ED11C57EFE50EF11C00354A
:1037B0001105C9F60E94630868EE73E080E090E0AE
:1037C0000E943B051092EE050E94C20880E090E83E
:1037D00090930106809300068FEF9FE79093030676
:1037E0008093020680919B0290919C028663946074
:1037F00090939C0280939B028F5F9F479093D90583
:103800008093D8058091EE0581110E94C20820E0C6
:1038100030E83093FD052093FC058FEF9FE79093F0
:10382000FF058093FE053093F9052093F8059093EA
:10383000FB058093FA051E0188E0280E311C5524F3
:1038400053940E941D06609316057093170580938C
:10385000180590931905809195038F5F80939503C8
:103860000E94CD067C01DFB6F894DC0151960C91E4
:10387000519710E00023B1F052968C91529784300A
:1038800009F0FBC053961C91183008F018E0412F46
:1038900050E0B7016C5E7F4FCE0101960E94F2228C
:1038A000F701118ADFBE002389F1183079F589818B
:1038B000853561F58A81803549F58B81883531F50B
:1038C0009C818FEF890F833008F58D818150823084
:1038D000E8F46E81462F50E024E030E0933031F080
:1038E00023E030E0923011F022E030E02417350779
:1038F0006CF02885FE01319690E0319193272E16C9
:103900003F06D9F7291302C00E94ED100E948008DB
:10391000C0901605D0901705E0901805F090190595
:1039200000919D0210919E0220919F023091A00271
:103930008091A1029091A202A091A302B091A40251
:1039400046015701881A990AAA0ABB0A87E090E043
:10395000A0E0B0E0801B910BA20BB30B881599057A
:10396000AA05BB05D8F46091840370E06F5F7F4FB8
:10397000072E000C880B990BA90198012F5F3F4F70
:103980004F4F5F4F0E94B12060938403C092A10209
:10399000D092A202E092A302F092A40280911303BB
:1039A00090911403A0911503B0911603A7019601FD
:1039B000281B390B4A0B5B0BDA01C9018137974190
:1039C000A105B10560F080918903811104C0809147
:1039D0009003882321F0109290030E94C50784E68B
:1039E00095E00E945403892B09F4A0C0C0921303F0
:1039F000D0921403E0921503F092160350929003B4
:103A000084E695E00E941203209111033091120385
:103A10002630310544F48F3F99F52F5F3F4F3093A7
:103A200012032093110320911103309112032330CC
:103A300031050CF47BC08F3F09F478C00E94640B01
:103A40008091B8059091B9050597F8F40E94760821
:103A5000F5CF80529840B5010E94E2209B01245C82
:103A60003F4FC70188599642B5010E94E22061503C
:103A70007F4F8ACE0E94B307A5CE10E000E012CFA0
:103A80001092120310921103CECF60E272E0809187
:103A9000B4059091B5050E940D23892B41F486E26F
:103AA00092E00E94B50881E392E00E94B5088091FF
:103AB000B8059091B905892BC9F00091B405109112
:103AC000B50564E372E0C8010E940D23892B09F05B
:103AD000E0C019A286E388A383E38F8FCE014F96BF
:103AE0000E94B50881E392E00E94B50890E080E072
:103AF0000E94360B2091B4053091B505811128C183
:103B00002115310519F0C9010E94AC211092B505AB
:103B10001092B4051092B9051092B8051092B7052D
:103B20001092B6051092120310921103D0908403E4
:103B3000C0908A03D11080C1C11085C10CE320E080
:103B400030E04FEF50E061E080E00E94D10720E0DC
:103B50003FEF4FEF50E062E081E00E94D10720E0AC
:103B600030E840E050E063E082E00E94D1072FEFB0
:103B70003FEF4FEF50E065E083E00E94D10722E382
:103B80003DEC42E350E066E085E00E94D10720E092
:103B900035E44FEF50E067E086E00E94D1072FEF59
:103BA0003FEF4FEF50E069E087E00E94D1072FEF31
:103BB00030E0A9016AE089E00E94D1070FEF20E020
:103BC00030E840E050E06BE08AE00E94D10720E05E
:103BD00030E04FEF50E06CE08BE00E94D107809125
:103BE0001A058C3008F08C500CE010E0E82EF12C17
:103BF000C8010C9720E041E560E08E159F0511F0AB
:103C000040E06FEFC8010E9466010F5F1F4F08314F
:103C1000110571F780911B058C3008F08C50E82E4F
:103C2000F12CC801489720E04FEF6FEF8E159F05EC
:103C300019F02FEF40E060E0C8010E9466010F5FBD
:103C40001F4F0432110569F780918903882309F415
:103C5000FAC0FFE58F2EF3E09F2EABE3AA2EA3E080
:103C6000BA2EB7E1EB2EB3E0FB2E10E000E0D4015A
:103C70006D914D01F50141915F01D7012D917D01BC
:103C8000C8010E9466010F5F1F4F0432110579F7CA
:103C9000DAC06AE372E0C8010E940D23892B09F0A3
:103CA00025CF0DEE12E089ECC82E82E0D82E95EAE1
:103CB000692E92E0792E5301460178010E94760820
:103CC000E6968FAFE6970E947608482E0E94760807
:103CD000D701E696EFADE697ED937D01D4014D92C5
:103CE0004D01F50181935F01F1E1EF16F3E0FF066D
:103CF00029F70E9476088F3F910509F0F7CE0E94C0
:103D000076088E3F910509F0F1CE0E9476088D3F2E
:103D1000910509F0EBCE509289038FE593E0ABE378
:103D2000B3E047E153E0F80121918F01FC012193B9
:103D3000CF01F60121916F012D93F30121913F01F4
:103D4000FA012193AF01F3E001311F0761F7CECEF5
:103D50001092B9051092B80563E372E0C9010E94A0
:103D60001623E0CEB1E0DB127DC08091C3059091B7
:103D7000C405892B09F476C08091CD059091CE05BC
:103D8000892B09F46FC00E946B046CC01091120162
:103D90006AE070E080E090E00E943B05809189033A
:103DA000882311F0111178C00E941D06C090850370
:103DB000D0908603E0908703F09088036C157D0512
:103DC0008E059F0508F472C011112DC080918B03E0
:103DD00090918C03A0918D03B0918E03892B8A2B37
:103DE0008B2B51F40E941D0660938B0370938C0300
:103DF00080938D0390938E030E941D0600918B0388
:103E000010918C0320918D0330918E03601B710BF8
:103E1000820B930B6B3F71058105910508F446C039
:103E20000E94C50743C010928B0310928C0310921E
:103E30008D0310928E033AC080918303882319F07A
:103E4000CC2009F401CF8091830381111092830368
:103E5000C11008C080918903882309F483CFDD2035
:103E600009F483CF80919003882391F080918F0390
:103E700081110EC024E43CE448E453E5209331066C
:103E800030933206409333065093340650928F039A
:103E900080918F0381117ACF10928B0310928C0343
:103EA00010928D0310928E0310928A031092940345
:103EB00010929303109292031092910370EBC72E0D
:103EC00074E0D72EEEEFEE2EE1E0FE2ED7019D90AE
:103ED0007D01B2E6B91530F161E0892D0E940A0436
:103EE000892D0E94BA0367EFA62E61E0B62E01E08D
:103EF00010E0F50181915F01833658F40E94E103DF
:103F0000F8013197EC0DFD1D21E0892B09F020E02F
:103F100020830F5F1F4F0830110559F762E0892D8C
:103F20000E940A04F7E0CF0ED11CC158DF4F288150
:103F30003981CF57D0402E153F0541F661E081E031
:103F40000E94AC0A62E081E00E94AC0A61E082E07B
:103F50000E94AC0A62E082E00E94AC0A61E083E069
:103F60000E94AC0A62E083E00E94AC0A61E086E055
:103F70000E94AC0A62E086E00E94AC0A8AE00E94DD
:103F8000E10321E0892B09F020E02093D30482E1B2
:103F90000E94E10321E0892B09F020E02093D40462
:103FA00088E0A82EB12C96E0C92ED12CEE24E39403
:103FB000F12C01E010E021E030E041E050E061E070
:103FC00070E081E090E00E94470C39E0A32EB12C14
:103FD00047E0C42ED12C52E0E52EF12C02E010E097
:103FE00022E030E042E050E062E070E082E090E009
:103FF0000E94470C80919303909194038F5F9F4799
:104000009093D7058093D6058091EE0581110E948B
:10401000C20880919103909192038F5F9F47909384
:10402000D5058093D4058091EE0581110E94C208C8
:104030000E94C20840E050E0452B09F402CC0E94E7
:104040000000FDCB8091B4059091B505009711F06B
:104050000E94AC218091C3059091C4050E94AC21BF
:104060008091C0059091C10597FD03C060E00C945C
:104070000A040895F999FECF92BD81BDF89A992757
:1040800080B50895262FF999FECF1FBA92BD81BD44
:1040900020BD0FB6F894FA9AF99A0FBE01960895CA
:1040A000052E97FB1EF400940E94672057FD07D051
:1040B0000E94B12007FC03D04EF40C946720509569
:1040C0004095309521953F4F4F4F5F4F0895909504
:1040D0008095709561957F4F8F4F9F4F08950E94F7
:1040E000D320A59F900DB49F900DA49F800D911D8E
:1040F000112408952F923F924F925F926F927F9278
:104100008F929F92AF92BF92CF92DF92EF92FF92E7
:104110000F931F93CF93DF93CDB7DEB7CA1BDB0B93
:104120000FB6F894DEBF0FBECDBF09942A88398838
:1041300048885F846E847D848C849B84AA84B9843F
:10414000C884DF80EE80FD800C811B81AA81B9814B
:10415000CE0FD11D0FB6F894DEBF0FBECDBFED015F
:104160000895A1E21A2EAA1BBB1BFD010DC0AA1FB8
:10417000BB1FEE1FFF1FA217B307E407F50720F0D0
:10418000A21BB30BE40BF50B661F771F881F991F4B
:104190001A9469F760957095809590959B01AC0194
:1041A000BD01CF010895A29FB001B39FC001A39F9D
:1041B000700D811D1124911DB29F700D811D112460
:1041C000911D089597FB072E16F4009407D077FDF4
:1041D00009D00E94FC2007FC05D03EF49095819503
:1041E0009F4F0895709561957F4F0895EE0FFF1FC3
:1041F0000590F491E02D0994AA1BBB1B51E107C067
:10420000AA1FBB1FA617B70710F0A61BB70B881F66
:10421000991F5A95A9F780959095BC01CD010895F5
:104220000F931F93CF93DF938230910510F482E0B8
:1042300090E0E0912B06F0912C0630E020E0B0E019
:10424000A0E0309799F42115310509F44AC0281BE4
:10425000390B24303105D8F58A819B8161157105B0
:1042600089F1FB0193838283FE0111C0408151815A
:104270000281138148175907E0F04817590799F44C
:10428000109761F012960C93129713961C93329626
:10429000CF01DF91CF911F910F91089500932B06CD
:1042A00010932C06F4CF2115310551F04217530716
:1042B00038F0A901DB019A01BD01DF01F801C1CF8E
:1042C000EF01F9CF90932C0680932B06CDCFFE0102
:1042D000E20FF31F81939193225031093983288390
:1042E000D7CF2091290630912A06232B41F4209123
:1042F00015013091160130932A062093290620914A
:104300001301309114012115310541F42DB73EB749
:104310004091170150911801241B350BE09129069B
:10432000F0912A06E217F307A0F42E1B3F0B281783
:10433000390778F0AC014E5F5F4F2417350748F01E
:104340004E0F5F1F50932A06409329068193919345
:104350009FCFF0E0E0E09CCFCF93DF930097E9F0B0
:10436000FC01329713821282A0912B06B0912C0689
:10437000ED0130E020E01097A1F420813181820F1F
:10438000931F2091290630912A062817390709F032
:1043900061C0F0932A06E0932906DF91CF9108953A
:1043A000EA01CE17DF07E8F54A815B819E014115DE
:1043B0005105B1F7E901FB83EA8349915991C40F93
:1043C000D51FEC17FD0761F4808191810296840F5F
:1043D000951FE90199838883828193819B838A83D6
:1043E000F0E0E0E012968D919C9113970097B9F55B
:1043F0002D913C911197CD010296820F931F209130
:10440000290630912A062817390739F6309751F5D1
:1044100010922C0610922B06B0932A06A093290620
:10442000BCCFD383C28340815181840F951FC817AD
:10443000D90761F44E5F5F4F88819981480F591FFA
:10444000518340838A819B81938382832115310527
:1044500009F0B0CFF0932C06E0932B069ECFFD0120
:10446000DC01C0CF13821282D7CFB0E0A0E0EBE333
:10447000F2E20C947C208C01009751F4CB010E9455
:1044800010218C01C801CDB7DEB7E0E10C94982073
:10449000FC01E60FF71F9C0122503109E217F307D8
:1044A00008F49DC0D901CD91DC911197C617D707AB
:1044B00098F0C530D10530F3CE01049786179707E1
:1044C00008F3C61BD70B2297C193D1936D937C93AE
:1044D000CF010E94AC21D6CF5B01AC1ABD0A4C01C2
:1044E0008C0E9D1EA0912B06B0912C06512C412CB8
:1044F000F12CE12C109731F58091290690912A0634
:104500008815990509F05CC04616570608F058C092
:104510008091130190911401009741F48DB79EB7DB
:104520004091170150911801841B950BE817F9076A
:1045300008F055C0F0932A06E0932906F90171832B
:104540006083A0CF8D919C91119712966C901297D9
:1045500013967C901397A815B90559F56C0142E0A4
:10456000C40ED11CCA14DB0420F1AC014A195B094A
:10457000DA011296159780F062827382518340832C
:10458000D9016D937C93E114F10471F0D701139676
:10459000FC93EE93129776CF22968C0F9D1FF90114
:1045A00091838083F301EFCFF0932C06E0932B06E9
:1045B00069CF4816590608F42C017D01D3019ACF22
:1045C000CB010E9410217C01009749F0AE01B80197
:1045D0000E94F222C8010E94AC21870153CF10E053
:1045E00000E050CFFB01DC0102C001900D92415070
:1045F0005040D8F708956817790768F4FB01DC018B
:10460000E40FF51FA40FB51F02C002900E92415097
:104610005040D8F708950C94F222FB01DC018D91F3
:10462000019080190110D9F3990B0895FB01DC0169
:1046300001900D920020E1F7089510E0C4EED0E063
:1046400004C0FE010E94F6202196C53ED107C9F79D
:04465000F894FFCF0C
:1046540000C18081000000FFFFFFFF00E1000000B7
:10466400000000000035068000080009000600076D
:10467400000400050002000300000001000C000D0E
:10468400000E000F0010001100120013001400159A
:104694000016001700180019001A001B001C001D4A
:1046A400001E001F0020002100220023001100042E
:1046B400001D0008001600010022000A000D00067B
:1046C4000019001F00000013000B001B0003000F63
:1046D40000230009001500050018000C0002001E4C
:1046E400000700120021000E001A00100020001420
:1046F400001C0017000001636363636302036363C8
:1047040063636304056363636363060763636363EB
:1047140063080963636363630A0B636363636363CB
:104724006363636363636363636363636363636355
:1047340063636363636363636363630000000093A1
:104744000B8206440629060809636363636307064C
:104754000504036363636363305613140C3200006F
:104764000000EC0207060D03020354031203300396
:1047740070726F746F0053494D4855425F312E304B
:10478400000D0A006C6564736300736C65647300E8
:00000001FF
