:100000000C94DC000C9404010C9404010C94040185
:100010000C9404010C9404010C9404010C9404014C
:100020000C9404010C9404010C94F50F0C946410CE
:100030000C9404010C9404010C9404010C9404012C
:100040000C9404010C9404010C9404010C9404011C
:100050000C9404010C9404010C9404010C94961269
:100060000C9404010C9404010C9404010C940401FC
:100070000C9404010C9404010C9404010C940401EC
:100080000C9404010C9404010C9404010C940401DC
:100090000C9404010C9404010C9404010C940401CC
:1000A0000C9404010C9404010C9404010000000061
:1000B000240027002A002D0030000000000023004B
:1000C000260029002C002F00080B0002020200006D
:1000D00009040000010202000005240010010524AB
:1000E000010101042402060524060001070581031D
:1000F00010004009040100020A0000000705020286
:1001000040000007058302400000040309041201B7
:100110000002EF0201404123368000010102030189
:1001200041726475696E6F204C4C43004172647576
:10013000696E6F204C656F6E6172646F0007060513
:10014000040100080A0B0C0D090000000200090F51
:100150000000030401000C0000000000000000008B
:100160000000000000000000040802011040804070
:1001700010204080408008020401804020100201CD
:100180001080102040402000000000250028002B97
:10019000002E0031000404040404030405020202DA
:1001A0000204030202020206060606060604040210
:1001B000020204041313061E11241FBECFEFDAE05F
:1001C000DEBFCDBF12E0A0E0B1E0E8EFF1E402C095
:1001D00005900D92A034B107D9F726E0A0E4B2E073
:1001E00001C01D92A130B207E1F710E0CBEDD0E0E5
:1001F00004C02197FE010E94DA1ECA3DD107C9F74B
:100200000E9480150C94EF200C940000CF93DF9394
:10021000E0919705F09198058E179F0708F05AC056
:1002200030919D05332361F0639FB0011124672F46
:10023000349FA0011124452F329F90011124232FB8
:10024000E091A305A0919E05B0919F053091A00576
:10025000E31343C0FC01EE0FFF1F8E0F9F1F8A0F99
:100260009B1FC091A005C80FD92FD11DE881E6279B
:10027000A091A805B091A905AE0FB11DB093A90535
:10028000A093A805E091A105E80FF92FF11DE081E9
:10029000E427EA0FFB2FF11DF093A905E093A805D1
:1002A000A091A205A80FB92FB11D3C913227E30FF1
:1002B000F11DF093A905E093A8056883E091A105DD
:1002C000E80FF92FF11D40833091A205830F911D96
:1002D000FC012083DF91CF910895880F991F880F2B
:1002E000991F8A0F9B1FE80FF92FF11D1082B9CFBC
:1002F000CF92DF92EF92FF920F931F93CF93DF93F2
:10030000D901E8016A01F9014217530714F06901A4
:10031000FA01882309F440C0CB016C157D050CF46B
:10032000C6019F018E179F070CF49C01A417B50707
:1003300034F4CF01821B930B9C012C0D3D1D0D2C21
:10034000000CEE08FF08032E000C440B550B2C1973
:100350003D094E095F09AEEFBFEF0E94531E9F019A
:10036000FF0F440B550B2C193D094E095F090E94E4
:10037000341EDA01C9018F5F9F47A109B109888343
:10038000998382E090E0DF91CF911F910F91FF90D0
:10039000EF90DF90CF90089590E080E0F4CFFC01E3
:1003A00080917203882311F13FB7F89482E0809323
:1003B000E9002091F200822F90E01816190614F43B
:1003C00081E090E0882339F0289844E64093710357
:1003D0004091F1004083222339F02091F200211155
:1003E00003C02BE62093E8003FBF08958FEF9FEFF7
:1003F0000895409170025091710220916E023091E7
:100400006F0242175307B4F49091E8009570E1F33E
:100410009091E80092FD19C08093F10080917002E4
:100420009091710201968F739927892B19F48EEFA1
:100430008093E800809170029091710201969093F0
:1004400071028093700281E0089580E00895DF9248
:10045000EF92FF920F931F93CF93DF93D82E8A01D1
:10046000EB017B01E40EF51ECE15DF0559F0D7FE3A
:1004700012C0FE0184910E94F90121968111F4CFEE
:100480000FEF1FEFC801DF91CF911F910F91FF90E8
:10049000EF90DF9008958881EECF2FB7F8948770A2
:1004A0008093E9009091E800892F807295FF04C045
:1004B0009091F20080E4891B2FBF0895615030F0C5
:1004C0002091F100FC0120830196F8CF289884E662
:1004D0008093710308958091660281110DC082E0BE
:1004E0008093620284E0809363021092650210920E
:1004F000640281E08093660282E692E008950F93A1
:100500001F93CF93DF931F92CDB7DEB782E089832D
:1005100042E450E068EC70E080E80E9427020E940C
:100520006B02DC0112960D911C910115110589F0E9
:10053000D801ED91FC910280F381E02DBE016F5F47
:100540007F4FC801099597FD04C0F801008511850A
:10055000ECCF89810F90DF91CF911F910F9108957A
:10056000CF93DF931F92CDB7DEB76983DC01ED91A6
:10057000FC910280F381E02D41E050E0BE016F5F0D
:100580007F4F09950F90DF91CF91089583E080937D
:10059000E9008091F200882319F08AE38093E80053
:1005A000089583E00E944D0290E00895CF93DF9379
:1005B0001F92CDB7DEB7FC018485958597FD08C0F5
:1005C0002FEF3FEF358724870F90DF91CF9108956C
:1005D000CE0101960E94CF01019719F4898190E024
:1005E000F3CF8FEF9FEFF0CF0F931F93CF93DF9356
:1005F0001F92CDB7DEB78C01FC018485958597FFEE
:100600000BC0CE0101960E94CF01019771F4898140
:1006100090E0F80195878487F801848595850F908F
:10062000DF91CF911F910F9108958FEF9FEFF1CF41
:10063000FC018485958597FD0BC09FB7F89482E0F7
:100640008093E9008091F2009FBF90E001960895A9
:100650009FB7F89482E08093E9008091F2009FBFF9
:1006600090E0089581508F3008F047C0E82FF0E007
:10067000E45CFC4F0C94DA1E59035D034B035103F9
:1006800055037D037D037D03600366036A036E03E8
:1006900074037D037803809180008F7780938000BE
:1006A0000895809180008F7DF9CF80918000877FB1
:1006B000F5CF84B58F7784BD089584B58F7DFBCF4A
:1006C000809190008F7780939000089580919000A2
:1006D0008F7DF9CF80919000877FF5CF8091C0000A
:1006E0008F778093C00008958091C0008F7DF9CFEF
:1006F0008091C200877F8093C2000895CF93DF93DB
:10070000282F30E0F901E75BFE4F8491F901E859A9
:10071000FE4FD491F901EB56FE4FC491CC2391F0DA
:1007200081110E943203EC2FF0E0EE0FFF1FE9571A
:10073000FE4FA591B4918FB7F894EC91D095DE233C
:10074000DC938FBFDF91CF910895CF93DF93282F54
:1007500030E0F901E75BFE4F8491F901E859FE4F63
:10076000D491F901EB56FE4FC491CC23A1F0811135
:100770000E943203EC2FF0E0EE0FFF1FE654FF4F14
:10078000A591B491EC91ED2381E090E009F480E033
:10079000DF91CF91089580E090E0FACFCF93DF937F
:1007A00090E0FC01E859FE4F24918B569E4FFC01CE
:1007B00084918823C9F090E0880F991FFC01E455CB
:1007C000FF4FA591B491FC01E957FE4FC591D4911B
:1007D00061110DC09FB7F8948C91209582238C9362
:1007E0008881282328839FBFDF91CF9108956230AD
:1007F00051F49FB7F8943C91822F809583238C937A
:10080000E8812E2BEFCF8FB7F894EC912E2B2C9301
:100810008FBFEACF3FB7F89480915E0290915F025C
:10082000A0916002B091610226B5A89B05C02F3F40
:1008300019F00196A11DB11D3FBFBA2FA92F982F06
:100840008827BC01CD01620F711D811D911D42E001
:10085000660F771F881F991F4A95D1F708950F9348
:100860001F93CF93DF93CDB7DEB729970FB6F894D8
:10087000DEBF0FBECDBF1092A9051092A8050E9441
:100880000A040091A4051091A5052091A6053091B8
:10089000A705601771078207930740F46093A405CA
:1008A0007093A5058093A6059093A7050091A405D4
:1008B0001091A5052091A6053091A705601B710B2D
:1008C000820B930B6C32714081059105C0F2F89454
:1008D0008091990590919A059A838983E0919E056C
:1008E000F0919F05DF011196808189879091950590
:1008F000E091AA05F091AB058091AC05992309F42C
:1009000045C09081982B98879081809589238F830B
:100910008F818C8388E08B8358856F8149853B81EB
:100920002C8189819A81508347FD252F3A95208318
:10093000262F39F0441F00C000006083000000C073
:10094000F2CF38E04D9160830000019761F7F0939A
:10095000AB05E093AA0549873B832C839A8389835F
:1009600078940E940A046093A4057093A50580936F
:10097000A6059093A70529960FB6F894DEBF0FBE83
:10098000CDBFDF91CF911F910F9108959081982B4A
:1009900098879081809589238F838F818E8388E0CB
:1009A0008D8358856F8149853D812E8189819A810A
:1009B000508347FD252F00C000C0208300C000C029
:1009C00000C000C000C060830000262F3A9541F0AF
:1009D000441F000000C000C000C000C000C0E8CF3D
:1009E00038E04D9100C0608300C0019709F7F09393
:1009F000AB05E093AA0549873D832E83AFCF8F9245
:100A00009F92AF92BF92CF92DF92EF92FF924B01F3
:100A10005C010E940A046B017C010E940A046C19AB
:100A20007D098E099F09683E734081059105A8F3F1
:100A300021E0821A9108A108B10888EEC80E83E06F
:100A4000D81EE11CF11C81149104A104B10429F702
:100A5000FF90EF90DF90CF90BF90AF909F908F90DE
:100A600008957F928F929F92AF92BF92CF92DF9222
:100A7000EF92FF920F931F93CF93DF93C82E8B01BA
:100A80007A0180917203811110C08FEF9FEFDF9187
:100A9000CF911F910F91FF90EF90DF90CF90BF907B
:100AA000AF909F908F907F9008958091740280FF07
:100AB00005C08091E00082608093E000CE2DDF2DA4
:100AC000D12C8AEFB82E8C2D8770982E8C2D8072A9
:100AD000882E8C2D8074782E9AE3A92E209719F4F5
:100AE000DD2009F452C08C2D0E944D0281110AC0F4
:100AF000BA94BB2051F261E070E080E090E00E9487
:100B0000FF04ECCF8C171D0611F00CF08C2F9FB753
:100B1000F8949092E9002091E80025FD02C09FBF63
:100B2000DDCF282F30E0C21BD30B882029F0815065
:100B3000A0F01092F100FBCFF801C7FC0AC0815071
:100B400050F041914093F100FACF44914093F1006D
:100B500031968150D0F7020F131FDD2021F0A092B3
:100B6000E800D12CDCCF8091E80085FD07C0A09281
:100B7000E800DD24D394209791F2F3CF209779F603
:100B8000772069F2A092E800CACF5D9884E680934E
:100B90007302C7017CCFCF93DF93EC0180911201E8
:100BA000882331F083E00E9431051816190634F0CD
:100BB00081E090E09B838A8380E090E0DF91CF9199
:100BC00008952FB7F89460915A0270915B0280915A
:100BD0005C0290915D022FBF0895DC01FB0112962B
:100BE0002C911297848195812817190641F49181DF
:100BF0008081813A31F49D7F81E0913009F080E07D
:100C000008958132E1F79B3029F482811F968C93FD
:100C100081E008959A3099F7828150968C93F8CFAD
:100C2000DC01FB0188E4808389E4818384E482839E
:100C30001D969C911D979F709F5B93831D968D9130
:100C40009C9124E0969587952A95E1F78F708F5BAC
:100C5000848385E00895EF92FF920F931F93CF93C3
:100C6000DF93FB012081213889F52381223271F540
:100C7000DC0112964C91248135814217130631F51F
:100C80008C01FC01C385D485F12CE12C209791F0D7
:100C90004C815D816A817B818E81811180E80E9417
:100CA00027028F3F980759F0E80EF91E0990D88166
:100CB000C02DECCF81E0D8011F968C93C701DF9146
:100CC000CF911F910F91FF90EF90089590E080E0F9
:100CD000F6CFCF93DF93CDB7DEB769970FB6F89411
:100CE000DEBF0FBECDBFFC01DB018C918F5F8C930B
:100CF0009E012D5F3F4F8DE0D9011D928A95E9F746
:100D000029E0298384E08A8391E09D8383E08E83B8
:100D10002A8721E22B879C879D879F8722E2288B49
:100D200027E02B8B25E02C8B8E8B20E430E0388F56
:100D30002F8B998F82818B8395858685998B8A8B62
:100D4000838180688D8B49E150E0BE016F5F7F4FEA
:100D500080E00E94270269960FB6F894DEBF0FBEAE
:100D6000CDBFDF91CF910895CF93DF938091510252
:100D7000811167C081E080934402809345022AE498
:100D800032E03093470220934602109249021092BB
:100D900048022FEE31E0309341022093400210923E
:100DA0004C0210924B0210924E0210924D02809310
:100DB0004F028093500281EC80934A020E946B02A2
:100DC000FC01818190914402482F490F5527551FFE
:100DD000483051059CF5A281B381109709F520E4B4
:100DE00032E03383228320812093420280934302A6
:100DF00080914502820F808320914602A22FB091FC
:100E000047028A2F821B8917C8F481813D91C82F20
:100E1000D0E0C050DF4F38838F5F8183F2CFD9019C
:100E200018962D913C91199721153105C1F720E4B1
:100E300032E019963C932E931897D5CF81E080939A
:100E4000510280E492E0DF91CF91089580919E0558
:100E500090919F05892B41F08091A8059091A9055B
:100E6000892B11F00C942F0408950F931F9325E301
:100E7000FC012E9FC0012F9F900D1124E3E4E69FFB
:100E80009001E79F300D1124820F931F840F951F4F
:100E900060E073E00E94C61E8C018F3F910509F04F
:100EA000D4F46FEF70E0681B790B072E000C880BF1
:100EB000990BCB0177276627012E000C220B330BF1
:100EC000322F212F102F0027602B712B822B932B79
:100ED0001F910F9108958115924094F41A956FEF28
:100EE00070E0601B710B072E000C880B990B982F7C
:100EF000872F762F6627012E000C220B330BE4CFB1
:100F00001250B801012E000C880B990BCB017727EA
:100F100066272FEF30E0A901401B510B8A01EBCF70
:100F200080917203882329F08091740280958170EA
:100F3000089580E00895CF93DF93D0E0C0E020E0F3
:100F400040E060E0CE010E9406012196C432D10546
:100F5000B1F7DF91CF910C94260710926A0380912C
:100F60006403811105C00E949B0781E080936403A4
:100F700008959F92AF92BF92CF92DF92EF92FF922D
:100F80000F931F93CF93DF93C82F962E69017A0199
:100F900010E0409FC001419F900D1124E4E6F0E075
:100FA000BF010E94C61E29E1269FC001279F900D08
:100FB0001124BF010E94C61EB62EBB27AF2D9E2D49
:100FC0008D2D9927809FA001819F500D909F500DDE
:100FD0001124CA01BF010E94C61E269FC001279F7F
:100FE000900D1124BF010E94C61EA62EDD24C09EB6
:100FF000C001C19E900DD09E900D1124BF010E9492
:10100000C61E269FC001279F900D1124BF010E947C
:10101000C61E162FD0E0E92CF12CEC16FD0644F08C
:10102000212F4A2D6B2DCE010E9406012196F5CF6E
:10103000DF91CF911F910F91FF90EF90DF90CF90B4
:10104000BF90AF909F9008950F931F93CF93DF931E
:10105000D82F162F80E0C1E0C80F0D2F2FEF3FEFE4
:101060004FEF50E06C2F0E94B9078C2FCA3099F7D0
:10107000D1E0DC0F012F2FEF3FEF4FEF50E06D2F4E
:101080008C2F0E94B907CD2FD43291F7DF91CF91E9
:101090001F910F9108950F93CF9380E0C1E0C80F87
:1010A00000E020E030E0A9016C2F0E94B9078C2FEE
:1010B000C432A1F7CF910F910C9426078FE395E0EE
:1010C0000E941803892BD1F38FE395E00C94D6028C
:1010D000FC0101900020E9F73197AF01481B590B43
:1010E000BC018FE395E00C94CB05CF93DF93EC012B
:1010F00080918F0590919005009759F0209191056E
:10110000309192052C173D0720F081E0DF91CF91BF
:101110000895BE016F5F7F4F0E941920009789F0EC
:101120009093900580938F05D0939205C09391057D
:101130002091930530919405232B39F7FC011082FF
:10114000E4CF80E0E3CF0F931F93CF93DF9300D0E2
:10115000CDB7DEB789831A8200919305109194056B
:101160000F5F1F4FC8010E9475088823A1F02091CE
:101170008F05309190058091930590919405BE0163
:101180006F5F7F4F820F931F0E94E820109394059A
:101190000093930581E00F900F90DF91CF911F9105
:1011A0000F9108958F929F92AF92BF92CF92DF924C
:1011B000EF92FF920F931F93CF93DF93CDB7DEB7DC
:1011C000ADB6BEB68091FC052DB73EB7281B3109E0
:1011D0000FB6F8943EBF0FBE2DBF8DB79EB70196D8
:1011E0006C01E090CB05F12C8091C7059091C8056A
:1011F000D601FC019F01281B390B2E153F051CF45D
:1012000021912D93F7CF8091CC05882359F18091BE
:10121000C3059091C40528E097FD09C068E671E018
:101220000E94C61E6DE270E00E94C61E262F8091AD
:10123000C5059091C60568E097FD08C068E671E0B5
:101240000E94C61E6DE270E00E94C61EF601EE0D01
:10125000FF1D90E1699FB0011124262B2083F70127
:1012600031967F0186010E0D1F1D2091D105309111
:10127000D2054091CF055091D0056091AD05709198
:10128000AE058091CD0581700E947801E80EF91EAF
:1012900086010E0D1F1D2091D5053091D605409178
:1012A000D3055091D4056091AF057091B005809140
:1012B000CD05869581700E947801E80EF91E8601A1
:1012C0000E0D1F1D2091D9053091DA054091D705EB
:1012D0005091D8056091B1057091B2058091CD050E
:1012E00082FB882780F90E947801E80EF91E8601AA
:1012F0000E0D1F1D2091DD053091DE054091DB05AF
:101300005091DC056091B3057091B4058091CD05D5
:1013100083FB882780F90E947801E80EF91E860178
:101320000E0D1F1D2091E1053091E2054091DF0572
:101330005091E0056091B5057091B6058091CD059D
:10134000829581700E947801E80EF91E86010E0DCB
:101350001F1D2091E5053091E6054091E305509170
:10136000E4056091B7057091B8058091CD0585FBC6
:10137000882780F90E947801E80EF91E86010E0D7B
:101380001F1D2091E9053091EA054091E705509134
:10139000E8056091BB057091BC058091CE05817018
:1013A0000E947801E80EF91E86010E0D1F1D209186
:1013B000ED053091EE054091EB055091EC05609103
:1013C000B9057091BA058091CE05869581700E940D
:1013D0007801E80EF91E86010E0D1F1D2091F10502
:1013E0003091F2054091EF055091F0056091BD05F7
:1013F0007091BE058091CE0582FB882780F90E94FE
:101400007801E80EF91E86010E0D1F1D2091F505CD
:101410003091F6054091F3055091F4056091BF05B8
:101420007091C0058091CE0583FB882780F90E94CA
:1014300078018E0D9F1D8601080F191F2091F90557
:101440003091FA054091F7055091F8056091C1057A
:101450007091C2058091CE05829581700E947801BD
:101460000E94B4064C014091FC058091FB0550E0C0
:101470007A01FFEFEF1AFF0A2DB73EB72E193F0989
:101480000FB6F8943EBF0FBE2DBF0DB71EB70F5F4E
:101490001F4FEDB7FEB78183B601C80101960E94C8
:1014A000D620F4018381A701B80180640E94310530
:1014B0000FB6F894BEBE0FBEADBEDF91CF911F91A7
:1014C0000F91FF90EF90DF90CF90BF90AF909F90E3
:1014D0008F900895E82FE695E695E6952091C7054B
:1014E0003091C805E20FF32FF11D282F277081E0FE
:1014F00090E0A0E0B0E004C0880F991FAA1FBB1FB6
:101500002A95D2F72081822B80838091C905811191
:101510000C94D20808959091CA05891708F5E82F10
:10152000E695E695E6952091C7053091C805E20F4E
:10153000F32FF11D282F277081E090E0A0E0B0E0AC
:1015400004C0880F991FAA1FBB1F2A95D2F7809548
:101550009081892380838091C90581110C94D208E0
:101560000895611102C00C948B0A9091CA058917E5
:1015700010F40C946A0A08958F929F92AF92BF92D2
:10158000CF92DF92EF92FF920F931F9381506150A1
:1015900070E0482F50E007E0809F90011124F9018E
:1015A000EB55FE4FE60FF71F8081F901E557FB4F22
:1015B000E60FF71F9081C090F104D090F204E09004
:1015C000F304F090F404D901A750BB4FA60FB71F46
:1015D000EC91E91701F1F901E60FF71FEE0FFF1F7C
:1015E000EE0FFF1FED58FC4F80809180A280B380EA
:1015F00097018601081919092A093B09480159016F
:101600001AE181169104A104B10428F0C082D182AC
:10161000E282F3829C93E7E0E49F9001E59F300D26
:101620001124F901E60FF71FEE0FFF1FEE0FFF1F4A
:10163000ED58FC4F80809180A280B380C818D908F3
:10164000EA08FB08EAE1CE16D104E104F10430F027
:1016500027503B4FF901E60FF71F908397E0949FC7
:101660009001959F300D112427503B4F620F731F3F
:10167000FB0160811F910F91FF90EF90DF90CF9061
:10168000BF90AF909F908F900C94B10A1F93CF930F
:10169000DF93EC01162F0E941E1E181739F0612FE0
:1016A000CE01DF91CF911F910C94261EDF91CF9137
:1016B0001F9108952F923F924F925F926F927F9267
:1016C0008F929F92AF92BF92CF92DF92EF92FF9252
:1016D0000F931F93CF93DF93CDB7DEB7AD970FB6C0
:1016E000F894DEBF0FBECDBF1C013DA32CA31BA7EA
:1016F0000AA7C9A2AAA28C0101501109280121E060
:10170000422658A24F8EF801E45FFD4F40804BA265
:101710009B01215031093A8F298FBA01615071091B
:101720007C8F6B8F670171E0C71AD108F601E75013
:10173000FB4F8685811104C0F801E950FB4F1082F0
:10174000F801E65FFD4FE081E23108F0E251F0E0A0
:10175000E35CFE4FE49190917B008E2F880F880F01
:1017600080729F7D892B80937B00E770E064E0931B
:101770007C0080917A00806480937A0080917A0066
:10178000982F9074F92E86FDF9CFA0917800809162
:101790007900B82F80E190E09A8389838BE690E00E
:1017A0009C838B8388EC90E09E838D8383E291E021
:1017B00098878F838FE791E09A8789878AED91E0F8
:1017C0009C878B8786E392E09E878D8781E992E0F4
:1017D000988B8F878DEE92E09A8B898B89E493E0CA
:1017E0009C8B8B8B84EA93E09E8B8D8B8FEF93E0A9
:1017F000988F8F8BFE01319650E040E070E060E002
:1018000030E020E0819191918A1B9B0B97FF03C0F0
:101810009195819591092115310519F08617970742
:101820001CF44F5F5F4FBC012F5F3F4F2C303105E1
:1018300049F78CE090E04C01841A950AD801AB502E
:10184000BB4FBE8FAD8F8C91082E000C990BF80109
:10185000E951FB4FFDA7ECA78816990641F140918D
:10186000F1045091F2046091F3047091F404580172
:10187000AA0CBB1CAA0CBB1CF501E751FB4F408016
:10188000518062807380DB01CA0184199509A60921
:10189000B7098EA39FA3A8A7B9A785369105A1056F
:1018A000B10508F428C14083518362837383ACA5DA
:1018B000BDA53C904090F1045090F2046090F30478
:1018C0007090F4043110D7C1F801E552FB4F10823B
:1018D000F801EF52FB4F7F0130803320D1F0F80147
:1018E000EE0FFF1FEE0FFF1FED52FB4F8081918126
:1018F000A281B38163015201A81AB90ACA0ADB0A9C
:10190000D601C501BB24B39486399105A105B10563
:1019100008F0B12CABA038E1C32EAC0CD12CC12CFB
:10192000BB2051F0AD8DBE8D8C91082E000C990B13
:1019300061E08C159D0509F060E08A2D0E94B10AD6
:10194000BFEFCB1ADB0AA394ECE0CE16D10441F72B
:10195000332021F0B11002C0D7011C92F801E45FDE
:10196000FD4F8081880C991C880E911CE98DFA8DA1
:10197000E557FB4F8589A98DBA8DA750BB4F55966A
:101980009C915597698D7A8D6B5E7F4F981701F109
:10199000FB01EE0FFF1FEE0FFF1FED58FC4FC08045
:1019A000D180E280F380A30192012C193D094E09F8
:1019B0005F0969017A013AE1C316D104E104F10437
:1019C00038F0408251826282738255968C9355978B
:1019D000660F771F660F771FFB01ED58FC4F4081A4
:1019E00051816281738163015201A41AB50AC60A4A
:1019F000D70AB601A5014A3151056105710518F0F4
:101A000055968C93559755966C91882D0E94B10AE6
:101A1000EB8DFC8DE557FB4F248DAB8DBC8DA75016
:101A2000BB4F5C969C915C974B8D5C8D445E5F4F89
:101A3000921701F1FA01EE0FFF1FEE0FFF1FED5895
:101A4000FC4FC080D180E280F380C301B2016C19E9
:101A50007D098E099F096B017C017AE1C716D104CB
:101A6000E104F10438F040825182628273825C9614
:101A70002C935C97440F551F440F551FFA01ED58E6
:101A8000FC4F4081518162817381441A550A660A74
:101A9000770A8AE1481651046104710418F05C96D3
:101AA0002C935C975C966C9181E0880D0E94B10A42
:101AB000F801E85FFD4F1081812F0E948B0A81E0C1
:101AC000810FAD960FB6F894DEBF0FBECDBFDF918C
:101AD000CF911F910F91FF90EF90DF90CF90BF902B
:101AE000AF909F908F907F906F905F904F903F90BE
:101AF0002F900C948B0A2EA13FA148A559A5253102
:101B000031054105510508F4D2CEACA5BDA59C9187
:101B1000EAA5FBA5E750FB4F8681ECA1FDA1E850AB
:101B2000FB4F2081213009F03EC28130A9F180E0D5
:101B3000913009F420E0C22ED82E892F990F990BED
:101B40008C159D0539F1E12CF801E45FFD4F7080A3
:101B50008E2D870D0E948B0AE394E4E2EE12F8CFFB
:101B6000F801E85FFD4FE0808E2D0E948B0A81E036
:101B70008E0D0E948B0A89A10E948B0A8AA10E9465
:101B80008B0AACA5BDA5CC926C2DC101815B9F4F8A
:101B90000E94460B80E03DC0F601E750FB4F868572
:101BA0008130C1F7F801E950FB4F80818111F2CFFC
:101BB000913079F5AF8DB8A1A951BB4F9C9191306F
:101BC00041F1D801AB51BB4F61E08C91811160E0D4
:101BD0006C9381E08083C1018E5A9F4F0E94460B17
:101BE000E12CF801E45FFD4FD0808E2D8D0D0E9419
:101BF0008B0AE394B4E2EB12F8CFF801E85FFD4FF3
:101C0000E0808E2D0E948B0A81E08E0D0E948B0A4F
:101C100081E04091F1045091F2046091F3047091DD
:101C2000F404F501E352FB4F4083518362837383D5
:101C3000F801E552FB4FAD8DBE8D9C91B82DB91BBF
:101C4000B083AD8DBE8D8C9281111082ECA5FDA567
:101C50008081F801EF52FB4F813059F0D501AD5230
:101C6000BB4F4D935D936D937C93139781E080837D
:101C70001ECE10821CCED801A45FBD4F6D01B1E015
:101C8000F8013B12FFC0EF52FB4F1082F601E080DB
:101C90008F2D8E0D0E948B0AF394F4E2FF12F8CF81
:101CA000E98DFA8DE557FB4F8589A98DBA8DA7502F
:101CB000BB4F55969C915597698D7A8D6B5E7F4F82
:101CC000981701F1FB01EE0FFF1FEE0FFF1FED58FC
:101CD000FC4F80809180A280B380A30192012819DB
:101CE00039094A095B0949015A013AE1831691040D
:101CF000A104B10438F04082518262827382559609
:101D00008C935597660F771F660F771FFB01ED5871
:101D1000FC4F408151816281738153014201841AD9
:101D2000950AA60AB70AB501A4014A315105610511
:101D3000710518F055968C93559755966C9189A11D
:101D40000E94B10AEB8DFC8DE557FB4F248DAB8DC6
:101D5000BC8DA750BB4F5C969C915C974B8D5C8D66
:101D6000445E5F4F921701F1FA01EE0FFF1FEE0F75
:101D7000FF1FED58FC4F80809180A280B380C3018B
:101D8000B201681979098A099B094B015C017AE162
:101D900087169104A104B10438F040825182628216
:101DA00073825C962C935C97440F551F440F551F0C
:101DB000FA01ED58FC4F40815181628173815301DA
:101DC0004201841A950AA60AB70AB501A4014A314C
:101DD00051056105710518F05C962C935C975C9633
:101DE0006C918AA10E94B10AF801E85FFD4FB080B2
:101DF000992493943910D1C0F801EB51FB4F8081A5
:101E0000882341F0EF8DF8A1E951FB4F80818130AB
:101E100009F08BC0EB2CF801E552FB4F2081022E1C
:101E2000000C330B2115310509F4C4C08E2DDD24BF
:101E3000D394DE0C000F111F000F111FD801A35205
:101E4000BB4F4D915D916D917C91441A550A660A84
:101E5000770AB2E34B1651046104710408F099C08B
:101E6000A901415051094430510520F02B3F3F4F0B
:101E70000CF06EC09091CA05891710F40E946A0A8E
:101E80008D2D1FCEE552FB4F1082D6019C90892DDF
:101E90008F0D0E948B0AF394B8E1FB12F8CFF80182
:101EA000EF52FB4F5F0120802220D1F0F801EE0FAE
:101EB000FF1FEE0FFF1FED52FB4F80819181A2812A
:101EC000B381A3019201281B390B4A0B5B0BDA018A
:101ED000C9018824839486399105A105B10508F0CC
:101EE000812C38E1930EF12CE12C882051F0AD8D3E
:101EF000BE8D8C91082E000C990B61E08E159F050C
:101F000009F060E0892D0E94B10ABFEFEB1AFB0ACD
:101F10009394ECE0EE16F10441F7222009F4C0CED0
:101F20008110BECED5011C92BBCEEF8DF8A1EB5037
:101F3000FB4FE080EE0CFF08D6018C91E80EF11CFF
:101F40008B2D0E948B0A81E08B0D0E948B0A63CF40
:101F50000E948B0A8091CA05D81660F58D2DAD962A
:101F60000FB6F894DEBF0FBECDBFDF91CF911F91AA
:101F70000F91FF90EF90DF90CF90BF90AF909F9028
:101F80008F907F906F905F904F903F902F900C9428
:101F90006A0A10820E948B0A73CF8B2D0E948B0AD3
:101FA00081E08B0D8ECD813009F0F6CD52E0C52E4B
:101FB000D12CC3CDAD960FB6F894DEBF0FBECDBF0A
:101FC000DF91CF911F910F91FF90EF90DF90CF9015
:101FD000BF90AF909F908F907F906F905F904F9049
:101FE0003F902F9008950C941E1E1F920F920FB6D3
:101FF0000F9211248F939F938091E1009091E100C3
:10200000937F9093E10083FF0FC01092E90091E06D
:102010009093EB001092EC0092E39093ED001092FD
:10202000720398E09093F00082FF22C093E09093B7
:10203000E9009091F200992319F09AE39093E80057
:1020400090917302992341F0909173029150909373
:102050007302911101C05D9A90917103992341F02F
:1020600090917103915090937103911101C0289A3E
:1020700084FF18C08091E2008E7E81608093E20030
:102080008091E1008F7E8093E100809174028E7ECA
:102090008061809374029F918F910F900FBE0F907B
:1020A0001F90189580FFF7CF8091E2008E7E8061AF
:1020B0008093E2008091E1008E7E8093E100809128
:1020C00074028E7E8160E5CF1F920F920FB60F9241
:1020D0001124CF92DF92EF92FF920F931F932F93D1
:1020E0003F934F935F936F937F938F939F93AF93A0
:1020F000BF93EF93FF93CF93DF93CDB7DEB76C978A
:10210000DEBFCDBF1092E9008091E80083FF25C0BB
:1021100068E0CE0145960E945E0282EF8093E8005F
:102120008D8987FF39C09091E80090FFFCCF982FF0
:10213000907609F034C19E894F89588D2F89F88C8B
:10214000911131C0803861F5809175028093F10062
:102150001092F1008EEF8093E8006C960FB6F89421
:10216000DEBF0FBECDBFDF91CF91FF91EF91BF9149
:10217000AF919F918F917F916F915F914F913F911F
:102180002F911F910F91FF90EF90DF90CF900F90C4
:102190000FBE0F901F9018959EEF9093E800C7CF49
:1021A0001092F100D5CF913059F48111D3CF413045
:1021B000510581F6809175028D7F80937502CACF9B
:1021C000933049F48111C6CF4130510519F6809101
:1021D00075028260F2CF953041F48091E80080FF73
:1021E000FCCF20682093E300B5CF963009F0A9C05A
:1021F0000B8D1C8D22E01092E9001092710210925A
:102200007002F2122EC010926F0210926E020E94A3
:102210007F021F8299E09983FA8291E09E8390EA7F
:1022200098879AEF99872091700230917102275F09
:102230003F4F3C832B838D831092E90010927102F3
:102240001092700210936F0200936E0249E050E00A
:10225000BE016F5F7F4F80E00E9427020E947F02D5
:1022600079CF10936F0200936E020E946B02DC0123
:1022700012960D911C910115110509F451C1D80157
:10228000ED91FC910480F581E02DBE016B5E7F4FE6
:10229000C8010995009709F03EC1F8010085118534
:1022A000EACFF3E0FF120EC08F89882309F440C003
:1022B000823061F440E860E18CE291E00E94E0123B
:1022C000811148CF81E28093EB0047CF813029F420
:1022D00040E86BE080E291E0F1CF833099F70E9413
:1022E0006B02DC011296ED90FC908E010F5F1F4F88
:1022F0006801E114F10479F0D701ED91FC910680B9
:10230000F781E02DB801C7010995080F111DF701EC
:10231000E084F184EECFD8011C92F60101900020F8
:10232000E9F73197BF016C197D0940E0C601C6CFBE
:102330006AE071E0FB01449150E080E80E942702CE
:1023400009CF973009F4BECF983021F481E0809313
:10235000F10000CF993009F0FDCE837009F0B2CFC3
:10236000E1E0F1E081E031E096E32191222371F098
:102370008093E9003093EB00DF0111972C912093BB
:10238000EC009093ED008F5F873079F78EE78093B4
:10239000EA001092EA008F8980937203DBCE8B8D66
:1023A0009C8D1092E900109271021092700290932D
:1023B0006F0280936E02898D811192C08E899D89F2
:1023C000913A49F4813209F07DCF47E050E06BE06B
:1023D00071E080E0B3CF913209F074CF833269F4B9
:1023E0008F89988DB0E0A0E0809307019093080159
:1023F000A0930901B0930A01ADCE803269F48091B7
:10240000E80082FFFCCF67E08BE091E00E945E0273
:102410008BEF8093E8009ECE823209F09BCE8F89AD
:1024200080931201EEEFFFE7859194918B3F9C4DD5
:1024300051F1E0E0F8E080910B0190910C01A09146
:102440000D01B0910E01803B9440A105B105F1F45E
:102450008091120180FD1AC0EE3F8AE0F80789F5ED
:1024600087E797E791838083809160008093720271
:1024700088E19BE00FB6F894A895809360000FBEAA
:102480009093600067CEEEEFFAE0D5CF8081918126
:102490008737974709F05ECEA895809160008861E4
:1024A000809360008091720280936000EE3F2AE08A
:1024B000F20789F08091FE0A9091FF0A9183808350
:1024C00049CE808191818737980751F29093FF0A16
:1024D0008093FE0AC5CF1092FF0A1092FE0A3ACEF0
:1024E0000E946B02DC0112960D911C9101151105E1
:1024F00009F4E8CED801ED91FC910190F081E02D36
:10250000BE016B5E7F4FC8010995811123CEF80192
:1025100000851185EBCF181619060CF41BCED2CE10
:10252000F1E0FF12BECE6EE071E004CF1F920F9279
:102530000FB60F9211242F933F938F939F93AF93D6
:10254000BF9380915A0290915B02A0915C02B0917E
:102550005D023091590223E0230F2D3758F5019683
:10256000A11DB11D2093590280935A0290935B02E2
:10257000A0935C02B0935D0280915E0290915F0235
:10258000A0916002B09161020196A11DB11D8093DE
:102590005E0290935F02A0936002B0936102BF91CC
:1025A000AF919F918F913F912F910F900FBE0F9000
:1025B0001F90189526E8230F0296A11DB11DD2CFBA
:1025C000EF92FF920F931F93CF93DF93F82E192F63
:1025D000E62E042F81E0860F880F0E94F90183E028
:1025E0000E94F901CF2DD12FEC0EFD2EF11CCE153E
:1025F000DF05B9F007FF13C0FE0184910E94F901C5
:10260000182F80E00E94F901812321968111EFCFDC
:10261000DF91CF911F910F91FF90EF9008958881E6
:10262000EDCF81E0F5CFEF92FF920F931F93CF9301
:10263000DF93CDB7DEB7C659D1090FB6F894DEBF28
:102640000FBECDBF109242051092410588EE93E077
:10265000A0E0B0E08093430590934405A093450526
:10266000B093460582E192E09093400580933F0548
:102670008FEF9FEF90934C0580934B051092C80508
:102680001092C7051092CB051092D0051092CF057D
:102690008FEF93E09093D2058093D1051092D405EB
:1026A0001092D3059093D6058093D5051092D80546
:1026B0001092D7059093DA058093D9051092DC0526
:1026C0001092DB059093DE058093DD051092E00506
:1026D0001092DF059093E2058093E1051092E405E6
:1026E0001092E3059093E6058093E5051092E805C6
:1026F0001092E7059093EA058093E9051092EC05A6
:102700001092EB059093EE058093ED051092F00585
:102710001092EF059093F2058093F1051092F40565
:102720001092F3059093F6058093F5051092F80545
:102730001092F7059093FA058093F90543E04093D2
:10274000FB0528E52093CA051092CC058FE1809304
:10275000CD058AE08093CE0535E0398391E09A83F8
:1027600089E08B8354E05C8361EA6D839E8355E846
:102770005F83488739878A8749E14B879C8749E28D
:102780004D872E8745E14F87188A45E2498B9A8B02
:10279000E5E7EB8B9C8B75E97D8B2E8B25E52F8BED
:1027A000188E25E6298F1A8E51E85B8F22E02C8F38
:1027B0003D8F9E8F8F8F98A346E1F42EF9A29AA3A6
:1027C00000E80BA316E21CA3BFEFBDA3AFE7AEA3C7
:1027D000EFA3F0E1F8A779A73AA76BA71CA68DA7EE
:1027E00040E34EA78FA741E348AB89AB42E34AAB36
:1027F0008BAB43E34CAB8DAB44E34EAB5FAB28AF4D
:1028000040EC49AF3AAF2BAFFCAE9DAF0EAF1FAF60
:102810002196BFAF21972296AFAF22972396EFAFB5
:1028200023972496FFAF249725967FAF259726966A
:102830002FAF269727966FAF279728961FAE28971A
:1028400029968FAF29979BEB2A969FAF2A972B96B5
:102850008FAF2B9785EC2C968FAF2C972D965FAF73
:102860002D972E962FAF2E972F964FAF2F976096BE
:102870004FAF60978FE490E00E94F41E7C018FE4DC
:10288000FE013196D70101900D928A95E1F787E01C
:1028900090E00E94F41E8C01DC0111961C921E92A5
:1028A0001396FC92EE9212978FE490E015969C930B
:1028B0008E93149716961C920E94B406FC01A38571
:1028C000B485109709F073C01487038785859685B2
:1028D000D80114962D913C91820F931F968785877E
:1028E0009091CA05892F869586958695977009F0EF
:1028F00066C08093CB051091CB05812F90E00E949C
:10290000F41E9093C8058093C70581E09091CC0593
:10291000911101C080E0125F810F8093FC0510923D
:10292000AE051092AD051092B0051092AF05109251
:10293000B2051092B1051092B4051092B305109231
:10294000B6051092B5051092B8051092B705109211
:10295000BA051092B9051092BC051092BB051092F1
:10296000BE051092BD051092C0051092BF051092D1
:10297000C2051092C1058FEF9FEF9093C40580931D
:10298000C3059093C6058093C50590E080E0209133
:10299000CB0528171906A9F0A4F0E091C705F0911E
:1029A000C805E80FF91F10820196F1CFDC018D9167
:1029B0009C9111970097D1F70D931C9387CF8F5F50
:1029C00098CF1092960510929D051092A405109232
:1029D000A5051092A6051092A70581E08093A30596
:1029E0008093A0051092A10592E09093A205809398
:1029F00095058CE690E090939A05809399050E9446
:102A0000F41E90939F0580939E05009709F465C07E
:102A10002CE6FC0111922A95E9F784E290E090936C
:102A200098058093970582E090E090939C058093B1
:102A30009B0580919605882339F061E082E00E9431
:102A4000CE0382E00E947E03E7E9F1E0E491F0E04A
:102A5000EE0FFF1FE957FE4F859194919093AB05C0
:102A60008093AA05EAE6F1E0E491E093AC051092C8
:102A7000900510928F051092920510929105109278
:102A800094051092930590E080E00E9475082091D3
:102A90008F0530919005811129C02115310519F05C
:102AA000C9010E94901F1092900510928F051092FC
:102AB0009405109293051092920510929105CA56B2
:102AC000DF4F0FB6F894DEBF0FBECDBFDF91CF91C1
:102AD0001F910F91FF90EF90089510929A05109218
:102AE000990510929805109297059DCF1092940524
:102AF0001092930563E372E0C9010E94E820DFCFE2
:102B0000CF93DF93CDB7DEB7C458D1090FB6F89491
:102B1000DEBF0FBECDBF789484B5826084BD84B51E
:102B2000816084BD85B5826085BD85B5816085BDC8
:102B300080916E00816080936E0010928100809180
:102B40008100826080938100809181008160809308
:102B5000810080918000816080938000809191004D
:102B600082608093910080919100816080939100B8
:102B7000809190008160809390008091C10084607A
:102B80008093C1008091C10082608093C1008091D8
:102B9000C10081608093C1008091C30081608093F7
:102BA000C3008091C00082608093C0008091C20009
:102BB00081608093C20080917A00846080937A0063
:102BC00080917A00826080937A0080917A0081609F
:102BD00080937A0080917A00806880937A001092C6
:102BE000720310927502109274028091D700816076
:102BF0008093D70080EA8093D80089B5806189BD31
:102C000089B5826089BD09B400FEFDCF61E070E046
:102C100080E090E00E94FF048091D8008F7C80616A
:102C20008093D8008091E000807F8093E0008091C5
:102C3000E1008E7E8093E1008DE08093E200559A62
:102C4000209A8FEF9FEF90934C0580934B05109245
:102C5000D0051092CF0588EE93E09093D205809333
:102C6000D1051092EC051092EB059093EE05809340
:102C7000ED051092F4051092F3059093F6058093FC
:102C8000F50543E753E030E020E090E080E0D90133
:102C9000A557BB4FB90167507B4FFD01E80FF91FE6
:102CA0001082FB01E80FF91F1082FC01EE0FFF1FDD
:102CB000EE0FFF1FE40FF51F1082118212821382A4
:102CC00001968730910549F7445E5F4F295F3F4F7A
:102CD00026343105D1F61092F5041092DB041092DF
:102CE000E9041092EA041092EB041092EC041092A2
:102CF000DD041092DE041092DF041092E0041092C2
:102D0000D3041092D4041092D5041092D6041092D9
:102D1000D1041092F7041092F6041092DC04109281
:102D2000ED041092EE041092EF041092F004109251
:102D3000E1041092E2041092E3041092E404109271
:102D4000D7041092D8041092D9041092DA04109289
:102D5000D2041092F80407EF11E0D8018D918D0193
:102D6000833619F062E00E94CE03B1E00E3F1B07EC
:102D7000A1F708E012E0EEEFF1E0C158DF4FF98370
:102D8000E883CF57D040C158DF4FA881B981CF57D2
:102D9000D0408D91C158DF4FB983A883CF57D04021
:102DA000833619F062E00E94CE03C158DF4FE881FC
:102DB000F981CF57D0400E171F0729F762E08AE04C
:102DC0000E94CE0362E082E10E94CE0310E0812FD8
:102DD0000E948B0A1F5F1835D1F71092E7041092FA
:102DE000E5041092E8041092E60480E590E00E9469
:102DF000F30F833008F080E08093E70481E590E0F2
:102E00000E94F30F833008F080E08093E80483E5AC
:102E100090E00E94F30F91E0813009F090E09093F0
:102E2000E50484E590E00E94F30F91E0813009F021
:102E300090E09093E60480919B0590919C0597FD0E
:102E400007C061E00E94CE0380919B050E947E0333
:102E500081E08093960581E090E09093A9058093AE
:102E6000A8058091780290917902A0917A02B091A0
:102E70007B020196A11DB11D809378029093790287
:102E8000A0937A02B0937B02809001069090020694
:102E9000A0900306B0900406C0900506D0900606E8
:102EA000E0900706F090080681E0F4E4CF16FCE419
:102EB000DF06F8E4EF06F3E5FF0609F080E0809313
:102EC00069030E94900727E4821620E5920625E513
:102ED000A2062DE4B20651F0182F34E4C3163CE4E8
:102EE000D30638E4E30633E5F30609F410E047E4DB
:102EF00050E565E57DE4409301065093020660933A
:102F000003067093040691E0892744E4C4164CE458
:102F1000D40648E4E40643E5F40609F481E080932E
:102F20006403109265031092660310926703109277
:102F300068030E94E1056854744F8F4F9F4F609360
:102F40006003709361038093620390936303112382
:102F500009F474C30E944B0864EF71E080E090E0D4
:102F60000E94FF040E944B086E0159E4C50ED11C5B
:102F7000CE0101967C0170E1A72EB12C512C412C81
:102F8000E696CFAEE697E896DFAEE897EA968FAF83
:102F9000EA971F2D84E1E9E1F1E0DE01AF59BF4F6F
:102FA00001900D928A95E1F788E1EDE2F1E0E69675
:102FB000AFADE697E896BFADE89701900D928A9580
:102FC000E1F788E1E5E4F1E0EA96AFADEA97B12FE9
:102FD00001900D928A95E1F7C5016CE070E00E94C6
:102FE000C61E1B01DE01AF59BF4F4D01712C612C74
:102FF000F401808161E0680F0CE32FEF3FEF4FEFAA
:1030000050E00E94B907D40112968C9161E0680FDC
:103010002FEF3FEF4FEF50E00E94B907BFEF6B1A61
:103020007B0AE4E08E0E911C2614370409F7411444
:10303000510489F40FEF2FEF3FEF4FEF50E06BE0BB
:103040008AE00E94B9072FEF3FEF4FEF50E06CE0AE
:103050008BE00E94B907D6018C91B2E0CB0ED11C57
:1030600061E0680F0FEF2FEF3FEF4FEF50E00E944E
:10307000B907F7018081F2E0EF0EF11C61E0680F03
:103080002FEF3FEF4FEF50E00E94B9070E94260755
:1030900064E670E080E090E00E94FF042FEF421AA7
:1030A000520A35E0A30EB11C4CE4A416B10409F099
:1030B00071CF60E570E080E090E00E94FF0458ED81
:1030C000E52E57E2F52E00E619E068E2C62ED12C77
:1030D000C701B6010E94C61E9B01C801B6010E942D
:1030E000C61ECB01B9010E9424080E94260768E190
:1030F00070E080E090E00E94FF040C5311095FEF44
:10310000E51AF108043C8FEF180711F70E944B08ED
:1031100060E570E080E090E00E94FF040E944B08B0
:10312000AFEFB0E0CF57DF4FB983A883C158D0408D
:10313000F12CE12C84E1E9E1F1E0DE01AF59BF4F70
:1031400001900D928A95E1F788E1EDE2F1E0DE0170
:10315000A75BBF4F01900D928A95E1F788E1E5E406
:10316000F1E0DE01119601900D928A95E1F7F701E9
:103170003196CD57DF4FF983E883C358D040CF57FE
:10318000DF4F88819981C158D0406CE070E00E9487
:10319000C61EEB967FAF6EAFEB97FCE3F69FC001C8
:1031A000F79F900D11246FEF70E00E94C61E162F3E
:1031B0009E01275B3F4FE9963FAF2EAFE997AE01E7
:1031C0004F5F5F4FE7965FAF4EAFE797CE018F59E6
:1031D0009F4F4C014AE0242E312CD12CC12CE99672
:1031E000AEADBFADE997AC9011969C911197129638
:1031F000E996BFAFAEAFE99750E040E0B7018A2D46
:103200000E943507EF966CAF7DAF8EAF9FAFEF9703
:10321000E796EEADFFADE797B08091813296E796E5
:10322000FFAFEEAFE79741EC50E0B7018B2D0E9466
:1032300035072B013C0161E06A0DEA960FADEA9774
:10324000EF962CAD3DAD4EAD5FADEF978A2D0E9450
:10325000B90761E06B0DEA960FADEA97A301920101
:103260008B2D0E94B907F5E0CF16D1040CF042C0B7
:10327000D401AC904DE751E0B7018A2D11969C9195
:103280000E943507EF966CAF7DAF8EAF9FAFEF9783
:10329000F401B28045E052E0B7018B2D93810E948A
:1032A00035072B013C0161E06A0D012FEF962CAD33
:1032B0003DAD4EAD5FADEF978A2D0E94B90761E03D
:1032C0006B0DA30192018B2D0E94B907F2E0CF167E
:1032D000D10484F441E852E0B701C1010E943507EE
:1032E0009B01AC01EA960FADEA976BE06C0D822D65
:1032F0000E94B9072FEFC21AD20A3FEF231A330AEE
:1033000044E0840E911CEC14FD040CF068CF0E9484
:10331000260764E670E080E090E00E94FF04CF574B
:10332000DF4F88819981C158D04081509F4FCF573E
:10333000DF4F99838883C158D040CD57DF4FE88055
:10334000F980C358D0409CE0E916F10409F0F2CEB0
:1033500064E670E080E090E00E94FF0488E4EDE520
:10336000F1E0DE01119601900D928A95E1F70E943D
:103370004B08DE0111967D01D12CC12CF701A190E3
:10338000B1907F010CE3FAE0AF16B1040CF00FEF3F
:1033900045E151E0B601C5010E9435079B01AC0132
:1033A00061E06A0D8A2D0E94B9070E9426076DE22E
:1033B00070E080E090E00E94FF042FEFC21AD20A72
:1033C00034E2C316D104D1F664EB70E080E090E003
:1033D0000E94FF04F12CE12CD12CC12C10E000E064
:1033E00029EDA22EBB24BA9437E2832E912CC6017C
:1033F000083211050CF011C1B4010E94C61E9B01D8
:10340000285F3F4FC701B4010E94C61E685F7F4F0F
:10341000C9010E9424080E9426076EE170E080E046
:1034200090E00E94FF040F5F1F4F44E3C40ED11CC5
:1034300057EFE50EF11C00351105C9F60E944B0847
:1034400068EE73E080E090E00E94FF041092C905EE
:103450000E94D20880E090E89093DC058093DB0521
:103460008FEF9FE79093DE058093DD0580917602D4
:1034700090917702866394609093770280937602AE
:103480008F5F9F479093B4058093B3058091C905E2
:1034900081110E94D20820E030E83093D8052093B3
:1034A000D7058FEF9FE79093DA058093D905309386
:1034B000D4052093D3059093D6058093D505552444
:1034C000539493E3292E0E94E1056B017C01C09285
:1034D000F104D092F204E092F304F092F4048091AB
:1034E00070038F5F809370030091780210917902CE
:1034F00020917A0230917B0280917C0290917D0232
:10350000A0917E02B0917F0246015701881A990A64
:10351000AA0ABB0A87E090E0A0E0B0E0801B910B14
:10352000A20BB30B88159905AA05BB05D8F46091C9
:103530005F0370E06F5F7F4F072E000C880B990BC5
:10354000A90198012F5F3F4F4F4F5F4F0E94951E7B
:1035500060935F03C0927C02D0927D02E0927E0273
:10356000F0927F028091EE029091EF02A091F00222
:10357000B091F102A7019601281B390B4A0B5B0B96
:10358000DA01C90181379741A105B10560F0809149
:103590006A03811104C080916B03882321F010928B
:1035A0006B030E94AD078FE395E00E941803892BFF
:1035B00009F49CC0C092EE02D092EF02E092F002B9
:1035C000F092F10250926B038FE395E00E94D602D5
:1035D0002091EC023091ED022630310544F48F3F0A
:1035E00081F52F5F3F4F3093ED022093EC02209145
:1035F000EC023091ED02233031050CF477C08F3F9F
:1036000009F474C00E94A3088091930590919405D9
:103610000597E0F40E945E08F5CF80529840B5010E
:103620000E94C61E9B01245C3F4FC70188599642E9
:10363000B5010E94C61E61507F4FEACE0E949B07D3
:1036400005CF1092ED021092EC02D1CF60E272E051
:1036500080918F05909190050E94DF20892B41F485
:1036600086E292E00E94680881E392E00E94680886
:103670008091930590919405892BC1F000918F055D
:103680001091900564E372E0C8010E94DF20892B4D
:1036900009F0DFC019A246E348A32F8ECE014F9652
:1036A0000E94680881E392E00E94680890E080E050
:1036B0000E94750820918F0530919005811123C1DA
:1036C0002115310519F0C9010E94901F1092900533
:1036D00010928F0510929405109293051092920506
:1036E000109291051092ED021092EC02D0905F03BF
:1036F000C0906403D11045C2C1104AC20CE320E05F
:1037000030E04FEF50E061E080E00E94B90720E038
:103710003FEF4FEF50E062E081E00E94B90720E008
:1037200030E840E050E063E082E00E94B9072FEF0C
:103730003FEF4FEF50E065E083E00E94B90722E3DE
:103740003DEC42E350E066E085E00E94B90720E0EE
:1037500035E44FEF50E067E086E00E94B9072FEFB5
:103760003FEF4FEF50E069E087E00E94B9072FEF8D
:1037700030E0A9016AE089E00E94B9070FEF20E07C
:1037800030E840E050E06BE08AE00E94B90720E0BA
:1037900030E04FEF50E06CE08BE00E94B907809181
:1037A000F5048C3008F08C500CE010E0E82EF12C81
:1037B000C8010C9720E041E560E08E159F0511F0EF
:1037C00040E06FEFC8010E9406010F5F1F4F0831F4
:1037D000110571F78091F6048C3008F08C50E82EBA
:1037E000F12CC801489720E04FEF6FEFE816F9067B
:1037F00019F02FEF40E060E0C8010E9406010F5F62
:103800001F4F0432110569F780916A03882309F478
:10381000BFC1FAE38F2EF3E09F2EA6E1AA2EA3E00C
:10382000BA2EB2EFEB2EB2E0FB2E10E000E0D40196
:103830006D914D01F50141915F01D7012D917D0100
:10384000C8010E9406010F5F1F4F0432110579F76E
:103850009FC16AE372E0C8010E94DF20892B09F052
:1038600025CF18ECE12E12E0F12E04EAC02E02E082
:10387000D02E80E8682E82E0782E53014601870121
:103880000E945E08382E0E945E08482E0E945E0844
:10389000D8013D928D01F40141924F01D5018D93E4
:1038A0005D01B2E00C3E1B0759F70E945E088F3F96
:1038B000910509F0FBCE0E945E088E3F910509F04C
:1038C000F5CE0E945E088D3F910509F0EFCE509233
:1038D0006A038AE393E0A6E1B3E042EF52E0F70126
:1038E00021917F01FC012193CF01F60121916F010C
:1038F0002D93F30121913F01FA012193AF010E15A0
:103900001F0569F7D3CE109294051092930563E3D7
:1039100072E0C9010E94E820E5CEB1E0DB1247C1A8
:1039200080919E0590919F05892B09F440C180915B
:10393000A8059091A905892B09F439C10E942F048B
:1039400036C180916A03882359F0112349F01092FF
:10395000650310926603109267031092680353C1C7
:103960000E94E105C0906003D0906103E090620383
:10397000F09063036C157D058E059F0568F11111AC
:10398000F7C08091650390916603A0916703B091A1
:103990006803892B8A2B8B2B51F40E94E1056093DD
:1039A00065037093660380936703909368030E9496
:1039B000E105009165031091660320916703309142
:1039C0006803601B710B820B930B6B3F71058105C4
:1039D000910510F00E94AD0710926F0310926E03D4
:1039E00010926D0310926C037BE8C72E74E0D72E03
:1039F000EEEFEE2EE1E0FE2ED7019D907D01B2E6C6
:103A0000B91530F161E0892D0E94CE03892D0E9405
:103A10007E0367EFA62E61E0B62E01E010E0F5010F
:103A200081915F01833658F40E94A503F801319714
:103A3000EC0DFD1D21E0892B09F020E020830F5FB4
:103A40001F4F0830110559F762E0892D0E94CE03FF
:103A5000F7E0CF0ED11CC158DF4F28813981CF57F5
:103A6000D0402E153F0541F661E081E00E94BC0A7E
:103A700062E081E00E94BC0A61E082E00E94BC0A30
:103A800062E082E00E94BC0A61E083E00E94BC0A1E
:103A900062E083E00E94BC0A61E086E00E94BC0A0A
:103AA00062E086E00E94BC0A8AE00E94A50321E051
:103AB000892B09F020E02093AE0482E10E94A50347
:103AC00021E0892B09F020E02093AF0488E0A82EA4
:103AD000B12C96E0C92ED12CEE24E394F12C01E018
:103AE00010E021E030E041E050E061E070E081E092
:103AF00090E00E945A0B39E0A32EB12C47E0C42E6F
:103B0000D12C52E0E52EF12C02E010E022E030E072
:103B100042E050E062E070E082E090E00E945A0BE8
:103B200080916E0390916F038F5F9F479093B205D2
:103B30008093B1058091C90581110E94D2088091BE
:103B40006C0390916D038F5F9F479093B0058093B6
:103B5000AF058091C90581110E94D2080E94D20848
:103B600040E050E0452B09F4AECC0E940000A9CC07
:103B70001092650310926603109267031092680317
:103B80002BCF80915E03882319F0CC2009F43CCE22
:103B900080915E03811110925E03C11008C0809174
:103BA0006A03882309F4B9CEDD2009F4B9CE0E9456
:103BB0009007182F80916B03811104C080916A03D4
:103BC000882391F08091690381110EC024E43CE4C4
:103BD00048E453E520930506309306064093070614
:103BE0005093080650926903809169038111A9CE10
:103BF0001092650310926603109267031092680397
:103C0000112309F4E7CE10926403E6CE80918F056C
:103C100090919005009711F00E94901F80919E0551
:103C200090919F050E94901F80919B0590919C050B
:103C300097FD03C060E00C94CE030895F999FECF80
:103C400092BD81BDF89A992780B50895262FF999DC
:103C5000FECF1FBA92BD81BD20BD0FB6F894FA9A6F
:103C6000F99A0FBE01960895052E97FB1EF4009455
:103C70000E944B1E57FD07D00E94951E07FC03D0E3
:103C80004EF40C944B1E50954095309521953F4F26
:103C90004F4F5F4F089590958095709561957F4F38
:103CA0008F4F9F4F08950E94B71EA59F900DB49F00
:103CB000900DA49F800D911D112408952F923F9285
:103CC0004F925F926F927F928F929F92AF92BF922C
:103CD000CF92DF92EF92FF920F931F93CF93DF93D8
:103CE000CDB7DEB7CA1BDB0B0FB6F894DEBF0FBE35
:103CF000CDBF09942A88398848885F846E847D8482
:103D00008C849B84AA84B984C884DF80EE80FD8083
:103D10000C811B81AA81B981CE0FD11D0FB6F894F9
:103D2000DEBF0FBECDBFED010895A1E21A2EAA1B82
:103D3000BB1BFD010DC0AA1FBB1FEE1FFF1FA2175B
:103D4000B307E407F50720F0A21BB30BE40BF50B58
:103D5000661F771F881F991F1A9469F760957095E1
:103D6000809590959B01AC01BD01CF010895A29F64
:103D7000B001B39FC001A39F700D811D1124911D3F
:103D8000B29F700D811D1124911D089597FB072E80
:103D900016F4009407D077FD09D00E94E01E07FCBE
:103DA00005D03EF4909581959F4F0895709561954B
:103DB0007F4F0895EE0FFF1F0590F491E02D0994B9
:103DC000AA1BBB1B51E107C0AA1FBB1FA617B70741
:103DD00010F0A61BB70B881F991F5A95A9F780955D
:103DE0009095BC01CD0108950F931F93CF93DF935E
:103DF0008230910510F482E090E0E091FF05F091AF
:103E0000000630E020E0B0E0A0E0309799F4211502
:103E1000310509F44AC0281B390B24303105D8F587
:103E20008A819B816115710589F1FB0193838283EE
:103E3000FE0111C040815181028113814817590749
:103E4000E0F04817590799F4109761F012960C9317
:103E5000129713961C933296CF01DF91CF911F9149
:103E60000F9108950093FF0510930006F4CF2115DC
:103E7000310551F04217530738F0A901DB019A01CF
:103E8000BD01DF01F801C1CFEF01F9CF909300062A
:103E90008093FF05CDCFFE01E20FF31F8193919335
:103EA0002250310939832883D7CF2091FD053091E5
:103EB000FE05232B41F4209115013091160130931A
:103EC000FE052093FD052091130130911401211569
:103ED000310541F42DB73EB74091170150911801BB
:103EE000241B350BE091FD05F091FE05E217F30769
:103EF000A0F42E1B3F0B2817390778F0AC014E5F5A
:103F00005F4F2417350748F04E0F5F1F5093FE0593
:103F10004093FD05819391939FCFF0E0E0E09CCF2B
:103F2000CF93DF930097E9F0FC013297138212825E
:103F3000A091FF05B0910006ED0130E020E0109760
:103F4000A1F420813181820F931F2091FD053091D2
:103F5000FE052817390709F061C0F093FE05E093CC
:103F6000FD05DF91CF910895EA01CE17DF07E8F54F
:103F70004A815B819E0141155105B1F7E901FB833F
:103F8000EA8349915991C40FD51FEC17FD0761F4DD
:103F9000808191810296840F951FE901998388831E
:103FA000828193819B838A83F0E0E0E012968D9179
:103FB0009C9113970097B9F52D913C911197CD01E4
:103FC0000296820F931F2091FD053091FE05281760
:103FD000390739F6309751F5109200061092FF0517
:103FE000B093FE05A093FD05BCCFD383C28340816F
:103FF0005181840F951FC817D90761F44E5F5F4F39
:1040000088819981480F591F518340838A819B8100
:10401000938382832115310509F0B0CFF093000618
:10402000E093FF059ECFFD01DC01C0CF1382128219
:10403000D7CFB0E0A0E0EFE1F0E20C94601E8C017D
:10404000009751F4CB010E94F41E8C01C801CDB73A
:10405000DEB7E0E10C947C1EFC01E60FF71F9C012B
:1040600022503109E217F30708F49DC0D901CD9120
:10407000DC911197C617D70798F0C530D10530F3FA
:10408000CE0104978617970708F3C61BD70B229714
:10409000C193D1936D937C93CF010E94901FD6CF93
:1040A0005B01AC1ABD0A4C018C0E9D1EA091FF0550
:1040B000B0910006512C412CF12CE12C109731F5D8
:1040C0008091FD059091FE058815990509F05CC069
:1040D0004616570608F058C08091130190911401BC
:1040E000009741F48DB79EB7409117015091180188
:1040F000841B950BE817F90708F055C0F093FE05EF
:10410000E093FD05F90171836083A0CF8D919C91AF
:10411000119712966C90129713967C901397A8158E
:10412000B90559F56C0142E0C40ED11CCA14DB0478
:1041300020F1AC014A195B09DA011296159780F05B
:104140006282738251834083D9016D937C93E11421
:10415000F10471F0D7011396FC93EE93129776CF8A
:1041600022968C0F9D1FF90191838083F301EFCF7D
:10417000F0930006E093FF0569CF4816590608F44E
:104180002C017D01D3019ACFCB010E94F41E7C014A
:10419000009749F0AE01B8010E94D620C8010E94E4
:1041A000901F870153CF10E000E050CFFB01DC01EE
:1041B00002C001900D9241505040D8F70895FB0184
:1041C000DC018D91019080190110D9F3990B0895AC
:1041D000FB01DC0101900D920020E1F7089510E051
:1041E000CBEDD0E004C0FE010E94DA1E2196CC3D4A
:0841F000D107C9F7F894FFCFD5
:1041F80000C18081000000FFFFFFFF00E100000018
:1042080000000000000906800008000900060007F9
:10421800000400050002000300000001000C000D6E
:10422800000E000F001000110012001300140015FA
:104238000016001700180019001A001B001C001DAA
:10424800001E001F0020002100220023001100048E
:10425800001D0008001600010022000A000D0006DB
:104268000019001F00000013000B001B0003000FC3
:1042780000230009001500050018000C0002001EAC
:10428800000700120021000E001A00100020001480
:10429800001C001700000163636363630203636328
:1042A800636363040563636363630607636363634C
:1042B80063080963636363630A0B6363636363632C
:1042C80063636363636363636363636363636363B6
:1042D800636363636363636363636300000000EDA8
:1042E8000569062B061006080963636363630706FE
:1042F8000504036363636363305613140C320000D0
:104308000000B002CB05D102C6021803D602F4029F
:1043180070726F746F0053494D4855425F312E30AB
:10432800000D0A006C6564736300736C6564730048
:00000001FF
