:100000000C94D9000C9401010C9401010C94010191
:100010000C9401010C9401010C9401010C94010158
:100020000C9401010C9401010C9433120C94A21253
:100030000C9401010C9401010C9401010C94010138
:100040000C9401010C9401010C9401010C94010128
:100050000C9401010C9401010C9401010C94D41432
:100060000C9401010C9401010C9401010C94010108
:100070000C9401010C9401010C9401010C940101F8
:100080000C9401010C9401010C9401010C940101E8
:100090000C9401010C9401010C9401010C940101D8
:1000A0000C9401010C9401010C940101000000006A
:1000B000240027002A002D0030000000000023004B
:1000C000260029002C002F00080B0002020200006D
:1000D00009040000010202000005240010010524AB
:1000E000010101042402060524060001070581031D
:1000F00010004009040100020A0000000705020286
:1001000040000007058302400000040309041201B7
:100110000002EF020140353F7A4500010102030170
:10012000417574686F72004D552D50616E656C415C
:100130007065782D583100070605040100080A0B88
:100140000C0D090000000200090F0000030401006B
:100150000C00000000000000000000000000000093
:1001600000000408020110408040102040804080C0
:10017000080204018040201002011080102040403D
:100180002000000000250028002B002E0031000474
:10019000040404040304050202020204030202022E
:1001A00002060606060606040402020204045115AD
:1001B000261D11241FBECFEFDAE0DEBFCDBF12E057
:1001C000A0E0B1E0E8E3F0E402C005900D92A034B5
:1001D000B107D9F725E0A0E4B2E001C01D92AC3F21
:1001E000B207E1F710E0C8EDD0E004C02197FE01AE
:1001F0000E94FA1DC73DD107C9F70E94BE170C9493
:100200000F200C940000CF93DF93E0919205F091C2
:1002100093058E179F0708F05AC030919805332335
:1002200061F0639FB0011124672F349FA001112456
:10023000452F329F90011124232FE0919E05A0911C
:100240009905B0919A0530919B05E31343C0FC01D9
:10025000EE0FFF1F8E0F9F1F8A0F9B1FC0919B05E4
:10026000C80FD92FD11DE881E627A091A305B09131
:10027000A405AE0FB11DB093A405A093A305E09112
:100280009C05E80FF92FF11DE081E427EA0FFB2F11
:10029000F11DF093A405E093A305A0919D05A80F7F
:1002A000B92FB11D3C913227E30FF11DF093A40546
:1002B000E093A3056883E0919C05E80FF92FF11DF9
:1002C000408330919D05830F911DFC012083DF91B8
:1002D000CF910895880F991F880F991F8A0F9B1F30
:1002E000E80FF92FF11D1082B9CFCF92DF92EF9274
:1002F000FF920F931F93CF93DF93D901E8016A0117
:10030000F9014217530714F06901FA01882309F42F
:1003100040C0CB016C157D050CF4C6019F018E1702
:100320009F070CF49C01A417B50734F4CF01821B7E
:10033000930B9C012C0D3D1D0D2C000CEE08FF08AD
:10034000032E000C440B550B2C193D094E095F0977
:10035000AEEFBFEF0E94731D9F01FF0F440B550BC3
:100360002C193D094E095F090E94541DDA01C9018B
:100370008F5F9F47A109B1098883998382E090E04C
:10038000DF91CF911F910F91FF90EF90DF90CF9071
:10039000089590E080E0F4CFFC0180917103882300
:1003A00011F13FB7F89482E08093E9002091F200C8
:1003B000822F90E01816190614F481E090E088234B
:1003C00039F0289844E6409370034091F10040834F
:1003D000222339F02091F200211103C02BE6209353
:1003E000E8003FBF08958FEF9FEF0895409170029E
:1003F0005091710220916E0230916F0242175307A3
:10040000B4F49091E8009570E1F39091E80092FDCA
:1004100019C08093F1008091700290917102019651
:100420008F739927892B19F48EEF8093E8008091C0
:100430007002909171020196909371028093700204
:1004400081E0089580E00895DF92EF92FF920F938C
:100450001F93CF93DF93D82E8A01EB017B01E40E2B
:10046000F51ECE15DF0559F0D7FE12C0FE018491AE
:100470000E94F60121968111F4CF0FEF1FEFC80102
:10048000DF91CF911F910F91FF90EF90DF90089532
:100490008881EECF2FB7F89487708093E900909110
:1004A000E800892F807295FF04C09091F20080E4EB
:1004B000891B2FBF0895615030F02091F100FC019D
:1004C00020830196F8CF289884E6809370030895DE
:1004D0008091660281110DC082E08093620284E007
:1004E00080936302109265021092640281E080930F
:1004F000660282E692E008950F931F93CF93DF93F5
:100500001F92CDB7DEB782E0898342E450E068EC09
:1005100070E080E80E9424020E946802DC011296CA
:100520000D911C910115110589F0D801ED91FC91F7
:100530000280F381E02DBE016F5F7F4FC8010995F6
:1005400097FD04C0F80100851185ECCF89810F90DB
:10055000DF91CF911F910F910895CF93DF931F9259
:10056000CDB7DEB76983DC01ED91FC910280F381A8
:10057000E02D41E050E0BE016F5F7F4F09950F9085
:10058000DF91CF91089583E08093E9008091F2009C
:10059000882319F08AE38093E800089583E00E949D
:1005A0004A0290E00895CF93DF931F92CDB7DEB754
:1005B000FC018485958597FD08C02FEF3FEF3587B7
:1005C00024870F90DF91CF910895CE0101960E946C
:1005D000CC01019719F4898190E0F3CF8FEF9FEF61
:1005E000F0CF0F931F93CF93DF931F92CDB7DEB75A
:1005F0008C01FC018485958597FF0BC0CE01019687
:100600000E94CC01019771F4898190E0F8019587EF
:100610008487F801848595850F90DF91CF911F9194
:100620000F9108958FEF9FEFF1CFFC0184859585A1
:1006300097FD0BC09FB7F89482E08093E90080910A
:10064000F2009FBF90E0019608959FB7F89482E072
:100650008093E9008091F2009FBF90E0089581505F
:100660008F3008F047C0E82FF0E0E75CFC4F0C94B7
:10067000FA1D56035A0348034E0352037A037A03C2
:100680007A035D03630367036B0371037A037503E6
:10069000809180008F778093800008958091800002
:1006A0008F7DF9CF80918000877FF5CF84B58F77DC
:1006B00084BD089584B58F7DFBCF809190008F77A6
:1006C000809390000895809190008F7DF9CF809164
:1006D0009000877FF5CF8091C0008F778093C00016
:1006E00008958091C0008F7DF9CF8091C200877FEF
:1006F0008093C2000895CF93DF93282F30E0F90153
:10070000ED5BFE4F8491F901EE59FE4FD491F90152
:10071000E157FE4FC491CC2391F081110E942F0329
:10072000EC2FF0E0EE0FFF1FEF57FE4FA591B491B5
:100730008FB7F894EC91D095DE23DC938FBFDF91D7
:10074000CF910895CF93DF93282F30E0F901ED5B2F
:10075000FE4F8491F901EE59FE4FD491F901E15712
:10076000FE4FC491CC23A1F081110E942F03EC2FE6
:10077000F0E0EE0FFF1FE654FF4FA591B491EC910E
:10078000ED2381E090E009F480E0DF91CF910895BE
:1007900080E090E0FACFCF93DF9390E0FC01EE5938
:1007A000FE4F249181579E4FFC0184918823C9F00C
:1007B00090E0880F991FFC01E455FF4FA591B4917B
:1007C000FC01EF57FE4FC591D49161110DC09FB749
:1007D000F8948C91209582238C93888128232883F8
:1007E0009FBFDF91CF910895623051F49FB7F89485
:1007F0003C91822F809583238C93E8812E2BEFCF21
:100800008FB7F894EC912E2B2C938FBFEACF3FB784
:10081000F89480915E0290915F02A0916002B09185
:10082000610226B5A89B05C02F3F19F00196A11DB6
:10083000B11D3FBFBA2FA92F982F8827BC01CD012A
:10084000620F711D811D911D42E0660F771F881F89
:10085000991F4A95D1F708950F931F93CF93DF9374
:10086000CDB7DEB729970FB6F894DEBF0FBECDBF68
:100870001092A4051092A3050E94070400919F0501
:100880001091A0052091A1053091A2056017710774
:100890008207930740F460939F057093A0058093AF
:1008A000A1059093A20500919F051091A0052091AC
:1008B000A1053091A205601B710B820B930B6C326A
:1008C000714081059105C0F2F89480919405909152
:1008D00095059A838983E0919905F0919A05DF0146
:1008E00011968081898790919005E091A505F091FE
:1008F000A6058091A705992309F445C09081982BFE
:1009000098879081809589238F838F818C8388E05D
:100910008B8358856F8149853B812C8189819A81A0
:10092000508347FD252F3A952083262F39F0441F09
:1009300000C000006083000000C0F2CF38E04D919D
:1009400060830000019761F7F093A605E093A50589
:1009500049873B832C839A83898378940E94070478
:1009600060939F057093A0058093A1059093A205C5
:1009700029960FB6F894DEBF0FBECDBFDF91CF91A1
:100980001F910F9108959081982B98879081809561
:1009900089238F838F818E8388E08D8358856F8133
:1009A00049853D812E8189819A81508347FD252F7C
:1009B00000C000C0208300C000C000C000C000C054
:1009C00060830000262F3A9541F0441F000000C0CC
:1009D00000C000C000C000C0E8CF38E04D9100C0AA
:1009E000608300C0019709F7F093A605E093A50581
:1009F00049873D832E83AFCF8F929F92AF92BF9254
:100A0000CF92DF92EF92FF924B015C010E940704AC
:100A10006B017C010E9407046C197D098E099F09F6
:100A2000683E734081059105A8F321E0821A910880
:100A3000A108B10888EEC80E83E0D81EE11CF11CA5
:100A400081149104A104B10429F7FF90EF90DF9085
:100A5000CF90BF90AF909F908F9008957F928F928C
:100A60009F92AF92BF92CF92DF92EF92FF920F933D
:100A70001F93CF93DF93C82E8B017A01809171036E
:100A8000811110C08FEF9FEFDF91CF911F910F91D8
:100A9000FF90EF90DF90CF90BF90AF909F908F909E
:100AA0007F9008958091740280FF05C08091E000DE
:100AB00082608093E000CE2DDF2DD12C8AEFB82EFE
:100AC0008C2D8770982E8C2D8072882E8C2D8074A2
:100AD000782E9AE3A92E209719F4DD2009F452C04C
:100AE0008C2D0E944A0281110AC0BA94BB2051F297
:100AF00061E070E080E090E00E94FC04ECCF8C1795
:100B00001D0611F00CF08C2F9FB7F8949092E9001D
:100B10002091E80025FD02C09FBFDDCF282F30E0E7
:100B2000C21BD30B882029F08150A0F01092F10055
:100B3000FBCFF801C7FC0AC0815050F041914093AF
:100B4000F100FACF44914093F10031968150D0F7F3
:100B5000020F131FDD2021F0A092E800D12CDCCF82
:100B60008091E80085FD07C0A092E800DD24D394C1
:100B7000209791F2F3CF209779F6772069F2A0922F
:100B8000E800CACF5D9884E680937302C7017CCFEA
:100B9000CF93DF93EC0180911201882331F083E041
:100BA0000E942E051816190634F081E090E09B8310
:100BB0008A8380E090E0DF91CF9108952FB7F89479
:100BC00060915A0270915B0280915C0290915D028B
:100BD0002FBF0895DC01FB0112962C91129784819E
:100BE00095812817190641F491818081813A31F469
:100BF0009D7F81E0913009F080E008958132E1F736
:100C00009B3029F482811F968C9381E008959A305D
:100C100099F7828150968C93F8CFDC01FB0188E430
:100C2000808389E4818384E482831D969C911D974F
:100C30009F709F5B93831D968D919C9124E0969568
:100C400087952A95E1F78F708F5B848385E00895FF
:100C5000EF92FF920F931F93CF93DF93FB012081BD
:100C6000213889F52381223271F5DC0112964C91ED
:100C7000248135814217130631F58C01FC01C385AF
:100C8000D485F12CE12C209791F04C815D816A8113
:100C90007B818E81811180E80E9424028F3F98071A
:100CA00059F0E80EF91E0990D881C02DECCF81E0F3
:100CB000D8011F968C93C701DF91CF911F910F919F
:100CC000FF90EF90089590E080E0F6CFCF93DF9310
:100CD000CDB7DEB769970FB6F894DEBF0FBECDBFB4
:100CE000FC01DB018C918F5F8C939E012D5F3F4F48
:100CF0008DE0D9011D928A95E9F729E0298384E0E6
:100D00008A8391E09D8383E08E832A8721E22B876B
:100D10009C879D879F8722E2288B27E02B8B25E0ED
:100D20002C8B8E8B20E430E0388F2F8B998F828133
:100D30008B8395858685998B8A8B838180688D8B43
:100D400049E150E0BE016F5F7F4F80E00E942402C6
:100D500069960FB6F894DEBF0FBECDBFDF91CF917D
:100D60000895CF93DF9380915102811167C081E094
:100D700080934402809345022AE432E03093470294
:100D80002093460210924902109248022FEE31E061
:100D9000309341022093400210924C0210924B0279
:100DA00010924E0210924D0280934F028093500297
:100DB00081EC80934A020E946802FC01818190913B
:100DC0004402482F490F5527551F483051059CF5BF
:100DD000A281B381109709F520E432E033832283A6
:100DE0002081209342028093430280914502820F2A
:100DF000808320914602A22FB09147028A2F821B46
:100E00008917C8F481813D91C82FD0E0C050DF4FD1
:100E100038838F5F8183F2CFD90118962D913C9151
:100E2000199721153105C1F720E432E019963C935A
:100E30002E931897D5CF81E08093510280E492E001
:100E4000DF91CF9108958091990590919A05892B12
:100E500041F08091A3059091A405892B11F00C9489
:100E60002C0408950F931F9325E3FC012E9FC001CE
:100E70002F9F900D1124E3E4E69F9001E79F300D32
:100E80001124820F931F840F951F60E073E00E946E
:100E9000E61D8C018F3F910509F0D4F46FEF70E0EF
:100EA000681B790B072E000C880B990BCB01772759
:100EB0006627012E000C220B330B322F212F102F0F
:100EC0000027602B712B822B932B1F910F9108957C
:100ED0008115924094F41A956FEF70E0601B710BCE
:100EE000072E000C880B990B982F872F762F6627DB
:100EF000012E000C220B330BE4CF1250B801012E4F
:100F0000000C880B990BCB01772766272FEF30E079
:100F1000A901401B510B8A01EBCFCF93DF93D0E0A7
:100F2000C0E020E040E060E0CE010E940301219695
:100F3000C432D105B1F7DF91CF910C9423079F9272
:100F4000AF92BF92CF92DF92EF92FF920F931F93D7
:100F5000CF93DF93C82F962E69017A0110E0409F4E
:100F6000C001419F900D1124E4E6F0E0BF010E9412
:100F7000E61D29E1269FC001279F900D1124BF0186
:100F80000E94E61DB62EBB27AF2D9E2D8D2D9927D5
:100F9000809FA001819F500D909F500D1124CA0188
:100FA000BF010E94E61D269FC001279F900D1124BE
:100FB000BF010E94E61DA62EDD24C09EC001C19E79
:100FC000900DD09E900D1124BF010E94E61D269F1A
:100FD000C001279F900D1124BF010E94E61D162F0E
:100FE000D0E0E92CF12CEC16FD0644F0212F4A2D1F
:100FF0006B2DCE010E9403012196F5CFDF91CF9199
:101000001F910F91FF90EF90DF90CF90BF90AF9026
:101010009F9008950F931F93CF93DF93D82F162F90
:1010200080E0C1E0C80F0D2F2FEF3FEF4FEF50E0F2
:101030006C2F0E949F078C2FCA3099F7D1E0DC0FEC
:10104000012F2FEF3FEF4FEF50E06D2F8C2F0E94BD
:101050009F07CD2FD43291F7DF91CF911F910F9140
:1010600008950F93CF9380E0C1E0C80F00E020E027
:1010700030E0A9016C2F0E949F078C2FC432A1F78A
:10108000CF910F910C9423072F923F924F925F9232
:101090006F927F928F929F92AF92BF92CF92DF9288
:1010A000EF92FF920F931F93CF93DF93CDB7DEB7ED
:1010B000C658D1090FB6F894DEBF0FBECDBF0E944F
:1010C000310864EF71E080E090E00E94FC040E942F
:1010D00031086E0129E4C20ED11CCE0101967C01BB
:1010E00070E1A72EB12C512C412CEF96CFAEEF978B
:1010F000C158DF4FD882CF57D040182FEA96FFAEA5
:10110000EA9784E1E9E1F1E0DE01AF59BF4F0190D8
:101110000D928A95E1F788E1EDE2F1E0EF96AFAD4F
:10112000EF97C158DF4FB881CF57D04001900D9253
:101130008A95E1F788E1E5E4F1E0A12FEA96BFADF9
:10114000EA9701900D928A95E1F7C5016CE070E095
:101150000E94E61D1B01FE01EF59FF4F4F01712C4C
:10116000612CF401808161E0680F0CE32FEF3FEF09
:101170004FEF50E00E949F07F401828161E0680F09
:101180002FEF3FEF4FEF50E00E949F07FFEF6F1AE6
:101190007F0A24E0820E911C2614370411F74114B3
:1011A000510489F40FEF2FEF3FEF4FEF50E06BE06A
:1011B0008AE00E949F072FEF3FEF4FEF50E06CE077
:1011C0008BE00E949F07F6018081F2E0CF0ED11CD8
:1011D00061E0680F0FEF2FEF3FEF4FEF50E00E94FD
:1011E0009F07F7018081F2E0EF0EF11C61E0680FCC
:1011F0002FEF3FEF4FEF50E00E949F070E94230721
:1012000064E670E080E090E00E94FC042FEF421A58
:10121000520A35E0A30EB11C4CE4A416B10409F047
:1012200070CF60E570E080E090E00E94FC0448ED43
:10123000C42E47E2D42E50E6E52E59E0F52E68E2A2
:10124000A62EB12CC601B5010E94E61D9B01C70167
:10125000B5010E94E61DCB01B9010E940A080E9457
:10126000230768E170E080E090E00E94FC048CE3DA
:10127000E81AF1089FEFC91AD108E4ECEE16EFEF77
:10128000FE0601F70E94310860E570E080E090E022
:101290000E94FC040E9431082FEF30E0EE963FAF31
:1012A0002EAFEE97F12CE12C84E1E9E1F1E0DE01D3
:1012B000AF59BF4F01900D928A95E1F788E1EDE2B9
:1012C000F1E0EF96AFADEF97C158DF4FB881CF5740
:1012D000D04001900D928A95E1F788E1E5E4F1E0D4
:1012E000A12FEA96BFADEA9701900D928A95E1F79A
:1012F000C7010196CB57DF4F99838883C558D040EB
:10130000EE968EAD9FADEE976CE070E00E94E61D0C
:10131000EC967FAF6EAFEC97ECE3E69FC001E79FE2
:10132000900D11246FEF70E00E94E61DCC57DF4F47
:101330006883C458D040EF96FFADEF97E896FFAFB3
:10134000E897C158DF4F2881CF57D040E9962FAF9B
:10135000E997E6961FAFE697EA963FADEA97E796DC
:101360003FAFE797312C212CE996EEADFFADE99721
:10137000C08091813296E996FFAFEEAFE99750E0D9
:1013800040E0B7018C2D0E9432072B013C01E7960B
:10139000EEADFFADE797D08091813296E796FFAF33
:1013A000EEAFE79741EC50E0B7018D2D0E94320778
:1013B0004B015C0161E06C0DEB960FADEB97A30167
:1013C00092018C2D0E949F0761E06D0DEB960FAD91
:1013D000EB97A50194018D2D0E949F07F5E02F1634
:1013E00031040CF05BC06101CC0CDD1CCC0CDD1CAD
:1013F00021E630E02C0F3D1FC20ED31EF601A08067
:101400004DE751E0B7018A2D91810E9432072B01EF
:101410003C01F601B28045E052E0B7018B2D93818B
:101420000E943207C058DF4F688379838A839B8389
:10143000C058D04061E06A0DCC57DF4F0881C458D6
:10144000D040A30192018A2D0E949F0761E06B0D9D
:10145000CC57DF4F0881C458D040C058DF4F288197
:1014600039814A815B81C058D0408B2D0E949F07F3
:10147000F2E02F16310494F441E852E0B701C101C3
:101480000A960E9432079B01AC01EB960FADEB97D9
:101490006BE0620D8AE0820D0E949F072FEF221AF7
:1014A000320AE214F3040CF05FCF0E94230764E6D3
:1014B00070E080E090E00E94FC04EE968EAD9FAD5F
:1014C000EE9781509F4FEE969FAF8EAFEE97CB5722
:1014D000DF4FE880F980C558D0409CE0E916F10460
:1014E00009F0E2CE64E670E080E090E00E94FC0447
:1014F00088E4EDE5F1E0A12FEA96BFADEA9701900F
:101500000D928A95E1F70E943108A12EEA96BFACB0
:10151000EA97F12CE12CF501C190D1905F010FEF1A
:10152000FAE0CF16D1040CF40CE345E151E0B70129
:10153000C6010E9432079B01AC0161E06C0D8C2D4D
:101540000E949F070E9423076DE270E080E090E018
:101550000E94FC042FEFE21AF20A34E2E316F104CF
:10156000D1F664EB70E080E090E00E94FC0408E6B5
:1015700019ED80EEC82E87EFD82EF12CE12C99EDD5
:10158000A92EBB24BA9427E2822E912CC60148E2F0
:10159000E416F1040CF048C0805E974FB4010E943D
:1015A000E61D9B01285F3F4FC8018856994DB40145
:1015B0000E94E61D685F7F4FC9010E940A080E94D1
:1015C00023076EE170E080E090E00E94FC048FEF62
:1015D000E81AF80A94E3C90ED11C09501F4FE0E540
:1015E000EE16F10499F60E94310868EE73E080E08F
:1015F00090E0CA57DF4F0FB6F894DEBF0FBECDBFE5
:10160000DF91CF911F910F91FF90EF90DF90CF90DE
:10161000BF90AF909F908F907F906F905F904F9012
:101620003F902F900C94FC04B5010E94E61D9B0195
:10163000245C3F4FC801B5010E94E61D61507F4FF9
:10164000BBCF8AE395E00E941503892BD1F38AE38F
:1016500095E00C94D302FC0101900020E9F731974A
:10166000AF01481B590BBC018AE395E00C94C805F7
:10167000CF93DF93EC0180918A0590918B050097C1
:1016800059F020918C0530918D052C173D0720F0E5
:1016900081E0DF91CF910895BE016F5F7F4F0E947F
:1016A000391F009789F090938B0580938A05D0931A
:1016B0008D05C0938C0520918E0530918F05232BCD
:1016C00039F7FC011082E4CF80E0E3CF0F931F9342
:1016D000CF93DF9300D0CDB7DEB789831A82009114
:1016E0008E0510918F050F5F1F4FC8010E94380BA8
:1016F0008823A1F020918A0530918B0580918E0579
:1017000090918F05BE016F5F7F4F820F931F0E94E4
:10171000082010938F0500938E0581E00F900F90A5
:10172000DF91CF911F910F9108958F929F92AF9269
:10173000BF92CF92DF92EF92FF920F931F93CF93BE
:10174000DF93CDB7DEB7ADB6BEB68091F7052DB746
:101750003EB7281B31090FB6F8943EBF0FBE2DBF10
:101760008DB79EB701966C01E090C605F12C809173
:10177000C2059091C305D601FC019F01281B390BBE
:101780002E153F051CF421912D93F7CF8091C705AD
:10179000882359F18091BE059091BF0528E097FDFF
:1017A00009C068E671E00E94E61D6DE270E00E94EB
:1017B000E61D262F8091C0059091C10568E097FD38
:1017C00008C068E671E00E94E61D6DE270E00E94CC
:1017D000E61DF601EE0DFF1D90E1699FB001112499
:1017E000262B2083F70131967F0186010E0D1F1DE8
:1017F0002091CC053091CD054091CA055091CB0583
:101800006091A8057091A9058091C80581700E941A
:101810007501E80EF91E86010E0D1F1D2091D005E1
:101820003091D1054091CE055091CF056091AA0528
:101830007091AB058091C805869581700E947501F5
:10184000E80EF91E86010E0D1F1D2091D405309162
:10185000D5054091D2055091D3056091AC057091AA
:10186000AD058091C80582FB882780F90E9475012B
:10187000E80EF91E86010E0D1F1D2091D80530912E
:10188000D9054091D6055091D7056091AE0570916C
:10189000AF058091C80583FB882780F90E947501F8
:1018A000E80EF91E86010E0D1F1D2091DC053091FA
:1018B000DD054091DA055091DB056091B00570912E
:1018C000B1058091C805829581700E947501E80E6E
:1018D000F91E86010E0D1F1D2091E0053091E105D6
:1018E0004091DE055091DF056091B2057091B3051E
:1018F0008091C80585FB882780F90E947501E80E54
:10190000F91E86010E0D1F1D2091E4053091E5059D
:101910004091E2055091E3056091B6057091B705DD
:101920008091C90581700E947501E80EF91E86013B
:101930000E0D1F1D2091E8053091E9054091E60547
:101940005091E7056091B4057091B5058091C90586
:10195000869581700E947501E80EF91E86010E0DB4
:101960001F1D2091EC053091ED054091EA05509145
:10197000EB056091B8057091B9058091C90582FBAE
:10198000882780F90E947501E80EF91E86010E0D68
:101990001F1D2091F0053091F1054091EE05509109
:1019A000EF056091BA057091BB058091C90583FB75
:1019B000882780F90E9475018E0D9F1D8601080FF2
:1019C000191F2091F4053091F5054091F2055091D1
:1019D000F3056091BC057091BD058091C9058295A4
:1019E00081700E9475010E94B1064C014091F7057B
:1019F0008091F60550E07A01FFEFEF1AFF0A2DB74C
:101A00003EB72E193F090FB6F8943EBF0FBE2DBF4B
:101A10000DB71EB70F5F1F4FEDB7FEB78183B6013D
:101A2000C80101960E94F61FF4018381A701B80145
:101A300080640E942E050FB6F894BEBE0FBEADBEE8
:101A4000DF91CF911F910F91FF90EF90DF90CF909A
:101A5000BF90AF909F908F900895E82FE695E69500
:101A6000E6952091C2053091C305E20FF32FF11DD9
:101A7000282F277081E090E0A0E0B0E004C0880F3C
:101A8000991FAA1FBB1F2A95D2F72081822B808322
:101A90008091C40581110C94950B08959091C50512
:101AA000891708F5E82FE695E695E6952091C20599
:101AB0003091C305E20FF32FF11D282F277081E02D
:101AC00090E0A0E0B0E004C0880F991FAA1FBB1FE0
:101AD0002A95D2F780959081892380838091C405CF
:101AE00081110C94950B0895611102C00C944E0D58
:101AF0009091C505891710F40C942D0D08958F92BF
:101B00009F92AF92BF92CF92DF92EF92FF920F938C
:101B10001F938150615070E0482F50E007E0809F94
:101B200090011124F901EB55FE4FE60FF71F80815C
:101B3000F901E657FB4FE60FF71F9081C09034057F
:101B4000D0903505E0903605F0903705D901AA51BF
:101B5000BB4FA60FB71FEC91E91701F1F901E60F92
:101B6000F71FEE0FFF1FEE0FFF1FEE58FC4F808098
:101B70009180A280B38097018601081919092A096A
:101B80003B09480159011AE181169104A104B104ED
:101B900028F0C082D182E282F3829C93E7E0E49F46
:101BA0009001E59F300D1124F901E60FF71FEE0FAC
:101BB000FF1FEE0FFF1FEE58FC4F80809180A28028
:101BC000B380C818D908EA08FB08EAE1CE16D104A8
:101BD000E104F10430F02A513B4FF901E60FF71F01
:101BE000908397E0949F9001959F300D11242A5186
:101BF0003B4F620F731FFB0160811F910F91FF909C
:101C0000EF90DF90CF90BF90AF909F908F900C940B
:101C1000740D2F923F924F925F926F927F928F92AC
:101C20009F92AF92BF92CF92DF92EF92FF920F936B
:101C30001F93CF93DF93CDB7DEB7AA970FB6F89473
:101C4000DEBF0FBECDBF2C01490119A708A7CAA648
:101C50008C01015011099801245F3D4F3A8F298F63
:101C6000D901BC91BBA31B01E1E02E1A31089A01F6
:101C7000215031093E8F2D8FF801E65FFD4FE08145
:101C8000E23108F0E251F0E0E95CFE4FE49190911E
:101C90007B008E2F880F880F80729F7D892B809309
:101CA0007B00E770E064E0937C0080917A008064C0
:101CB00080937A0080917A00382F3074F32E86FD5D
:101CC000F9CF8091780060917900762F682F80E1BC
:101CD00090E09A8389838BE690E09C838B8388ECE9
:101CE00090E09E838D8383E291E098878F838FE7D6
:101CF00091E09A8789878AED91E09C878B8786E3BC
:101D000092E09E878D8781E992E0988B8F878DEE98
:101D100092E09A8B898B89E493E09C8B8B8B84EA8D
:101D200093E09E8B8D8B8FEF93E0988F8F8BDE01EE
:101D3000119650E040E0F0E0E0E030E020E08D91EE
:101D40009D91861B970B97FF03C0919581959109F3
:101D50002115310519F08E179F071CF44F5F5F4F57
:101D6000FC012F5F3F4F2C30310549F78CE090E0AC
:101D70003C01641A750A7AA269A29801285C3A4F5C
:101D800038A32F8FD9018C91082E000C990BF801E4
:101D9000EC51FB4FFC8FEB8F6816790641F14091B7
:101DA000340550913505609136057091370538013D
:101DB000660C771C660C771CF301E45DFA4FA0807B
:101DC000B180C280D380DB01CA018A199B09AC09AA
:101DD000BD098CA39DA3AEA3BFA385369105A10524
:101DE000B10508F427C14083518362837383EB8D6F
:101DF000FC8DF081FB8F8090340590903505A0908C
:101E00003605B0903705F11199C1F801E652FB4F44
:101E10001082980120533B4F7901D9015C905520E5
:101E2000D1F0F801EE0FFF1FEE0FFF1FEE52FB4F38
:101E300080819181A281B381A5019401281B390B76
:101E40004A0B5B0BDA01C90177247394863991053B
:101E5000A105B10508F0712C6BA038E1630ED12CFF
:101E6000C12C772051F0AF8DB8A18C91082E000CB9
:101E7000990B61E08C159D0509F060E0862D0E94AC
:101E8000740DBFEFCB1ADB0A6394ECE0CE16D104DD
:101E900041F7552021F0711002C0D7011C92E98D45
:101EA000FA8D8081E9A0FAA0EE0CFF1CE80EF11C6F
:101EB000F101E657FB4F8589D101AA51BB4F5596D9
:101EC0009C915597B1016B5E7F4F981701F1FB0113
:101ED000EE0FFF1FEE0FFF1FEE58FC4F40805180AA
:101EE00062807380A50194012419350946095709B8
:101EF00029013A013AE1431651046104710438F0B2
:101F000080829182A282B38255968C935597660FF8
:101F1000771F660F771FFB01EE58FC4F4081518100
:101F20006281738124013501441A550A660A770AD1
:101F3000B301A2014A3151056105710518F05596AA
:101F40008C93559755966C918E2D0E94740DED8D46
:101F5000FE8DE657FB4F248DAD8DBE8DAA51BB4F34
:101F60005C969C915C974D8D5E8D445E5F4F9217A1
:101F700001F1FA01EE0FFF1FEE0FFF1FEE58FC4FAD
:101F80004080518062807380C501B4016419750975
:101F9000860997092B013C017AE147165104610437
:101FA000710438F080829182A282B3825C962C9375
:101FB0005C97440F551F440F551FFA01EE58FC4F14
:101FC0004081518162817381841A950AA60AB70AF9
:101FD0008AE188169104A104B10418F05C962C9350
:101FE0005C975C966C9181E08E0D0E94740DF801F7
:101FF000E85FFD4F1081812F0E944E0D81E0810F1F
:10200000AA960FB6F894DEBF0FBECDBFDF91CF9179
:102010001F910F91FF90EF90DF90CF90BF90AF9006
:102020009F908F907F906F905F904F903F902F90F8
:102030000C944E0D2CA13DA14EA15FA1253131057F
:102040004105510508F4D3CEAB8DBC8D2C91E8A58C
:10205000F9A5EA51FB4F8681F401EB51FB4F9081CA
:10206000913009F0E0C18130C1F180E0213009F404
:1020700090E0A92EB82E022E000C330B2A153B053A
:1020800061F1D12CE98DFA8D90808D2D890D0E9402
:102090004E0DD394F4E2DF12F8CFF801E85FFD4F64
:1020A000D0808D2D0E944E0D81E08D0D0E944E0D31
:1020B0008E2D0E944E0D8AA50E944E0DAB8DBC8DBB
:1020C000AC92BFE44B0E511CC2010E943E1DA816EB
:1020D00021F06A2DC2010E94461D409134055091A5
:1020E00035056091360570913705F301E452FB4FD9
:1020F0004083518362837383F801E652FB4FAF8DB7
:10210000B8A18C91B9A1B81BB08349A0EF8DF8A1FB
:102110004082AB8DBC8D8C91F801E053FB4F813038
:1021200059F0D301AE52BB4F4D935D936D937C93A9
:10213000139781E080835BCE108259CE9B8DF8018E
:10214000913009F0EDC0E053FB4F1082A98DBA8D9C
:10215000DC908F2D8D0D0E944E0DF394B4E2FB1296
:10216000F8CFF101E657FB4F8589D101AA51BB4F4A
:1021700055969C915597B1016B5E7F4F981701F171
:10218000FB01EE0FFF1FEE0FFF1FEE58FC4F4080CC
:10219000518062807380A501940124193509460994
:1021A000570929013A013AE14316510461047104C7
:1021B00038F080829182A282B38255968C93559793
:1021C000660F771F660F771FFB01EE58FC4F4081AB
:1021D00051816281738124013501441A550A660ACE
:1021E000770AB301A2014A3151056105710518F062
:1021F00055968C93559755966C918E2D0E94740D23
:10220000ED8DFE8DE657FB4F248DAD8DBE8DAA5111
:10221000BB4F5C969C915C974D8D5E8D445E5F4F8D
:10222000921701F1FA01EE0FFF1FEE0FFF1FEE589C
:10223000FC4F408051806280738075016401C41836
:10224000D508E608F708260137013AE1431651049C
:102250006104710438F080829182A282B3825C961C
:102260002C935C97440F551F440F551FFA01EE58ED
:10227000FC4F408151816281738124013501441AF0
:10228000550A660A770AB301A2014A315105610570
:10229000710518F05C962C935C975C966C918AA5FE
:1022A0000E94740DF801E85FFD4FF0802B8D213006
:1022B00009F0B3C0F801E652FB4F8081082E000CF4
:1022C000990B009709F4B6C0EE24E394EF0C000FCD
:1022D000111F000F111FD801A452BB4F4D915D91EA
:1022E0006D917C91841A950AA60AB70A32E3831687
:1022F0009104A104B10408F08BC09C012150310964
:102300002430310520F08B3F9F4F0CF05FC080914F
:10231000C505F81618F48F2D0E942D0D8E2D70CE48
:10232000E652FB4F1082E98DFA8D5080852D8F0D7E
:102330000E944E0DF394F8E1FF12F8CF980120535C
:102340003B4F3901D901CC90CC20D1F0F801EE0FF0
:10235000FF1FEE0FFF1FEE52FB4F80819181A28184
:10236000B381A5019401281B390B4A0B5B0BDA01E1
:10237000C901DD24D39486399105A105B10508F082
:10238000D12C28E1F22EF50C512C412CDD2051F0FE
:10239000AF8DB8A18C91082E000C990B61E08415CB
:1023A000950509F060E08F2D0E94740DBFEF4B1A68
:1023B0005B0AF394ECE04E16510441F7CC2009F48B
:1023C000D0CED110CECED3011C92CBCE8F2D0E9479
:1023D0004E0D8091C505E81668F58E2DAA960FB6AC
:1023E000F894DEBF0FBECDBFDF91CF911F910F914B
:1023F000FF90EF90DF90CF90BF90AF909F908F9025
:102400007F906F905F904F903F902F900C942D0D88
:1024100010828F2D0E944E0D81CF8F2D0E944E0D68
:1024200081E08F0DEDCD813009F057CE42E0A42E32
:10243000B12C21CEAA960FB6F894DEBF0FBECDBF49
:10244000DF91CF911F910F91FF90EF90DF90CF9090
:10245000BF90AF909F908F907F906F905F904F90C4
:102460003F902F9008951F920F920FB60F92112454
:102470008F939F938091E1009091E100937F9093DF
:10248000E10083FF0FC01092E90091E09093EB0010
:102490001092EC0092E39093ED001092710398E09B
:1024A0009093F00082FF22C093E09093E900909116
:1024B000F200992319F09AE39093E8009091730247
:1024C000992341F09091730291509093730291116E
:1024D00001C05D9A90917003992341F0909170032F
:1024E000915090937003911101C0289A84FF18C0F5
:1024F0008091E2008E7E81608093E2008091E10015
:102500008F7E8093E100809174028E7E8061809343
:1025100074029F918F910F900FBE0F901F9018958E
:1025200080FFF7CF8091E2008E7E80618093E20091
:102530008091E1008E7E8093E100809174028E7E16
:102540008160E5CF1F920F920FB60F921124CF92A8
:10255000DF92EF92FF920F931F932F933F934F932E
:102560005F936F937F938F939F93AF93BF93EF93FB
:10257000FF93CF93DF93CDB7DEB76C97DEBFCDBFB0
:102580001092E9008091E80083FF25C068E0CE0149
:1025900045960E945B0282EF8093E8008D8987FF59
:1025A00039C09091E80090FFFCCF982F907609F009
:1025B00034C19E894F89588D2F89F88C911131C073
:1025C000803861F5809175028093F1001092F100DE
:1025D0008EEF8093E8006C960FB6F894DEBF0FBEC6
:1025E000CDBFDF91CF91FF91EF91BF91AF919F91BF
:1025F0008F917F916F915F914F913F912F911F919B
:102600000F91FF90EF90DF90CF900F900FBE0F9043
:102610001F9018959EEF9093E800C7CF1092F1009D
:10262000D5CF913059F48111D3CF4130510581F686
:10263000809175028D7F80937502CACF933049F4E3
:102640008111C6CF4130510519F680917502826023
:10265000F2CF953041F48091E80080FFFCCF2068F4
:102660002093E300B5CF963009F0A9C00B8D1C8DE7
:1026700022E01092E9001092710210927002F212A0
:102680002EC010926F0210926E020E947C021F8276
:1026900099E09983FA8291E09E8390EA98879AEF75
:1026A00099872091700230917102275F3F4F3C83E0
:1026B0002B838D831092E9001092710210927002A8
:1026C00010936F0200936E0249E050E0BE016F5F0D
:1026D0007F4F80E00E9424020E947C0279CF1093F9
:1026E0006F0200936E020E946802DC0112960D9147
:1026F0001C910115110509F451C1D801ED91FC910E
:102700000480F581E02DBE016B5E7F4FC801099505
:10271000009709F03EC1F80100851185EACFF3E08A
:10272000FF120EC08F89882309F440C0823061F403
:1027300040E86FE087E291E00E941E15811148CFCA
:1027400081E28093EB0047CF813029F440E866E0D6
:1027500080E291E0F1CF833099F70E946802DC01BA
:102760001296ED90FC908E010F5F1F4F6801E114EF
:10277000F10479F0D701ED91FC910680F781E02D0D
:10278000B801C7010995080F111DF701E084F18414
:10279000EECFD8011C92F60101900020E9F73197A5
:1027A000BF016C197D0940E0C601C6CF6AE071E047
:1027B000FB01449150E080E80E94240209CF973049
:1027C00009F4BECF983021F481E08093F10000CF6E
:1027D000993009F0FDCE837009F0B2CFE1E0F1E06D
:1027E00081E031E096E32191222371F08093E900AA
:1027F0003093EB00DF0111972C912093EC00909324
:10280000ED008F5F873079F78EE78093EA001092B2
:10281000EA008F8980937103DBCE8B8D9C8D1092A3
:10282000E900109271021092700290936F028093EF
:102830006E02898D811192C08E899D89913A49F4E9
:10284000813209F07DCF47E050E06BE071E080E03D
:10285000B3CF913209F074CF833269F48F89988DA8
:10286000B0E0A0E08093070190930801A0930901D4
:10287000B0930A01ADCE803269F48091E80082FF06
:10288000FCCF67E08BE091E00E945B028BEF8093CE
:10289000E8009ECE823209F09BCE8F898093120190
:1028A000EEEFFFE7859194918B3F9C4D51F1E0E075
:1028B000F8E080910B0190910C01A0910D01B09175
:1028C0000E01803B9440A105B105F1F48091120105
:1028D00080FD1AC0EE3F8AE0F80789F587E797E7A1
:1028E00091838083809160008093720288E19BE0F5
:1028F0000FB6F894A895809360000FBE9093600087
:1029000067CEEEEFFAE0D5CF808191818737974788
:1029100009F05ECEA8958091600088618093600088
:102920008091720280936000EE3F2AE0F20789F006
:102930008091FE0A9091FF0A9183808349CE808125
:1029400091818737980751F29093FF0A8093FE0A8E
:10295000C5CF1092FF0A1092FE0A3ACE0E9468027A
:10296000DC0112960D911C910115110509F4E8CEB8
:10297000D801ED91FC910190F081E02DBE016B5EDC
:102980007F4FC8010995811123CEF801008511857B
:10299000EBCF181619060CF41BCED2CEF1E0FF12C5
:1029A000BECE6EE071E004CF1F920F920FB60F9271
:1029B00011242F933F938F939F93AF93BF93809155
:1029C0005A0290915B02A0915C02B0915D0230913D
:1029D000590223E0230F2D3758F50196A11DB11D93
:1029E0002093590280935A0290935B02A0935C0259
:1029F000B0935D0280915E0290915F02A0916002AF
:102A0000B09161020196A11DB11D80935E02909369
:102A10005F02A0936002B0936102BF91AF919F915A
:102A20008F913F912F910F900FBE0F901F9018958F
:102A300026E8230F0296A11DB11DD2CFEF92FF927F
:102A40000F931F93CF93DF93F82E192FE62E042FA9
:102A500081E0860F880F0E94F60183E00E94F60154
:102A6000CF2DD12FEC0EFD2EF11CCE15DF05B9F0C8
:102A700007FF13C0FE0184910E94F601182F80E029
:102A80000E94F601812321968111EFCFDF91CF9132
:102A90001F910F91FF90EF9008958881EDCF81E015
:102AA000F5CFEF92FF920F931F93CF93DF93CDB7A4
:102AB000DEB7C659D1090FB6F894DEBF0FBECDBF41
:102AC00010923D0510923C0588EE93E0A0E0B0E046
:102AD00080933E0590933F05A0934005B093410538
:102AE00082E192E090933B0580933A058FEF9FEF50
:102AF00090934705809346051092C3051092C20536
:102B00001092C6051092CB051092CA058FEF93E084
:102B10009093CD058093CC051092CF051092CE05F1
:102B20009093D1058093D0051092D3051092D205D1
:102B30009093D5058093D4051092D7051092D605B1
:102B40009093D9058093D8051092DB051092DA0591
:102B50009093DD058093DC051092DF051092DE0571
:102B60009093E1058093E0051092E3051092E20551
:102B70009093E5058093E4051092E7051092E60531
:102B80009093E9058093E8051092EB051092EA0511
:102B90009093ED058093EC051092EF051092EE05F1
:102BA0009093F1058093F0051092F3051092F205D1
:102BB0009093F5058093F40543E04093F60528E5EE
:102BC0002093C5051092C7058FE18093C8058AE060
:102BD0008093C90535E0398391E09A8389E08B833E
:102BE00054E05C8361EA6D839E8355E85F83488788
:102BF00039878A8749E14B879C8749E24D872E8731
:102C000045E14F87188A45E2498B9A8BE5E7EB8BC4
:102C10009C8B75E97D8B2E8B25E52F8B188E25E6F9
:102C2000298F1A8E51E85B8F22E02C8F3D8F9E8F6B
:102C30008F8F98A346E1F42EF9A29AA300E80BA384
:102C400016E21CA3BFEFBDA3AFE7AEA3EFA3F0E175
:102C5000F8A779A73AA76BA71CA68DA740E34EA7B4
:102C60008FA741E348AB89AB42E34AAB8BAB43E36D
:102C70004CAB8DAB44E34EAB5FAB28AF40EC49AF00
:102C80003AAF2BAFFCAE9DAF0EAF1FAF2196BFAFDB
:102C900021972296AFAF22972396EFAF23972496E2
:102CA000FFAF249725967FAF259726962FAF2697BF
:102CB00027966FAF279728961FAE289729968FAF34
:102CC00029979BEB2A969FAF2A972B968FAF2B972E
:102CD00085EC2C968FAF2C972D965FAF2D972E9667
:102CE0002FAF2E972F964FAF2F9760964FAF6097CD
:102CF0008FE490E00E94141E7C018FE4FE01319667
:102D0000D70101900D928A95E1F787E090E00E944B
:102D1000141E8C01DC0111961C921E921396FC92DB
:102D2000EE9212978FE490E015969C938E931497F1
:102D300016961C920E94B106FC01A385B4851097DB
:102D400009F073C01487038785859685D80114968A
:102D50002D913C91820F931F968785879091C50591
:102D6000892F869586958695977009F066C0809321
:102D7000C6051091C605812F90E00E94141E909305
:102D8000C3058093C20581E09091C705911101C0F0
:102D900080E0125F810F8093F7051092A9051092D1
:102DA000A8051092AB051092AA051092AD051092DD
:102DB000AC051092AF051092AE051092B1051092BD
:102DC000B0051092B3051092B2051092B50510929D
:102DD000B4051092B7051092B6051092B90510927D
:102DE000B8051092BB051092BA051092BD0510925D
:102DF000BC058FEF9FEF9093BF058093BE05909326
:102E0000C1058093C00590E080E02091C605281799
:102E10001906A9F0A4F0E091C205F091C305E80FEE
:102E2000F91F10820196F1CFDC018D919C911197D1
:102E30000097D1F70D931C9387CF8F5F98CF109297
:102E400091051092980510929F051092A00510927E
:102E5000A1051092A20581E080939E0580939B05B9
:102E600010929C0592E090939D05809390058CE6CE
:102E700090E090939505809394050E94141E909382
:102E80009A0580939905009709F465C02CE6FC012A
:102E900011922A95E9F784E290E09093930580934C
:102EA000920582E090E0909397058093960580913B
:102EB0009105882339F061E082E00E94CB0382E033
:102EC0000E947B03E1E9F1E0E491F0E0EE0FFF1FE7
:102ED000EF57FE4F859194919093A6058093A50599
:102EE000E4E6F1E0E491E093A70510928B051092DF
:102EF0008A0510928D0510928C0510928F05109204
:102F00008E0590E080E00E94380B20918A05309178
:102F10008B05811129C02115310519F0C9010E94C5
:102F2000B01E10928B0510928A0510928F05109298
:102F30008E0510928D0510928C05CA56DF4F0FB684
:102F4000F894DEBF0FBECDBFDF91CF911F910F91DF
:102F5000FF90EF90089510929505109294051092AD
:102F60009305109292059DCF10928F0510928E05B9
:102F700063E372E0C9010E940820DFCFCF93DF93A3
:102F8000CDB7DEB7A6970FB6F894DEBF0FBECDBFA4
:102F9000789484B5826084BD84B5816084BD85B534
:102FA000826085BD85B5816085BD80916E00816040
:102FB00080936E00109281008091810082608093E6
:102FC00081008091810081608093810080918000E8
:102FD0008160809380008091910082608093910055
:102FE0008091910081608093910080919000816038
:102FF000809390008091C10084608093C100809193
:10300000C10082608093C1008091C1008160809383
:10301000C1008091C30081608093C3008091C00093
:1030200082608093C0008091C20081608093C20062
:1030300080917A00846080937A0080917A00826027
:1030400080937A0080917A00816080937A008091E9
:103050007A00806880937A00109271031092750252
:10306000109274028091D70081608093D70080EA2B
:103070008093D80089B5806189BD89B5826089BD9A
:1030800009B400FEFDCF61E070E080E090E00E94B6
:10309000FC048091D8008F7C80618093D80080915F
:1030A000E000807F8093E0008091E1008E7E80933D
:1030B000E1008DE08093E200559A209A8FEF9FEF18
:1030C00090934705809346051092CB051092CA0550
:1030D00088EE93E09093CD058093CC051092E705A0
:1030E0001092E6059093E9058093E8051092EF05AC
:1030F0001092EE059093F1058093F00542E753E0BE
:1031000030E020E090E080E0D901A657BB4FB90144
:103110006A517B4FFD01E80FF91F1082FB01E80F98
:10312000F91F1082FC01EE0FFF1FEE0FFF1FE40FCF
:10313000F51F108211821282138201968730910549
:1031400049F7445E5F4F295F3F4F26343105D1F682
:10315000109238051092DA0410922C0510922D0569
:1031600010922E0510922F051092DC041092DD04AF
:103170001092DE041092DF041092D2041092D30455
:103180001092D4041092D5041092D00410923905F4
:103190001092DB0410923005109231051092320526
:1031A000109233051092E0041092E1041092E204B0
:1031B0001092E3041092D6041092D7041092D8040F
:1031C0001092D9041092D10407EF11E0F801819117
:1031D0008F01833619F062E00E94CB03F1E00E3FCD
:1031E0001F07A1F708E012E08EEF882E81E0982EED
:1031F000F40181914F01833619F062E00E94CB0304
:1032000008151905A9F762E08AE00E94CB0362E085
:1032100082E10E94CB0310E0812F0E944E0D1F5FC0
:103220001835D1F71092E4041092E50480E590E09F
:103230000E943E1D833008F457C180E08093E4046F
:1032400081E590E00E943E1D833008F052C181E587
:1032500090E00E943E1D8093E50480919605909138
:10326000970597FD07C061E00E94CB03809196050A
:103270000E947B0381E08093910581E090E0909330
:10328000A4058093A3058091780290917902A09182
:103290007A02B0917B020196A11DB11D8093780244
:1032A00090937902A0937A02B0937B02C090FC05C0
:1032B000D090FD05E090FE05F090FF0587E490E5D5
:1032C000A5E5BDE48093FC059093FD05A093FE0564
:1032D000B093FF051092620310926303109264038F
:1032E00010926503109266030E94DE056854744FC5
:1032F0008F4F9F4F609367037093680380936903B8
:1033000090936A03F7E4CF16F0E5DF06F5E5EF06E4
:10331000FDE4FF0609F4EFC00E9444081092C405C2
:103320000E94950B80E090E89093D7058093D60596
:103330008FEF9FE79093D9058093D805809176020F
:1033400090917702866394609093770280937602DF
:103350008F5F9F479093AF058093AE058091C40522
:1033600081110E94950B20E030E83093D305209323
:10337000D2058FEF9FE79093D5058093D4053093C6
:10338000CF052093CE059093D1058093D005B7E06B
:103390004B2E512C612C712C222423940E94DE058B
:1033A0006B017C01C0923405D0923505E092360560
:1033B000F092370580916F038F5F80936F030091C8
:1033C00078021091790220917A0230917B028091EB
:1033D0007C0290917D02A0917E02B0917F02B701A4
:1033E000A601481B590B6A0B7B0BD301C201801B42
:1033F000910BA20BB30B84179507A607B707D8F458
:103400006091610370E06F5F7F4F072E000C880BA7
:10341000990BA90198012F5F3F4F4F4F5F4F0E94BB
:10342000B51D60936103C0927C02D0927D02E09250
:103430007E02F0927F028091EF029091F002A091C3
:10344000F102B091F202A7019601281B390B4A0B39
:103450005B0BDA01C90181379741A105B10550F035
:1034600010925F038091EE02882321F01092EE0209
:103470000E9444088AE395E00E941503892B09F411
:1034800093C0C092EF02D092F002E092F102F0926B
:10349000F2022092EE028AE395E00E94D30220918C
:1034A000EC023091ED022630310544F48F3F31F5C6
:1034B0002F5F3F4F3093ED022093EC022091EC02FE
:1034C0003091ED02233031050CF46EC08F3F09F4CA
:1034D0006BC00E94660B80918E0590918F050597B9
:1034E00090F40E94210BF5CF80E590E00E943E1DF4
:1034F000A5CE80E0B0CE0E948D0710CF1092ED02D5
:103500001092EC02DBCF60E272E080918A0590912C
:103510008B050E94FF1F892B41F486E292E00E94F6
:103520002B0B81E392E00E942B0B80918E059091F2
:103530008F05892BC9F000918A0510918B0564E3F2
:1035400072E0C8010E94FF1F892B09F0F1C119A286
:1035500046E348A353E35F8FCE014F960E942B0BA7
:1035600081E392E00E942B0B90E080E00E94380BF8
:1035700020918A0530918B0581113AC221153105C0
:1035800019F0C9010E94B01E10928B0510928A0595
:1035900010928F0510928E0510928D0510928C0559
:1035A0001092ED021092EC0230906103311049C28A
:1035B0000CE320E030E04FEF50E061E080E00E945B
:1035C0009F0720E03FEF4FEF50E062E081E00E9474
:1035D0009F0720E030E840E050E063E082E00E9496
:1035E0009F072FEF3FEF4FEF50E065E083E00E9431
:1035F0009F0722E33DEC42E350E066E085E00E9455
:103600009F0720E035E44FEF50E067E086E00E943E
:103610009F072FEF3FEF4FEF50E069E087E00E94F8
:103620009F072FEF30E0A9016AE089E00E949F0721
:103630000FEF20E030E840E050E06BE08AE00E94CD
:103640009F0720E030E04FEF50E06CE08BE00E94FD
:103650009F07809138058C3008F08C500CE010E00A
:10366000E82EF12CC8010C9720E041E560E08E15B2
:103670009F0511F040E06FEFC8010E9403010F5F4A
:103680001F4F0831110571F7809139058C3008F012
:103690008C50E82EF12CC801489720E04FEF6FEFD7
:1036A000E816F90619F02FEF40E060E0C8010E942B
:1036B00003010F5F1F4F0432110569F780915F030B
:1036C0008823F9F07BE3A72E73E0B72EE7E1CE2E37
:1036D000E3E0DE2EF3EFEF2EF2E0FF2E10E000E04D
:1036E000F50161915F01F60141916F01F7012191AF
:1036F0007F01C8010E9403010F5F1F4F04321105B3
:1037000079F78091600381111092600380915F03CB
:10371000882309F477C1332009F477C10E94DE05BC
:1037200000916703109168032091690330916A0347
:103730006017710782079307D8F1109112016AE0B0
:1037400070E080E090E00E94FC0411116FC1809154
:10375000630390916403A0916503B0916603892B84
:103760008A2B8B2B51F40E94DE05609363037093C8
:1037700064038093650390936603809162038111D3
:1037800017C00E94DE05009163031091640320912D
:10379000650330916603601B710B820B930B6D3DCB
:1037A00075408105910520F00E948D0720926203EB
:1037B00010926E0310926D0310926C0310926B03C3
:1037C0005AE8E52E54E0F52E6EEFC62E61E0D62EB7
:1037D000F60131906F01F2E6F31530F161E0832DCF
:1037E0000E94CB03832D0E947B0347EFA42E41E070
:1037F000B42E01E010E0F50181915F01833658F4A9
:103800000E94A203F8013197EE0DFF1D21E0892BE4
:1038100009F020E020830F5F1F4F0830110559F792
:1038200062E0832D0E94CB03F7E0EF0EF11CC81479
:10383000D90471F661E081E00E947F0D62E081E0D1
:103840000E947F0D61E082E00E947F0D62E082E0D5
:103850000E947F0D61E083E00E947F0D62E083E0C3
:103860000E947F0D61E086E00E947F0D62E086E0AD
:103870000E947F0D8AE00E94A20321E0892B09F0BB
:1038800020E02093AD0482E10E94A20321E0892B75
:1038900009F020E02093AE0488E0C82ED12C96E0F9
:1038A000E92EF12C01E010E021E030E041E050E0B1
:1038B00061E070E081E090E00E94090E29E0C22EF4
:1038C000D12C37E0E32EF12C02E010E022E030E0D2
:1038D00042E050E062E070E082E090E00E94090E79
:1038E00080916D0390916E038F5F9F479093AD051C
:1038F0008093AC058091C40581110E94950B809145
:103900006B0390916C038F5F9F479093AB058093FF
:10391000AA058091C40581110E94950B0E94950B08
:1039200020E030E0232B09F439CD0E94000036CD91
:103930006AE372E0C8010E94FF1F892B09F014CED0
:10394000A8ECAA2EA2E0BA2E84EA92E09DA38CA352
:10395000E0E8F2E0FBA3EAA37F016C0185010E948D
:10396000210B8EA30E94210B382E0E94210BF801FF
:103970002EA121938F01F60131926F01F7018193FE
:103980007F012CEE32E02017310749F70E94210B0E
:103990008F3F910509F0E8CD0E94210B8E3F9105E4
:1039A00009F0E2CD0E94210B8D3F910509F0DCCD9D
:1039B00020925F038BE393E0A7E1B3E043EF52E093
:1039C000F50121915F01FC012193CF01ECA1FDA143
:1039D0002191FDA3ECA32D93EAA1FBA12191FBA3CF
:1039E000EAA3FA012193AF01A016B10649F7BCCDB5
:1039F00010928F0510928E0563E372E0C9010E9458
:103A00000820CECDF1E03F1289CE809199059091AA
:103A10009A05892B09F482CE8091A3059091A40583
:103A2000892B09F47BCE0E942C0478CE109263037C
:103A30001092640310926503109266031092620361
:103A4000B7CE80916003811139CE5BCE80918A051B
:103A500090918B05009711F00E94B01E80919905FE
:103A600090919A050E94B01E8091960590919705BD
:103A700097FD03C060E00C94CB030895F999FECF45
:103A800092BD81BDF89A992780B50895262FF9999E
:103A9000FECF1FBA92BD81BD20BD0FB6F894FA9A31
:103AA000F99A0FBE01960895052E97FB1EF4009417
:103AB0000E946B1D57FD07D00E94B51D07FC03D067
:103AC0004EF40C946B1D50954095309521953F4FC9
:103AD0004F4F5F4F089590958095709561957F4FFA
:103AE0008F4F9F4F08950E94D71DA59F900DB49FA3
:103AF000900DA49F800D911D112408952F923F9247
:103B00004F925F926F927F928F929F92AF92BF92ED
:103B1000CF92DF92EF92FF920F931F93CF93DF9399
:103B2000CDB7DEB7CA1BDB0B0FB6F894DEBF0FBEF6
:103B3000CDBF09942A88398848885F846E847D8443
:103B40008C849B84AA84B984C884DF80EE80FD8045
:103B50000C811B81AA81B981CE0FD11D0FB6F894BB
:103B6000DEBF0FBECDBFED010895A1E21A2EAA1B44
:103B7000BB1BFD010DC0AA1FBB1FEE1FFF1FA2171D
:103B8000B307E407F50720F0A21BB30BE40BF50B1A
:103B9000661F771F881F991F1A9469F760957095A3
:103BA000809590959B01AC01BD01CF010895A29F26
:103BB000B001B39FC001A39F700D811D1124911D01
:103BC000B29F700D811D1124911D089597FB072E42
:103BD00016F4009407D077FD09D00E94001E07FC60
:103BE00005D03EF4909581959F4F0895709561950D
:103BF0007F4F0895EE0FFF1F0590F491E02D09947B
:103C0000AA1BBB1B51E107C0AA1FBB1FA617B70702
:103C100010F0A61BB70B881F991F5A95A9F780951E
:103C20009095BC01CD0108950F931F93CF93DF931F
:103C30008230910510F482E090E0E091FA05F09175
:103C4000FB0530E020E0B0E0A0E0309799F42115CA
:103C5000310509F44AC0281B390B24303105D8F549
:103C60008A819B816115710589F1FB0193838283B0
:103C7000FE0111C04081518102811381481759070B
:103C8000E0F04817590799F4109761F012960C93D9
:103C9000129713961C933296CF01DF91CF911F910B
:103CA0000F9108950093FA051093FB05F4CF2115A9
:103CB000310551F04217530738F0A901DB019A0191
:103CC000BD01DF01F801C1CFEF01F9CF9093FB05F2
:103CD0008093FA05CDCFFE01E20FF31F81939193FC
:103CE0002250310939832883D7CF2091F8053091AC
:103CF000F905232B41F420911501309116013093E1
:103D0000F9052093F8052091130130911401211534
:103D1000310541F42DB73EB740911701509118017C
:103D2000241B350BE091F805F091F905E217F30734
:103D3000A0F42E1B3F0B2817390778F0AC014E5F1B
:103D40005F4F2417350748F04E0F5F1F5093F9055A
:103D50004093F805819391939FCFF0E0E0E09CCFF2
:103D6000CF93DF930097E9F0FC0132971382128220
:103D7000A091FA05B091FB05ED0130E020E010972D
:103D8000A1F420813181820F931F2091F805309199
:103D9000F9052817390709F061C0F093F905E09398
:103DA000F805DF91CF910895EA01CE17DF07E8F516
:103DB0004A815B819E0141155105B1F7E901FB8301
:103DC000EA8349915991C40FD51FEC17FD0761F49F
:103DD000808191810296840F951FE90199838883E0
:103DE000828193819B838A83F0E0E0E012968D913B
:103DF0009C9113970097B9F52D913C911197CD01A6
:103E00000296820F931F2091F8053091F90528172B
:103E1000390739F6309751F51092FB051092FA05E3
:103E2000B093F905A093F805BCCFD383C28340813A
:103E30005181840F951FC817D90761F44E5F5F4FFA
:103E400088819981480F591F518340838A819B81C2
:103E5000938382832115310509F0B0CFF093FB05E0
:103E6000E093FA059ECFFD01DC01C0CF13821282E0
:103E7000D7CFB0E0A0E0EFE3FFE10C94801D8C0110
:103E8000009751F4CB010E94141E8C01C801CDB7DC
:103E9000DEB7E0E10C949C1DFC01E60FF71F9C01CE
:103EA00022503109E217F30708F49DC0D901CD91E2
:103EB000DC911197C617D70798F0C530D10530F3BC
:103EC000CE0104978617970708F3C61BD70B2297D6
:103ED000C193D1936D937C93CF010E94B01ED6CF36
:103EE0005B01AC1ABD0A4C018C0E9D1EA091FA0517
:103EF000B091FB05512C412CF12CE12C109731F5A0
:103F00008091F8059091F9058815990509F05CC034
:103F10004616570608F058C080911301909114017D
:103F2000009741F48DB79EB7409117015091180149
:103F3000841B950BE817F90708F055C0F093F905B5
:103F4000E093F805F90171836083A0CF8D919C9176
:103F5000119712966C90129713967C901397A81550
:103F6000B90559F56C0142E0C40ED11CCA14DB043A
:103F700020F1AC014A195B09DA011296159780F01D
:103F80006282738251834083D9016D937C93E114E3
:103F9000F10471F0D7011396FC93EE93129776CF4C
:103FA00022968C0F9D1FF90191838083F301EFCF3F
:103FB000F093FB05E093FA0569CF4816590608F41B
:103FC0002C017D01D3019ACFCB010E94141E7C01EC
:103FD000009749F0AE01B8010E94F61FC8010E9487
:103FE000B01E870153CF10E000E050CFFB01DC0191
:103FF00002C001900D9241505040D8F70895FB0146
:10400000DC018D91019080190110D9F3990B08956D
:10401000FB01DC0101900D920020E1F7089510E012
:10402000C8EDD0E004C0FE010E94FA1D2196C93DF2
:08403000D107C9F7F894FFCF96
:1040380000C18081000000FFFFFFFF00E1000000D9
:1040480000000000000006800008000900060007C4
:10405800000400050002000300000001000C000D30
:10406800000E000F001000110012001300140015BC
:104078000016001700180019001A001B001C001D6C
:10408800001E001F00200021002200230011000450
:10409800001D0008001600010022000A000D00069D
:1040A8000019001F00000013000B001B0003000F85
:1040B80000230009001500050018000C0002001E6E
:1040C800000700120021000E001A00100020001442
:1040D800001C0017000001636363636302036363EA
:1040E800636363040563636363630607636363630E
:1040F80063080963636363630A0B636363636363EE
:104108006363636363636363636363636363636377
:10411800636363636363636363636300000000EA6C
:1041280005660628060D06080963636363630706C8
:104138000504036363636363305613140C32000091
:104148000000AD02C805CE02C3021503D302F10276
:1041580070726F746F0053494D4855425F312E306D
:10416800000D0A006C6564736300736C656473000A
:00000001FF
