:100000000C94D9000C9401010C9401010C94010191
:100010000C9401010C9401010C9401010C94010158
:100020000C9401010C9401010C94E60F0C945510F2
:100030000C9401010C9401010C9401010C94010138
:100040000C9401010C9401010C9401010C94010128
:100050000C9401010C9401010C9401010C94871281
:100060000C9401010C9401010C9401010C94010108
:100070000C9401010C9401010C9401010C940101F8
:100080000C9401010C9401010C9401010C940101E8
:100090000C9401010C9401010C9401010C940101D8
:1000A0000C9401010C9401010C940101000000006A
:1000B000240027002A002D0030000000000023004B
:1000C000260029002C002F00080B0002020200006D
:1000D00009040000010202000005240010010524AB
:1000E000010101042402060524060001070581031D
:1000F00010004009040100020A0000000705020286
:1001000040000007058302400000040309041201B7
:100110000002EF020140353F7A4500010102030170
:10012000417574686F72004D552D50616E656C415C
:100130007065782D583100070605040100080A0B88
:100140000C0D090000000200090F0000030401006B
:100150000C00000000000000000000000000000093
:1001600000000408020110408040102040804080C0
:10017000080204018040201002011080102040403D
:100180002000000000250028002B002E0031000474
:10019000040404040304050202020204030202022E
:1001A00002060606060606040402020204040413FC
:1001B000011E11241FBECFEFDAE0DEBFCDBF12E07B
:1001C000A0E0B1E0EEEEF1E402C005900D92A034A3
:1001D000B107D9F726E0A0E4B2E001C01D92A53036
:1001E000B207E1F710E0C8EDD0E004C02197FE01AE
:1001F0000E94D51EC73DD107C9F70E9471150C9406
:10020000EA200C940000CF93DF93E0919B05F091DE
:100210009C058E179F0708F05AC03091A105332323
:1002200061F0639FB0011124672F349FA001112456
:10023000452F329F90011124232FE091A705A09113
:10024000A205B091A3053091A405E31343C0FC01BE
:10025000EE0FFF1F8E0F9F1F8A0F9B1FC091A405DB
:10026000C80FD92FD11DE881E627A091AC05B09128
:10027000AD05AE0FB11DB093AD05A093AC05E091F7
:10028000A505E80FF92FF11DE081E427EA0FFB2F08
:10029000F11DF093AD05E093AC05A091A605A80F64
:1002A000B92FB11D3C913227E30FF11DF093AD053D
:1002B000E093AC056883E091A505E80FF92FF11DE7
:1002C00040833091A605830F911DFC012083DF91AF
:1002D000CF910895880F991F880F991F8A0F9B1F30
:1002E000E80FF92FF11D1082B9CFCF92DF92EF9274
:1002F000FF920F931F93CF93DF93D901E8016A0117
:10030000F9014217530714F06901FA01882309F42F
:1003100040C0CB016C157D050CF4C6019F018E1702
:100320009F070CF49C01A417B50734F4CF01821B7E
:10033000930B9C012C0D3D1D0D2C000CEE08FF08AD
:10034000032E000C440B550B2C193D094E095F0977
:10035000AEEFBFEF0E944E1E9F01FF0F440B550BE7
:100360002C193D094E095F090E942F1EDA01C901AF
:100370008F5F9F47A109B1098883998382E090E04C
:10038000DF91CF911F910F91FF90EF90DF90CF9071
:10039000089590E080E0F4CFFC01809176038823FB
:1003A00011F13FB7F89482E08093E9002091F200C8
:1003B000822F90E01816190614F481E090E088234B
:1003C00039F0289844E6409375034091F10040834A
:1003D000222339F02091F200211103C02BE6209353
:1003E000E8003FBF08958FEF9FEF0895409170029E
:1003F0005091710220916E0230916F0242175307A3
:10040000B4F49091E8009570E1F39091E80092FDCA
:1004100019C08093F1008091700290917102019651
:100420008F739927892B19F48EEF8093E8008091C0
:100430007002909171020196909371028093700204
:1004400081E0089580E00895DF92EF92FF920F938C
:100450001F93CF93DF93D82E8A01EB017B01E40E2B
:10046000F51ECE15DF0559F0D7FE12C0FE018491AE
:100470000E94F60121968111F4CF0FEF1FEFC80102
:10048000DF91CF911F910F91FF90EF90DF90089532
:100490008881EECF2FB7F89487708093E900909110
:1004A000E800892F807295FF04C09091F20080E4EB
:1004B000891B2FBF0895615030F02091F100FC019D
:1004C00020830196F8CF289884E6809375030895D9
:1004D0008091660281110DC082E08093620284E007
:1004E00080936302109265021092640281E080930F
:1004F000660282E692E008950F931F93CF93DF93F5
:100500001F92CDB7DEB782E0898342E450E068EC09
:1005100070E080E80E9424020E946802DC011296CA
:100520000D911C910115110589F0D801ED91FC91F7
:100530000280F381E02DBE016F5F7F4FC8010995F6
:1005400097FD04C0F80100851185ECCF89810F90DB
:10055000DF91CF911F910F910895CF93DF931F9259
:10056000CDB7DEB76983DC01ED91FC910280F381A8
:10057000E02D41E050E0BE016F5F7F4F09950F9085
:10058000DF91CF91089583E08093E9008091F2009C
:10059000882319F08AE38093E800089583E00E949D
:1005A0004A0290E00895CF93DF931F92CDB7DEB754
:1005B000FC018485958597FD08C02FEF3FEF3587B7
:1005C00024870F90DF91CF910895CE0101960E946C
:1005D000CC01019719F4898190E0F3CF8FEF9FEF61
:1005E000F0CF0F931F93CF93DF931F92CDB7DEB75A
:1005F0008C01FC018485958597FF0BC0CE01019687
:100600000E94CC01019771F4898190E0F8019587EF
:100610008487F801848595850F90DF91CF911F9194
:100620000F9108958FEF9FEFF1CFFC0184859585A1
:1006300097FD0BC09FB7F89482E08093E90080910A
:10064000F2009FBF90E0019608959FB7F89482E072
:100650008093E9008091F2009FBF90E0089581505F
:100660008F3008F047C0E82FF0E0E75CFC4F0C94B7
:10067000D51E56035A0348034E0352037A037A03E6
:100680007A035D03630367036B0371037A037503E6
:10069000809180008F778093800008958091800002
:1006A0008F7DF9CF80918000877FF5CF84B58F77DC
:1006B00084BD089584B58F7DFBCF809190008F77A6
:1006C000809390000895809190008F7DF9CF809164
:1006D0009000877FF5CF8091C0008F778093C00016
:1006E00008958091C0008F7DF9CF8091C200877FEF
:1006F0008093C2000895CF93DF93282F30E0F90153
:10070000ED5BFE4F8491F901EE59FE4FD491F90152
:10071000E157FE4FC491CC2391F081110E942F0329
:10072000EC2FF0E0EE0FFF1FEF57FE4FA591B491B5
:100730008FB7F894EC91D095DE23DC938FBFDF91D7
:10074000CF910895CF93DF93282F30E0F901ED5B2F
:10075000FE4F8491F901EE59FE4FD491F901E15712
:10076000FE4FC491CC23A1F081110E942F03EC2FE6
:10077000F0E0EE0FFF1FE654FF4FA591B491EC910E
:10078000ED2381E090E009F480E0DF91CF910895BE
:1007900080E090E0FACFCF93DF9390E0FC01EE5938
:1007A000FE4F249181579E4FFC0184918823C9F00C
:1007B00090E0880F991FFC01E455FF4FA591B4917B
:1007C000FC01EF57FE4FC591D49161110DC09FB749
:1007D000F8948C91209582238C93888128232883F8
:1007E0009FBFDF91CF910895623051F49FB7F89485
:1007F0003C91822F809583238C93E8812E2BEFCF21
:100800008FB7F894EC912E2B2C938FBFEACF3FB784
:10081000F89480915E0290915F02A0916002B09185
:10082000610226B5A89B05C02F3F19F00196A11DB6
:10083000B11D3FBFBA2FA92F982F8827BC01CD012A
:10084000620F711D811D911D42E0660F771F881F89
:10085000991F4A95D1F708950F931F93CF93DF9374
:10086000CDB7DEB729970FB6F894DEBF0FBECDBF68
:100870001092AD051092AC050E9407040091A805E6
:100880001091A9052091AA053091AB056017710759
:100890008207930740F46093A8057093A90580939D
:1008A000AA059093AB050091A8051091A905209188
:1008B000AA053091AB05601B710B820B930B6C3258
:1008C000714081059105C0F2F89480919D05909149
:1008D0009E059A838983E091A205F091A305DF012B
:1008E00011968081898790919905E091AE05F091EC
:1008F000AF058091B005992309F445C09081982BEC
:1009000098879081809589238F838F818C8388E05D
:100910008B8358856F8149853B812C8189819A81A0
:10092000508347FD252F3A952083262F39F0441F09
:1009300000C000006083000000C0F2CF38E04D919D
:1009400060830000019761F7F093AF05E093AE0577
:1009500049873B832C839A83898378940E94070478
:100960006093A8057093A9058093AA059093AB05A1
:1009700029960FB6F894DEBF0FBECDBFDF91CF91A1
:100980001F910F9108959081982B98879081809561
:1009900089238F838F818E8388E08D8358856F8133
:1009A00049853D812E8189819A81508347FD252F7C
:1009B00000C000C0208300C000C000C000C000C054
:1009C00060830000262F3A9541F0441F000000C0CC
:1009D00000C000C000C000C0E8CF38E04D9100C0AA
:1009E000608300C0019709F7F093AF05E093AE056F
:1009F00049873D832E83AFCF8F929F92AF92BF9254
:100A0000CF92DF92EF92FF924B015C010E940704AC
:100A10006B017C010E9407046C197D098E099F09F6
:100A2000683E734081059105A8F321E0821A910880
:100A3000A108B10888EEC80E83E0D81EE11CF11CA5
:100A400081149104A104B10429F7FF90EF90DF9085
:100A5000CF90BF90AF909F908F9008957F928F928C
:100A60009F92AF92BF92CF92DF92EF92FF920F933D
:100A70001F93CF93DF93C82E8B017A018091760369
:100A8000811110C08FEF9FEFDF91CF911F910F91D8
:100A9000FF90EF90DF90CF90BF90AF909F908F909E
:100AA0007F9008958091630380FF05C08091E000EE
:100AB00082608093E000CE2DDF2DD12C8AEFB82EFE
:100AC0008C2D8770982E8C2D8072882E8C2D8074A2
:100AD000782E9AE3A92E209719F4DD2009F452C04C
:100AE0008C2D0E944A0281110AC0BA94BB2051F297
:100AF00061E070E080E090E00E94FC04ECCF8C1795
:100B00001D0611F00CF08C2F9FB7F8949092E9001D
:100B10002091E80025FD02C09FBFDDCF282F30E0E7
:100B2000C21BD30B882029F08150A0F01092F10055
:100B3000FBCFF801C7FC0AC0815050F041914093AF
:100B4000F100FACF44914093F10031968150D0F7F3
:100B5000020F131FDD2021F0A092E800D12CDCCF82
:100B60008091E80085FD07C0A092E800DD24D394C1
:100B7000209791F2F3CF209779F6772069F2A0922F
:100B8000E800CACF5D9884E680937302C7017CCFEA
:100B9000CF93DF93EC0180911201882331F083E041
:100BA0000E942E051816190634F081E090E09B8310
:100BB0008A8380E090E0DF91CF9108952FB7F89479
:100BC00060915A0270915B0280915C0290915D028B
:100BD0002FBF0895DC01FB0112962C91129784819E
:100BE00095812817190641F491818081813A31F469
:100BF0009D7F81E0913009F080E008958132E1F736
:100C00009B3029F482811F968C9381E008959A305D
:100C100099F7828150968C93F8CFDC01FB0188E430
:100C2000808389E4818384E482831D969C911D974F
:100C30009F709F5B93831D968D919C9124E0969568
:100C400087952A95E1F78F708F5B848385E00895FF
:100C5000EF92FF920F931F93CF93DF93FB012081BD
:100C6000213889F52381223271F5DC0112964C91ED
:100C7000248135814217130631F58C01FC01C385AF
:100C8000D485F12CE12C209791F04C815D816A8113
:100C90007B818E81811180E80E9424028F3F98071A
:100CA00059F0E80EF91E0990D881C02DECCF81E0F3
:100CB000D8011F968C93C701DF91CF911F910F919F
:100CC000FF90EF90089590E080E0F6CFCF93DF9310
:100CD000CDB7DEB769970FB6F894DEBF0FBECDBFB4
:100CE000FC01DB018C918F5F8C939E012D5F3F4F48
:100CF0008DE0D9011D928A95E9F729E0298384E0E6
:100D00008A8391E09D8383E08E832A8721E22B876B
:100D10009C879D879F8722E2288B27E02B8B25E0ED
:100D20002C8B8E8B20E430E0388F2F8B998F828133
:100D30008B8395858685998B8A8B838180688D8B43
:100D400049E150E0BE016F5F7F4F80E00E942402C6
:100D500069960FB6F894DEBF0FBECDBFDF91CF917D
:100D60000895CF93DF9380915102811167C081E094
:100D700080934402809345022AE432E03093470294
:100D80002093460210924902109248022FEE31E061
:100D9000309341022093400210924C0210924B0279
:100DA00010924E0210924D0280934F028093500297
:100DB00081EC80934A020E946802FC01818190913B
:100DC0004402482F490F5527551F483051059CF5BF
:100DD000A281B381109709F520E432E033832283A6
:100DE0002081209342028093430280914502820F2A
:100DF000808320914602A22FB09147028A2F821B46
:100E00008917C8F481813D91C82FD0E0C050DF4FD1
:100E100038838F5F8183F2CFD90118962D913C9151
:100E2000199721153105C1F720E432E019963C935A
:100E30002E931897D5CF81E08093510280E492E001
:100E4000DF91CF9108958091A2059091A305892B00
:100E500041F08091AC059091AD05892B11F00C9477
:100E60002C0408950F931F9325E3FC012E9FC001CE
:100E70002F9F900D1124E3E4E69F9001E79F300D32
:100E80001124820F931F840F951F60E073E00E946E
:100E9000C11E8C018F3F910509F0D4F46FEF70E013
:100EA000681B790B072E000C880B990BCB01772759
:100EB0006627012E000C220B330B322F212F102F0F
:100EC0000027602B712B822B932B1F910F9108957C
:100ED0008115924094F41A956FEF70E0601B710BCE
:100EE000072E000C880B990B982F872F762F6627DB
:100EF000012E000C220B330BE4CF1250B801012E4F
:100F0000000C880B990BCB01772766272FEF30E079
:100F1000A901401B510B8A01EBCFCF93DF93D0E0A7
:100F2000C0E020E040E060E0CE010E940301219695
:100F3000C432D105B1F70E9423070E94DE056093F9
:100F40005F03709360038093610390936203DF916A
:100F5000CF9108959F92AF92BF92CF92DF92EF927E
:100F6000FF920F931F93CF93DF93C82F962E6901A3
:100F70007A0110E0409FC001419F900D1124E4E6EA
:100F8000F0E0BF010E94C11E29E1269FC001279FFA
:100F9000900D1124BF010E94C11EB62EBB27AF2D9C
:100FA0009E2D8D2D9927809FA001819F500D909F90
:100FB000500D1124CA01BF010E94C11E269FC0010D
:100FC000279F900D1124BF010E94C11EA62EDD2473
:100FD000C09EC001C19E900DD09E900D1124BF01F6
:100FE0000E94C11E269FC001279F900D1124BF01A2
:100FF0000E94C11E162FD0E0E92CF12CEC16FD0644
:1010000044F0212F4A2D6B2DCE010E940301219621
:10101000F5CFDF91CF911F910F91FF90EF90DF906F
:10102000CF90BF90AF909F9008950F931F93CF9351
:10103000DF93D82F162F80E0C1E0C80F0D2F2FEFC0
:101040003FEF4FEF50E06C2F0E94AA078C2FCA3061
:1010500099F7D1E0DC0F012F2FEF3FEF4FEF50E07A
:101060006D2F8C2F0E94AA07CD2FD43291F7DF91DC
:10107000CF911F910F9108950F93CF9380E0C1E01E
:10108000C80F00E020E030E0A9016C2F0E94AA0701
:101090008C2FC432A1F7CF910F910C94230783E4D6
:1010A00095E00E941503892BD1F383E495E00C941D
:1010B000D302FC0101900020E9F73197AF01481BF2
:1010C000590BBC0183E495E00C94C805CF93DF93E2
:1010D000EC018091930590919405009759F020912F
:1010E0009505309196052C173D0720F081E0DF91A2
:1010F000CF910895BE016F5F7F4F0E94142000972B
:1011000089F09093940580939305D0939605C093AE
:1011100095052091970530919805232B39F7FC010F
:101120001082E4CF80E0E3CF0F931F93CF93DF9340
:1011300000D0CDB7DEB789831A8200919705109150
:1011400098050F5F1F4FC8010E9466088823A1F011
:101150002091930530919405809197059091980581
:10116000BE016F5F7F4F820F931F0E94E320109399
:1011700098050093970581E00F900F90DF91CF9134
:101180001F910F9108958F929F92AF92BF92CF922D
:10119000DF92EF92FF920F931F93CF93DF93CDB720
:1011A000DEB7ADB6BEB6809100062DB73EB7281BA0
:1011B00031090FB6F8943EBF0FBE2DBF8DB79EB755
:1011C00001966C01E090CF05F12C8091CB059091B8
:1011D000CC05D601FC019F01281B390B2E153F05BC
:1011E0001CF421912D93F7CF8091D005882359F1DC
:1011F0008091C7059091C80528E097FD09C068E671
:1012000071E00E94C11E6DE270E00E94C11E262F97
:101210008091C9059091CA0568E097FD08C068E60D
:1012200071E00E94C11E6DE270E00E94C11EF601D5
:10123000EE0DFF1D90E1699FB0011124262B208344
:10124000F70131967F0186010E0D1F1D2091D505F6
:101250003091D6054091D3055091D4056091B105E8
:101260007091B2058091D10581700E947501E80EE0
:10127000F91E86010E0D1F1D2091D9053091DA054A
:101280004091D7055091D8056091B3057091B40590
:101290008091D105869581700E947501E80EF91E36
:1012A00086010E0D1F1D2091DD053091DE05409158
:1012B000DB055091DC056091B5057091B605809114
:1012C000D10582FB882780F90E947501E80EF91E7E
:1012D00086010E0D1F1D2091E1053091E205409120
:1012E000DF055091E0056091B7057091B8058091D8
:1012F000D10583FB882780F90E947501E80EF91E4D
:1013000086010E0D1F1D2091E5053091E6054091E7
:10131000E3055091E4056091B9057091BA0580919B
:10132000D105829581700E947501E80EF91E860133
:101330000E0D1F1D2091E9053091EA054091E7054A
:101340005091E8056091BB057091BC058091D10575
:1013500085FB882780F90E947501E80EF91E860139
:101360000E0D1F1D2091ED053091EE054091EB050E
:101370005091EC056091BF057091C0058091D20538
:1013800081700E947501E80EF91E86010E0D1F1D69
:101390002091F1053091F2054091EF055091F00553
:1013A0006091BD057091BE058091D20586958170D2
:1013B0000E947501E80EF91E86010E0D1F1D209179
:1013C000F5053091F6054091F3055091F4056091D3
:1013D000C1057091C2058091D20582FB882780F9F2
:1013E0000E947501E80EF91E86010E0D1F1D209149
:1013F000F9053091FA054091F7055091F805609193
:10140000C3057091C4058091D20583FB882780F9BC
:101410000E9475018E0D9F1D8601080F191F2091D6
:10142000FD053091FE054091FB055091FC05609152
:10143000C5057091C6058091D205829581700E9484
:1014400075010E94B1064C01409100068091FF0594
:1014500050E07A01FFEFEF1AFF0A2DB73EB72E19C1
:101460003F090FB6F8943EBF0FBE2DBF0DB71EB794
:101470000F5F1F4FEDB7FEB78183B601C80101961C
:101480000E94D120F4018381A701B80180640E94E9
:101490002E050FB6F894BEBE0FBEADBEDF91CF9144
:1014A0001F910F91FF90EF90DF90CF90BF90AF9082
:1014B0009F908F900895E82FE695E695E695209108
:1014C000CB053091CC05E20FF32FF11D282F2770AB
:1014D00081E090E0A0E0B0E004C0880F991FAA1F4F
:1014E000BB1F2A95D2F72081822B80838091CD0566
:1014F00081110C94C30808959091CE05891708F5C1
:10150000E82FE695E695E6952091CB053091CC0540
:10151000E20FF32FF11D282F277081E090E0A0E06B
:10152000B0E004C0880F991FAA1FBB1F2A95D2F7ED
:1015300080959081892380838091CD0581110C94C1
:10154000C3080895611102C00C947C0A9091CE05E5
:10155000891710F40C945B0A08958F929F92AF92B2
:10156000BF92CF92DF92EF92FF920F931F93815021
:10157000615070E0482F50E007E0809F90011124F7
:10158000F901EB55FE4FE60FF71F8081F901E15796
:10159000FB4FE60FF71F9081C090F504D090F60442
:1015A000E090F704F090F804D901A350BB4FA60FC8
:1015B000B71FEC91E91701F1F901E60FF71FEE0FE4
:1015C000FF1FEE0FFF1FE958FC4F80809180A28023
:1015D000B38097018601081919092A093B094801B6
:1015E00059011AE181169104A104B10428F0C082C6
:1015F000D182E282F3829C93E7E0E49F9001E59F31
:10160000300D1124F901E60FF71FEE0FFF1FEE0F4B
:10161000FF1FE958FC4F80809180A280B380C818DA
:10162000D908EA08FB08EAE1CE16D104E104F10486
:1016300030F023503B4FF901E60FF71F908397E0FE
:10164000949F9001959F300D112423503B4F620FC2
:10165000731FFB0160811F910F91FF90EF90DF904E
:10166000CF90BF90AF909F908F900C94A20A1F9341
:10167000CF93DF93EC01162F0E94191E181739F033
:10168000612FCE01DF91CF911F910C94211EDF912C
:10169000CF911F9108952F923F924F925F926F9238
:1016A0007F928F929F92AF92BF92CF92DF92EF92F2
:1016B000FF920F931F93CF93DF93CDB7DEB7AD9714
:1016C0000FB6F894DEBF0FBECDBF1C013DA32CA307
:1016D0001BA70AA7C9A2AAA28C01015011092801BF
:1016E00021E0422658A24F8EF801E45FFD4F408072
:1016F0004BA29B01215031093A8F298FBA016150C9
:1017000071097C8F6B8F670171E0C71AD108F601F0
:10171000E350FB4F8685811104C0F801E550FB4F73
:101720001082F801E65FFD4FE081E23108F0E251FE
:10173000F0E0E95CFE4FE49190917B008E2F880FE2
:10174000880F80729F7D892B80937B00E770E06417
:10175000E0937C0080917A00806480937A0080918D
:101760007A00982F9074F92E86FDF9CFA091780019
:1017700080917900B82F80E190E09A8389838BE68D
:1017800090E09C838B8388EC90E09E838D8383E242
:1017900091E098878F838FE791E09A8789878AED18
:1017A00091E09C878B8786E392E09E878D8781E915
:1017B00092E0988B8F878DEE92E09A8B898B89E4EB
:1017C00093E09C8B8B8B84EA93E09E8B8D8B8FEFC9
:1017D00093E0988F8F8BFE01319650E040E070E0EF
:1017E00060E030E020E0819191918A1B9B0B97FF94
:1017F00003C09195819591092115310519F086173E
:1018000097071CF44F5F5F4FBC012F5F3F4F2C3099
:10181000310549F78CE090E04C01841A950AD80113
:10182000A750BB4FBE8FAD8F8C91082E000C990B2B
:10183000F801E551FB4FFDA7ECA78816990641F189
:101840004091F5045091F6046091F7047091F8040A
:101850005801AA0CBB1CAA0CBB1CF501E351FB4FA1
:101860004080518062807380DB01CA018419950930
:10187000A609B7098EA39FA3A8A7B9A78536910586
:10188000A105B10508F428C14083518362837383A5
:10189000ACA5BDA53C904090F5045090F604609036
:1018A000F7047090F8043110D7C1F801E152FB4FF2
:1018B0001082F801EB52FB4F7F0130803320D1F0D2
:1018C000F801EE0FFF1FEE0FFF1FE952FB4F808163
:1018D0009181A281B38163015201A81AB90ACA0A8F
:1018E000DB0AD601C501BB24B39486399105A10555
:1018F000B10508F0B12CABA038E1C32EAC0CD12C53
:10190000C12CBB2051F0AD8DBE8D8C91082E000CEA
:10191000990B61E08C159D0509F060E08A2D0E940D
:10192000A20ABFEFCB1ADB0AA394ECE0CE16D104D7
:1019300041F7332021F0B11002C0D7011C92F80109
:10194000E45FFD4F8081880C991C880E911CE98D05
:10195000FA8DE157FB4F8589A98DBA8DA350BB4FF6
:1019600055969C915597698D7A8D6B5E7F4F981730
:1019700001F1FB01EE0FFF1FEE0FFF1FE958FC4FB7
:10198000C080D180E280F380A30192012C193D092F
:101990004E095F0969017A013AE1C316D104E104F5
:1019A000F10438F0408251826282738255968C93A2
:1019B0005597660F771F660F771FFB01E958FC4F9D
:1019C000408151816281738163015201A41AB50A79
:1019D000C60AD70AB601A5014A315105610571054C
:1019E00018F055968C93559755966C91882D0E94BA
:1019F000A20AEB8DFC8DE157FB4F248DAB8DBC8D86
:101A0000A350BB4F5C969C915C974B8D5C8D445E64
:101A10005F4F921701F1FA01EE0FFF1FEE0FFF1F4C
:101A2000E958FC4FC080D180E280F380C301B2014D
:101A30006C197D098E099F096B017C017AE1C7163B
:101A4000D104E104F10438F0408251826282738251
:101A50005C962C935C97440F551F440F551FFA0159
:101A6000E958FC4F4081518162817381441A550AC3
:101A7000660A770A8AE1481651046104710418F075
:101A80005C962C935C975C966C9181E0880D0E942B
:101A9000A20AF801E85FFD4F1081812F0E947C0AA5
:101AA00081E0810FAD960FB6F894DEBF0FBECDBFBB
:101AB000DF91CF911F910F91FF90EF90DF90CF902A
:101AC000BF90AF909F908F907F906F905F904F905E
:101AD0003F902F900C947C0A2EA13FA148A559A5B8
:101AE000253131054105510508F4D2CEACA5BDA57F
:101AF0009C91EAA5FBA5E350FB4F8681ECA1FDA1DB
:101B0000E450FB4F2081213009F03EC28130A9F121
:101B100080E0913009F420E0C22ED82E892F990F51
:101B2000990B8C159D0539F1E12CF801E45FFD4F0F
:101B300070808E2D870D0E947C0AE394E4E2EE1201
:101B4000F8CFF801E85FFD4FE0808E2D0E947C0AFF
:101B500081E08E0D0E947C0A89A10E947C0A8AA1E4
:101B60000E947C0AACA5BDA5CC926C2DC101815B05
:101B70009F4F0E94370B80E03DC0F601E350FB4FC2
:101B800086858130C1F7F801E550FB4F80818111D6
:101B9000F2CF913079F5AF8DB8A1A551BB4F9C9193
:101BA000913041F1D801A751BB4F61E08C91811177
:101BB00060E06C9381E08083C1018E5A9F4F0E9448
:101BC000370BE12CF801E45FFD4FD0808E2D8D0D99
:101BD0000E947C0AE394B4E2EB12F8CFF801E85FCC
:101BE000FD4FE0808E2D0E947C0A81E08E0D0E94C8
:101BF0007C0A81E04091F5045091F6046091F7046D
:101C00007091F804F501EF51FB4F408351836283DB
:101C10007383F801E152FB4FAD8DBE8D9C91B82DC1
:101C2000B91BB083AD8DBE8D8C9281111082ECA555
:101C3000FDA58081F801EB52FB4F813059F0D501B1
:101C4000A952BB4F4D935D936D937C93139781E0A5
:101C500080831ECE10821CCED801A45FBD4F6D01C3
:101C6000B1E0F8013B12FFC0EB52FB4F1082F601CE
:101C7000E0808F2D8E0D0E947C0AF394F4E2FF1217
:101C8000F8CFE98DFA8DE157FB4F8589A98DBA8D83
:101C9000A350BB4F55969C915597698D7A8D6B5E7D
:101CA0007F4F981701F1FB01EE0FFF1FEE0FFF1F93
:101CB000E958FC4F80809180A280B380A3019201FB
:101CC000281939094A095B0949015A013AE1831681
:101CD0009104A104B10438F040825182628273827F
:101CE00055968C935597660F771F660F771FFB01EC
:101CF000E958FC4F40815181628173815301420157
:101D0000841A950AA60AB70AB501A4014A315105F9
:101D10006105710518F055968C93559755966C9101
:101D200089A10E94A20AEB8DFC8DE157FB4F248D07
:101D3000AB8DBC8DA350BB4F5C969C915C974B8D3B
:101D40005C8D445E5F4F921701F1FA01EE0FFF1FA9
:101D5000EE0FFF1FE958FC4F80809180A280B38076
:101D6000C301B201681979098A099B094B015C0119
:101D70007AE187169104A104B10438F040825182BF
:101D8000628273825C962C935C97440F551F440FBC
:101D9000551FFA01E958FC4F4081518162817381DE
:101DA00053014201841A950AA60AB70AB501A40193
:101DB0004A3151056105710518F05C962C935C97CA
:101DC0005C966C918AA10E94A20AF801E85FFD4F1F
:101DD000B080992493943910D1C0F801E751FB4F9A
:101DE0008081882341F0EF8DF8A1E551FB4F808180
:101DF000813009F08BC0EB2CF801E152FB4F2081C0
:101E0000022E000C330B2115310509F4C4C08E2DB0
:101E1000DD24D394DE0C000F111F000F111FD80119
:101E2000AF51BB4F4D915D916D917C91441A550A14
:101E3000660A770AB2E34B1651046104710408F094
:101E400099C0A901415051094430510520F02B3F60
:101E50003F4F0CF06EC09091CE05891710F40E9490
:101E60005B0A8D2D1FCEE152FB4F1082D6019C9054
:101E7000892D8F0D0E947C0AF394B8E1FB12F8CFF4
:101E8000F801EB52FB4F5F0120802220D1F0F801D6
:101E9000EE0FFF1FEE0FFF1FE952FB4F8081918174
:101EA000A281B381A3019201281B390B4A0B5B0B62
:101EB000DA01C9018824839486399105A105B10509
:101EC00008F0812C38E1930EF12CE12C882051F0A0
:101ED000AD8DBE8D8C91082E000C990B61E08E1596
:101EE0009F0509F060E0892D0E94A20ABFEFEB1A5E
:101EF000FB0A9394ECE0EE16F10441F7222009F47A
:101F0000C0CE8110BECED5011C92BBCEEF8DF8A104
:101F1000E750FB4FE080EE0CFF08D6018C91E80EF5
:101F2000F11C8B2D0E947C0A81E08B0D0E947C0AA3
:101F300063CF0E947C0A8091CE05D81660F58D2D66
:101F4000AD960FB6F894DEBF0FBECDBFDF91CF9137
:101F50001F910F91FF90EF90DF90CF90BF90AF90C7
:101F60009F908F907F906F905F904F903F902F90B9
:101F70000C945B0A10820E947C0A73CF8B2D0E9406
:101F80007C0A81E08B0D8ECD813009F0F6CD52E0D8
:101F9000C52ED12CC3CDAD960FB6F894DEBF0FBEC3
:101FA000CDBFDF91CF911F910F91FF90EF90DF9008
:101FB000CF90BF90AF909F908F907F906F905F90E9
:101FC0004F903F902F9008950C94191E1F920F92DE
:101FD0000FB60F9211248F939F938091E1009091FF
:101FE000E100937F9093E10083FF0FC01092E9001E
:101FF00091E09093EB001092EC0092E39093ED004F
:102000001092760398E09093F00082FF22C093E054
:102010009093E9009091F200992319F09AE390933C
:10202000E80090917302992341F0909173029150CE
:1020300090937302911101C05D9A90917503992359
:1020400041F090917503915090937503911101C0E7
:10205000289A84FF18C08091E2008E7E8160809370
:10206000E2008091E1008F7E8093E1008091630324
:102070008E7E8061809363039F918F910F900FBE3E
:102080000F901F90189580FFF7CF8091E2008E7E11
:1020900080618093E2008091E1008E7E8093E10078
:1020A000809163038E7E8160E5CF1F920F920FB601
:1020B0000F921124CF92DF92EF92FF920F931F9312
:1020C0002F933F934F935F936F937F938F939F9340
:1020D000AF93BF93EF93FF93CF93DF93CDB7DEB76B
:1020E0006C97DEBFCDBF1092E9008091E80083FFBE
:1020F00025C068E0CE0145960E945B0282EF809386
:10210000E8008D8987FF39C09091E80090FFFCCFEF
:10211000982F907609F034C19E894F89588D2F8968
:10212000F88C911131C0803861F5809174028093F0
:10213000F1001092F1008EEF8093E8006C960FB6DC
:10214000F894DEBF0FBECDBFDF91CF91FF91EF912D
:10215000BF91AF919F918F917F916F915F914F91BF
:102160003F912F911F910F91FF90EF90DF90CF90B3
:102170000F900FBE0F901F9018959EEF9093E80060
:10218000C7CF1092F100D5CF913059F48111D3CF40
:102190004130510581F6809174028D7F80937402E5
:1021A000CACF933049F48111C6CF4130510519F699
:1021B000809174028260F2CF953041F48091E80002
:1021C00080FFFCCF20682093E300B5CF963009F064
:1021D000A9C00B8D1C8D22E01092E90010927102B3
:1021E00010927002F2122EC010926F0210926E02C4
:1021F0000E947C021F8299E09983FA8291E09E837B
:1022000090EA98879AEF9987209170023091710235
:10221000275F3F4F3C832B838D831092E900109200
:1022200071021092700210936F0200936E0249E0E7
:1022300050E0BE016F5F7F4F80E00E9424020E9449
:102240007C0279CF10936F0200936E020E946802A5
:10225000DC0112960D911C910115110509F451C173
:10226000D801ED91FC910480F581E02DBE016B5EFB
:102270007F4FC8010995009709F03EC1F80100851C
:102280001185EACFF3E0FF120EC08F89882309F48D
:1022900040C0823061F440E86FE087E291E00E9444
:1022A000D112811148CF81E28093EB0047CF81307A
:1022B00029F440E866E080E291E0F1CF833099F7BD
:1022C0000E946802DC011296ED90FC908E010F5F77
:1022D0001F4F6801E114F10479F0D701ED91FC91F1
:1022E0000680F781E02DB801C7010995080F111D7F
:1022F000F701E084F184EECFD8011C92F601019041
:102300000020E9F73197BF016C197D0940E0C60153
:10231000C6CF6AE071E0FB01449150E080E80E9482
:10232000240209CF973009F4BECF983021F481E020
:102330008093F10000CF993009F0FDCE837009F051
:10234000B2CFE1E0F1E081E031E096E32191222398
:1023500071F08093E9003093EB00DF0111972C912D
:102360002093EC009093ED008F5F873079F78EE734
:102370008093EA001092EA008F8980937603DBCE87
:102380008B8D9C8D1092E900109271021092700258
:1023900090936F0280936E02898D811192C08E8915
:1023A0009D89913A49F4813209F07DCF47E050E0B0
:1023B0006BE071E080E0B3CF913209F074CF8332EB
:1023C00069F48F89988DB0E0A0E080930701909325
:1023D0000801A0930901B0930A01ADCE803269F4DF
:1023E0008091E80082FFFCCF67E08BE091E00E94E3
:1023F0005B028BEF8093E8009ECE823209F09BCE89
:102400008F8980931201EEEFFFE7859194918B3FC6
:102410009C4D51F1E0E0F8E080910B0190910C01AE
:10242000A0910D01B0910E01803B9440A105B10532
:10243000F1F48091120180FD1AC0EE3F8AE0F807A6
:1024400089F587E797E79183808380916000809387
:10245000720288E19BE00FB6F894A8958093600023
:102460000FBE9093600067CEEEEFFAE0D5CF80818B
:1024700091818737974709F05ECEA89580916000DB
:102480008861809360008091720280936000EE3FCB
:102490002AE0F20789F08091FE0A9091FF0A918369
:1024A000808349CE808191818737980751F290933C
:1024B000FF0A8093FE0AC5CF1092FF0A1092FE0A0F
:1024C0003ACE0E946802DC0112960D911C91011512
:1024D000110509F4E8CED801ED91FC910190F0814D
:1024E000E02DBE016B5E7F4FC8010995811123CE9F
:1024F000F80100851185EBCF181619060CF41BCED8
:10250000D2CEF1E0FF12BECE6EE071E004CF1F929A
:102510000F920FB60F9211242F933F938F939F9397
:10252000AF93BF9380915A0290915B02A0915C029D
:10253000B0915D023091590223E0230F2D3758F5F9
:102540000196A11DB11D2093590280935A029093C8
:102550005B02A0935C02B0935D0280915E02909159
:102560005F02A0916002B09161020196A11DB11DB0
:1025700080935E0290935F02A0936002B093610229
:10258000BF91AF919F918F913F912F910F900FBE6F
:102590000F901F90189526E8230F0296A11DB11DDC
:1025A000D2CFEF92FF920F931F93CF93DF93F82E2A
:1025B000192FE62E042F81E0860F880F0E94F60166
:1025C00083E00E94F601CF2DD12FEC0EFD2EF11CE1
:1025D000CE15DF05B9F007FF13C0FE0184910E94FC
:1025E000F601182F80E00E94F601812321968111C7
:1025F000EFCFDF91CF911F910F91FF90EF90089552
:102600008881EDCF81E0F5CFEF92FF920F931F937A
:10261000CF93DF93CDB7DEB7C659D1090FB6F89483
:10262000DEBF0FBECDBF109246051092450588EE65
:1026300093E0A0E0B0E08093470590934805A09315
:102640004905B0934A0582E192E090934405809356
:1026500043058FEF9FEF9093500580934F051092A5
:10266000CC051092CB051092CF051092D405109294
:10267000D3058FEF93E09093D6058093D505109204
:10268000D8051092D7059093DA058093D90510925A
:10269000DC051092DB059093DE058093DD0510923A
:1026A000E0051092DF059093E2058093E10510921A
:1026B000E4051092E3059093E6058093E5051092FA
:1026C000E8051092E7059093EA058093E9051092DA
:1026D000EC051092EB059093EE058093ED051092BA
:1026E000F0051092EF059093F2058093F10510929A
:1026F000F4051092F3059093F6058093F50510927A
:10270000F8051092F7059093FA058093F905109259
:10271000FC051092FB059093FE058093FD0543E0B8
:102720004093FF0528E52093CE051092D0058FE158
:102730008093D1058AE08093D20535E0398391E01A
:102740009A8389E08B8354E05C8361EA6D839E8386
:1027500055E85F83488739878A8749E14B879C879B
:1027600049E24D872E8745E14F87188A45E2498B1C
:102770009A8BE5E7EB8B9C8B75E97D8B2E8B25E5A2
:102780002F8B188E25E6298F1A8E51E85B8F22E059
:102790002C8F3D8F9E8F8F8F98A346E1F42EF9A248
:1027A0009AA300E80BA316E21CA3BFEFBDA3AFE7FB
:1027B000AEA3EFA3F0E1F8A779A73AA76BA71CA6F1
:1027C0008DA740E34EA78FA741E348AB89AB42E317
:1027D0004AAB8BAB43E34CAB8DAB44E34EAB5FAB4F
:1027E00028AF40EC49AF3AAF2BAFFCAE9DAF0EAF78
:1027F0001FAF2196BFAF21972296AFAF22972396A6
:10280000EFAF23972496FFAF249725967FAF2597A8
:1028100026962FAF269727966FAF279728961FAE3D
:10282000289729968FAF29979BEB2A969FAF2A97D7
:102830002B968FAF2B9785EC2C968FAF2C972D96E0
:102840005FAF2D972E962FAF2E972F964FAF2F97C6
:1028500060964FAF60978FE490E00E94EF1E7C017E
:102860008FE4FE013196D70101900D928A95E1F730
:1028700087E090E00E94EF1E8C01DC0111961C9213
:102880001E921396FC92EE9212978FE490E01596AA
:102890009C938E93149716961C920E94B106FC018D
:1028A000A385B485109709F073C0148703878585C5
:1028B0009685D80114962D913C91820F931F96878F
:1028C00085879091CE05892F8695869586959770F8
:1028D00009F066C08093CF051091CF05812F90E05D
:1028E0000E94EF1E9093CC058093CB0581E09091E0
:1028F000D005911101C080E0125F810F8093000626
:102900001092B2051092B1051092B4051092B30561
:102910001092B6051092B5051092B8051092B70541
:102920001092BA051092B9051092BC051092BB0521
:102930001092BE051092BD051092C0051092BF0501
:102940001092C2051092C1051092C4051092C305E1
:102950001092C6051092C5058FEF9FEF9093C805A2
:102960008093C7059093CA058093C90590E080E0E5
:102970002091CF0528171906A9F0A4F0E091CB0506
:10298000F091CC05E80FF91F10820196F1CFDC0120
:102990008D919C9111970097D1F70D931C9387CF40
:1029A0008F5F98CF10929A051092A1051092A805FA
:1029B0001092A9051092AA051092AB0581E08093B0
:1029C000A7058093A4051092A50592E09093A60513
:1029D000809399058CE690E090939E0580939D05E9
:1029E0000E94EF1E9093A3058093A205009709F41F
:1029F00065C02CE6FC0111922A95E9F784E290E08B
:102A000090939C0580939B0582E090E09093A005B5
:102A100080939F0580919A05882339F061E082E0D8
:102A20000E94CB0382E00E947B03E1E9F1E0E491A4
:102A3000F0E0EE0FFF1FEF57FE4F859194919093BA
:102A4000AF058093AE05E4E6F1E0E491E093B005D4
:102A50001092940510929305109296051092950588
:102A6000109298051092970590E080E00E94660809
:102A70002091930530919405811129C021153105CC
:102A800019F0C9010E948B1F1092940510929305B2
:102A90001092980510929705109296051092950540
:102AA000CA56DF4F0FB6F894DEBF0FBECDBFDF9121
:102AB000CF911F910F91FF90EF90089510929E0576
:102AC00010929D0510929C0510929B059DCF10922F
:102AD00098051092970563E372E0C9010E94E32014
:102AE000DFCFCF93DF93CDB7DEB7C458D1090FB690
:102AF000F894DEBF0FBECDBF789484B5826084BDEC
:102B000084B5816084BD85B5826085BD85B58160F1
:102B100085BD80916E00816080936E00109281006F
:102B2000809181008260809381008091810081602A
:102B300080938100809180008160809380008091EB
:102B400091008260809391008091910081608093D8
:102B50009100809190008160809390008091C100ED
:102B600084608093C1008091C10082608093C10025
:102B70008091C10081608093C1008091C300816019
:102B80008093C3008091C00082608093C0008091D8
:102B9000C20081608093C20080917A00846080933B
:102BA0007A0080917A00826080937A0080917A0026
:102BB000816080937A0080917A00806880937A00A7
:102BC0001092760310927402109263038091D700E2
:102BD00081608093D70080EA8093D80089B58061B6
:102BE00089BD89B5826089BD09B400FEFDCF61E071
:102BF00070E080E090E00E94FC048091D8008F7C1F
:102C000080618093D8008091E000807F8093E00015
:102C10008091E1008E7E8093E1008DE08093E20060
:102C2000559A209A8FEF9FEF9093500580934F0510
:102C30001092D4051092D30588EE93E09093D605B8
:102C40008093D5051092F0051092EF059093F20550
:102C50008093F1051092F8051092F7059093FA050C
:102C60008093F90547E753E030E020E090E080E012
:102C7000D901A157BB4FB90163507B4FFD01E80F4C
:102C8000F91F1082FB01E80FF91F1082FC01EE0F03
:102C9000FF1FEE0FFF1FE40FF51F1082118212823B
:102CA000138201968730910549F7445E5F4F295F93
:102CB0003F4F26343105D1F61092F9041092DF040B
:102CC0001092ED041092EE041092EF041092F004B2
:102CD0001092E1041092E2041092E3041092E404D2
:102CE0001092D7041092D8041092D9041092DA04EA
:102CF0001092D5041092FB041092FA041092E00492
:102D00001092F1041092F2041092F3041092F40461
:102D10001092E5041092E6041092E7041092E80481
:102D20001092DB041092DC041092DD041092DE0499
:102D30001092D6041092FC040EEFE02E01E0F02E6B
:102D400007EF11E0D8018D918D01833619F062E013
:102D50000E94CB03E016F106A9F708E012E0EEEFBF
:102D6000F1E0C158DF4FF983E883CF57D040C15815
:102D7000DF4FA881B981CF57D0408D91C158DF4F27
:102D8000B983A883CF57D040833619F062E00E9400
:102D9000CB03C158DF4FE881F981CF57D0400E17E0
:102DA0001F0729F762E08AE00E94CB0362E082E11C
:102DB0000E94CB0310E0812F0E947C0A1F5F183510
:102DC000D1F71092EB041092E9041092EC041092E7
:102DD000EA0480E590E00E94E40F833008F080E090
:102DE0008093EB0481E590E00E94E40F833008F0CB
:102DF00080E08093EC0483E590E00E94E40F91E092
:102E0000813009F090E09093E90484E590E00E941D
:102E1000E40F91E0813009F090E09093EA04809112
:102E20009F059091A00597FD07C061E00E94CB032C
:102E300080919F050E947B0381E080939A0581E049
:102E400090E09093AD058093AC05809177029091CE
:102E50007802A0917902B0917A020196A11DB11D6C
:102E60008093770290937802A0937902B0937A02CC
:102E7000009105061091060620910706309108067C
:102E80004091090650910A0660910B0670910C065C
:102E900081E04434FCE45F07F8E46F07F3E57F0763
:102EA00009F080E080936E030734104525453D44CA
:102EB00031F011E044345C446844734509F410E097
:102EC00047E450E565E57DE440930506509306062A
:102ED00060930706709308068093690310926A0353
:102EE00010926B0310926C0310926D030E94DE052A
:102EF0006854744F8F4F9F4F6093640370936503C2
:102F0000809366039093670310925F0310926003AF
:102F10001092610310926203112309F473C30E949B
:102F20003C0864EF71E080E090E00E94FC040E94A5
:102F30003C086E01B9E4CB0ED11CFE0131967F0135
:102F400070E1A72EB12C512C412CE696CFAEE6971E
:102F5000E896DFAEE897EA96EFAFEA971F2D84E197
:102F6000E9E1F1E0DE01AF59BF4F01900D928A9582
:102F7000E1F788E1EDE2F1E0E696AFADE697E8969D
:102F8000BFADE89701900D928A95E1F788E1E5E4FD
:102F9000F1E0EA96AFADEA97B12F01900D928A95D4
:102FA000E1F7C5016CE070E00E94C11E1B019E01AB
:102FB0002F593F4F4901712C612CD4018C9161E054
:102FC000680F0CE32FEF3FEF4FEF50E00E94AA078E
:102FD000F401828161E0680F2FEF3FEF4FEF50E087
:102FE0000E94AA07FFEF6F1A7F0A24E0820E911C4D
:102FF0002614370411F74114510489F40FEF2FEF11
:103000003FEF4FEF50E06BE08AE00E94AA072FEFFE
:103010003FEF4FEF50E06CE08BE00E94AA07D60133
:103020008C91B2E0CB0ED11C61E0680F0FEF2FEF57
:103030003FEF4FEF50E00E94AA07F7018081F2E0D6
:10304000EF0EF11C61E0680F2FEF3FEF4FEF50E004
:103050000E94AA070E94230764E670E080E090E0E7
:103060000E94FC042FEF421A520A35E0A30EB11C55
:103070004CE4A416B10409F072CF60E570E080E082
:1030800090E00E94FC0458EDE52E57E2F52E00E694
:1030900019E068E2C62ED12CC701B6010E94C11EFC
:1030A0009B01C801B6010E94C11ECB01B9010E945B
:1030B00015080E94230768E170E080E090E00E941C
:1030C000FC040C5311095FEFE51AF108043C8FEF83
:1030D000180711F70E943C0860E570E080E090E07E
:1030E0000E94FC040E943C08AFEFB0E0CF57DF4FD6
:1030F000B983A883C158D040F12CE12C84E1E9E1E7
:10310000F1E0DE01AF59BF4F01900D928A95E1F7D2
:1031100088E1EDE2F1E0DE01A75BBF4F01900D9287
:103120008A95E1F788E1E5E4F1E0DE01119601908E
:103130000D928A95E1F7F7013196CD57DF4FF9836C
:10314000E883C358D040CF57DF4F88819981C15859
:10315000D0406CE070E00E94C11EEB967FAF6EAF76
:10316000EB97FCE3F69FC001F79F900D11246FEFE2
:1031700070E00E94C11E162F9E01275B3F4FE7960D
:103180003FAF2EAFE797AE014F5F5F4FE9965FAF5E
:103190004EAFE997CE018F599F4F4C014AE0242E44
:1031A000312CD12CC12CE796AEADBFADE797AC90DA
:1031B00011969C9111971296E796BFAFAEAFE79725
:1031C00050E040E0B7018A2D0E943207EF966CAFC5
:1031D0007DAF8EAF9FAFEF97E996EEADFFADE9976C
:1031E000B08091813296E996FFAFEEAFE99741EC5E
:1031F00050E0B7018B2D0E9432072B013C0161E0AA
:103200006A0DEA960FADEA97EF962CAD3DAD4EAD47
:103210005FADEF978A2D0E94AA0761E06B0DEA96D9
:103220000FADEA97A30192018B2D0E94AA07F5E04A
:10323000CF16D1040CF042C0D401AC904DE751E060
:10324000B7018A2D11969C910E943207EF966CAFC0
:103250007DAF8EAF9FAFEF97F401B28045E052E0B3
:10326000B7018B2D93810E9432072B013C0161E055
:103270006A0D012FEF962CAD3DAD4EAD5FADEF97D2
:103280008A2D0E94AA0761E06B0DA30192018B2D8C
:103290000E94AA07F2E0CF16D10484F441E852E07C
:1032A000B701C1010E9432079B01AC01EA960FAD44
:1032B000EA976BE06C0D822D0E94AA072FEFC21ACD
:1032C000D20A3FEF231A330A44E0840E911CEC1417
:1032D000FD040CF068CF0E94230764E670E080E0F4
:1032E00090E00E94FC04CF57DF4F88819981C1583C
:1032F000D04081509F4FCF57DF4F99838883C1586B
:10330000D040CD57DF4FE880F980C358D0409CE0D3
:10331000E916F10409F0F2CE64E670E080E090E096
:103320000E94FC0488E4EDE5F1E0DE0111960190D5
:103330000D928A95E1F70E943C08DE0111967D010D
:10334000D12CC12CF701A190B1907F010CE3FAE0E0
:10335000AF16B1040CF00FEF45E151E0B601C50125
:103360000E9432079B01AC0161E06A0D8A2D0E9428
:10337000AA070E9423076DE270E080E090E00E94BF
:10338000FC042FEFC21AD20A34E2C316D104D1F6DC
:1033900064EB70E080E090E00E94FC04F12CE12CF2
:1033A000D12CC12C10E000E029EDA22EBB24BA9450
:1033B00037E2832E912CC601083211050CF011C1A1
:1033C000B4010E94C11E9B01285F3F4FC701B40199
:1033D0000E94C11E685F7F4FC9010E9415080E94AC
:1033E00023076EE170E080E090E00E94FC040F5F34
:1033F0001F4F44E3C40ED11C57EFE50EF11C0035FE
:103400001105C9F60E943C0868EE73E080E090E088
:103410000E94FC041092CD050E94C30880E090E851
:103420009093E0058093DF058FEF9FE79093E2058F
:103430008093E10580917502909176028663946095
:1034400090937602809375028F5F9F479093B805A3
:103450008093B7058091CD0581110E94C30820E0BB
:1034600030E83093DC052093DB058FEF9FE79093E6
:10347000DE058093DD053093D8052093D705909322
:10348000DA058093D9055524539493E3292E0E949D
:10349000DE056B017C01C092F504D092F604E09247
:1034A000F704F092F804809174038F5F80937403A3
:1034B00000917702109178022091790230917A027E
:1034C00080917B0290917C02A0917D02B0917E025E
:1034D00046015701881A990AAA0ABB0A87E090E0B8
:1034E000A0E0B0E0801B910BA20BB30B88159905EF
:1034F000AA05BB05D8F460915E0370E06F5F7F4F53
:10350000072E000C880B990BA90198012F5F3F4FE4
:103510004F4F5F4F0E94901E60935E03C0927B02EC
:10352000D0927C02E0927D02F0927E028091ED02C8
:103530009091EE02A091EF02B091F002A7019601E6
:10354000281B390B4A0B5B0BDA01C9018137974104
:10355000A105B10560F080916803811104C08091DC
:103560006F03882321F01092680310926F0383E4A5
:1035700095E00E941503892B09F49CC0C092ED02CE
:10358000D092EE02E092EF02F092F00250926F03BE
:1035900083E495E00E94D3022091EB023091EC028B
:1035A0002630310544F48F3F81F52F5F3F4F309334
:1035B000EC022093EB022091EB023091EC022330DD
:1035C00031050CF477C08F3F09F474C00E94940851
:1035D00080919705909198050597E0F40E944F0817
:1035E000F5CF80529840B5010E94C11E9B01245C1A
:1035F0003F4FC70188599642B5010E94C11E6150D4
:103600007F4FEACE0E948D0705CF1092EC021092F8
:10361000EB02D1CF60E272E0809193059091940526
:103620000E94DA20892B41F486E292E00E94590838
:1036300081E392E00E945908809197059091980546
:10364000892BC1F0009193051091940564E372E019
:10365000C8010E94DA20892B09F0DFC019A246E3D5
:1036600048A32F8ECE014F960E94590881E392E025
:103670000E94590890E080E00E946608209193051E
:1036800030919405811123C12115310519F0C9012B
:103690000E948B1F1092940510929305109298052A
:1036A0001092970510929605109295051092EC02D3
:1036B0001092EB02C0905E03D0906903C1109BC1D1
:1036C000D110A0C10CE320E030E04FEF50E061E00A
:1036D00080E00E94AA0720E03FEF4FEF50E062E059
:1036E00081E00E94AA0720E030E840E050E063E07B
:1036F00082E00E94AA072FEF3FEF4FEF50E065E016
:1037000083E00E94AA0722E33DEC42E350E066E03A
:1037100085E00E94AA0720E035E44FEF50E067E023
:1037200086E00E94AA072FEF3FEF4FEF50E069E0DD
:1037300087E00E94AA072FEF30E0A9016AE089E044
:103740000E94AA070FEF20E030E840E050E06BE075
:103750008AE00E94AA0720E030E04FEF50E06CE0E2
:103760008BE00E94AA078091F9048C3008F08C50FD
:103770000CE010E0E82EF12CC8010C9720E041E5A8
:1037800060E08E159F0511F040E06FEFC8010E94C8
:1037900003010F5F1F4F0831110571F78091FA0483
:1037A0008C3008F08C50E82EF12CC801489720E0AE
:1037B0004FEF6FEFE816F90619F02FEF40E060E0E9
:1037C000C8010E9403010F5F1F4F0432110569F702
:1037D00080916803882309F415C1F9E38F2EF3E083
:1037E0009F2EA5E1AA2EA3E0BA2EB1EFEB2EB2E0F8
:1037F000FB2E10E000E0D4016D914D01F5014191E7
:103800005F01D7012D917D01C8010E9403010F5F67
:103810001F4F0432110579F7F5C06AE372E0C80161
:103820000E94DA20892B09F025CF17ECE12E12E057
:10383000F12E03EAC02E02E0D02E8FE7682E82E040
:10384000782E5301460187010E944F08382E0E94AE
:103850004F08482E0E944F08D8013D928D01F40177
:1038600041924F01D5018D935D01B2E00B3E1B07E4
:1038700059F70E944F088F3F910509F0FBCE0E9437
:103880004F088E3F910509F0F5CE0E944F088D3FFD
:10389000910509F0EFCE5092680389E393E0A5E12A
:1038A000B3E041EF52E0F70121917F01FC01219348
:1038B000CF01F60121916F012D93F30121913F0179
:1038C000FA012193AF010E151F0569F7D3CE1092AF
:1038D00098051092970563E372E0C9010E94E32006
:1038E000E5CEB1E0CB129DC08091A2059091A305D9
:1038F000892B09F496C08091AC059091AD05892B78
:1039000009F48FC00E942C048CC0009112016AE05F
:1039100070E080E090E00E94FC048091760390913A
:10392000630390FD05C0011104C011E0811101C0C5
:1039300010E080916803882311F011118CC00E945F
:10394000DE058090640390906503A0906603B090BC
:103950006703681579058A059B0508F486C011116F
:103960007AC080916A0390916B03A0916C03B0912F
:103970006D03892B8A2B8B2B51F40E94DE056093FB
:103980006A0370936B0380936C0390936D030E94A2
:10399000DE0500916A0310916B0320916C03309156
:1039A0006D03601B710B820B930B6B3F71058105DF
:1039B000910508F45AC010926803D11005C00E9406
:1039C0008D075092690351C00E94DE0500915F038C
:1039D000109160032091610330916203601B710BB1
:1039E000820B930B653F71408105910508F43DC042
:1039F0000E948D073AC080915D03882319F0DD2075
:103A000009F4E6CE80915D03811110925D03D1101F
:103A100008C080916803882309F463CFCC2009F49F
:103A200063CF80916F03882391F080916E038111A1
:103A30000EC024E43CE448E453E5209309063093A7
:103A40000A0640930B0650930C0650926E03109199
:103A50006E0311115ACF10926A0310926B031092E9
:103A60006C0310926D03109269031092730310920D
:103A7000720310927103109270037FE8C72E74E0F6
:103A8000D72EEEEFEE2EE1E0FE2ED7019D907D01C8
:103A9000B2E6B91530F161E0892D0E94CB03892D82
:103AA0000E947B0367EFA62E61E0B62E01E010E0D6
:103AB000F50181915F01833658F40E94A203F80159
:103AC0003197EC0DFD1D21E0892B09F020E02083CA
:103AD0000F5F1F4F0830110559F762E0892D0E94D2
:103AE000CB03F7E0CF0ED11CC158DF4F28813981BD
:103AF000CF57D0402E153F0541F661E081E00E948E
:103B0000AD0A62E081E00E94AD0A61E082E00E94BD
:103B1000AD0A62E082E00E94AD0A61E083E00E94AB
:103B2000AD0A62E083E00E94AD0A61E086E00E9497
:103B3000AD0A62E086E00E94AD0A8AE00E94A2031C
:103B400021E0892B09F020E02093B20482E10E9459
:103B5000A20321E0892B09F020E02093B30488E040
:103B6000A82EB12C96E0C92ED12CEE24E394F12C92
:103B700001E010E021E030E041E050E061E070E081
:103B800081E090E00E944B0B39E0A32EB12C47E07E
:103B9000C42ED12C52E0E52EF12C02E010E022E000
:103BA00030E042E050E062E070E082E090E00E94AD
:103BB0004B0B80917203909173038F5F9F4790939B
:103BC000B6058093B5058091CD0581110E94C3088B
:103BD00080917003909171038F5F9F479093B4051C
:103BE0008093B3058091CD0581110E94C3080E9486
:103BF000C30840E050E0452B09F449CC0E94000086
:103C000044CC8091930590919405009711F00E9407
:103C10008B1F8091A2059091A3050E948B1F80911C
:103C20009F059091A00597FD03C060E00C94CB0325
:103C30000895F999FECF92BD81BDF89A992780B574
:103C40000895262FF999FECF1FBA92BD81BD20BDE0
:103C50000FB6F894FA9AF99A0FBE01960895052EB8
:103C600097FB1EF400940E94461E57FD07D00E9449
:103C7000901E07FC03D04EF40C94461E50954095C0
:103C8000309521953F4F4F4F5F4F08959095809508
:103C9000709561957F4F8F4F9F4F08950E94B21E80
:103CA000A59F900DB49F900DA49F800D911D112490
:103CB00008952F923F924F925F926F927F928F92D0
:103CC0009F92AF92BF92CF92DF92EF92FF920F93AB
:103CD0001F93CF93DF93CDB7DEB7CA1BDB0B0FB6B5
:103CE000F894DEBF0FBECDBF09942A883988488872
:103CF0005F846E847D848C849B84AA84B984C88408
:103D0000DF80EE80FD800C811B81AA81B981CE0FFE
:103D1000D11D0FB6F894DEBF0FBECDBFED010895E3
:103D2000A1E21A2EAA1BBB1BFD010DC0AA1FBB1FBF
:103D3000EE1FFF1FA217B307E407F50720F0A21B31
:103D4000B30BE40BF50B661F771F881F991F1A949E
:103D500069F760957095809590959B01AC01BD01C8
:103D6000CF010895A29FB001B39FC001A39F700D22
:103D7000811D1124911DB29F700D811D1124911D73
:103D8000089597FB072E16F4009407D077FD09D00D
:103D90000E94DB1E07FC05D03EF4909581959F4F55
:103DA0000895709561957F4F0895EE0FFF1F059060
:103DB000F491E02D0994AA1BBB1B51E107C0AA1F77
:103DC000BB1FA617B70710F0A61BB70B881F991FBC
:103DD0005A95A9F780959095BC01CD0108950F9350
:103DE0001F93CF93DF938230910510F482E090E02F
:103DF000E0910306F091040630E020E0B0E0A0E09E
:103E0000309799F42115310509F44AC0281B390B64
:103E100024303105D8F58A819B816115710589F1BE
:103E2000FB0193838283FE0111C040815181028195
:103E3000138148175907E0F04817590799F410976C
:103E400061F012960C93129713961C933296CF0141
:103E5000DF91CF911F910F91089500930306109366
:103E60000406F4CF2115310551F04217530738F0FD
:103E7000A901DB019A01BD01DF01F801C1CFEF010A
:103E8000F9CF9093040680930306CDCFFE01E20F95
:103E9000F31F819391932250310939832883D7CF1F
:103EA0002091010630910206232B41F42091150147
:103EB00030911601309302062093010620911301E0
:103EC000309114012115310541F42DB73EB74091D1
:103ED000170150911801241B350BE0910106F09158
:103EE0000206E217F307A0F42E1B3F0B2817390731
:103EF00078F0AC014E5F5F4F2417350748F04E0F46
:103F00005F1F5093020640930106819391939FCFC8
:103F1000F0E0E0E09CCFCF93DF930097E9F0FC0165
:103F2000329713821282A0910306B0910406ED012C
:103F300030E020E01097A1F420813181820F931F9F
:103F400020910106309102062817390709F061C057
:103F5000F0930206E0930106DF91CF910895EA0104
:103F6000CE17DF07E8F54A815B819E0141155105B7
:103F7000B1F7E901FB83EA8349915991C40FD51F39
:103F8000EC17FD0761F4808191810296840F951FE3
:103F9000E90199838883828193819B838A83F0E0FE
:103FA000E0E012968D919C9113970097B9F52D91B1
:103FB0003C911197CD010296820F931F209101062B
:103FC000309102062817390739F6309751F51092CB
:103FD000040610920306B0930206A0930106BCCF1C
:103FE000D383C28340815181840F951FC817D9079D
:103FF00061F44E5F5F4F88819981480F591F51834B
:1040000040838A819B81938382832115310509F046
:10401000B0CFF0930406E09303069ECFFD01DC01D0
:10402000C0CF13821282D7CFB0E0A0E0EAE1F0E285
:104030000C945B1E8C01009751F4CB010E94EF1E83
:104040008C01C801CDB7DEB7E0E10C94771EFC010E
:10405000E60FF71F9C0122503109E217F30708F41D
:104060009DC0D901CD91DC911197C617D70798F063
:10407000C530D10530F3CE0104978617970708F3B2
:10408000C61BD70B2297C193D1936D937C93CF011D
:104090000E948B1FD6CF5B01AC1ABD0A4C018C0E5F
:1040A0009D1EA0910306B0910406512C412CF12CC9
:1040B000E12C109731F58091010690910206881548
:1040C000990509F05CC04616570608F058C0809163
:1040D000130190911401009741F48DB79EB7409160
:1040E000170150911801841B950BE817F90708F088
:1040F00055C0F0930206E0930106F90171836083D5
:10410000A0CF8D919C91119712966C901297139657
:104110007C901397A815B90559F56C0142E0C40EBF
:10412000D11CCA14DB0420F1AC014A195B09DA0185
:104130001296159780F06282738251834083D90171
:104140006D937C93E114F10471F0D7011396FC9305
:10415000EE93129776CF22968C0F9D1FF9019183D3
:104160008083F301EFCFF0930406E093030669CF59
:104170004816590608F42C017D01D3019ACFCB01D2
:104180000E94EF1E7C01009749F0AE01B8010E9429
:10419000D120C8010E948B1F870153CF10E000E09F
:1041A00050CFFB01DC0102C001900D924150504004
:1041B000D8F70895FB01DC018D9101908019011061
:1041C000D9F3990B0895FB01DC0101900D920020B9
:1041D000E1F7089510E0C8EDD0E004C0FE010E94B0
:0E41E000D51E2196C93DD107C9F7F894FFCF2F
:1041EE0000C18081000000FFFFFFFF00E100000022
:1041FE0000000000000D0680000800090006000700
:10420E00000400050002000300000001000C000D78
:10421E00000E000F00100011001200130014001504
:10422E000016001700180019001A001B001C001DB4
:10423E00001E001F00200021002200230011000498
:10424E00001D0008001600010022000A000D0006E5
:10425E000019001F00000013000B001B0003000FCD
:10426E0000230009001500050018000C0002001EB6
:10427E00000700120021000E001A0010002000148A
:10428E00001C001700000163636363630203636332
:10429E006363630405636363636306076363636356
:1042AE0063080963636363630A0B63636363636336
:1042BE0063636363636363636363636363636363C0
:1042CE00636363636363636363636300000000EAB5
:1042DE0005660628060D0608096363636363070611
:1042EE000504036363636363305613140C320000DA
:1042FE000000AD02C805CE02C3021503D302F102BF
:10430E0070726F746F0053494D4855425F312E30B5
:10431E00000D0A006C6564736300736C6564730052
:00000001FF
