:100000000C94D2000C94FA000C94FA000C94FA00B0
:100010000C94FA000C94FA000C94FA000C94FA0078
:100020000C94FA000C94FA000C94D7090C94460A2C
:100030000C94FA000C94FA000C94FA000C94FA0058
:100040000C94FA000C94FA000C94FA000C94FA0048
:100050000C94FA000C94FA000C94FA000C94780CAE
:100060000C94FA000C94FA000C94FA000C94FA0028
:100070000C94FA000C94FA000C94FA000C94FA0018
:100080000C94FA000C94FA000C94FA000C94FA0008
:100090000C94FA000C94FA000C94FA000C94FA00F8
:1000A0000C94FA000C94FA000C94FA000000000082
:1000B000240027002A002D003000080B0002020255
:1000C00000000904000001020200000524001001E4
:1000D0000524010101042402060524060001070588
:1000E000810310004009040100020A000000070516
:1000F00002024000000705830240000004030904D7
:1001000012010002EF0201406F355D28000101027B
:100110000301417574686F72004D552D50616E6515
:100120006C41706578320000000000230026002931
:10013000002C002F000000000200090F0000030443
:1001400001000C00000000000000000000000000A2
:100150000000000004080201104080401020408090
:10016000408008020401804020100201108010200D
:1001700040402000000000250028002B002E003108
:10018000000404040404030405020202020403023E
:10019000020202060606060606040402020204041F
:1001A000F50C721311241FBECFEFDAE0DEBFCDBF16
:1001B00011E0A0E0B1E0E4EAFCE202C005900D929B
:1001C000A437B107D9F723E0A4E7B1E001C01D923D
:1001D000AB37B207E1F710E0C1EDD0E004C02197E2
:1001E000FE010E943014C03DD107C9F70E94780F6C
:1001F0000C9445160C940000CF93DF93FC01909172
:100200001703992361F0699FB0011124672F949F10
:10021000A0011124452F929F90011124232F30918A
:100220001D03809118039091190350911A033513FF
:1002300043C0DF01AA0FBB1FEA0FFB1F8E0F9F1FDA
:10024000C0911A03C80FD92FD11DE881E627A091CC
:100250002203B0912303AE0FB11DB0932303A093EB
:100260002203E0911B03E80FF92FF11DE081E42741
:10027000EA0FFB2FF11DF0932303E0932203A091DB
:100280001C03A80FB92FB11D3C913227E30FF11DBC
:10029000F0932303E09322036883E0911B03E80FAC
:1002A000F92FF11D408330911C03830F911DFC0138
:1002B0002083DF91CF910895EE0FFF1FEE0FFF1FF8
:1002C0008E0F9F1FFC01E30FF11D1082B9CFCF925B
:1002D000DF92EF92FF920F931F93CF93DF93D90199
:1002E000E8016A01F9014217530714F06901FA01A4
:1002F000882309F440C0CB016C157D050CF4C601C0
:100300009F018E179F070CF49C01A417B50734F4C6
:10031000CF01821B930B9C012C0D3D1D0D2C000C5D
:10032000EE08FF08032E000C440B550B2C193D0959
:100330004E095F09AEEFBFEF0E94A9139F01FF0FA7
:10034000440B550B2C193D094E095F090E948A1375
:10035000DA01C9018F5F9F47A109B1098883998399
:1003600082E090E0DF91CF911F910F91FF90EF908D
:10037000DF90CF90089590E080E0F4CFFC01809171
:10038000B802882311F13FB7F89482E08093E90026
:100390002091F200822F90E01816190614F481E0E3
:1003A00090E0882339F0289844E64093B7024091C2
:1003B000F1004083222339F02091F200211103C083
:1003C0002BE62093E8003FBF08958FEF9FEF08953D
:1003D0004091A0015091A10120919E0130919F0177
:1003E00042175307B4F49091E8009570E1F39091AF
:1003F000E80092FD19C08093F1008091A0019091D6
:10040000A10101968F739927892B19F48EEF8093A0
:10041000E8008091A0019091A10101969093A10123
:100420008093A00181E0089580E00895DF92EF922B
:10043000FF920F931F93CF93DF93D82E8A01EB0186
:100440007B01E40EF51ECE15DF0559F0D7FE12C074
:10045000FE0184910E94E80121968111F4CF0FEFF3
:100460001FEFC801DF91CF911F910F91FF90EF9087
:10047000DF9008958881EECF2FB7F894877080932E
:10048000E9009091E800892F807295FF04C0909157
:10049000F20080E4891B2FBF0895615030F0209155
:1004A000F100FC0120830196F8CF289884E6809320
:1004B000B70208958091960181110DC082E080936A
:1004C000920184E08093930110929501109294011F
:1004D00081E08093960182E991E008950F931F9344
:1004E000CF93DF931F92CDB7DEB782E0898342E4DA
:1004F00050E06AEB70E080E80E9416020E945A0207
:10050000DC0112960D911C910115110589F0D8019D
:10051000ED91FC910280F381E02DBE016F5F7F4F72
:10052000C801099597FD04C0F80100851185ECCF3D
:1005300089810F90DF91CF911F910F910895CF93F3
:10054000DF931F92CDB7DEB76983DC01ED91FC919B
:100550000280F381E02D41E050E0BE016F5F7F4FEC
:1005600009950F90DF91CF91089583E08093E90082
:100570008091F200882319F08AE38093E8000895BF
:1005800083E00E943C0290E00895CF93DF931F9296
:10059000CDB7DEB7FC018485958597FD08C02FEFA8
:1005A0003FEF358724870F90DF91CF910895CE01DB
:1005B00001960E94BE01019719F4898190E0F3CF62
:1005C0008FEF9FEFF0CF0F931F93CF93DF931F9287
:1005D000CDB7DEB78C01FC018485958597FF0BC0F4
:1005E000CE0101960E94BE01019771F4898190E0CD
:1005F000F80195878487F801848595850F90DF91B0
:10060000CF911F910F9108958FEF9FEFF1CFFC01D4
:100610008485958597FD0BC09FB7F89482E0809301
:10062000E9008091F2009FBF90E0019608959FB786
:10063000F89482E08093E9008091F2009FBF90E0FF
:10064000089581508F3008F047C0E82FF0E0E55D55
:10065000FC4F0C94301448034C033A03400344030A
:100660006C036C036C034F03550359035D03630371
:100670006C036703809180008F77809380000895DA
:10068000809180008F7DF9CF80918000877FF5CFAA
:1006900084B58F7784BD089584B58F7DFBCF80911D
:1006A00090008F77809390000895809190008F7DC7
:1006B000F9CF80919000877FF5CF8091C0008F7730
:1006C0008093C00008958091C0008F7DF9CF809104
:1006D000C200877F8093C2000895CF93DF93282FB5
:1006E00030E0F901EB5CFE4F8491F901EC5AFE4FCA
:1006F000D491F901EF57FE4FC491CC2391F08111B1
:100700000E942103EC2FF0E0EE0FFF1FED58FE4F8B
:10071000A591B4918FB7F894EC91D095DE23DC933A
:100720008FBFDF91CF910895CF93DF9390E0FC01CD
:10073000EC5AFE4F24918F579E4FFC0184918823E1
:10074000C9F090E0880F991FFC01E455FF4FA59177
:10075000B491FC01ED58FE4FC591D49161110DC0CB
:100760009FB7F8948C91209582238C9388812823BD
:1007700028839FBFDF91CF910895623051F49FB7D6
:10078000F8943C91822F809583238C93E8812E2BC3
:10079000EFCF8FB7F894EC912E2B2C938FBFEACF2D
:1007A0003FB7F89480918E0190918F01A0919001B4
:1007B000B091910126B5A89B05C02F3F19F0019675
:1007C000A11DB11D3FBFBA2FA92F982F8827BC01AB
:1007D000CD01620F711D811D911D42E0660F771FD3
:1007E000881F991F4A95D1F70895CF92DF92EF9213
:1007F000FF920E94D0036B017C010E94D0036C1910
:100800007D098E099F09683E734081059105A8F313
:10081000FF90EF90DF90CF9008957F928F929F92FC
:10082000AF92BF92CF92DF92EF92FF920F931F93FE
:10083000CF93DF93C82E8B017A018091B80281118A
:1008400010C08FEF9FEFDF91CF911F910F91FF901D
:10085000EF90DF90CF90BF90AF909F908F907F9060
:1008600008958091A40180FF05C08091E00082601E
:100870008093E000CE2DDF2DD12C8AEFB82E8C2D69
:100880008770982E8C2D8072882E8C2D8074782EF7
:100890009AE3A92E209719F4DD2009F44EC08C2D7F
:1008A0000E943C02811106C0BA94BB2051F20E9402
:1008B000F503F0CF8C171D0611F00CF08C2F9FB7AD
:1008C000F8949092E9002091E80025FD02C09FBFB6
:1008D000E1CF282F30E0C21BD30B882029F08150B4
:1008E000A0F01092F100FBCFF801C7FC0AC08150C4
:1008F00050F041914093F100FACF44914093F100C0
:1009000031968150D0F7020F131FDD2021F0A09205
:10091000E800D12CDCCF8091E80085FD07C0A092D3
:10092000E800DD24D394209791F2F3CF209779F655
:10093000772069F2A092E800CACF5D9884E68093A0
:10094000A301C70180CFCF93DF93EC018091120107
:10095000882331F083E00E940D041816190634F044
:1009600081E090E09B838A8380E090E0DF91CF91EB
:1009700008950F931F93CF93DF93CDB7DEB72997D9
:100980000FB6F894DEBF0FBECDBF109223031092B6
:1009900022030E94D00300911E0310911F03209197
:1009A000200330912103601771078207930740F4F9
:1009B00060931E0370931F03809320039093210381
:1009C00000911E0310911F032091200330912103F9
:1009D000601B710B820B930B6C327140810591058A
:1009E000C0F2F89480911303909114039A83898341
:1009F000E0911803F0911903DF0111968081898736
:100A000090910F03E0912403F09125038091260338
:100A1000992309F445C09081982B988790818095FF
:100A200089238F838F818C8388E08B8358856F81A6
:100A300049853B812C8189819A81508347FD252FEF
:100A40003A952083262F39F0441F00C000006083B0
:100A5000000000C0F2CF38E04D91608300000197A4
:100A600061F7F0932503E093240349873B832C83AC
:100A70009A83898378940E94D00360931E037093B5
:100A80001F03809320039093210329960FB6F894B7
:100A9000DEBF0FBECDBFDF91CF911F910F910895A3
:100AA0009081982B98879081809589238F838F815F
:100AB0008E8388E08D8358856F8149853D812E81A5
:100AC00089819A81508347FD252F00C000C0208373
:100AD00000C000C000C000C000C060830000262F1E
:100AE0003A9541F0441F000000C000C000C000C0A3
:100AF00000C0E8CF38E04D9100C0608300C001978E
:100B000009F7F0932503E093240349873D832E835F
:100B1000AFCFDC01FB0112962C9112978481958155
:100B20002817190641F491818081813A31F49D7F23
:100B300081E0913009F080E008958132E1F79B3047
:100B400029F482811F968C9381E008959A3099F759
:100B5000828150968C93F8CFDC01FB0188E480837E
:100B600089E4818384E482831D969C911D979F7004
:100B70009F5B93831D968D919C9124E0969587951C
:100B80002A95E1F78F708F5B848385E00895EF925B
:100B9000FF920F931F93CF93DF93FB0120812138A6
:100BA00089F52381223271F5DC0112964C91248162
:100BB00035814217130631F58C01FC01C385D485BC
:100BC000F12CE12C209791F04C815D816A817B8131
:100BD0008E81811180E80E9416028F3F980759F09C
:100BE000E80EF91E0990D881C02DECCF81E0D80124
:100BF0001F968C93C701DF91CF911F910F91FF90AA
:100C0000EF90089590E080E0F6CFCF93DF93CDB7DB
:100C1000DEB769970FB6F894DEBF0FBECDBFFC01FB
:100C2000DB018C918F5F8C939E012D5F3F4F8DE098
:100C3000D9011D928A95E9F729E0298384E08A8306
:100C400091E09D8383E08E832A8721E22B879C8716
:100C50009D879F8722E2288B27E02B8B25E02C8B1A
:100C60008E8B20E430E0388F2F8B998F82818B839D
:100C700095858685998B8A8B838180688D8B49E1E8
:100C800050E0BE016F5F7F4F80E00E9416026996C0
:100C90000FB6F894DEBF0FBECDBFDF91CF910895A0
:100CA000CF93DF9380918501811167C081E08093AC
:100CB0007801809379012EE731E030937B01209316
:100CC0007A0110927D0110927C0121E331E0309392
:100CD0007501209374011092800110927F0110928F
:100CE000820110928101809383018093840181ECC1
:100CF00080937E010E945A02FC01818190917801CB
:100D0000482F490F5527551F483051059CF5A281A2
:100D1000B381109709F524E731E0338322832081E2
:100D2000209376018093770180917901820F8083EF
:100D300020917A01A22FB0917B018A2F821B891703
:100D4000C8F481813D91C82FD0E0C050DF4F388377
:100D50008F5F8183F2CFD90118962D913C9119971D
:100D600021153105C1F724E731E019963C932E9304
:100D70001897D5CF81E08093850184E791E0DF91DA
:100D8000CF910895CF93DF93D0E0C0E0809111031D
:100D900090911203C817D90730F42FE34FE36FE3A4
:100DA000CE010E94FC002196C531D10579F78091D2
:100DB000180390911903892B51F08091220390918F
:100DC0002303892B21F0DF91CF910C94B904DF919B
:100DD000CF91089589EB92E00E940703892BD1F30C
:100DE00089EB92E00C94C502FC0101900020E9F728
:100DF0003197AF01481B590BBC0189EB92E00C9471
:100E0000A304CF93DF93EC018091090390910A032F
:100E1000009759F020910B0330910C032C173D07DC
:100E200020F081E0DF91CF910895BE016F5F7F4F89
:100E30000E946F15009789F090930A03809309032D
:100E4000D0930C03C0930B0320910D0330910E033C
:100E5000232B39F7FC011082E4CF80E0E3CF0F931E
:100E60001F93CF93DF9300D0CDB7DEB789831A826B
:100E700000910D0310910E030F5F1F4FC8010E94D8
:100E800001078823A1F02091090330910A03809182
:100E90000D0390910E03BE016F5F7F4F820F931F72
:100EA0000E943E1610930E0300930D0381E00F90F5
:100EB0000F90DF91CF911F910F9108958F929F9284
:100EC000AF92BF92CF92DF92EF92FF920F931F9358
:100ED000CF93DF93CDB7DEB7ADB6BEB680917603C4
:100EE0002DB73EB7281B31090FB6F8943EBF0FBE91
:100EF0002DBF8DB79EB701966C01E0904503F12C94
:100F00008091410390914203D601FC019F01281B6F
:100F1000390B2E153F051CF421912D93F7CF8091AD
:100F20004603882359F180913D0390913E0328E0C8
:100F300097FD09C068E671E00E941C146DE270E044
:100F40000E941C14262F80913F039091400368E07B
:100F500097FD08C068E671E00E941C146DE270E025
:100F60000E941C14F601EE0DFF1D90E1699FB00177
:100F70001124262B2083F70131967F0186010E0D67
:100F80001F1D20914B0330914C0340914903509118
:100F90004A03609127037091280380914703817071
:100FA0000E946701E80EF91E86010E0D1F1D20919B
:100FB0004F033091500340914D0350914E03609187
:100FC000290370912A0380914703869581700E94BE
:100FD0006701E80EF91E86010E0D1F1D20915303B7
:100FE00030915403409151035091520360912B036F
:100FF00070912C038091470382FB882780F90E941F
:101000006701E80EF91E86010E0D1F1D2091570382
:1010100030915803409155035091560360912D0330
:1010200070912E038091470383FB882780F90E94EB
:101030006701E80EF91E86010E0D1F1D20915B034E
:1010400030915C034091590350915A0360912F03F2
:101050007091300380914703829581700E946701EF
:10106000E80EF91E86010E0D1F1D20915F033091C1
:10107000600340915D0350915E0360913103709174
:1010800032038091470385FB882780F90E9467011E
:10109000E80EF91E86010E0D1F1D2091630330918D
:1010A0006403409161035091620360913503709134
:1010B00036038091480381700E946701E80EF91E93
:1010C00086010E0D1F1D209167033091680340912A
:1010D00065035091660360913303709134038091EE
:1010E0004803869581700E946701E80EF91E86010B
:1010F0000E0D1F1D20916B0330916C03409169030D
:1011000050916A03609137037091380380914803CE
:1011100082FB882780F90E946701E80EF91E86018C
:101120000E0D1F1D20916F033091700340916D03D0
:1011300050916E036091390370913A038091480396
:1011400083FB882780F90E9467018E0D9F1D860111
:10115000080F191F2091730330917403409171039C
:101160005091720360913B0370913C03809148035E
:10117000829581700E9467010E9450064C01409147
:1011800076038091750350E07A01FFEFEF1AFF0AB2
:101190002DB73EB72E193F090FB6F8943EBF0FBECC
:1011A0002DBF0DB71EB70F5F1F4FEDB7FEB7818381
:1011B000B601C80101960E942C16F4018381A70193
:1011C000B80180640E940D040FB6F894BEBE0FBE35
:1011D000ADBEDF91CF911F910F91FF90EF90DF9007
:1011E000CF90BF90AF909F908F900895E82FE69595
:1011F000E695E6952091410330914203E20FF32FEB
:10120000F11D282F277081E090E0A0E0B0E004C03D
:10121000880F991FAA1FBB1F2A95D2F7809590812E
:10122000892380838091430381110C945E07089584
:101230008F929F92AF92BF92CF92DF92EF92FF92E6
:101240001F93CF93DF9381506150E62FF0E014E0BD
:10125000819F90011124D901A75EBE4FAE0FBF1F21
:101260008C91D901A656BD4FAE0FBF1F9C914091E6
:10127000B3025091B4026091B5027091B602E901D7
:10128000C850DE4FCE0FDF1FA881A91711F1D90179
:10129000AE0FBF1FAA0FBB1FAA0FBB1FA855BE4F83
:1012A000CD90DD90ED90FC9013974A015B018C1876
:1012B0009D08AE08BF08750164011AE1C116D1048A
:1012C000E104F10430F04D935D936D937C9313979B
:1012D0009883D901AE0FBF1FAA0FBB1FAA0FBB1F58
:1012E000A855BE4FCD90DD90ED90FC904C195D0956
:1012F0006E097F094A3151056105710530F0D90148
:10130000A850BE4FAE0FBF1F9C939091440328502E
:101310003E4FE20FF31F208121110FC08917D8F52E
:10132000DF91CF911F91FF90EF90DF90CF90BF9012
:10133000AF909F908F900C94F608891760F5E82F76
:10134000E695E695E6952091410330914203E20F40
:10135000F32FF11D282F277081E090E0A0E0B0E08E
:1013600004C0880F991FAA1FBB1F2A95D2F720819E
:10137000822B808380914303882369F0DF91CF9192
:101380001F91FF90EF90DF90CF90BF90AF909F9014
:101390008F900C945E07DF91CF911F91FF90EF909B
:1013A000DF90CF90BF90AF909F908F9008951F9245
:1013B0000F920FB60F9211248F939F938091E100AB
:1013C0009091E100937F9093E10083FF0FC0109212
:1013D000E90091E09093EB001092EC0092E390937F
:1013E000ED001092B80298E09093F00082FF22C0C6
:1013F00093E09093E9009091F200992319F09AE319
:101400009093E8009091A301992341F09091A3015A
:1014100091509093A301911101C05D9A9091B702F0
:10142000992341F09091B70291509093B702911196
:1014300001C0289A84FF18C08091E2008E7E8160EE
:101440008093E2008091E1008F7E8093E1008091A3
:10145000A4018E7E80618093A4019F918F910F9053
:101460000FBE0F901F90189580FFF7CF8091E2007C
:101470008E7E80618093E2008091E1008E7E809379
:10148000E1008091A4018E7E8160E5CF1F920F92D2
:101490000FB60F921124CF92DF92EF92FF920F932B
:1014A0001F932F933F934F935F936F937F938F93EC
:1014B0009F93AF93BF93EF93FF93CF93DF93CDB7FA
:1014C000DEB76C97DEBFCDBF1092E9008091E800D7
:1014D00083FF25C068E0CE0145960E944D0282EF51
:1014E0008093E8008D8987FF39C09091E80090FFD4
:1014F000FCCF982F907609F034C19E894F89588D82
:101500002F89F88C911131C0803861F58091A50147
:101510008093F1001092F1008EEF8093E8006C96BA
:101520000FB6F894DEBF0FBECDBFDF91CF91FF9114
:10153000EF91BF91AF919F918F917F916F915F914B
:101540004F913F912F911F910F91FF90EF90DF905E
:10155000CF900F900FBE0F901F9018959EEF909315
:10156000E800C7CF1092F100D5CF913059F4811126
:10157000D3CF4130510581F68091A5018D7F8093B5
:10158000A501CACF933049F48111C6CF413051052E
:1015900019F68091A5018260F2CF953041F48091D7
:1015A000E80080FFFCCF20682093E300B5CF9630A1
:1015B00009F0A9C00B8D1C8D22E01092E900109259
:1015C000A1011092A001F2122EC010929F01109260
:1015D0009E010E946E021F8299E09983FA8291E037
:1015E0009E8390EA98879AEF99872091A001309185
:1015F000A101275F3F4F3C832B838D831092E9002D
:101600001092A1011092A00110939F0100939E01DE
:1016100049E050E0BE016F5F7F4F80E00E941602FC
:101620000E946E0279CF10939F0100939E010E9449
:101630005A02DC0112960D911C910115110509F455
:1016400051C1D801ED91FC910480F581E02DBE01DE
:101650006B5E7F4FC8010995009709F03EC1F80104
:1016600000851185EACFF3E0FF120EC08F89882331
:1016700009F440C0823061F440E86DE089E191E016
:101680000E94C20C811148CF81E28093EB0047CFCA
:10169000813029F440E866E082E191E0F1CF8330C7
:1016A00099F70E945A02DC011296ED90FC908E018F
:1016B0000F5F1F4F6801E114F10479F0D701ED913C
:1016C000FC910680F781E02DB801C7010995080F4C
:1016D000111DF701E084F184EECFD8011C92F601D0
:1016E00001900020E9F73197BF016C197D0940E0B6
:1016F000C601C6CF6CEF70E0FB01449150E080E87A
:101700000E94160209CF973009F4BECF983021F419
:1017100081E08093F10000CF993009F0FDCE837015
:1017200009F0B2CFE1E0F1E081E031E096E3219110
:10173000222371F08093E9003093EB00DF011197D1
:101740002C912093EC009093ED008F5F873079F718
:101750008EE78093EA001092EA008F898093B802A6
:10176000DBCE8B8D9C8D1092E9001092A10110921E
:10177000A00190939F0180939E01898D811192C059
:101780008E899D89913A49F4813209F07DCF47E0F5
:1017900050E06BE071E080E0B3CF913209F074CF9C
:1017A000833269F48F89988DB0E0A0E080930701BF
:1017B00090930801A0930901B0930A01ADCE803245
:1017C00069F48091E80082FFFCCF67E08BE091E054
:1017D0000E944D028BEF8093E8009ECE823209F08A
:1017E0009BCE8F8980931201EEEFFFE78591949154
:1017F0008B3F9C4D51F1E0E0F8E080910B0190911E
:101800000C01A0910D01B0910E01803B9440A10507
:10181000B105F1F48091120180FD1AC0EE3F8AE01B
:10182000F80789F587E797E79183808380916000C7
:101830008093A20188E19BE00FB6F894A89580936D
:1018400060000FBE9093600067CEEEEFFAE0D5CF58
:10185000808191818737974709F05ECEA895809166
:1018600060008861809360008091A2018093600095
:10187000EE3F2AE0F20789F08091FE0A9091FF0A7C
:101880009183808349CE808191818737980751F277
:101890009093FF0A8093FE0AC5CF1092FF0A109220
:1018A000FE0A3ACE0E945A02DC0112960D911C915A
:1018B0000115110509F4E8CED801ED91FC910190D4
:1018C000F081E02DBE016B5E7F4FC801099581114B
:1018D00023CEF80100851185EBCF181619060CF4FC
:1018E0001BCED2CEF1E0FF12BECE60E071E004CF9D
:1018F0001F920F920FB60F9211242F933F938F9345
:101900009F93AF93BF9380910C0290910D02A09191
:101910000E02B0910F0230918D0123E0230F2D377D
:1019200058F50196A11DB11D20938D0180930C02E5
:1019300090930D02A0930E02B0930F0280918E013E
:1019400090918F01A0919001B09191010196A11DFC
:10195000B11D80938E0190938F01A0939001B0935D
:101960009101BF91AF919F918F913F912F910F90D6
:101970000FBE0F901F90189526E8230F0296A11D09
:10198000B11DD2CFEF92FF920F931F93CF93DF93AE
:10199000F82E192FE62E042F81E0860F880F0E9463
:1019A000E80183E00E94E801CF2DD12FEC0EFD2E3F
:1019B000F11CCE15DF05B9F007FF13C0FE018491BD
:1019C0000E94E801182F80E00E94E80181232196FF
:1019D0008111EFCFDF91CF911F910F91FF90EF9089
:1019E00008958881EDCF81E0F5CFEF92FF920F93BC
:1019F0001F93CF93DF93CDB7DEB7C659D1090FB68A
:101A0000F894DEBF0FBECDBF1092BC021092BB0295
:101A100088EE93E0A0E0B0E08093BD029093BE0218
:101A2000A093BF02B093C00286E491E09093BA0203
:101A30008093B9028FEF9FEF9093C6028093C50207
:101A400010924203109241031092450310924A03F0
:101A5000109249038FEF93E090934C0380934B03D4
:101A600010924E0310924D039093500380934F03B6
:101A70001092520310925103909354038093530396
:101A80001092560310925503909358038093570376
:101A900010925A031092590390935C0380935B0356
:101AA00010925E0310925D039093600380935F0336
:101AB0001092620310926103909364038093630316
:101AC00010926603109265039093680380936703F6
:101AD00010926A031092690390936C0380936B03D6
:101AE00010926E0310926D039093700380936F03B6
:101AF0001092720310927103909374038093730396
:101B000073E07093750324E120934403109246031D
:101B10008FE1809347038AE08093480335E039835F
:101B200091E09A8389E08B83F4E0FC83E1EAED8322
:101B30009E8345E84F83788739878A8749E14B87B9
:101B40009C8749E24D872E8745E14F87188A45E2F9
:101B5000498B9A8B65E76B8B9C8B55E95D8B2E8B44
:101B600015E51F8B188E25E6298F1A8E41E84B8FBD
:101B700022E02C8F6D8F9E8F5F8FF8A349A37AA3ED
:101B80003BA39CA38DA39EA376E1E72EEFA298A78B
:101B9000F0E8FF2EF9A606E20AA7BFEFBBA7AFE762
:101BA000ACA76DA7F0E1FEA75FA738ABE9AB1AAA17
:101BB0008BAB70E37CAB8DAB71E37EAB8FAB72E331
:101BC00078AF89AF73E37AAF8BAF74E37CAF4DAF7F
:101BD0002EAF70EC7FAF21963FAF219722962FAFAB
:101BE00022972396EFAE239724969FAF24972596AE
:101BF000FFAE259726960FAF26972796BFAF27975C
:101C00002896AFAF289729966FAF29972A96FFAFEE
:101C10002A972B965FAF2B972C962FAF2C972D964C
:101C2000EFAF2D972E961FAE2E972F968FAF2F9733
:101C30009BEB60969FAF609761968FAF619785EC45
:101C400062968FAF629763964FAF639764962FAF9C
:101C5000649765967FAF659766967FAF669785E5D3
:101C600090E00E944A147C01FE013196DC01019053
:101C70000D921A95E1F787E090E00E944A148C01DA
:101C8000DC0111961C921E921396FC92EE92129712
:101C900085E590E015969C938E93149716961C926A
:101CA0000E945006FC01A385B485109709F077C007
:101CB0001487038785859685D80114962D913C91CC
:101CC000820F931F9687858790914403892F86956D
:101CD00086958695977009F06AC0809345031091A8
:101CE0004503812F90E0009711F481E090E00E947D
:101CF0004A14909342038093410381E090914603FC
:101D0000911101C080E0125F810F809376031092E1
:101D100028031092270310922A031092290310928D
:101D20002C0310922B0310922E0310922D0310926D
:101D3000300310922F03109232031092310310924D
:101D4000340310923303109236031092350310922D
:101D500038031092370310923A031092390310920D
:101D60003C0310923B038FEF9FEF90933E038093D1
:101D70003D039093400380933F0390E080E02091E7
:101D8000450328171906A9F0A4F0E0914103F0914A
:101D90004203E80FF91F10820196F1CFDC018D910B
:101DA0009C9111970097D1F70D931C9383CF8F5F70
:101DB00094CF109210031092170310921E031092EA
:101DC0001F03109220031092210381E080931D03D2
:101DD00080931A0310921B0392E090931C0380934C
:101DE0000F038CE390E090931403809313030E94FD
:101DF0004A149093190380931803009709F465C05F
:101E00002CE3FC0111922A95E9F784E190E090938C
:101E100012038093110382E090E090931603809365
:101E2000150380911003882339F061E082E00E945D
:101E3000940382E00E946D03E3E8F1E0E491F0E0B6
:101E4000EE0FFF1FED58FE4F85919491909325035F
:101E500080932403E6E5F1E0E491E09326031092F9
:101E60000A031092090310920C0310920B031092B4
:101E70000E0310920D0390E080E00E940107209174
:101E8000090330910A03811129C02115310519F088
:101E9000C9010E94E61410920A03109209031092DD
:101EA0000E0310920D0310920C0310920B03CA56EE
:101EB000DF4F0FB6F894DEBF0FBECDBFDF91CF91DD
:101EC0001F910F91FF90EF900895109214031092BC
:101ED000130310921203109211039DCF10920E0360
:101EE00010920D0367E671E0C9010E943E16DFCF34
:101EF000CF93DF93CDB7DEB7A3970FB6F894DEBFCD
:101F00000FBECDBF789484B5826084BD84B58160F6
:101F100084BD85B5826085BD85B5816085BD8091B4
:101F20006E00816080936E0010928100809181002C
:101F30008260809381008091810081608093810024
:101F40008091800081608093800080919100826008
:101F500080939100809191008160809391008091A5
:101F600090008160809390008091C1008460809394
:101F7000C1008091C10082608093C1008091C10046
:101F800081608093C1008091C30081608093C30011
:101F90008091C00082608093C0008091C200816007
:101FA0008093C20080917A00846080937A0080914F
:101FB0007A00826080937A0080917A0081608093B9
:101FC0007A0080917A00806880937A001092B8023B
:101FD0001092A5011092A4018091D7008160809396
:101FE000D70080EA8093D80089B5806189BD89B522
:101FF000826089BD09B400FEFDCF0E94F503809187
:10200000D8008F7C80618093D8008091E000807F31
:102010008093E0008091E1008E7E8093E1008DE06E
:102020008093E200559A209A8FEF9FEF9093C6021B
:102030008093C50210924A031092490388EE93E000
:1020400090934C0380934B031092660310926503A8
:10205000909368038093670310926E0310926D0350
:102060009093700380936F0348EA51E090E080E022
:10207000FA0130E020E08C0106561D4FBC0168508B
:102080007E4FD801A20FB31F1C92DB01A20FB31F1A
:102090001C9211921192119211922F5F3F4F243096
:1020A000310579F7405F5F4F04968431910501F760
:1020B00009E311E0D8018D918D01833619F062E0BA
:1020C0000E949403B1E00D331B07A1F7BDE32B2E53
:1020D000B1E03B2EF10181911F01833619F062E0DE
:1020E0000E949403F2E42F16F1E03F0699F710E006
:1020F00080914403181718F4812F0E94F6081F5F7F
:102100001431B1F7809115039091160397FF0BC11D
:1021100081E08093100381E090E09093230380930B
:1021200022038091100290911102A0911202B091AD
:1021300013020196A11DB11D80931002909311020C
:10214000A0931202B09313020E94C206109243039E
:102150000E945E0780E090E89093560380935503B9
:102160008FEF9FE790935803809357038091A601C8
:102170009091A701866394609093A7018093A60134
:102180008F5F9F4790932E0380932D03809143038D
:1021900081110E945E0720E030E8309352032093C3
:1021A00051038FEF9FE79093540380935303309331
:1021B0004E0320934D039093500380934F03442488
:1021C0004394A0E85A2E8FB7F894C0900C02D09098
:1021D0000D02E0900E02F0900F028FBFC092B3028A
:1021E000D092B402E092B502F092B6028091B202AF
:1021F0008F5F8093B2020091100210911102209122
:102200001202309113028091140290911502A09154
:102210001602B091170246015701881A990AAA0AB4
:10222000BB0A87E090E0A0E0B0E0801B910BA20B1E
:10223000B30B88159905AA05BB05D8F460919902DE
:1022400070E06F5F7F4F072E000C880B990BA90180
:1022500098012F5F3F4F4F4F5F4F0E94EB136093EA
:102260009902C0921402D0921502E0921602F092E6
:1022700017028091570290915802A0915902B09193
:102280005A02A7019601281B390B4A0B5B0BDA0196
:10229000C90181379741A105B10550F0109297020D
:1022A00080915602882321F0109256020E94C206A5
:1022B00089EB92E00E940703892B09F492C0C09237
:1022C0005702D0925802E0925902F0925A0241E02D
:1022D0004093560289EB92E00E94C502209154027D
:1022E000309155022630310544F48F3F21F52F5FA0
:1022F0003F4F309355022093540220915402309165
:102300005502233031050CF46CC08F3F09F469C0CD
:102310000E942F0780910D0390910E03059780F482
:102320000E94EA06F5CF61E00E94940380911503B4
:102330000E946D03EDCE1092550210925402DDCF33
:1023400064E571E08091090390910A030E943516BB
:10235000892B41F48AE591E00E94F40685E691E03C
:102360000E94F40680910D0390910E03892BC9F011
:102370000091090310910A0368E671E0C8010E9408
:102380003516892B09F043C119A250E358A382E303
:102390008F8FCE014F960E94F40685E691E00E9451
:1023A000F40690E080E00E9401072091090330913B
:1023B0000A0381118AC12115310519F0C9010E9452
:1023C000E61410920A031092090310920E03109261
:1023D0000D0310920C0310920B03109255021092F1
:1023E00054029090990280909802992011F08820D0
:1023F00069F180919702882331F143E8A42E42E0ED
:10240000B42E5FE6E52E52E0F52E6BE5C62E62E0B7
:10241000D62E10E000E0D5016D915D01F7014191EC
:102420007F01D6012D916D01E0911103F09112030E
:102430000E171F0718F4C8010E94FC000F5F1F4F02
:102440000431110541F7811010929802B1E09B12FE
:102450000EC08091180390911903892B41F080914F
:10246000220390912303892B11F00E94B90410924A
:10247000B1021092B0021092AF021092AE022AE99D
:10248000C22E22E0D22E3DE3E32E31E0F32EF701FF
:1024900071907F01F2E6F71508F446C061E0872DE0
:1024A0000E949403872D0E946D0399E3A92E91E069
:1024B000B92E01E010E0D5012D915D01233650F5D4
:1024C00030E0F901EB5CFE4F8491F901EC5AFE4FCC
:1024D0008490F901EF57FE4F9490992009F4FFC0C2
:1024E00081110E942103E92DF0E0EE0FFF1FE95D4D
:1024F000FE4FA591B491EC918E2231E020E009F4D9
:1025000030E0832F922FF8013197EC0DFD1DB1E0E3
:102510008B2780830F5F1F4F0530110509F0CBCF4C
:1025200062E0872D0E949403E4E0CE0ED11C2E14AD
:102530003F0409F0ACCF61E081E00E94180962E03D
:1025400081E00E94180963E081E00E94180964E0BC
:1025500081E00E94180961E082E00E94180962E0AF
:1025600082E00E94180963E082E00E94180964E09A
:1025700082E00E94180961E083E00E94180962E08D
:1025800083E00E94180963E083E00E94180964E078
:1025900083E00E94180961E084E00E94180962E06B
:1025A00084E00E94180963E084E00E94180964E056
:1025B00084E00E94180961E085E00E94180962E049
:1025C00085E00E94180963E085E00E94180964E034
:1025D00085E00E94180950922C0340922B038091B1
:1025E000430381110E945E0750922A0340922903FF
:1025F0008091430381110E945E070E945E0720E0E4
:1026000030E0232B09F4DFCD0E940000DCCD6EE624
:1026100071E0C8010E943516892B09F0C2CE70E422
:10262000E72E72E0F72EECE2CE2EE2E0DE2EF8E1AD
:102630006F2EF2E07F2E5301460187010E94EA06C9
:102640008AA30E94EA068BA30E94EA06D801EAA1A7
:10265000ED938D01D401EBA1ED934D01D5018D9347
:102660005D01E4E5F2E0E017F10741F70E94EA06B8
:102670008F3F910509F095CE0E94EA068E3F9105A5
:1026800009F08FCE0E94EA068D3F910509F089CEB0
:10269000F1E0F093970283E892E0AFE6B2E04BE519
:1026A00052E0F70121917F01FC012193CF01F60156
:1026B00021916F012D93F30121913F01FA012193A3
:1026C000AF010E151F0569F76CCE10920E03109224
:1026D0000D0367E671E0C9010E943E167ECE90E0D0
:1026E00080E011CF8091090390910A03009711F0C7
:1026F0000E94E61480911803909119030E94E61439
:10270000809115039091160397FD03C060E00C942F
:1027100094030895052E97FB1EF400940E94A113C4
:1027200057FD07D00E94EB1307FC03D04EF40C9426
:10273000A11350954095309521953F4F4F4F5F4FD6
:10274000089590958095709561957F4F8F4F9F4F1D
:1027500008950E940D14A59F900DB49F900DA49F05
:10276000800D911D112408952F923F924F925F92F8
:102770006F927F928F929F92AF92BF92CF92DF9291
:10278000EF92FF920F931F93CF93DF93CDB7DEB7F6
:10279000CA1BDB0B0FB6F894DEBF0FBECDBF09948A
:1027A0002A88398848885F846E847D848C849B84E1
:1027B000AA84B984C884DF80EE80FD800C811B81EF
:1027C000AA81B981CE0FD11D0FB6F894DEBF0FBE1E
:1027D000CDBFED010895A1E21A2EAA1BBB1BFD017E
:1027E0000DC0AA1FBB1FEE1FFF1FA217B307E407F0
:1027F000F50720F0A21BB30BE40BF50B661F771F48
:10280000881F991F1A9469F7609570958095909527
:102810009B01AC01BD01CF010895A29FB001B39F00
:10282000C001A39F700D811D1124911DB29F700DD9
:10283000811D1124911D089597FB072E16F4009415
:1028400007D077FD09D00E94361407FC05D03EF46E
:10285000909581959F4F0895709561957F4F08954C
:10286000EE0FFF1F0590F491E02D0994AA1BBB1BEE
:1028700051E107C0AA1FBB1FA617B70710F0A61B80
:10288000B70B881F991F5A95A9F780959095BC01A1
:10289000CD0108950F931F93CF93DF93823091055D
:1028A00010F482E090E0E0917903F0917A0330E057
:1028B00020E0B0E0A0E0309799F42115310509F44B
:1028C0004AC0281B390B24303105D8F58A819B81F9
:1028D0006115710589F1FB0193838283FE0111C0AB
:1028E000408151810281138148175907E0F0481750
:1028F000590799F4109761F012960C93129713965A
:102900001C933296CF01DF91CF911F910F910895C3
:102910000093790310937A03F4CF2115310551F018
:102920004217530738F0A901DB019A01BD01DF010D
:10293000F801C1CFEF01F9CF90937A038093790327
:10294000CDCFFE01E20FF31F819391932250310905
:1029500039832883D7CF2091770330917803232BB5
:1029600041F42091150130911601309378032093A2
:10297000770320911301309114012115310541F4A1
:102980002DB73EB74091170150911801241B350B0C
:10299000E0917703F0917803E217F307A0F42E1B80
:1029A0003F0B2817390778F0AC014E5F5F4F2417B3
:1029B000350748F04E0F5F1F50937803409377031D
:1029C000819391939FCFF0E0E0E09CCFCF93DF9392
:1029D0000097E9F0FC01329713821282A0917903EB
:1029E000B0917A03ED0130E020E01097A1F420814E
:1029F0003181820F931F209177033091780328173C
:102A0000390709F061C0F0937803E0937703DF9111
:102A1000CF910895EA01CE17DF07E8F54A815B817F
:102A20009E0141155105B1F7E901FB83EA83499104
:102A30005991C40FD51FEC17FD0761F48081918176
:102A40000296840F951FE90199838883828193817F
:102A50009B838A83F0E0E0E012968D919C9113971E
:102A60000097B9F52D913C911197CD010296820FF7
:102A7000931F20917703309178032817390739F68F
:102A8000309751F510927A0310927903B09378033E
:102A9000A0937703BCCFD383C28340815181840F3D
:102AA000951FC817D90761F44E5F5F4F88819981E0
:102AB000480F591F518340838A819B81938382836E
:102AC0002115310509F0B0CFF0937A03E093790333
:102AD0009ECFFD01DC01C0CF13821282D7CFB0E0C0
:102AE000A0E0E5E7F5E10C94B6138C01009751F4F2
:102AF000CB010E944A148C01C801CDB7DEB7E0E1DA
:102B00000C94D213FC01E60FF71F9C0122503109EF
:102B1000E217F30708F49DC0D901CD91DC9111971C
:102B2000C617D70798F0C530D10530F3CE0104970A
:102B30008617970708F3C61BD70B2297C193D1932B
:102B40006D937C93CF010E94E614D6CF5B01AC1A43
:102B5000BD0A4C018C0E9D1EA0917903B0917A03A1
:102B6000512C412CF12CE12C109731F580917703F9
:102B7000909178038815990509F05CC046165706B0
:102B800008F058C08091130190911401009741F40E
:102B90008DB79EB74091170150911801841B950B7A
:102BA000E817F90708F055C0F0937803E09377032E
:102BB000F90171836083A0CF8D919C91119712963A
:102BC0006C90129713967C901397A815B90559F538
:102BD0006C0142E0C40ED11CCA14DB0420F1AC012C
:102BE0004A195B09DA011296159780F062827382A6
:102BF00051834083D9016D937C93E114F10471F00A
:102C0000D7011396FC93EE93129776CF22968C0FF2
:102C10009D1FF90191838083F301EFCFF0937A0335
:102C2000E093790369CF4816590608F42C017D0119
:102C3000D3019ACFCB010E944A147C01009749F03E
:102C4000AE01B8010E942C16C8010E94E61487014B
:102C500053CF10E000E050CFFB01DC0102C0019037
:102C60000D9241505040D8F70895FB01DC018D9141
:102C7000019080190110D9F3990B0895FB01DC0133
:102C800001900D920020E1F7089510E0C1EDD0E031
:102C900004C0FE010E9430142196C23DD107C9F73D
:042CA000F894FFCFD6
:102CA40000C18081000000FFFFFFFF00E100000081
:102CB40000000000007B038000131211100F0E0DA2
:102CC4000C0B0A09080706050403020100000000B2
:102CD4000089050506C705AC0506050403100A09A5
:102CE4000807000000009F02A304C002B502070306
:102CF400C502E30270726F746F0053494D48554228
:102D04005F312E30000D0A006C6564736300736CD0
:042D1400656473007F
:00000001FF
