:100000000C94E5000C940D010C940D010C940D0161
:100010000C940D010C940D010C940D010C940D0128
:100020000C940D010C940D010C945C110C94CB11EB
:100030000C940D010C940D010C940D010C940D0108
:100040000C940D010C940D010C940D010C940D01F8
:100050000C940D010C940D010C940D010C94F713EC
:100060000C940D010C940D010C940D010C940D01D8
:100070000C940D010C940D010C940D010C940D01C8
:100080000C940D010C940D010C940D010C940D01B8
:100090000C940D010C940D010C940D010C940D01A8
:1000A0000C940D010C940D010C940D010000000046
:1000B000240027002A002D0030000000000023004B
:1000C000260029002C002F00080B0002020200006D
:1000D00009040000010202000005240010010524AB
:1000E000010101042402060524060001070581031D
:1000F00010004009040100020A0000000705020286
:1001000040000007058302400000040309041201B7
:100110000002EF020140353F7A4500010102030170
:10012000417574686F72004D552D50616E656C415C
:100130007065782D583100070605040100080A0B88
:100140000C0D090000000200090F0000030401006B
:100150000C00000000000000000000000000000093
:1001600000000408020110408040102040804080C0
:10017000080204018040201002011080102040403D
:100180002000000000250028002B002E0031000474
:10019000040404040304050202020204030202022E
:1001A000020606060606060404020202040406000D
:1001B000FF0901A10185040902150026FF00750849
:1001C0009508B102C0007414E81F11241FBECFEFC0
:1001D000DAE0DEBFCDBF12E0A0E0B1E0E8ECF3E48E
:1001E00002C005900D92A434B107D9F726E0A4E42B
:1001F000B2E001C01D92AC33B207E1F710E0C4EEEB
:10020000D0E004C02197FE010E947D20C33ED107AB
:10021000C9F70E94E3160C94D7210C940000CF92EA
:10022000DF92EF92FF920F931F93CF93DF93D90149
:10023000E8016A01F9014217530714F06901FA0154
:10024000882309F440C0CB016C157D050CF4C60170
:100250009F018E179F070CF49C01A417B50734F477
:10026000CF01821B930B9C012C0D3D1D0D2C000C0E
:10027000EE08FF08032E000C440B550B2C193D090A
:100280004E095F09AEEFBFEF0E942D209F01FF0FC7
:10029000440B550B2C193D094E095F090E940E2095
:1002A000DA01C9018F5F9F47A109B109888399834A
:1002B00082E090E0DF91CF911F910F91FF90EF903E
:1002C000DF90CF90089590E080E0F4CFCF93DF935C
:1002D000E091CB05F091CC058E179F0708F05AC02E
:1002E0003091D105332361F0639FB0011124672F52
:1002F000349FA0011124452F329F90011124232FF8
:10030000E091D705A091D205B091D3053091D405E5
:10031000E31343C0FC01EE0FFF1F8E0F9F1F8A0FD8
:100320009B1FC091D405C80FD92FD11DE881E627A6
:10033000A091DC05B091DD05AE0FB11DB093DD05D8
:10034000A093DC05E091D505E80FF92FF11DE081C0
:10035000E427EA0FFB2FF11DF093DD05E093DC05A8
:10036000A091D605A80FB92FB11D3C913227E30FFC
:10037000F11DF093DD05E093DC056883E091D50580
:10038000E80FF92FF11D40833091D605830F911DA1
:10039000FC012083DF91CF910895880F991F880F6A
:1003A000991F8A0F9B1FE80FF92FF11D1082B9CFFB
:1003B000FC018091AC03882311F13FB7F89482E0EF
:1003C0008093E9002091F200822F90E01816190620
:1003D00014F481E090E0882339F0289844E64093B3
:1003E000AB034091F1004083222339F02091F200C9
:1003F000211103C02BE62093E8003FBF08958FEF43
:100400009FEF08954091990250919A02209197028E
:100410003091980242175307B4F49091E800957018
:10042000E1F39091E80092FD19C08093F100809172
:10043000990290919A0201968F739927892B19F44A
:100440008EEF8093E8008091990290919A02019634
:1004500090939A028093990281E0089580E0089534
:10046000DF92EF92FF920F931F93CF93DF93D82EDB
:100470008A01EB017B01E40EF51ECE15DF0559F074
:10048000D7FE12C0FE0184910E94020221968111C2
:10049000F4CF0FEF1FEFC801DF91CF911F910F91A4
:1004A000FF90EF90DF9008958881EECF2FB7F894FA
:1004B00087708093E9009091E800892F807295FF02
:1004C00004C09091F20080E4891B2FBF0895615011
:1004D00030F02091F100FC0120830196F8CF28989C
:1004E00084E68093AB030895AF92BF92DF92EF92C0
:1004F000FF920F931F93CF93DF935C018B01EB016E
:100500009BEFD92E2097C1F07E01C134D1051CF09C
:1005100080E4E82EF12C8091E80082FFFCCFC80136
:100520008C1B9D0B6E2D8A0D9B1D0E946702D09225
:10053000E800CE19DF09E6CFC801DF91CF911F9106
:100540000F91FF90EF90DF90BF90AF900895809152
:100550008F0281110DC082E080938B0284E0809332
:100560008C0210928E0210928D0281E080938F0295
:100570008BE892E008950F931F93CF93DF931F9220
:10058000CDB7DEB782E0898342E450E068EC70E0EA
:1005900080E80E9430020E94A702DC0112960D91B1
:1005A0001C910115110589F0D801ED91FC91028093
:1005B000F381E02DBE016F5F7F4FC801099597FD64
:1005C00004C0F80100851185ECCF89810F90DF917F
:1005D000CF911F910F910895CF93DF931F92CDB7C5
:1005E000DEB76983DC01ED91FC910280F381E02D9F
:1005F00041E050E0BE016F5F7F4F09950F90DF91A2
:10060000CF91089583E08093E9008091F2008823E0
:1006100019F08AE38093E800089583E00E9456026F
:1006200090E00895CF93DF931F92CDB7DEB7FC0122
:100630008485958597FD08C02FEF3FEF3587248788
:100640000F90DF91CF910895CE0101960E94D801BD
:10065000019719F4898190E0F3CF8FEF9FEFF0CFEE
:100660000F931F93CF93DF931F92CDB7DEB78C010B
:10067000FC018485958597FF0BC0CE0101960E94F1
:10068000D801019771F4898190E0F80195878487FA
:10069000F801848595850F90DF91CF911F910F917F
:1006A00008958FEF9FEFF1CFFC018485958597FD2D
:1006B0000BC09FB7F89482E08093E9008091F2002C
:1006C0009FBF90E0019608959FB7F89482E08093D1
:1006D000E9008091F2009FBF90E0089581508F3033
:1006E00008F047C0E82FF0E0E858FC4F0C947D205C
:1006F0009503990387038D039103B903B903B903E4
:100700009C03A203A603AA03B003B903B403809118
:1007100080008F77809380000895809180008F7D86
:10072000F9CF80918000877FF5CF84B58F7784BD26
:10073000089584B58F7DFBCF809190008F77809353
:1007400090000895809190008F7DF9CF8091900066
:10075000877FF5CF8091C0008F778093C000089588
:100760008091C0008F7DF9CF8091C200877F8093F8
:10077000C2000895CF93DF93282F30E0F901ED5B9D
:10078000FE4F8491F901EE59FE4FD491F901E157E2
:10079000FE4FC491CC2391F081110E946E03EC2F87
:1007A000F0E0EE0FFF1FEF57FE4FA591B4918FB70A
:1007B000F894EC91D095DE23DC938FBFDF91CF913D
:1007C0000895CF93DF93282F30E0F901ED5BFE4FC2
:1007D0008491F901EE59FE4FD491F901E157FE4F92
:1007E000C491CC23A1F081110E946E03EC2FF0E0A4
:1007F000EE0FFF1FE654FF4FA591B491EC91ED234E
:1008000081E090E009F480E0DF91CF91089580E0ED
:1008100090E0FACFCF93DF9390E0FC01EE59FE4FCA
:10082000249181579E4FFC0184918823C9F090E068
:10083000880F991FFC01E455FF4FA591B491FC016D
:10084000EF57FE4FC591D49161110DC09FB7F89439
:100850008C91209582238C938881282328839FBFA5
:10086000DF91CF910895623051F49FB7F8943C9195
:10087000822F809583238C93E8812E2BEFCF8FB727
:10088000F894EC912E2B2C938FBFEACF3FB7F894BE
:100890008091870290918802A0918902B0918A028A
:1008A00026B5A89B05C02F3F19F00196A11DB11DCB
:1008B0003FBFBA2FA92F982F8827BC01CD01620F07
:1008C000711D811D911D42E0660F771F881F991FC2
:1008D0004A95D1F708950F931F93CF93DF93CDB728
:1008E000DEB729970FB6F894DEBF0FBECDBF1092CA
:1008F000DD051092DC050E9446040091D805109198
:10090000D9052091DA053091DB0560177107820760
:10091000930740F46093D8057093D9058093DA0566
:100920009093DB050091D8051091D9052091DA0547
:100930003091DB05601B710B820B930B6C327140A5
:1009400081059105C0F2F8948091CD059091CE0576
:100950009A838983E091D205F091D305DF01119646
:10096000808189879091C905E091DE05F091DF05CE
:100970008091E005992309F445C09081982B9887D0
:100980009081809589238F838F818C8388E08B83EE
:1009900058856F8149853B812C8189819A8150835B
:1009A00047FD252F3A952083262F39F0441F00C09C
:1009B00000006083000000C0F2CF38E04D916083FA
:1009C0000000019761F7F093DF05E093DE054987AA
:1009D0003B832C839A83898378940E944604609396
:1009E000D8057093D9058093DA059093DB05299695
:1009F0000FB6F894DEBF0FBECDBFDF91CF911F9130
:100A00000F9108959081982B9887908180958923E4
:100A10008F838F818E8388E08D8358856F81498590
:100A20003D812E8189819A81508347FD252F00C009
:100A300000C0208300C000C000C000C000C06083B0
:100A40000000262F3A9541F0441F000000C000C06E
:100A500000C000C000C0E8CF38E04D9100C0608306
:100A600000C0019709F7F093DF05E093DE054987A1
:100A70003D832E83AFCF8F929F92AF92BF92CF9242
:100A8000DF92EF92FF924B015C010E9446046B01E2
:100A90007C010E9446046C197D098E099F09683EFD
:100AA000734081059105A8F321E0821A9108A108FD
:100AB000B10888EEC80E83E0D81EE11CF11C811439
:100AC0009104A104B10429F7FF90EF90DF90CF903B
:100AD000BF90AF909F908F9008957F928F929F923A
:100AE000AF92BF92CF92DF92EF92FF920F931F933C
:100AF000CF93DF93C82E8B017A018091AC038111D3
:100B000010C08FEF9FEFDF91CF911F910F91FF905A
:100B1000EF90DF90CF90BF90AF909F908F907F909D
:100B2000089580919D0280FF05C08091E000826061
:100B30008093E000CE2DDF2DD12C8AEFB82E8C2DA6
:100B40008770982E8C2D8072882E8C2D8074782E34
:100B50009AE3A92E209719F4DD2009F452C08C2DB8
:100B60000E94560281110AC0BA94BB2051F261E082
:100B700070E080E090E00E943B05ECCF8C171D06F2
:100B800011F00CF08C2F9FB7F8949092E90020910F
:100B9000E80025FD02C09FBFDDCF282F30E0C21B3B
:100BA000D30B882029F08150A0F01092F100FBCFE8
:100BB000F801C7FC0AC0815050F041914093F10008
:100BC000FACF44914093F10031968150D0F7020F53
:100BD000131FDD2021F0A092E800D12CDCCF809102
:100BE000E80085FD07C0A092E800DD24D39420979B
:100BF00091F2F3CF209779F6772069F2A092E8007E
:100C0000CACF5D9884E680939C02C7017CCFCF93C6
:100C1000DF93EC0180911201882331F083E00E9480
:100C20006D051816190634F081E090E09B838A83E5
:100C300080E090E0DF91CF9108952FB7F894609114
:100C400083027091840280918502909186022FBF69
:100C50000895DC01FB0188E4808389E4818384E4D6
:100C600082831D969C911D979F709F5B93831D9619
:100C70008D919C9124E0969587952A95E1F78F7048
:100C80008F5B848385E00895EF92FF920F931F930B
:100C9000CF93DF93FB012081213889F52381223214
:100CA00071F5DC0112964C912481358142171306AF
:100CB00031F58C01FC01C385D485F12CE12C209702
:100CC00091F04C815D816A817B818E81811180E808
:100CD0000E9430028F3F980759F0E80EF91E0990E4
:100CE000D881C02DECCF81E0D8011F968C93C7012D
:100CF000DF91CF911F910F91FF90EF90089590E0B9
:100D000080E0F6CFCF93DF93CDB7DEB769970FB60C
:100D1000F894DEBF0FBECDBFFC01DB018C918F5F6D
:100D20008C939E012D5F3F4F8DE0D9011D928A95D6
:100D3000E9F729E0298384E08A8391E09D8383E0B9
:100D40008E832A8721E22B879C879D879F8722E2BB
:100D5000288B27E02B8B25E02C8B8E8B20E430E03A
:100D6000388F2F8B998F82818B8395858685998B80
:100D70008A8B838180688D8B49E150E0BE016F5F73
:100D80007F4F80E00E94300269960FB6F894DEBF74
:100D90000FBECDBFDF91CF910895CF93DF938091A8
:100DA0007A02811171C081E08093480280934902E8
:100DB0002EE432E030934B0220934A0210924D020F
:100DC00010924C022FEE31E0309345022093440202
:100DD0001092500210924F02109252021092510241
:100DE000809353028093540210925502109256023F
:100DF00010925702109268021092690281EC80935F
:100E00004E020E94A702FC01818190914802482F66
:100E1000490F5527551F483051059CF5A281B381D4
:100E2000109709F524E432E0338322832081209354
:100E300046028093470280914902820F808320916D
:100E40004A02A22FB0914B028A2F821B8917C8F445
:100E500081813D91C82FD0E0C050DF4F38838F5F34
:100E60008183F2CFD90118962D913C9119972115C4
:100E70003105C1F724E432E019963C932E9318977C
:100E8000D5CF81E080937A0284E492E0DF91CF9124
:100E900008958091D2059091D305892B41F08091DE
:100EA000DC059091DD05892B11F00C946B040895FD
:100EB0000F931F9325E3FC012E9FC0012F9F900DE0
:100EC0001124E3E4E69F9001E79F300D1124820F87
:100ED000931F840F951F60E073E00E9469208C01CE
:100EE0008F3F910509F0D4F46FEF70E0681B790B28
:100EF000072E000C880B990BCB0177276627012E54
:100F0000000C220B330B322F212F102F0027602BC8
:100F1000712B822B932B1F910F9108958115924075
:100F200094F41A956FEF70E0601B710B072E000CA4
:100F3000880B990B982F872F762F6627012E000C90
:100F4000220B330BE4CF1250B801012E000C880B9A
:100F5000990BCB01772766272FEF30E0A901401BC3
:100F6000510B8A01EBCFCF93DF93D0E0C0E020E0BC
:100F700040E060E0CE010E9466012196C432D105B6
:100F8000B1F7DF91CF910C94490710929E038091A5
:100F90009F03811105C00E94B30781E080939F03E6
:100FA00008959F92AF92BF92CF92DF92EF92FF92FD
:100FB0000F931F93CF93DF93C82F962E69017A0169
:100FC00010E0409FC001419F900D1124E4E6F0E045
:100FD000BF010E94692029E1269FC001279F900D33
:100FE0001124BF010E946920B62EBB27AF2D9E2D74
:100FF0008D2D9927809FA001819F500D909F500DAE
:101000001124CA01BF010E946920269FC001279FA9
:10101000900D1124BF010E946920A62EDD24C09EE0
:10102000C001C19E900DD09E900D1124BF010E9461
:101030006920269FC001279F900D1124BF010E94A7
:101040006920162FD0E0E92CF12CEC16FD0644F0B7
:10105000212F4A2D6B2DCE010E9466012196F5CFDE
:10106000DF91CF911F910F91FF90EF90DF90CF9084
:10107000BF90AF909F9008950F931F93CF93DF93EE
:10108000D82F162F80E0C1E0C80F0D2F2FEF3FEFB4
:101090004FEF50E06C2F0E94D1078C2FCA3099F788
:1010A000D1E0DC0F012F2FEF3FEF4FEF50E06D2F1E
:1010B0008C2F0E94D107CD2FD43291F7DF91CF91A1
:1010C0001F910F9108950F93CF9380E0C1E0C80F57
:1010D00000E020E030E0A9016C2F0E94D1078C2FA6
:1010E000C432A1F7CF910F910C944907E0E2F3E0ED
:1010F0009C012B5F3F4F5191DC014D91CD01541369
:1011000005C0A217B307B9F781E0089580E00895FC
:101110000E941D066093A1027093A2028093A30215
:101120009093A40281E08093A503089510922B036D
:1011300010922A031092290310921F0310921B038E
:1011400010921A0310921E031092AD0208950F938D
:101150001F93CF93DF93D0912105D13021F480915B
:101160001F058111D3E0C0912205C13021F4809187
:1011700020058111C3E000912F050F5F109130050C
:101180001F5F0E94CD06FC018FB7F89494E094A3F2
:1011900098E095A395E596A390E597A398E590A789
:1011A00093E891A7D2A7C3A704A715A78FBFDF9184
:1011B000CF911F910F9108958F929F92AF92BF92FE
:1011C000CF92DF92EF92FF920F931F93CF93DF9313
:1011D000CDB7DEB7ADB6BEB6809130062DB73EB7FF
:1011E000281B31090FB6F8943EBF0FBE2DBF8DB737
:1011F0009EB701966C01E090FF05F12C8091FB05F4
:101200009091FC05D601FC019F01281B390B2E157E
:101210003F051CF421912D93F7CF80910006882380
:1012200059F18091F7059091F80528E097FD09C0E4
:1012300068E671E00E9469206DE270E00E9469201A
:10124000262F8091F9059091FA0568E097FD08C076
:1012500068E671E00E9469206DE270E00E946920FA
:10126000F601EE0DFF1D90E1699FB0011124262BC0
:101270002083F70131967F0186010E0D1F1D2091FD
:1012800005063091060640910306509104066091D0
:10129000E1057091E2058091010681700E940F01C5
:1012A000E80EF91E86010E0D1F1D209109063091D2
:1012B0000A0640910706509108066091E305709177
:1012C000E40580910106869581700E940F01E80E69
:1012D000F91E86010E0D1F1D20910D0630910E0680
:1012E00040910B0650910C066091E5057091E60562
:1012F0008091010682FB882780F90E940F01E80E89
:10130000F91E86010E0D1F1D209111063091120647
:1013100040910F06509110066091E7057091E80525
:101320008091010683FB882780F90E940F01E80E57
:10133000F91E86010E0D1F1D20911506309116060F
:1013400040911306509114066091E9057091EA05E9
:1013500080910106829581700E940F01E80EF91EAE
:1013600086010E0D1F1D2091190630911A0640911D
:101370001706509118066091EB057091EC0580916D
:10138000010685FB882780F90E940F01E80EF91EEF
:1013900086010E0D1F1D20911D0630911E064091E5
:1013A0001B0650911C066091EF057091F00580912D
:1013B000020681700E940F01E80EF91E86010E0DD3
:1013C0001F1D209121063091220640911F06509149
:1013D00020066091ED057091EE05809102068695DC
:1013E00081700E940F01E80EF91E86010E0D1F1D6F
:1013F000209125063091260640912306509124061F
:101400006091F1057091F2058091020682FB8827B8
:1014100080F90E940F01E80EF91E86010E0D1F1DB6
:101420002091290630912A064091270650912806DE
:101430006091F3057091F4058091020683FB882783
:1014400080F90E940F018E0D9F1D8601080F191F44
:1014500020912D0630912E0640912B0650912C069E
:101460006091F5057091F605809102068295817074
:101470000E940F010E94CD064C01409130068091E0
:101480002F0650E07A01FFEFEF1AFF0A2DB73EB7A3
:101490002E193F090FB6F8943EBF0FBE2DBF0DB7F2
:1014A0001EB70F5F1F4FEDB7FEB78183B601C801AE
:1014B00001960E94BC21F4018381A701B8018064D8
:1014C0000E946D050FB6F894BEBE0FBEADBEDF9193
:1014D000CF911F910F91FF90EF90DF90CF90BF9031
:1014E000AF909F908F9008959091FE05891708F511
:1014F000E82FE695E695E6952091FB053091FC05F1
:10150000E20FF32FF11D282F277081E090E0A0E07B
:10151000B0E004C0880F991FAA1FBB1F2A95D2F7FD
:1015200080959081892380838091FD0581110C94A1
:10153000DC080895E82FE695E695E6952091FB05F1
:101540003091FC05E20FF32FF11D282F277081E069
:1015500090E0A0E0B0E004C0880F991FAA1FBB1F55
:101560002A95D2F72081822B80838091FD058111FD
:101570000C94DC080895611102C00C94740A9091D7
:10158000FE05891710F40C949A0A08958F929F9281
:10159000AF92BF92CF92DF92EF92FF920F931F9381
:1015A0008150615070E0482F50E007E0809F90012B
:1015B0001124F901EB55FE4FE60FF71F8081F90169
:1015C000EB53FB4FE60FF71F9081C0902B05D09097
:1015D0002C05E0902D05F0902E05D901AD5CBA4F99
:1015E000A60FB71FEC91E91701F1F901E60FF71FFC
:1015F000EE0FFF1FEE0FFF1FE355FC4F8080918021
:10160000A280B38097018601081919092A093B09AC
:10161000480159011AE181169104A104B10428F08E
:10162000C082D182E282F3829C93E7E0E49F900142
:10163000E59F300D1124F901E60FF71FEE0FFF1F94
:10164000EE0FFF1FE355FC4F80809180A280B38096
:10165000C818D908EA08FB08EAE1CE16D104E1046B
:10166000F10430F02D5C3A4FF901E60FF71F90833B
:1016700097E0949F9001959F300D11242D5C3A4F77
:10168000620F731FFB0160811F910F91FF90EF901C
:10169000DF90CF90BF90AF909F908F900C94BB0A3B
:1016A000FC0101900020E9F73197AF01481B590B6D
:1016B000BC0189E795E00C940706AF92BF92DF92D8
:1016C000EF92FF920F931F93CF93DF93CDB7DEB7C7
:1016D00061970FB6F894DEBF0FBECDBFFC0142810B
:1016E000FB01248135814217130611F080E032C0DE
:1016F0007B018C01FB0191818081813AD9F5913088
:1017000031F58381833009F58281F80194A1891331
:101710001CC08983D5A04D2D50E0B8016A5D7F4F74
:10172000CE0102960E94BC2141E04D0DF701868159
:1017300097814817190611F008F0482F50E0BE01B4
:101740006F5F7F4F80E00E94300281E003C081E044
:10175000933061F661960FB6F894DEBF0FBECDBF31
:10176000DF91CF911F910F91FF90EF90DF90BF908D
:10177000AF900895813209F0B9CF9B3021F4828176
:10178000F8018787E2CF9A3021F48281F801808BBB
:10179000DCCF993009F0AACF8381833009F0A6CF3E
:1017A00066817781CB010197409708F09FCFD28067
:1017B0005801F4E1AF0EB11CC5010E9474027C0116
:1017C000181619060CF092CFF8018489D8120AC0B5
:1017D000F1E0EF1AF108A701B8016B5E7F4FC50178
:1017E0000E94C521F801D28AE38A81E01E141F04F9
:1017F0000CF080E0F801818BA8CF1F93CF93DF938B
:10180000EC01162F0E94F81F181739F0612FCE0136
:10181000DF91CF911F910C940020DF91CF911F9108
:1018200008952F923F924F925F926F927F928F9284
:101830009F92AF92BF92CF92DF92EF92FF920F935F
:101840001F93CF93DF93CDB7DEB7AD970FB6F89464
:10185000DEBF0FBECDBF2C013A8F298F1BA70AA771
:10186000CBA2ACA28C0101501109380121E0622603
:101870007AA269A2F801E15FFD4F60806DA29B0131
:10188000215031093C8F2B8FBA01615071097E8F35
:101890006D8F670171E0C71AD108F601ED5CFA4F50
:1018A0008685811104C0F801EF5CFA4F1082F801BF
:1018B000E35FFD4FE081E23108F0E251F0E0E95CE6
:1018C000FE4FE49190917B008E2F880F880F8072DD
:1018D0009F7D892B80937B00E770E064E0937C0020
:1018E00080917A00806480937A0080917A00982FAA
:1018F0009074F92E86FDF9CFA0917800809179003F
:10190000B82F80E190E09A8389838BE690E09C83F6
:101910008B8388EC90E09E838D8383E291E09887AF
:101920008F838FE791E09A8789878AED91E09C8782
:101930008B8786E392E09E878D8781E992E0988B82
:101940008F878DEE92E09A8B898B89E493E09C8B54
:101950008B8B84EA93E09E8B8D8B8FEF93E0988F37
:101960008F8BFE01319650E040E070E060E030E0A7
:1019700020E0819191918A1B9B0B97FF03C0919569
:10198000819591092115310519F0861797071CF4E7
:101990004F5F5F4FBC012F5F3F4F2C30310549F740
:1019A0008CE090E01C01241A350AD801A15DBA4FE1
:1019B000B8A3AF8F8C91082E000C990BF801EF5D46
:1019C000FA4FFDA7ECA72816390641F140912B05E7
:1019D00050912C0560912D0570912E055801AA0C8F
:1019E000BB1CAA0CBB1CF501ED5DFA4F6080718039
:1019F00082809380DB01CA0186199709A809B90979
:101A00008EA39FA3A8A7B9A785369105A105B10507
:101A100008F429C14083518362837383ACA5BDA5BB
:101A2000BC91B98F40902B0550902C0560902D05EE
:101A300070902E05B111D8C1F801EB5EFA4F1082FB
:101A4000F801E55FFA4F7F0190809920D1F0F8010D
:101A5000EE0FFF1FEE0FFF1FE35FFA4F80819181B2
:101A6000A281B38163015201A81AB90ACA0ADB0A2A
:101A7000D601C501BB24B39486399105A105B105F2
:101A800008F0B12CADA038E1C32EAC0CD12CC12C88
:101A9000BB2051F0AF8DB8A18C91082E000C990B92
:101AA00061E08C159D0509F060E08A2D0E94BB0A5B
:101AB000BFEFCB1ADB0AA394ECE0CE16D10441F7BA
:101AC000992021F0B11002C0D7011C92F801E15F0A
:101AD000FD4F8081220C331C280E311CEB8DFC8DB8
:101AE000EB53FB4F8589AB8DBC8DAD5CBA4F5596E2
:101AF0009C9155976B8D7C8D6B5E7F4F981701F194
:101B0000FB01EE0FFF1FEE0FFF1FE355FC4FC080E0
:101B1000D180E280F380530142018C189D08AE0809
:101B2000BF08750164012AE1C216D104E104F10481
:101B300038F0408251826282738255968C93559719
:101B4000660F771F660F771FFB01E355FC4F40813F
:101B500051816281738153014201841A950AA60A58
:101B6000B70AB501A4014A3151056105710518F0A4
:101B700055968C93559755966C91822D0E94BB0A71
:101B8000ED8DFE8DEB53FB4F848DAD8DBE8DAD5C29
:101B9000BA4F5C969C915C974D8D5E8D445E5F4F15
:101BA000981701F1FA01EE0FFF1FEE0FFF1FE3552B
:101BB000FC4FC080D180E280F380530142018C1839
:101BC0009D08AE08BF08750164012AE1C216D10460
:101BD000E104F10438F040825182628273825C96A3
:101BE0008C935C97440F551F440F551FFA01E35522
:101BF000FC4F4081518162817381441A550A660A03
:101C0000770A3AE1431651046104710418F05C96B6
:101C10008C935C975C966C9181E0820D0E94BB0A6C
:101C2000F801E55FFD4F1081812F0E94740A81E069
:101C3000810FAD960FB6F894DEBF0FBECDBFDF911A
:101C4000CF911F910F91FF90EF90DF90CF90BF90B9
:101C5000AF909F908F907F906F905F904F903F904C
:101C60002F900C94740A2EA13FA148A559A52531A7
:101C700031054105510508F4D1CEACA5BDA59C9117
:101C8000EAA5FBA5ED5CFA4F8681E98DFA8DEE5C45
:101C9000FA4F2081213009F04AC28130A9F180E059
:101CA000913009F420E0C22ED82E892F990F990B7C
:101CB0008C159D0539F1E12CF801E15FFD4F908015
:101CC0008E2D890D0E94740AE394E4E2EE12F8CF9F
:101CD000F801E55FFD4FE0808E2D0E94740A81E0DF
:101CE0008E0D0E94740A8BA10E94740A8CA10E941E
:101CF000740AACA5BDA5CC926C2DC201815B9F4F2F
:101D00000E94FD0B80E03DC0F601ED5CFA4F868538
:101D10008130C1F7F801EF5CFA4F80818111F2CF79
:101D2000913079F5A9A1BAA1AF5DBA4F9C919130DC
:101D300041F1D801A15EBA4F61E08C91811160E060
:101D40006C9381E08083C2018E5A9F4F0E94FD0BED
:101D5000E12CF801E15FFD4FD0808E2D8D0D0E94AA
:101D6000740AE394B4E2EB12F8CFF801E55FFD4F9B
:101D7000E0808E2D0E94740A81E08E0D0E94740A0C
:101D800081E040912B0550912C0560912D057091BB
:101D90002E05F501E95EFA4F408351836283738318
:101DA000F801EB5EFA4FAF8DB8A19C91B22DB91B33
:101DB000B083AF8DB8A12C9281111082ECA5FDA546
:101DC00080818D7FF801E55FFA4F81110BC0D5014D
:101DD000A35FBA4F4D935D936D937C93139781E00E
:101DE00080831CCE10821ACEA801415F5D4F6A012C
:101DF000598DF801513019F0543009F006C1E55FF2
:101E0000FA4F1082698D643021F4F801EB5EFA4FCD
:101E10001082D601EC908F2D8E0D0E94740AF394DF
:101E2000B4E2FB12F8CFEB8DFC8DEB53FB4F8589B1
:101E3000AB8DBC8DAD5CBA4F55969C9155976B8D13
:101E40007C8D6B5E7F4F981701F1FB01EE0FFF1F3A
:101E5000EE0FFF1FE355FC4F80809180A280B3807E
:101E6000A3019201281939094A095B0949015A015C
:101E70003AE183169104A104B10438F04082518202
:101E80006282738255968C935597660F771F660F03
:101E9000771FFB01E355FC4F4081518162817381C3
:101EA00053014201841A950AA60AB70AB501A40192
:101EB0004A3151056105710518F055968C93559777
:101EC00055966C918BA10E94BB0AED8DFE8DEB5354
:101ED000FB4F248DAD8DBE8DAD5CBA4F5C969C9151
:101EE0005C974D8D5E8D445E5F4F921701F1FA0154
:101EF000EE0FFF1FEE0FFF1FE355FC4F8080918018
:101F0000A280B380C301B201681979098A099B09CB
:101F10004B015C017AE187169104A104B10438F009
:101F200040825182628273825C962C935C97440F4C
:101F3000551F440F551FFA01E355FC4F4081518155
:101F40006281738153014201841A950AA60AB70A75
:101F5000B501A4014A3151056105710518F05C967F
:101F60002C935C975C966C918CA10E94BB0AF80143
:101F7000E55FFD4FB080298D213009F0D2C0F80116
:101F8000E15EFA4F8081882341F0E9A1FAA1EF5D7B
:101F9000FA4F8081813009F08CC0EB2CF801EB5EA8
:101FA000FA4F2081022E000C330B2115310509F464
:101FB000C5C08E2DDD24D394DE0C000F111F000F41
:101FC000111FD801A95EBA4F4D915D916D917C9121
:101FD000441A550A660A770AB2E34B1651046104A3
:101FE000710408F09AC0A9014150510944305105CB
:101FF00020F02B3F3F4F0CF06FC09091FE058917EA
:1020000010F40E949A0A8D2D14CEEB5EFA4F1082C6
:10201000F6019080892D8F0D0E94740AF394F8E1E7
:10202000FF12F8CF9801255F3A4F5901D9012C9042
:102030002220D1F0F801EE0FFF1FEE0FFF1FE35F2C
:10204000FA4F80819181A281B381A3019201281B63
:10205000390B4A0B5B0BDA01C901332433948639FF
:102060009105A105B10508F0312C38E1930EF12C52
:10207000E12C332051F0AF8DB8A18C91082E000CCB
:10208000990B61E08E159F0509F060E0892D0E9493
:10209000BB0ABFEFEB1AFB0A9394ECE0EE16F104D7
:1020A00041F7222009F4BFCE3110BDCED5011C92DC
:1020B000BACEE9A1FAA1E15DFA4FE080EE0CFF088B
:1020C000D6018C91E80EF11C8B2D0E94740A81E0E0
:1020D0008B0D0E94740A62CF0E94740A8091FE05E3
:1020E000D81660F58D2DAD960FB6F894DEBF0FBEF5
:1020F000CDBFDF91CF911F910F91FF90EF90DF90B7
:10210000CF90BF90AF909F908F907F906F905F9097
:102110004F903F902F900C949A0A10820E94740A5C
:1021200072CF8B2D0E94740A81E08B0D82CD81309D
:1021300009F0EACD52E0C52ED12CB7CDAD960FB641
:10214000F894DEBF0FBECDBFDF91CF911F910F91ED
:10215000FF90EF90DF90CF90BF90AF909F908F90C7
:102160007F906F905F904F903F902F900895BF9217
:10217000CF92DF92EF92FF920F931F93CF93DF9353
:10218000653008F08FC0C62F082F643009F07FC07B
:1021900063E081E0801B0E94B71014E0EE24E3941A
:1021A000C33009F0E12CC02FD0E0CE018F5D9A4FF3
:1021B0006C01FC018081082E000C990B1817190680
:1021C00059F481E0FE01E15EFA4F9081911101C066
:1021D00080E08E1509F466C0F12CFE01E15FFD4F31
:1021E000B0808F2D8B0D0E94740AF394F4E2FF12DD
:1021F000F8CFFE01E55FFD4FF0808F2D0E94740A3D
:1022000081E08F0D0E94740A011147C086E00E9490
:10221000740A88E00E94740AF6011083FE01E15EF0
:10222000FA4FE082FE01EB5EFA4F1082FE01E55F9D
:10223000FA4F91E0812F8D7F09F090E09083FE01AD
:10224000EE0FFF1FEE0FFF1FE35FFA4F80912B058C
:1022500090912C05A0912D05B0912E05808391833E
:10226000A283B383612FCE01805B9F4F0E94FD0B41
:102270006E2DCE018D5A9F4FDF91CF911F910F91FF
:10228000FF90EF90DF90CF90BF900C94FD0B11E08A
:10229000633009F483CF162F81CF87E00E94740A40
:1022A00089E0B8CFDF91CF911F910F91FF90EF9010
:1022B000DF90CF90BF9008951F920F920FB60F92AC
:1022C00011248F939F938091E1009091E100937F7F
:1022D0009093E10083FF0FC01092E90091E090938A
:1022E000EB001092EC0092E39093ED001092AC039F
:1022F00098E09093F00082FF22C093E09093E90071
:102300009091F200992319F09AE39093E80090914C
:102310009C02992341F090919C02915090939C02D1
:10232000911101C05D9A9091AB03992341F0909176
:10233000AB0391509093AB03911101C0289A84FF95
:1023400018C08091E2008E7E81608093E2008091CF
:10235000E1008F7E8093E10080919D028E7E8061FE
:1023600080939D029F918F910F900FBE0F901F90B1
:10237000189580FFF7CF8091E2008E7E8061809378
:10238000E2008091E1008E7E8093E10080919D02C9
:102390008E7E8160E5CF1F920F920FB60F921124AF
:1023A000CF92DF92EF92FF920F931F932F933F9361
:1023B0004F935F936F937F938F939F93AF93BF934D
:1023C000EF93FF93CF93DF93CDB7DEB76C97DEBF6C
:1023D000CDBF1092E9008091E80083FF25C068E03E
:1023E000CE0145960E94670282EF8093E8008D89B6
:1023F00087FF39C09091E80090FFFCCF982F90762E
:1024000009F034C19E894F89588D2F89F88C91111C
:1024100031C0803861F580919E028093F100109266
:10242000F1008EEF8093E8006C960FB6F894DEBF53
:102430000FBECDBFDF91CF91FF91EF91BF91AF91D3
:102440009F918F917F916F915F914F913F912F91CC
:102450001F910F91FF90EF90DF90CF900F900FBEE4
:102460000F901F9018959EEF9093E800C7CF1092A1
:10247000F100D5CF913059F48111D3CF41305105BE
:1024800081F680919E028D7F80939E02CACF933009
:1024900049F48111C6CF4130510519F680919E0251
:1024A0008260F2CF953041F48091E80080FFFCCF4C
:1024B00020682093E300B5CF963009F0A9C00B8DBA
:1024C0001C8D22E01092E90010929A02109299025B
:1024D000F2122EC010929802109297020E94BB0234
:1024E0001F8299E09983FA8291E09E8390EA98870F
:1024F0009AEF99872091990230919A02275F3F4F76
:102500003C832B838D831092E90010929A021092E3
:102510009902109398020093970249E050E0BE019F
:102520006F5F7F4F80E00E9430020E94BB0279CF34
:1025300010939802009397020E94A702DC01129662
:102540000D911C910115110509F44BC1D801ED91B4
:10255000FC910480F581E02DBE016B5E7F4FC801C8
:102560000995009709F038C1F80100851185EACF77
:10257000F3E0FF120EC08F89882309F440C0823037
:1025800061F440E86FE087E291E00E94411481111C
:1025900048CF81E28093EB0047CF813029F440E8B7
:1025A00066E080E291E0F1CF833099F70E94A702C4
:1025B000DC011296ED90FC908E010F5F1F4F6801B9
:1025C000E114F10479F0D701ED91FC910680F781D7
:1025D000E02DB801C7010995080F111DF701E0842E
:1025E000F184EECFD8011C92F60101900020E9F7AA
:1025F0003197BF016C197D0940E0C601C6CF6AE082
:1026000071E0FB01449150E080E80E94300209CF64
:10261000973009F4BECF983021F481E08093F10027
:1026200000CF993009F0FDCE837009F0B2CFE1E020
:10263000F1E081E031E096E32191222371F0809373
:10264000E9003093EB00DF0111972C912093EC000F
:102650009093ED008F5F873079F78EE78093EA00E3
:102660001092EA008F898093AC03DBCE8B8D9C8D1A
:102670001092E90010929A02109299029093980297
:1026800080939702898D81118CC08E899D89913AA2
:1026900049F4813209F07DCF47E050E06BE071E012
:1026A00080E0B3CF913209F074CF833269F48F891F
:1026B000988DB0E0A0E08093070190930801A0936B
:1026C0000901B0930A01ADCE803239F467E070E0C1
:1026D0008BE091E00E947402A4CE823209F0A1CE78
:1026E0008F8980931201EEEFFFE7859194918B3FE4
:1026F0009C4D51F1E0E0F8E080910B0190910C01CC
:10270000A0910D01B0910E01803B9440A105B1054F
:10271000F1F48091120180FD1AC0EE3F8AE0F807C3
:1027200089F587E797E791838083809160008093A4
:102730009B0288E19BE00FB6F894A8958093600017
:102740000FBE909360006DCEEEEFFAE0D5CF8081A2
:1027500091818737974709F064CEA89580916000F2
:1027600088618093600080919B0280936000EE3FBF
:102770002AE0F20789F08091FE0A9091FF0A918386
:1027800080834FCE808191818737980751F2909353
:10279000FF0A8093FE0AC5CF1092FF0A1092FE0A2C
:1027A00040CE0E94A702DC0112960D911C910115EA
:1027B000110509F4EECED801ED91FC910190F08164
:1027C000E02DBE016B5E7F4FC8010995811129CEB6
:1027D000F80100851185EBCF181619060CF421CEEF
:1027E000D8CEF1E0FF12C4CE6EE071E00ACF1F92A6
:1027F0000F920FB60F9211242F933F938F939F93B5
:10280000AF93BF938091830290918402A09185023F
:10281000B09186023091820223E0230F2D3758F5C4
:102820000196A11DB11D2093820280938302909393
:102830008402A0938502B0938602809187029091D2
:102840008802A0918902B0918A020196A11DB11D52
:102850008093870290938802A0938902B0938A02A2
:10286000BF91AF919F918F913F912F910F900FBE8C
:102870000F901F90189526E8230F0296A11DB11DF9
:10288000D2CFEF92FF920F931F93CF93DF93F82E47
:10289000192FE62E042F81E0860F880F0E94020276
:1028A00083E00E940202CF2DD12FEC0EFD2EF11CF1
:1028B000CE15DF05B9F007FF13C0FE0184910E9419
:1028C0000202182F80E00E940202812321968111CA
:1028D000EFCFDF91CF911F910F91FF90EF9008956F
:1028E0008881EDCF81E0F5CFEF92FF920F931F9398
:1028F000CF93DF93CDB7DEB7C659D1090FB6F894A1
:10290000DEBF0FBECDBF10927C0510927B0588EE16
:1029100093E0A0E0B0E080937D0590937E05A093C6
:102920007F05B093800585E192E090937A058093CE
:1029300079058FEF9FEF9093860580938505109220
:102940003206109231068EEA91E09093340680931D
:10295000330687E190E0909336068093350681E058
:10296000809337060E94CD06FC01A385B48510979D
:1029700009F0A7C181E396E09487838785859685D2
:102980002091350630913606820F931F96878587F2
:102990001092FC051092FB051092FF0510920406A0
:1029A000109203068FEF93E090930606809305063E
:1029B000109208061092070690930A068093090663
:1029C00010920C0610920B0690930E0680930D0643
:1029D0001092100610920F06909312068093110623
:1029E0001092140610921306909316068093150603
:1029F000109218061092170690931A0680931906E3
:102A000010921C0610921B0690931E0680931D06C2
:102A10001092200610921F069093220680932106A2
:102A20001092240610922306909326068093250682
:102A3000109228061092270690932A068093290662
:102A400010922C0610922B0690932E0680932D0642
:102A500043E040932F0628E52093FE0510920006E0
:102A60008FE1809301068AE08093020635E0398386
:102A700091E09A8389E08B8354E05C8361EA6D8303
:102A80009E8355E85F83488739878A8749E14B876A
:102A90009C8749E24D872E8745E14F87188A45E29A
:102AA000498B9A8BE5E7EB8B9C8B75E97D8B2E8BA5
:102AB00025E52F8B188E25E6298F1A8E51E85B8F1E
:102AC00022E02C8F3D8F9E8F8F8F98A346E1F42EAE
:102AD000F9A29AA300E80BA316E21CA3BFEFBDA3C3
:102AE000AFE7AEA3EFA3F0E1F8A779A73AA76BA7EA
:102AF0001CA68DA740E34EA78FA741E348AB89AB47
:102B000042E34AAB8BAB43E34CAB8DAB44E34EAB00
:102B10005FAB28AF40EC49AF3AAF2BAFFCAE9DAFF7
:102B20000EAF1FAF2196BFAF21972296AFAF22976E
:102B30002396EFAF23972496FFAF249725967FAF78
:102B4000259726962FAF269727966FAF279728961B
:102B50001FAE289729968FAF29979BEB2A969FAF98
:102B60002A972B968FAF2B9785EC2C968FAF2C97AF
:102B70002D965FAF2D972E962FAF2E972F964FAF96
:102B80002F9760964FAF60978FE490E00E94972058
:102B90007C018FE4FE013196D70101900D928A9558
:102BA000E1F787E090E00E9497208C01DC0111960C
:102BB0001C921E921396FC92EE9212978FE490E074
:102BC00015969C938E93149716961C920E94CD0690
:102BD000FC01A385B485109709F07EC01487038794
:102BE00085859685D80114962D913C91820F931F6F
:102BF000968785879091FE05892F8695869586957F
:102C0000977009F071C08093FF051091FF05812F27
:102C100090E00E9497209093FC058093FB0581E053
:102C200090910006911101C080E0125F810F8093A6
:102C300030061092E2051092E1051092E405109220
:102C4000E3051092E6051092E5051092E805109252
:102C5000E7051092EA051092E9051092EC05109232
:102C6000EB051092EE051092ED051092F005109212
:102C7000EF051092F2051092F1051092F4051092F2
:102C8000F3051092F6051092F5058FEF9FEF9093E4
:102C9000F8058093F7059093FA058093F90590E085
:102CA00080E02091FF052817190601F1FCF0E09162
:102CB000FB05F091FC05E80FF91F10820196F1CF9A
:102CC000DC018D919C9111970097D1F781E396E0FB
:102CD0008D939C9353CEDC018D919C91119700971D
:102CE000D1F70D931C937CCF8F5F8DCF1092CA05C7
:102CF0001092D1051092D8051092D9051092DA05DC
:102D00001092DB0581E08093D7058093D405109263
:102D1000D50592E09093D6058093C9058CE690E0A6
:102D20009093CE058093CD050E9497209093D30574
:102D30008093D205009709F43DC02CE6FC01119266
:102D40002A95E9F784E290E09093CC058093CB0537
:102D500082E090E09093D0058093CF058091CA05E2
:102D6000882339F061E082E00E940A0482E00E9438
:102D7000BA03E1E9F1E0E491F0E0EE0FFF1FEF5755
:102D8000FE4F859194919093DF058093DE05E4E6F4
:102D9000F1E0E491E093E005CA56DF4F0FB6F894F6
:102DA000DEBF0FBECDBFDF91CF911F910F91FF907E
:102DB000EF9008951092CE051092CD051092CC059B
:102DC0001092CB05C5CFCF93DF93CDB7DEB7C458F4
:102DD000D1090FB6F894DEBF0FBECDBF789484B58D
:102DE000826084BD84B5816084BD85B5826085BD07
:102DF00085B5816085BD80916E00816080936E0095
:102E00001092810080918100826080938100809186
:102E10008100816080938100809180008160809337
:102E20008000809191008260809391008091910058
:102E300081608093910080919000816080939000E8
:102E40008091C10084608093C1008091C100826044
:102E50008093C1008091C10081608093C100809106
:102E6000C30081608093C3008091C0008260809322
:102E7000C0008091C20081608093C20080917A007E
:102E8000846080937A0080917A00826080937A00D7
:102E900080917A00816080937A0080917A008068C6
:102EA00080937A001092AC0310929E0210929D02C1
:102EB0008091D70081608093D70080EA8093D8000A
:102EC00089B5806189BD89B5826089BD09B400FE7C
:102ED000FDCF61E070E080E090E00E943B058091D2
:102EE000D8008F7C80618093D8008091E000807F43
:102EF0008093E0008091E1008E7E8093E1008DE080
:102F00008093E200559A209A8FEF9FEF9093860569
:102F100080938505109204061092030688EE93E0D4
:102F200090930606809305061092200610921F06C5
:102F3000909322068093210610922806109227066D
:102F400090932A06809329064DEA53E030E020E072
:102F500090E080E0D901AB53BB4FB9016D5C7A4F73
:102F6000FD01E80FF91F1082FB01E80FF91F108225
:102F7000FC01EE0FFF1FEE0FFF1FE40FF51F108285
:102F800011821282138201968730910549F7445EBF
:102F90005F4F295F3F4F26343105D1F610922F0540
:102FA0001092150510922305109224051092250504
:102FB0001092260510921705109218051092190507
:102FC00010921A0510920D0510920E0510920F0521
:102FD0001092100510920B051092310510923005D9
:102FE00010921605109227051092280510922905B7
:102FF00010922A0510921B0510921C0510921D05B7
:1030000010921E05109211051092120510921305D0
:103010001092140510920C051092320501E0E02E7A
:1030200002E0F02E0AEF11E0D8018D918D01833678
:1030300019F062E00E940A04E016F106A9F70BE01D
:1030400012E0E1E0F2E0C158DF4FF983E883CF57A7
:10305000D040C158DF4FA881B981CF57D0408D9162
:10306000C158DF4FB983A883CF57D040833619F0BA
:1030700062E00E940A04C158DF4FE881F981CF570E
:10308000D0400E171F0729F762E08AE00E940A0469
:1030900062E082E10E940A0410E0812F0E94740A1B
:1030A0001F5F1835D1F71092210510921F0510925D
:1030B00022051092200580E590E00E94F81F8330E1
:1030C00018F0843009F080E08093210583E590E0DA
:1030D0000E94F81F91E0813009F090E090931F0565
:1030E00081E590E00E94F81F833018F0843009F0E9
:1030F00080E08093220584E590E00E94F81F91E033
:10310000813009F090E0909320050E94A7088091FB
:10311000CF059091D00597FD07C061E00E940A0499
:103120008091CF050E94BA0381E08093CA0581E0B7
:1031300090E09093DD058093DC058091A50290914D
:10314000A602A091A702B091A8020196A11DB11DEF
:103150008093A5029093A602A093A702B093A80221
:1031600000913C0610913D0620913E0630913F06AD
:10317000409140065091410660914206709143068D
:1031800081E04434FCE45F07F8E46F07F3E57F0770
:1031900009F080E08093A4030734104525453D44A1
:1031A00031F011E044345C446844734509F410E0A4
:1031B00047E450E565E57DE440933C0650933D06C9
:1031C00060933E0670933F0680939F031092A00386
:1031D0001092A1031092A2031092A3030E941D0655
:1031E0006854744F8F4F9F4F60939A0370939B0363
:1031F00080939C0390939D03112309F4F4C30E94D0
:10320000630864EF71E080E090E00E943B050E945B
:1032100063086E01B9E4CB0ED11CFE0131967F012B
:10322000F0E1AF2EB12C512C412CE696CFAEE697B3
:10323000E896DFAEE897EA96EFAEEA971F2D84E1B5
:10324000E9E1F1E0DE01AF59BF4F01900D928A959F
:10325000E1F788E1EDE2F1E0E696AFADE697E896BA
:10326000BFADE89701900D928A95E1F788E1E5E41A
:10327000F1E0EA96AFADEA97B12F01900D928A95F1
:10328000E1F7C5016CE070E00E9469201B019E011E
:103290002F593F4F4901712C612CD4018C9161E071
:1032A000680F0CE32FEF3FEF4FEF50E00E94D10784
:1032B000F401828161E0680F2FEF3FEF4FEF50E0A4
:1032C0000E94D107FFEF6F1A7F0A24E0820E911C43
:1032D0002614370411F74114510489F40FEF2FEF2E
:1032E0003FEF4FEF50E06BE08AE00E94D1072FEFF5
:1032F0003FEF4FEF50E06CE08BE00E94D107D6012A
:103300008C91B2E0CB0ED11C61E0680F0FEF2FEF74
:103310003FEF4FEF50E00E94D107F7018081F2E0CC
:10332000EF0EF11C61E0680F2FEF3FEF4FEF50E021
:103330000E94D1070E94490764E670E080E090E0B7
:103340000E943B052FEF421A520A35E0A30EB11C32
:103350004CE4A416B10409F072CF60E570E080E09F
:1033600090E00E943B0578EDE72E77E2F72E00E62D
:1033700019E0E8E2CE2ED12CC701B6010E946920E7
:103380009B01C801B6010E946920CB01B9010E94CE
:103390003C080E94490768E170E080E090E00E94EC
:1033A0003B050C5311098FEFE81AF108043C9FEF1D
:1033B000190711F70E94630860E570E080E090E073
:1033C0000E943B050E946308AFEFB0E0CF57DF4F8C
:1033D000B983A883C158D040F12CE12C84E1E9E104
:1033E000F1E0DE01AF59BF4F01900D928A95E1F7F0
:1033F00088E1EDE2F1E0DE01A75BBF4F01900D92A5
:103400008A95E1F788E1E5E4F1E0DE0111960190AB
:103410000D928A95E1F7F7013196CD57DF4FF98389
:10342000E883C358D040CF57DF4F88819981C15876
:10343000D0406CE070E00E946920EB967FAF6EAFE9
:10344000EB97FCE3F69FC001F79F900D11246FEFFF
:1034500070E00E946920162F9E01275B3F4FE9967E
:103460003FAF2EAFE997CE010196E7969FAF8EAFA3
:10347000E797DE01AF59BF4F4D016AE0262E312C90
:10348000D12CC12CE996EEADFFADE997A0809181DA
:103490003296E996FFAFEEAFE99750E040E0B70112
:1034A0008A2D0E945807EF966CAF7DAF8EAF9FAF0D
:1034B000EF97E796AEADBFADE797BC9011969C91A4
:1034C00011971296E796BFAFAEAFE79741EC50E089
:1034D000B7018B2D0E9458072B013C0161E06A0D5A
:1034E000EA960FADEA97EF962CAD3DAD4EAD5FADD0
:1034F000EF978A2D0E94D10761E06B0DEA960FAD20
:10350000EA97A30192018B2D0E94D107B5E0CB165B
:10351000D1040CF044C0F401A0804DE751E0B701A4
:103520008A2D91810E945807EF966CAF7DAF8EAFC8
:103530009FAFEF97D4011296BC90129745E052E0EE
:10354000B7018B2D13969C910E9458072B013C01CB
:1035500061E06A0D012FEF962CAD3DAD4EAD5FAD34
:10356000EF978A2D0E94D10761E06B0DA3019201B4
:103570008B2D0E94D107B2E0CB16D10484F441E830
:1035800052E0B701C1010E9458079B01AC01EA96C5
:103590000FADEA976BE06C0D822D0E94D107EFEF23
:1035A000CE1ADE0AFFEF2F1A3F0A24E0820E911C8A
:1035B000EC14FD040CF066CF0E94490764E670E04D
:1035C00080E090E00E943B05CF57DF4F88819981D2
:1035D000C158D04081509F4FCF57DF4F9983888388
:1035E000C158D040CD57DF4FE880F980C358D04054
:1035F0009CE0E916F10409F0F1CE64E670E080E0A9
:1036000090E00E943B0588E4EDE5F1E0DE011196D3
:1036100001900D928A95E1F70E946308DE011196F0
:103620007D01D12CC12CF701A190B1907F010CE359
:10363000FAE0AF16B1040CF00FEF45E151E0B6012E
:10364000C5010E9458079B01AC0161E06A0D8A2DFB
:103650000E94D1070E9449076DE270E080E090E08F
:103660000E943B052FEFC21AD20A34E2C316D104DE
:10367000D1F664EB70E080E090E00E943B05F12C15
:10368000E12CD12CC12C10E000E049EDA42EBB248C
:10369000BA9457E2852E912CC601083211050CF020
:1036A00091C1B4010E9469209B01285F3F4FC7016F
:1036B000B4010E946920685F7F4FC9010E943C08E5
:1036C0000E9449076EE170E080E090E00E943B05B7
:1036D0000F5F1F4F44E3C40ED11C87EFE80EF11CAF
:1036E00000351105C9F60E94630868EE73E080E0BA
:1036F00090E00E943B051092FD050E94DC0880E0EE
:1037000090E89093100680930F068FEF9FE79093B9
:1037100012068093110680919F029091A002866309
:1037200094609093A00280939F028F5F9F47909335
:10373000E8058093E7058091FD0581110E94DC0872
:1037400020E030E830930C0620930B068FEF9FE7C4
:1037500090930E0680930D0630930806209307067B
:1037600090930A068093090634E4432E3CE4532EDA
:1037700038E4632E33E5732E1E0198E0290E311CC8
:103780000E941D0660932B0570932C0580932D05D8
:1037900090932E058091AA038F5F8093AA030E94C5
:1037A000CD067C01DFB6F894DC0151960C9151975F
:1037B00010E00023B1F052968C915297843009F0BA
:1037C00015C153961C91183008F018E0412F50E0B5
:1037D000B7016C5E7F4FCE0101960E94BC21F701BC
:1037E000118ADFBE002389F1183079F5898185358A
:1037F00061F58A81803549F58B81883531F59C8169
:103800008FEF890F833008F58D8181508230E8F485
:103810006E81462F50E024E030E0933031F023E019
:1038200030E0923011F022E030E0241735076CF0E0
:103830002885FE01319690E0319193272E163F06A0
:10384000D9F7291302C00E94B7100E94A708C090A0
:103850002B05D0902C05E0902D05F0902E050091C1
:10386000A5021091A6022091A7023091A802809192
:10387000A9029091AA02A091AB02B091AC024601BC
:103880005701881A990AAA0ABB0A87E090E0A0E0CB
:10389000B0E0801B910BA20BB30B88159905AA050C
:1038A000BB05D8F46091990370E06F5F7F4F072EDE
:1038B000000C880B990BA90198012F5F3F4F4F4FC8
:1038C0005F4F0E94382060939903C092A902D09262
:1038D000AA02E092AB02F092AC028091A102909118
:1038E000A202A091A302B091A402C81AD90AEA0ABE
:1038F000FB0AF1E7CF16F7E1DF06E104F10460F01F
:1039000080919E03811104C08091A503882321F03A
:103910001092A5030E94C5070E941D0620912A034C
:1039200030912B03232B21F420912903222399F09A
:10393000009125031091260320912703309128033D
:10394000601B710B820B930B653671058105910528
:1039500010F00E94960801E4E02EFF24F39482E028
:10396000D82E96E3C92E23E3B22E89E795E00E9474
:103970005403892B09F40CC1EA94EE2009F408C120
:1039800089E795E00E9412038C0197FD01C10E9416
:103990001D0660932503709326038093270390935D
:1039A000280380912A0390912B03009791F5809131
:1039B00029032FEF02131DC08630B8F68F5F809366
:1039C0002903D3CF80529840B5010E9469209B0102
:1039D000245C3F4FC70188599642B5010E94692077
:1039E00061507F4F6ACE0E94B30785CE10E000E0A1
:1039F000F8CE833058F000932003F0921F0381E04B
:103A000090E090932B0380932A03AFCF1092290369
:103A1000ACCF8130910509F043C0E0911F0381E0F4
:103A20008E0F80931F03F0E0E05EFC4F0083853033
:103A300009F09BCF83E292E00E947608882369F028
:103A40000E94880889E292E00E94500B84E392E091
:103A50000E94500B0E94960888CF87E392E00E9454
:103A60007608882341F00E94880819A2C8A2BF8E58
:103A7000CE014F96E9CF8DE392E00E94760888232D
:103A800049F3A2E0B0E0B0932B03A0932A03109275
:103A90001B0310921A0310921E031092AD0265CF01
:103AA0000297C1F580911E03811105C000931D038B
:103AB000F0921E035ACF813029F400931C03D09258
:103AC0001E0353CF80911A0390911B0384329105FA
:103AD00080F420911C0330911D03FC01EA50FD4F3E
:103AE0003083FC01EE52FD4F2083FC01E255FD4F77
:103AF0000083019690931B0380931A0310921E0378
:103B0000849708F432CFE3E0F0E0F0932B03E093E6
:103B10002A03C3CF8091AD02E82FF0E0E950FE4FB9
:103B2000908109132DC08F5F8093AD02833009F01F
:103B30001CCFF0929E03E6EFF2E064E773E042ED03
:103B400052E020E533E08EEA92E01CE2812E13E0A1
:103B5000912E1191DB011D93BD01DA011D91AD0183
:103B6000D9011D939D01DC011D91CD01D4011D934F
:103B70004D01B3E0EA31FB0761F70E9488086ACF84
:103B80000E949608EFEF0E13F0CEF0922903EDCECF
:103B9000D0909903C0909F03D11017C1C1101CC1D0
:103BA0000CE320E030E04FEF50E061E080E00E9465
:103BB000D10720E03FEF4FEF50E062E081E00E944C
:103BC000D10720E030E840E050E063E082E00E946E
:103BD000D1072FEF3FEF4FEF50E065E083E00E9409
:103BE000D10722E33DEC42E350E066E085E00E942D
:103BF000D10720E035E44FEF50E067E086E00E9417
:103C0000D1072FEF3FEF4FEF50E069E087E00E94D0
:103C1000D1072FEF30E0A9016AE089E00E94D107C7
:103C20000FEF20E030E840E050E06BE08AE00E94D7
:103C3000D10720E030E04FEF50E06CE08BE00E94D5
:103C4000D10780912F058C3008F08C500CE010E0EB
:103C5000E82EF12CC8010C9720E041E560E08E15BC
:103C60009F0511F040E06FEFC8010E9466010F5FF1
:103C70001F4F0831110571F7809130058C3008F025
:103C80008C50E82EF12CC801489720E04FEF6FEFE1
:103C90008E159F0519F02FEF40E060E0C8010E94EB
:103CA00066010F5F1F4F0432110569F780919E0373
:103CB000882309F491C0F4E78F2EF3E09F2EA0E54E
:103CC000AA2EA3E0BA2EBCE2EB2EB3E0FB2E10E04E
:103CD00000E0D4016D914D01F50141915F01D701E3
:103CE0002D917D01C8010E9466010F5F1F4F0432B4
:103CF000110579F771C0B1E0DB127DC08091D2056A
:103D00009091D305892B09F476C08091DC059091C0
:103D1000DD05892B09F46FC00E946B046CC0109103
:103D200012016AE070E080E090E00E943B05809123
:103D30009E03882311F0111175C00E941D06C090CA
:103D40009A03D0909B03E0909C03F0909D036C1528
:103D50007D058E059F0508F46FC011112DC080915F
:103D6000A0039091A103A091A203B091A303892B7A
:103D70008A2B8B2B51F40E941D066093A003709335
:103D8000A1038093A2039093A3030E941D060091B8
:103D9000A0031091A1032091A2033091A303601B03
:103DA000710B820B930B6B3F71058105910508F434
:103DB00043C00E94C50740C01092A0031092A10307
:103DC0001092A2031092A30337C080919803882316
:103DD00019F0CC2009F46ACF8091980381111092D8
:103DE0009803C11008C080919E03882309F483CFF3
:103DF000DD2009F483CF8091A503882379F0809199
:103E0000A40381110BC0409240065092410660927B
:103E100042067092430681E08093A4038091A4033C
:103E200081117DCF1092A0031092A1031092A203E2
:103E30001092A30310929F031092A9031092A8035B
:103E40001092A7031092A60375ECC72E74E0D72E2C
:103E5000E1E0EE2EE2E0FE2EF70191907F01F2E626
:103E6000F91530F161E0892D0E940A04892D0E9424
:103E7000BA036AEFA62E61E0B62E01E010E0D5018C
:103E80008D915D01833658F40E94E103F80131976A
:103E9000EC0DFD1D21E0892B09F020E020830F5F50
:103EA0001F4F0830110559F762E0892D0E940A045E
:103EB000B7E0CB0ED11CC158DF4FE881F981CF5755
:103EC000D040EE16FF0641F661E081E00E94C60A8E
:103ED00062E081E00E94C60A61E082E00E94C60AB8
:103EE00062E082E00E94C60A61E083E00E94C60AA6
:103EF00062E083E00E94C60A61E086E00E94C60A92
:103F000062E086E00E94C60A8AE00E94E10321E0A6
:103F1000892B09F020E02093E80482E10E94E1036C
:103F200021E0892B09F020E02093E90488E0A82E05
:103F3000B12C96E0C92ED12CEE24E394F12C01E0B3
:103F400010E021E030E041E050E061E070E081E02D
:103F500090E00E94110C39E0A32EB12C47E0C42E52
:103F6000D12C52E0E52EF12C02E010E022E030E00E
:103F700042E050E062E070E082E090E00E94110CCC
:103F80008091A8039091A9038F5F9F479093E605C6
:103F90008093E5058091FD0581110E94DC088091E8
:103FA000A6039091A7038F5F9F479093E4058093AA
:103FB000E3058091FD0581110E94DC080E94DC0868
:103FC00080E090E0892B09F4DBCB0E940000D4CB89
:103FD0008091D2059091D3050E9433218091CF0525
:103FE0009091D00597FD03C060E00C940A040895F9
:103FF000F999FECF92BD81BDF89A992780B50895B1
:10400000262FF999FECF1FBA92BD81BD20BD0FB6F4
:10401000F894FA9AF99A0FBE01960895052E97FB27
:104020001EF400940E94252057FD07D00E943820DE
:1040300007FC03D04EF40C94252050954095309504
:1040400021953F4F4F4F5F4F089590958095709504
:1040500061957F4F8F4F9F4F08950E945A20A59FD3
:10406000900DB49F900DA49F800D911D1124089573
:10407000A1E21A2EAA1BBB1BFD010DC0AA1FBB1F6C
:10408000EE1FFF1FA217B307E407F50720F0A21BDE
:10409000B30BE40BF50B661F771F881F991F1A944B
:1040A00069F760957095809590959B01AC01BD0175
:1040B000CF010895A29FB001B39FC001A39F700DCF
:1040C000811D1124911DB29F700D811D1124911D20
:1040D000089597FB072E16F4009407D077FD09D0BA
:1040E0000E94832007FC05D03EF4909581959F4F58
:1040F0000895709561957F4F0895EE0FFF1F05900D
:10410000F491E02D0994AA1BBB1B51E107C0AA1F23
:10411000BB1FA617B70710F0A61BB70B881F991F68
:104120005A95A9F780959095BC01CD0108950F93FC
:104130001F93CF93DF938230910510F482E090E0DB
:10414000E0913A06F0913B0630E020E0B0E0A0E0DC
:10415000309799F42115310509F44AC0281B390B11
:1041600024303105D8F58A819B816115710589F16B
:10417000FB0193838283FE0111C040815181028142
:10418000138148175907E0F04817590799F4109719
:1041900061F012960C93129713961C933296CF01EE
:1041A000DF91CF911F910F91089500933A061093DC
:1041B0003B06F4CF2115310551F04217530738F073
:1041C000A901DB019A01BD01DF01F801C1CFEF01B7
:1041D000F9CF90933B0680933A06CDCFFE01E20FD4
:1041E000F31F819391932250310939832883D7CFCC
:1041F0002091380630913906232B41F42091150186
:10420000309116013093390620933806209113011E
:10421000309114012115310541F42DB73EB740917D
:10422000170150911801241B350BE0913806F091CD
:104230003906E217F307A0F42E1B3F0B28173907A6
:1042400078F0AC014E5F5F4F2417350748F04E0FF2
:104250005F1F5093390640933806819391939FCF07
:10426000F0E0E0E09CCFCF93DF930097E9F0FC0112
:10427000329713821282A0913A06B0913B06ED016B
:1042800030E020E01097A1F420813181820F931F4C
:1042900020913806309139062817390709F061C096
:1042A000F0933906E0933806DF91CF910895EA0143
:1042B000CE17DF07E8F54A815B819E014115510564
:1042C000B1F7E901FB83EA8349915991C40FD51FE6
:1042D000EC17FD0761F4808191810296840F951F90
:1042E000E90199838883828193819B838A83F0E0AB
:1042F000E0E012968D919C9113970097B9F52D915E
:104300003C911197CD010296820F931F20913806A0
:10431000309139062817390739F6309751F5109240
:104320003B0610923A06B0933906A0933806BCCFEC
:10433000D383C28340815181840F951FC817D90749
:1043400061F44E5F5F4F88819981480F591F5183F7
:1043500040838A819B81938382832115310509F0F3
:10436000B0CFF0933B06E0933A069ECFFD01DC010F
:10437000C0CF13821282D7CFFB01DC0102C00190B3
:104380000D9241505040D8F708956817790768F4A6
:10439000FB01DC01E40FF51FA40FB51F02C0029062
:1043A0000E9241505040D8F708950C94BC2110E073
:1043B000C4EED0E004C0FE010E947D202196C53EDF
:0843C000D107C9F7F894FFCF03
:1043C80000C18081000000FFFFFFFF00E100000046
:1043D80000000000004406800008000900060007ED
:1043E800000400050002000300000001000C000D9D
:1043F800000E000F00100011001200130014001529
:104408000016001700180019001A001B001C001DD8
:10441800001E001F002000210022002300110004BC
:10442800001D0008001600010022000A000D000609
:104438000019001F00000013000B001B0003000FF1
:1044480000230009001500050018000C0002001EDA
:10445800000700120021000E001A001000200014AE
:10446800001C001700000163636363630203636356
:10447800636363040563636363630607636363637A
:1044880063080963636363630A0B6363636363635A
:1044980063636363636363636363636363636363E4
:1044A8006363636363636363636363000000005D66
:1044B8000B820644062906FFFEFD08096363636351
:1044C8006307060504036363636363305613140CC0
:1044D8003200000000EC0207060D03020354031229
:1044E80003300370726F746F0053494D4855425F33
:1044F800312E30000D0A006C6564736300736C65BF
:0445080064730000D8
:00000001FF
